{
	"src/Vaults.sol": {
		"Vaults": {
			"abi": [
				{
					"inputs": [
						{
							"internalType": "contract IERC20",
							"name": "_asset",
							"type": "address"
						},
						{
							"internalType": "uint256",
							"name": "_BasisPoints",
							"type": "uint256"
						}
					],
					"stateMutability": "nonpayable",
					"type": "constructor"
				},
				{
					"inputs": [
						{
							"internalType": "address",
							"name": "target",
							"type": "address"
						}
					],
					"name": "AddressEmptyCode",
					"type": "error"
				},
				{
					"inputs": [
						{
							"internalType": "address",
							"name": "account",
							"type": "address"
						}
					],
					"name": "AddressInsufficientBalance",
					"type": "error"
				},
				{
					"inputs": [
						{
							"internalType": "address",
							"name": "spender",
							"type": "address"
						},
						{
							"internalType": "uint256",
							"name": "allowance",
							"type": "uint256"
						},
						{
							"internalType": "uint256",
							"name": "needed",
							"type": "uint256"
						}
					],
					"name": "ERC20InsufficientAllowance",
					"type": "error"
				},
				{
					"inputs": [
						{
							"internalType": "address",
							"name": "sender",
							"type": "address"
						},
						{
							"internalType": "uint256",
							"name": "balance",
							"type": "uint256"
						},
						{
							"internalType": "uint256",
							"name": "needed",
							"type": "uint256"
						}
					],
					"name": "ERC20InsufficientBalance",
					"type": "error"
				},
				{
					"inputs": [
						{
							"internalType": "address",
							"name": "approver",
							"type": "address"
						}
					],
					"name": "ERC20InvalidApprover",
					"type": "error"
				},
				{
					"inputs": [
						{
							"internalType": "address",
							"name": "receiver",
							"type": "address"
						}
					],
					"name": "ERC20InvalidReceiver",
					"type": "error"
				},
				{
					"inputs": [
						{
							"internalType": "address",
							"name": "sender",
							"type": "address"
						}
					],
					"name": "ERC20InvalidSender",
					"type": "error"
				},
				{
					"inputs": [
						{
							"internalType": "address",
							"name": "spender",
							"type": "address"
						}
					],
					"name": "ERC20InvalidSpender",
					"type": "error"
				},
				{
					"inputs": [
						{
							"internalType": "address",
							"name": "receiver",
							"type": "address"
						},
						{
							"internalType": "uint256",
							"name": "assets",
							"type": "uint256"
						},
						{
							"internalType": "uint256",
							"name": "max",
							"type": "uint256"
						}
					],
					"name": "ERC4626ExceededMaxDeposit",
					"type": "error"
				},
				{
					"inputs": [
						{
							"internalType": "address",
							"name": "receiver",
							"type": "address"
						},
						{
							"internalType": "uint256",
							"name": "shares",
							"type": "uint256"
						},
						{
							"internalType": "uint256",
							"name": "max",
							"type": "uint256"
						}
					],
					"name": "ERC4626ExceededMaxMint",
					"type": "error"
				},
				{
					"inputs": [
						{
							"internalType": "address",
							"name": "owner",
							"type": "address"
						},
						{
							"internalType": "uint256",
							"name": "shares",
							"type": "uint256"
						},
						{
							"internalType": "uint256",
							"name": "max",
							"type": "uint256"
						}
					],
					"name": "ERC4626ExceededMaxRedeem",
					"type": "error"
				},
				{
					"inputs": [
						{
							"internalType": "address",
							"name": "owner",
							"type": "address"
						},
						{
							"internalType": "uint256",
							"name": "assets",
							"type": "uint256"
						},
						{
							"internalType": "uint256",
							"name": "max",
							"type": "uint256"
						}
					],
					"name": "ERC4626ExceededMaxWithdraw",
					"type": "error"
				},
				{
					"inputs": [],
					"name": "FailedInnerCall",
					"type": "error"
				},
				{
					"inputs": [],
					"name": "MathOverflowedMulDiv",
					"type": "error"
				},
				{
					"inputs": [
						{
							"internalType": "address",
							"name": "token",
							"type": "address"
						}
					],
					"name": "SafeERC20FailedOperation",
					"type": "error"
				},
				{
					"anonymous": false,
					"inputs": [
						{
							"indexed": true,
							"internalType": "address",
							"name": "owner",
							"type": "address"
						},
						{
							"indexed": true,
							"internalType": "address",
							"name": "spender",
							"type": "address"
						},
						{
							"indexed": false,
							"internalType": "uint256",
							"name": "value",
							"type": "uint256"
						}
					],
					"name": "Approval",
					"type": "event"
				},
				{
					"anonymous": false,
					"inputs": [
						{
							"indexed": true,
							"internalType": "address",
							"name": "sender",
							"type": "address"
						},
						{
							"indexed": true,
							"internalType": "address",
							"name": "owner",
							"type": "address"
						},
						{
							"indexed": false,
							"internalType": "uint256",
							"name": "assets",
							"type": "uint256"
						},
						{
							"indexed": false,
							"internalType": "uint256",
							"name": "shares",
							"type": "uint256"
						}
					],
					"name": "Deposit",
					"type": "event"
				},
				{
					"anonymous": false,
					"inputs": [
						{
							"indexed": true,
							"internalType": "address",
							"name": "from",
							"type": "address"
						},
						{
							"indexed": true,
							"internalType": "address",
							"name": "to",
							"type": "address"
						},
						{
							"indexed": false,
							"internalType": "uint256",
							"name": "value",
							"type": "uint256"
						}
					],
					"name": "Transfer",
					"type": "event"
				},
				{
					"anonymous": false,
					"inputs": [
						{
							"indexed": true,
							"internalType": "address",
							"name": "sender",
							"type": "address"
						},
						{
							"indexed": true,
							"internalType": "address",
							"name": "receiver",
							"type": "address"
						},
						{
							"indexed": true,
							"internalType": "address",
							"name": "owner",
							"type": "address"
						},
						{
							"indexed": false,
							"internalType": "uint256",
							"name": "assets",
							"type": "uint256"
						},
						{
							"indexed": false,
							"internalType": "uint256",
							"name": "shares",
							"type": "uint256"
						}
					],
					"name": "Withdraw",
					"type": "event"
				},
				{
					"inputs": [
						{
							"internalType": "address",
							"name": "owner",
							"type": "address"
						},
						{
							"internalType": "address",
							"name": "spender",
							"type": "address"
						}
					],
					"name": "allowance",
					"outputs": [
						{
							"internalType": "uint256",
							"name": "",
							"type": "uint256"
						}
					],
					"stateMutability": "view",
					"type": "function"
				},
				{
					"inputs": [
						{
							"internalType": "address",
							"name": "spender",
							"type": "address"
						},
						{
							"internalType": "uint256",
							"name": "value",
							"type": "uint256"
						}
					],
					"name": "approve",
					"outputs": [
						{
							"internalType": "bool",
							"name": "",
							"type": "bool"
						}
					],
					"stateMutability": "nonpayable",
					"type": "function"
				},
				{
					"inputs": [],
					"name": "asset",
					"outputs": [
						{
							"internalType": "address",
							"name": "",
							"type": "address"
						}
					],
					"stateMutability": "view",
					"type": "function"
				},
				{
					"inputs": [
						{
							"internalType": "address",
							"name": "account",
							"type": "address"
						}
					],
					"name": "balanceOf",
					"outputs": [
						{
							"internalType": "uint256",
							"name": "",
							"type": "uint256"
						}
					],
					"stateMutability": "view",
					"type": "function"
				},
				{
					"inputs": [
						{
							"internalType": "uint256",
							"name": "shares",
							"type": "uint256"
						}
					],
					"name": "convertToAssets",
					"outputs": [
						{
							"internalType": "uint256",
							"name": "",
							"type": "uint256"
						}
					],
					"stateMutability": "view",
					"type": "function"
				},
				{
					"inputs": [
						{
							"internalType": "uint256",
							"name": "assets",
							"type": "uint256"
						}
					],
					"name": "convertToShares",
					"outputs": [
						{
							"internalType": "uint256",
							"name": "",
							"type": "uint256"
						}
					],
					"stateMutability": "view",
					"type": "function"
				},
				{
					"inputs": [],
					"name": "decimals",
					"outputs": [
						{
							"internalType": "uint8",
							"name": "",
							"type": "uint8"
						}
					],
					"stateMutability": "view",
					"type": "function"
				},
				{
					"inputs": [
						{
							"internalType": "uint256",
							"name": "assets",
							"type": "uint256"
						},
						{
							"internalType": "address",
							"name": "receiver",
							"type": "address"
						}
					],
					"name": "deposit",
					"outputs": [
						{
							"internalType": "uint256",
							"name": "",
							"type": "uint256"
						}
					],
					"stateMutability": "nonpayable",
					"type": "function"
				},
				{
					"inputs": [],
					"name": "entryFeeBasisPoints",
					"outputs": [
						{
							"internalType": "uint256",
							"name": "",
							"type": "uint256"
						}
					],
					"stateMutability": "view",
					"type": "function"
				},
				{
					"inputs": [
						{
							"internalType": "address",
							"name": "",
							"type": "address"
						}
					],
					"name": "maxDeposit",
					"outputs": [
						{
							"internalType": "uint256",
							"name": "",
							"type": "uint256"
						}
					],
					"stateMutability": "view",
					"type": "function"
				},
				{
					"inputs": [
						{
							"internalType": "address",
							"name": "",
							"type": "address"
						}
					],
					"name": "maxMint",
					"outputs": [
						{
							"internalType": "uint256",
							"name": "",
							"type": "uint256"
						}
					],
					"stateMutability": "view",
					"type": "function"
				},
				{
					"inputs": [
						{
							"internalType": "address",
							"name": "owner",
							"type": "address"
						}
					],
					"name": "maxRedeem",
					"outputs": [
						{
							"internalType": "uint256",
							"name": "",
							"type": "uint256"
						}
					],
					"stateMutability": "view",
					"type": "function"
				},
				{
					"inputs": [
						{
							"internalType": "address",
							"name": "owner",
							"type": "address"
						}
					],
					"name": "maxWithdraw",
					"outputs": [
						{
							"internalType": "uint256",
							"name": "",
							"type": "uint256"
						}
					],
					"stateMutability": "view",
					"type": "function"
				},
				{
					"inputs": [
						{
							"internalType": "uint256",
							"name": "shares",
							"type": "uint256"
						},
						{
							"internalType": "address",
							"name": "receiver",
							"type": "address"
						}
					],
					"name": "mint",
					"outputs": [
						{
							"internalType": "uint256",
							"name": "",
							"type": "uint256"
						}
					],
					"stateMutability": "nonpayable",
					"type": "function"
				},
				{
					"inputs": [],
					"name": "name",
					"outputs": [
						{
							"internalType": "string",
							"name": "",
							"type": "string"
						}
					],
					"stateMutability": "view",
					"type": "function"
				},
				{
					"inputs": [],
					"name": "owner",
					"outputs": [
						{
							"internalType": "address payable",
							"name": "",
							"type": "address"
						}
					],
					"stateMutability": "view",
					"type": "function"
				},
				{
					"inputs": [
						{
							"internalType": "uint256",
							"name": "assets",
							"type": "uint256"
						}
					],
					"name": "previewDeposit",
					"outputs": [
						{
							"internalType": "uint256",
							"name": "",
							"type": "uint256"
						}
					],
					"stateMutability": "view",
					"type": "function"
				},
				{
					"inputs": [
						{
							"internalType": "uint256",
							"name": "shares",
							"type": "uint256"
						}
					],
					"name": "previewMint",
					"outputs": [
						{
							"internalType": "uint256",
							"name": "",
							"type": "uint256"
						}
					],
					"stateMutability": "view",
					"type": "function"
				},
				{
					"inputs": [
						{
							"internalType": "uint256",
							"name": "shares",
							"type": "uint256"
						}
					],
					"name": "previewRedeem",
					"outputs": [
						{
							"internalType": "uint256",
							"name": "",
							"type": "uint256"
						}
					],
					"stateMutability": "view",
					"type": "function"
				},
				{
					"inputs": [
						{
							"internalType": "uint256",
							"name": "assets",
							"type": "uint256"
						}
					],
					"name": "previewWithdraw",
					"outputs": [
						{
							"internalType": "uint256",
							"name": "",
							"type": "uint256"
						}
					],
					"stateMutability": "view",
					"type": "function"
				},
				{
					"inputs": [
						{
							"internalType": "uint256",
							"name": "shares",
							"type": "uint256"
						},
						{
							"internalType": "address",
							"name": "receiver",
							"type": "address"
						},
						{
							"internalType": "address",
							"name": "owner",
							"type": "address"
						}
					],
					"name": "redeem",
					"outputs": [
						{
							"internalType": "uint256",
							"name": "",
							"type": "uint256"
						}
					],
					"stateMutability": "nonpayable",
					"type": "function"
				},
				{
					"inputs": [],
					"name": "symbol",
					"outputs": [
						{
							"internalType": "string",
							"name": "",
							"type": "string"
						}
					],
					"stateMutability": "view",
					"type": "function"
				},
				{
					"inputs": [],
					"name": "totalAssets",
					"outputs": [
						{
							"internalType": "uint256",
							"name": "",
							"type": "uint256"
						}
					],
					"stateMutability": "view",
					"type": "function"
				},
				{
					"inputs": [],
					"name": "totalSupply",
					"outputs": [
						{
							"internalType": "uint256",
							"name": "",
							"type": "uint256"
						}
					],
					"stateMutability": "view",
					"type": "function"
				},
				{
					"inputs": [
						{
							"internalType": "address",
							"name": "to",
							"type": "address"
						},
						{
							"internalType": "uint256",
							"name": "value",
							"type": "uint256"
						}
					],
					"name": "transfer",
					"outputs": [
						{
							"internalType": "bool",
							"name": "",
							"type": "bool"
						}
					],
					"stateMutability": "nonpayable",
					"type": "function"
				},
				{
					"inputs": [
						{
							"internalType": "address",
							"name": "from",
							"type": "address"
						},
						{
							"internalType": "address",
							"name": "to",
							"type": "address"
						},
						{
							"internalType": "uint256",
							"name": "value",
							"type": "uint256"
						}
					],
					"name": "transferFrom",
					"outputs": [
						{
							"internalType": "bool",
							"name": "",
							"type": "bool"
						}
					],
					"stateMutability": "nonpayable",
					"type": "function"
				},
				{
					"inputs": [
						{
							"internalType": "uint256",
							"name": "assets",
							"type": "uint256"
						},
						{
							"internalType": "address",
							"name": "receiver",
							"type": "address"
						},
						{
							"internalType": "address",
							"name": "owner",
							"type": "address"
						}
					],
					"name": "withdraw",
					"outputs": [
						{
							"internalType": "uint256",
							"name": "",
							"type": "uint256"
						}
					],
					"stateMutability": "nonpayable",
					"type": "function"
				}
			],
			"devdoc": {
				"errors": {
					"AddressEmptyCode(address)": [
						{
							"details": "There's no code at `target` (it is not a contract)."
						}
					],
					"AddressInsufficientBalance(address)": [
						{
							"details": "The ETH balance of the account is not enough to perform the operation."
						}
					],
					"ERC20InsufficientAllowance(address,uint256,uint256)": [
						{
							"details": "Indicates a failure with the `spender`’s `allowance`. Used in transfers.",
							"params": {
								"allowance": "Amount of tokens a `spender` is allowed to operate with.",
								"needed": "Minimum amount required to perform a transfer.",
								"spender": "Address that may be allowed to operate on tokens without being their owner."
							}
						}
					],
					"ERC20InsufficientBalance(address,uint256,uint256)": [
						{
							"details": "Indicates an error related to the current `balance` of a `sender`. Used in transfers.",
							"params": {
								"balance": "Current balance for the interacting account.",
								"needed": "Minimum amount required to perform a transfer.",
								"sender": "Address whose tokens are being transferred."
							}
						}
					],
					"ERC20InvalidApprover(address)": [
						{
							"details": "Indicates a failure with the `approver` of a token to be approved. Used in approvals.",
							"params": {
								"approver": "Address initiating an approval operation."
							}
						}
					],
					"ERC20InvalidReceiver(address)": [
						{
							"details": "Indicates a failure with the token `receiver`. Used in transfers.",
							"params": {
								"receiver": "Address to which tokens are being transferred."
							}
						}
					],
					"ERC20InvalidSender(address)": [
						{
							"details": "Indicates a failure with the token `sender`. Used in transfers.",
							"params": {
								"sender": "Address whose tokens are being transferred."
							}
						}
					],
					"ERC20InvalidSpender(address)": [
						{
							"details": "Indicates a failure with the `spender` to be approved. Used in approvals.",
							"params": {
								"spender": "Address that may be allowed to operate on tokens without being their owner."
							}
						}
					],
					"ERC4626ExceededMaxDeposit(address,uint256,uint256)": [
						{
							"details": "Attempted to deposit more assets than the max amount for `receiver`."
						}
					],
					"ERC4626ExceededMaxMint(address,uint256,uint256)": [
						{
							"details": "Attempted to mint more shares than the max amount for `receiver`."
						}
					],
					"ERC4626ExceededMaxRedeem(address,uint256,uint256)": [
						{
							"details": "Attempted to redeem more shares than the max amount for `receiver`."
						}
					],
					"ERC4626ExceededMaxWithdraw(address,uint256,uint256)": [
						{
							"details": "Attempted to withdraw more assets than the max amount for `receiver`."
						}
					],
					"FailedInnerCall()": [
						{
							"details": "A call to an address target failed. The target may have reverted."
						}
					],
					"MathOverflowedMulDiv()": [
						{
							"details": "Muldiv operation overflow."
						}
					],
					"SafeERC20FailedOperation(address)": [
						{
							"details": "An operation with an ERC20 token failed."
						}
					]
				},
				"events": {
					"Approval(address,address,uint256)": {
						"details": "Emitted when the allowance of a `spender` for an `owner` is set by a call to {approve}. `value` is the new allowance."
					},
					"Transfer(address,address,uint256)": {
						"details": "Emitted when `value` tokens are moved from one account (`from`) to another (`to`). Note that `value` may be zero."
					}
				},
				"kind": "dev",
				"methods": {
					"allowance(address,address)": {
						"details": "See {IERC20-allowance}."
					},
					"approve(address,uint256)": {
						"details": "See {IERC20-approve}. NOTE: If `value` is the maximum `uint256`, the allowance is not updated on `transferFrom`. This is semantically equivalent to an infinite approval. Requirements: - `spender` cannot be the zero address."
					},
					"asset()": {
						"details": "See {IERC4626-asset}. "
					},
					"balanceOf(address)": {
						"details": "See {IERC20-balanceOf}."
					},
					"convertToAssets(uint256)": {
						"details": "See {IERC4626-convertToAssets}. "
					},
					"convertToShares(uint256)": {
						"details": "See {IERC4626-convertToShares}. "
					},
					"decimals()": {
						"details": "Decimals are computed by adding the decimal offset on top of the underlying asset's decimals. This \"original\" value is cached during construction of the vault contract. If this read operation fails (e.g., the asset has not been created yet), a default of 18 is used to represent the underlying asset's decimals. See {IERC20Metadata-decimals}."
					},
					"deposit(uint256,address)": {
						"details": "See {IERC4626-deposit}. "
					},
					"maxDeposit(address)": {
						"details": "See {IERC4626-maxDeposit}. "
					},
					"maxMint(address)": {
						"details": "See {IERC4626-maxMint}. "
					},
					"maxRedeem(address)": {
						"details": "See {IERC4626-maxRedeem}. "
					},
					"maxWithdraw(address)": {
						"details": "See {IERC4626-maxWithdraw}. "
					},
					"mint(uint256,address)": {
						"details": "See {IERC4626-mint}. As opposed to {deposit}, minting is allowed even if the vault is in a state where the price of a share is zero. In this case, the shares will be minted without requiring any assets to be deposited."
					},
					"name()": {
						"details": "Returns the name of the token."
					},
					"previewDeposit(uint256)": {
						"details": "Preview taking an entry fee on deposit. See {IERC4626-previewDeposit}."
					},
					"previewMint(uint256)": {
						"details": "Preview adding an entry fee on mint. See {IERC4626-previewMint}."
					},
					"previewRedeem(uint256)": {
						"details": "Preview taking an exit fee on redeem. See {IERC4626-previewRedeem}."
					},
					"previewWithdraw(uint256)": {
						"details": "Preview adding an exit fee on withdraw. See {IERC4626-previewWithdraw}."
					},
					"redeem(uint256,address,address)": {
						"details": "See {IERC4626-redeem}. "
					},
					"symbol()": {
						"details": "Returns the symbol of the token, usually a shorter version of the name."
					},
					"totalAssets()": {
						"details": "See {IERC4626-totalAssets}. "
					},
					"totalSupply()": {
						"details": "See {IERC20-totalSupply}."
					},
					"transfer(address,uint256)": {
						"details": "See {IERC20-transfer}. Requirements: - `to` cannot be the zero address. - the caller must have a balance of at least `value`."
					},
					"transferFrom(address,address,uint256)": {
						"details": "See {IERC20-transferFrom}. Emits an {Approval} event indicating the updated allowance. This is not required by the EIP. See the note at the beginning of {ERC20}. NOTE: Does not update the allowance if the current allowance is the maximum `uint256`. Requirements: - `from` and `to` cannot be the zero address. - `from` must have a balance of at least `value`. - the caller must have allowance for ``from``'s tokens of at least `value`."
					},
					"withdraw(uint256,address,address)": {
						"details": "See {IERC4626-withdraw}. "
					}
				},
				"version": 1
			},
			"evm": {
				"assembly": "    /* \"src/Vaults.sol\":175:703  contract Vaults is ERC4626Fees {... */\n  mstore(0x40, 0xc0)\n    /* \"src/Vaults.sol\":287:473  constructor(IERC20 _asset, uint256 _BasisPoints) ERC4626(_asset) ERC20(\"Broken Man Hole\", \"vBMH\") {... */\n  callvalue\n  dup1\n  iszero\n  tag_1\n  jumpi\n  0x00\n  dup1\n  revert\ntag_1:\n  pop\n  mload(0x40)\n  sub(codesize, bytecodeSize)\n  dup1\n  bytecodeSize\n  dup4\n  codecopy\n  dup2\n  dup2\n  add\n  0x40\n  mstore\n  dup2\n  add\n  swap1\n  tag_2\n  swap2\n  swap1\n  tag_3\n  jump\t// in\ntag_2:\n    /* \"src/Vaults.sol\":344:350  _asset */\n  dup2\n    /* \"lib/openzeppelin-contracts/contracts/token/ERC20/ERC20.sol\":1896:2009  constructor(string memory name_, string memory symbol_) {... */\n  mload(0x40)\n  dup1\n  0x40\n  add\n  0x40\n  mstore\n  dup1\n  0x0f\n  dup2\n  mstore\n  0x20\n  add\n  0x42726f6b656e204d616e20486f6c650000000000000000000000000000000000\n  dup2\n  mstore\n  pop\n  mload(0x40)\n  dup1\n  0x40\n  add\n  0x40\n  mstore\n  dup1\n  0x04\n  dup2\n  mstore\n  0x20\n  add\n  0x76424d4800000000000000000000000000000000000000000000000000000000\n  dup2\n  mstore\n  pop\n    /* \"lib/openzeppelin-contracts/contracts/token/ERC20/ERC20.sol\":1970:1975  name_ */\n  dup2\n    /* \"lib/openzeppelin-contracts/contracts/token/ERC20/ERC20.sol\":1962:1967  _name */\n  0x03\n    /* \"lib/openzeppelin-contracts/contracts/token/ERC20/ERC20.sol\":1962:1975  _name = name_ */\n  swap1\n  dup2\n  tag_8\n  swap2\n  swap1\n  tag_9\n  jump\t// in\ntag_8:\n  pop\n    /* \"lib/openzeppelin-contracts/contracts/token/ERC20/ERC20.sol\":1995:2002  symbol_ */\n  dup1\n    /* \"lib/openzeppelin-contracts/contracts/token/ERC20/ERC20.sol\":1985:1992  _symbol */\n  0x04\n    /* \"lib/openzeppelin-contracts/contracts/token/ERC20/ERC20.sol\":1985:2002  _symbol = symbol_ */\n  swap1\n  dup2\n  tag_10\n  swap2\n  swap1\n  tag_9\n  jump\t// in\ntag_10:\n  pop\n    /* \"lib/openzeppelin-contracts/contracts/token/ERC20/ERC20.sol\":1896:2009  constructor(string memory name_, string memory symbol_) {... */\n  pop\n  pop\n    /* \"lib/openzeppelin-contracts/contracts/token/ERC20/extensions/ERC4626.sol\":4203:4215  bool success */\n  0x00\n    /* \"lib/openzeppelin-contracts/contracts/token/ERC20/extensions/ERC4626.sol\":4217:4236  uint8 assetDecimals */\n  dup1\n    /* \"lib/openzeppelin-contracts/contracts/token/ERC20/extensions/ERC4626.sol\":4240:4268  _tryGetAssetDecimals(asset_) */\n  tag_12\n    /* \"lib/openzeppelin-contracts/contracts/token/ERC20/extensions/ERC4626.sol\":4261:4267  asset_ */\n  dup4\n    /* \"lib/openzeppelin-contracts/contracts/token/ERC20/extensions/ERC4626.sol\":4240:4260  _tryGetAssetDecimals */\n  shl(0x20, tag_13)\n    /* \"lib/openzeppelin-contracts/contracts/token/ERC20/extensions/ERC4626.sol\":4240:4268  _tryGetAssetDecimals(asset_) */\n  0x20\n  shr\n  jump\t// in\ntag_12:\n    /* \"lib/openzeppelin-contracts/contracts/token/ERC20/extensions/ERC4626.sol\":4202:4268  (bool success, uint8 assetDecimals) = _tryGetAssetDecimals(asset_) */\n  swap2\n  pop\n  swap2\n  pop\n    /* \"lib/openzeppelin-contracts/contracts/token/ERC20/extensions/ERC4626.sol\":4300:4307  success */\n  dup2\n    /* \"lib/openzeppelin-contracts/contracts/token/ERC20/extensions/ERC4626.sol\":4300:4328  success ? assetDecimals : 18 */\n  tag_14\n  jumpi\n    /* \"lib/openzeppelin-contracts/contracts/token/ERC20/extensions/ERC4626.sol\":4326:4328  18 */\n  0x12\n    /* \"lib/openzeppelin-contracts/contracts/token/ERC20/extensions/ERC4626.sol\":4300:4328  success ? assetDecimals : 18 */\n  jump(tag_15)\ntag_14:\n    /* \"lib/openzeppelin-contracts/contracts/token/ERC20/extensions/ERC4626.sol\":4310:4323  assetDecimals */\n  dup1\n    /* \"lib/openzeppelin-contracts/contracts/token/ERC20/extensions/ERC4626.sol\":4300:4328  success ? assetDecimals : 18 */\ntag_15:\n    /* \"lib/openzeppelin-contracts/contracts/token/ERC20/extensions/ERC4626.sol\":4278:4328  _underlyingDecimals = success ? assetDecimals : 18 */\n  0xff\n  and\n  0xa0\n  dup2\n  0xff\n  and\n  dup2\n  mstore\n  pop\n  pop\n    /* \"lib/openzeppelin-contracts/contracts/token/ERC20/extensions/ERC4626.sol\":4347:4353  asset_ */\n  dup3\n    /* \"lib/openzeppelin-contracts/contracts/token/ERC20/extensions/ERC4626.sol\":4338:4353  _asset = asset_ */\n  0xffffffffffffffffffffffffffffffffffffffff\n  and\n  0x80\n  dup2\n  0xffffffffffffffffffffffffffffffffffffffff\n  and\n  dup2\n  mstore\n  pop\n  pop\n    /* \"lib/openzeppelin-contracts/contracts/token/ERC20/extensions/ERC4626.sol\":4192:4360  {... */\n  pop\n  pop\n    /* \"lib/openzeppelin-contracts/contracts/token/ERC20/extensions/ERC4626.sol\":4165:4360  constructor(IERC20 asset_) {... */\n  pop\n    /* \"src/Vaults.sol\":411:421  msg.sender */\n  caller\n    /* \"src/Vaults.sol\":395:400  owner */\n  0x05\n  0x00\n    /* \"src/Vaults.sol\":395:422  owner = payable(msg.sender) */\n  0x0100\n  exp\n  dup2\n  sload\n  dup2\n  0xffffffffffffffffffffffffffffffffffffffff\n  mul\n  not\n  and\n  swap1\n  dup4\n  0xffffffffffffffffffffffffffffffffffffffff\n  and\n  mul\n  or\n  swap1\n  sstore\n  pop\n    /* \"src/Vaults.sol\":454:466  _BasisPoints */\n  dup1\n    /* \"src/Vaults.sol\":432:451  entryFeeBasisPoints */\n  0x06\n    /* \"src/Vaults.sol\":432:466  entryFeeBasisPoints = _BasisPoints */\n  dup2\n  swap1\n  sstore\n  pop\n    /* \"src/Vaults.sol\":287:473  constructor(IERC20 _asset, uint256 _BasisPoints) ERC4626(_asset) ERC20(\"Broken Man Hole\", \"vBMH\") {... */\n  pop\n  pop\n    /* \"src/Vaults.sol\":175:703  contract Vaults is ERC4626Fees {... */\n  jump(tag_17)\n    /* \"lib/openzeppelin-contracts/contracts/token/ERC20/extensions/ERC4626.sol\":4503:5036  function _tryGetAssetDecimals(IERC20 asset_) private view returns (bool, uint8) {... */\ntag_13:\n    /* \"lib/openzeppelin-contracts/contracts/token/ERC20/extensions/ERC4626.sol\":4570:4574  bool */\n  0x00\n    /* \"lib/openzeppelin-contracts/contracts/token/ERC20/extensions/ERC4626.sol\":4576:4581  uint8 */\n  dup1\n    /* \"lib/openzeppelin-contracts/contracts/token/ERC20/extensions/ERC4626.sol\":4594:4606  bool success */\n  0x00\n    /* \"lib/openzeppelin-contracts/contracts/token/ERC20/extensions/ERC4626.sol\":4608:4636  bytes memory encodedDecimals */\n  dup1\n    /* \"lib/openzeppelin-contracts/contracts/token/ERC20/extensions/ERC4626.sol\":4648:4654  asset_ */\n  dup5\n    /* \"lib/openzeppelin-contracts/contracts/token/ERC20/extensions/ERC4626.sol\":4640:4666  address(asset_).staticcall */\n  0xffffffffffffffffffffffffffffffffffffffff\n  and\n    /* \"lib/openzeppelin-contracts/contracts/token/ERC20/extensions/ERC4626.sol\":4680:4723  abi.encodeCall(IERC20Metadata.decimals, ()) */\n  add(0x24, mload(0x40))\n  mload(0x40)\n  0x20\n  dup2\n  dup4\n  sub\n  sub\n  dup2\n  mstore\n  swap1\n  0x40\n  mstore\n  shl(0xe0, 0x313ce567)\n  0x20\n  dup3\n  add\n  dup1\n  mload\n  0xffffffffffffffffffffffffffffffffffffffffffffffffffffffff\n  dup4\n  dup2\n  dup4\n  and\n  or\n  dup4\n  mstore\n  pop\n  pop\n  pop\n  pop\n    /* \"lib/openzeppelin-contracts/contracts/token/ERC20/extensions/ERC4626.sol\":4640:4733  address(asset_).staticcall(... */\n  mload(0x40)\n  tag_19\n  swap2\n  swap1\n  tag_20\n  jump\t// in\ntag_19:\n  0x00\n  mload(0x40)\n  dup1\n  dup4\n  sub\n  dup2\n  dup6\n  gas\n  staticcall\n  swap2\n  pop\n  pop\n  returndatasize\n  dup1\n  0x00\n  dup2\n  eq\n  tag_23\n  jumpi\n  mload(0x40)\n  swap2\n  pop\n  and(add(returndatasize, 0x3f), not(0x1f))\n  dup3\n  add\n  0x40\n  mstore\n  returndatasize\n  dup3\n  mstore\n  returndatasize\n  0x00\n  0x20\n  dup5\n  add\n  returndatacopy\n  jump(tag_22)\ntag_23:\n  0x60\n  swap2\n  pop\ntag_22:\n  pop\n    /* \"lib/openzeppelin-contracts/contracts/token/ERC20/extensions/ERC4626.sol\":4593:4733  (bool success, bytes memory encodedDecimals) = address(asset_).staticcall(... */\n  swap2\n  pop\n  swap2\n  pop\n    /* \"lib/openzeppelin-contracts/contracts/token/ERC20/extensions/ERC4626.sol\":4747:4754  success */\n  dup2\n    /* \"lib/openzeppelin-contracts/contracts/token/ERC20/extensions/ERC4626.sol\":4747:4786  success && encodedDecimals.length >= 32 */\n  dup1\n  iszero\n  tag_24\n  jumpi\n  pop\n    /* \"lib/openzeppelin-contracts/contracts/token/ERC20/extensions/ERC4626.sol\":4784:4786  32 */\n  0x20\n    /* \"lib/openzeppelin-contracts/contracts/token/ERC20/extensions/ERC4626.sol\":4758:4773  encodedDecimals */\n  dup2\n    /* \"lib/openzeppelin-contracts/contracts/token/ERC20/extensions/ERC4626.sol\":4758:4780  encodedDecimals.length */\n  mload\n    /* \"lib/openzeppelin-contracts/contracts/token/ERC20/extensions/ERC4626.sol\":4758:4786  encodedDecimals.length >= 32 */\n  lt\n  iszero\n    /* \"lib/openzeppelin-contracts/contracts/token/ERC20/extensions/ERC4626.sol\":4747:4786  success && encodedDecimals.length >= 32 */\ntag_24:\n    /* \"lib/openzeppelin-contracts/contracts/token/ERC20/extensions/ERC4626.sol\":4743:5003  if (success && encodedDecimals.length >= 32) {... */\n  iszero\n  tag_25\n  jumpi\n    /* \"lib/openzeppelin-contracts/contracts/token/ERC20/extensions/ERC4626.sol\":4802:4826  uint256 returnedDecimals */\n  0x00\n    /* \"lib/openzeppelin-contracts/contracts/token/ERC20/extensions/ERC4626.sol\":4840:4855  encodedDecimals */\n  dup2\n    /* \"lib/openzeppelin-contracts/contracts/token/ERC20/extensions/ERC4626.sol\":4829:4867  abi.decode(encodedDecimals, (uint256)) */\n  dup1\n  0x20\n  add\n  swap1\n  mload\n  dup2\n  add\n  swap1\n  tag_26\n  swap2\n  swap1\n  tag_27\n  jump\t// in\ntag_26:\n    /* \"lib/openzeppelin-contracts/contracts/token/ERC20/extensions/ERC4626.sol\":4802:4867  uint256 returnedDecimals = abi.decode(encodedDecimals, (uint256)) */\n  swap1\n  pop\n    /* \"lib/openzeppelin-contracts/contracts/token/ERC20/extensions/ERC4626.sol\":4905:4920  type(uint8).max */\n  0xff\n    /* \"lib/openzeppelin-contracts/contracts/token/ERC20/extensions/ERC4626.sol\":4885:4920  returnedDecimals <= type(uint8).max */\n  dup1\n  and\n    /* \"lib/openzeppelin-contracts/contracts/token/ERC20/extensions/ERC4626.sol\":4885:4901  returnedDecimals */\n  dup2\n    /* \"lib/openzeppelin-contracts/contracts/token/ERC20/extensions/ERC4626.sol\":4885:4920  returnedDecimals <= type(uint8).max */\n  gt\n    /* \"lib/openzeppelin-contracts/contracts/token/ERC20/extensions/ERC4626.sol\":4881:4993  if (returnedDecimals <= type(uint8).max) {... */\n  tag_28\n  jumpi\n    /* \"lib/openzeppelin-contracts/contracts/token/ERC20/extensions/ERC4626.sol\":4948:4952  true */\n  0x01\n    /* \"lib/openzeppelin-contracts/contracts/token/ERC20/extensions/ERC4626.sol\":4960:4976  returnedDecimals */\n  dup2\n    /* \"lib/openzeppelin-contracts/contracts/token/ERC20/extensions/ERC4626.sol\":4940:4978  return (true, uint8(returnedDecimals)) */\n  swap5\n  pop\n  swap5\n  pop\n  pop\n  pop\n  pop\n  jump(tag_18)\n    /* \"lib/openzeppelin-contracts/contracts/token/ERC20/extensions/ERC4626.sol\":4881:4993  if (returnedDecimals <= type(uint8).max) {... */\ntag_28:\n    /* \"lib/openzeppelin-contracts/contracts/token/ERC20/extensions/ERC4626.sol\":4788:5003  {... */\n  pop\n    /* \"lib/openzeppelin-contracts/contracts/token/ERC20/extensions/ERC4626.sol\":4743:5003  if (success && encodedDecimals.length >= 32) {... */\ntag_25:\n    /* \"lib/openzeppelin-contracts/contracts/token/ERC20/extensions/ERC4626.sol\":5020:5025  false */\n  0x00\n    /* \"lib/openzeppelin-contracts/contracts/token/ERC20/extensions/ERC4626.sol\":5027:5028  0 */\n  dup1\n    /* \"lib/openzeppelin-contracts/contracts/token/ERC20/extensions/ERC4626.sol\":5012:5029  return (false, 0) */\n  swap4\n  pop\n  swap4\n  pop\n  pop\n  pop\n    /* \"lib/openzeppelin-contracts/contracts/token/ERC20/extensions/ERC4626.sol\":4503:5036  function _tryGetAssetDecimals(IERC20 asset_) private view returns (bool, uint8) {... */\ntag_18:\n  swap2\n  pop\n  swap2\n  jump\t// out\n    /* \"#utility.yul\":88:205   */\ntag_30:\n    /* \"#utility.yul\":197:198   */\n  0x00\n    /* \"#utility.yul\":194:195   */\n  dup1\n    /* \"#utility.yul\":187:199   */\n  revert\n    /* \"#utility.yul\":334:460   */\ntag_32:\n    /* \"#utility.yul\":371:378   */\n  0x00\n    /* \"#utility.yul\":411:453   */\n  0xffffffffffffffffffffffffffffffffffffffff\n    /* \"#utility.yul\":404:409   */\n  dup3\n    /* \"#utility.yul\":400:454   */\n  and\n    /* \"#utility.yul\":389:454   */\n  swap1\n  pop\n    /* \"#utility.yul\":334:460   */\n  swap2\n  swap1\n  pop\n  jump\t// out\n    /* \"#utility.yul\":466:562   */\ntag_33:\n    /* \"#utility.yul\":503:510   */\n  0x00\n    /* \"#utility.yul\":532:556   */\n  tag_69\n    /* \"#utility.yul\":550:555   */\n  dup3\n    /* \"#utility.yul\":532:556   */\n  tag_32\n  jump\t// in\ntag_69:\n    /* \"#utility.yul\":521:556   */\n  swap1\n  pop\n    /* \"#utility.yul\":466:562   */\n  swap2\n  swap1\n  pop\n  jump\t// out\n    /* \"#utility.yul\":568:679   */\ntag_34:\n    /* \"#utility.yul\":620:627   */\n  0x00\n    /* \"#utility.yul\":649:673   */\n  tag_71\n    /* \"#utility.yul\":667:672   */\n  dup3\n    /* \"#utility.yul\":649:673   */\n  tag_33\n  jump\t// in\ntag_71:\n    /* \"#utility.yul\":638:673   */\n  swap1\n  pop\n    /* \"#utility.yul\":568:679   */\n  swap2\n  swap1\n  pop\n  jump\t// out\n    /* \"#utility.yul\":685:837   */\ntag_35:\n    /* \"#utility.yul\":773:812   */\n  tag_73\n    /* \"#utility.yul\":806:811   */\n  dup2\n    /* \"#utility.yul\":773:812   */\n  tag_34\n  jump\t// in\ntag_73:\n    /* \"#utility.yul\":766:771   */\n  dup2\n    /* \"#utility.yul\":763:813   */\n  eq\n    /* \"#utility.yul\":753:831   */\n  tag_74\n  jumpi\n    /* \"#utility.yul\":827:828   */\n  0x00\n    /* \"#utility.yul\":824:825   */\n  dup1\n    /* \"#utility.yul\":817:829   */\n  revert\n    /* \"#utility.yul\":753:831   */\ntag_74:\n    /* \"#utility.yul\":685:837   */\n  pop\n  jump\t// out\n    /* \"#utility.yul\":843:1016   */\ntag_36:\n    /* \"#utility.yul\":915:920   */\n  0x00\n    /* \"#utility.yul\":946:952   */\n  dup2\n    /* \"#utility.yul\":940:953   */\n  mload\n    /* \"#utility.yul\":931:953   */\n  swap1\n  pop\n    /* \"#utility.yul\":962:1010   */\n  tag_76\n    /* \"#utility.yul\":1004:1009   */\n  dup2\n    /* \"#utility.yul\":962:1010   */\n  tag_35\n  jump\t// in\ntag_76:\n    /* \"#utility.yul\":843:1016   */\n  swap3\n  swap2\n  pop\n  pop\n  jump\t// out\n    /* \"#utility.yul\":1022:1099   */\ntag_37:\n    /* \"#utility.yul\":1059:1066   */\n  0x00\n    /* \"#utility.yul\":1088:1093   */\n  dup2\n    /* \"#utility.yul\":1077:1093   */\n  swap1\n  pop\n    /* \"#utility.yul\":1022:1099   */\n  swap2\n  swap1\n  pop\n  jump\t// out\n    /* \"#utility.yul\":1105:1227   */\ntag_38:\n    /* \"#utility.yul\":1178:1202   */\n  tag_79\n    /* \"#utility.yul\":1196:1201   */\n  dup2\n    /* \"#utility.yul\":1178:1202   */\n  tag_37\n  jump\t// in\ntag_79:\n    /* \"#utility.yul\":1171:1176   */\n  dup2\n    /* \"#utility.yul\":1168:1203   */\n  eq\n    /* \"#utility.yul\":1158:1221   */\n  tag_80\n  jumpi\n    /* \"#utility.yul\":1217:1218   */\n  0x00\n    /* \"#utility.yul\":1214:1215   */\n  dup1\n    /* \"#utility.yul\":1207:1219   */\n  revert\n    /* \"#utility.yul\":1158:1221   */\ntag_80:\n    /* \"#utility.yul\":1105:1227   */\n  pop\n  jump\t// out\n    /* \"#utility.yul\":1233:1376   */\ntag_39:\n    /* \"#utility.yul\":1290:1295   */\n  0x00\n    /* \"#utility.yul\":1321:1327   */\n  dup2\n    /* \"#utility.yul\":1315:1328   */\n  mload\n    /* \"#utility.yul\":1306:1328   */\n  swap1\n  pop\n    /* \"#utility.yul\":1337:1370   */\n  tag_82\n    /* \"#utility.yul\":1364:1369   */\n  dup2\n    /* \"#utility.yul\":1337:1370   */\n  tag_38\n  jump\t// in\ntag_82:\n    /* \"#utility.yul\":1233:1376   */\n  swap3\n  swap2\n  pop\n  pop\n  jump\t// out\n    /* \"#utility.yul\":1382:1919   */\ntag_3:\n    /* \"#utility.yul\":1476:1482   */\n  0x00\n    /* \"#utility.yul\":1484:1490   */\n  dup1\n    /* \"#utility.yul\":1533:1535   */\n  0x40\n    /* \"#utility.yul\":1521:1530   */\n  dup4\n    /* \"#utility.yul\":1512:1519   */\n  dup6\n    /* \"#utility.yul\":1508:1531   */\n  sub\n    /* \"#utility.yul\":1504:1536   */\n  slt\n    /* \"#utility.yul\":1501:1620   */\n  iszero\n  tag_84\n  jumpi\n    /* \"#utility.yul\":1539:1618   */\n  tag_85\n  tag_30\n  jump\t// in\ntag_85:\n    /* \"#utility.yul\":1501:1620   */\ntag_84:\n    /* \"#utility.yul\":1659:1660   */\n  0x00\n    /* \"#utility.yul\":1684:1763   */\n  tag_86\n    /* \"#utility.yul\":1755:1762   */\n  dup6\n    /* \"#utility.yul\":1746:1752   */\n  dup3\n    /* \"#utility.yul\":1735:1744   */\n  dup7\n    /* \"#utility.yul\":1731:1753   */\n  add\n    /* \"#utility.yul\":1684:1763   */\n  tag_36\n  jump\t// in\ntag_86:\n    /* \"#utility.yul\":1674:1763   */\n  swap3\n  pop\n    /* \"#utility.yul\":1630:1773   */\n  pop\n    /* \"#utility.yul\":1812:1814   */\n  0x20\n    /* \"#utility.yul\":1838:1902   */\n  tag_87\n    /* \"#utility.yul\":1894:1901   */\n  dup6\n    /* \"#utility.yul\":1885:1891   */\n  dup3\n    /* \"#utility.yul\":1874:1883   */\n  dup7\n    /* \"#utility.yul\":1870:1892   */\n  add\n    /* \"#utility.yul\":1838:1902   */\n  tag_39\n  jump\t// in\ntag_87:\n    /* \"#utility.yul\":1828:1902   */\n  swap2\n  pop\n    /* \"#utility.yul\":1783:1912   */\n  pop\n    /* \"#utility.yul\":1382:1919   */\n  swap3\n  pop\n  swap3\n  swap1\n  pop\n  jump\t// out\n    /* \"#utility.yul\":1925:2024   */\ntag_40:\n    /* \"#utility.yul\":1977:1983   */\n  0x00\n    /* \"#utility.yul\":2011:2016   */\n  dup2\n    /* \"#utility.yul\":2005:2017   */\n  mload\n    /* \"#utility.yul\":1995:2017   */\n  swap1\n  pop\n    /* \"#utility.yul\":1925:2024   */\n  swap2\n  swap1\n  pop\n  jump\t// out\n    /* \"#utility.yul\":2030:2210   */\ntag_41:\n    /* \"#utility.yul\":2078:2155   */\n  0x4e487b7100000000000000000000000000000000000000000000000000000000\n    /* \"#utility.yul\":2075:2076   */\n  0x00\n    /* \"#utility.yul\":2068:2156   */\n  mstore\n    /* \"#utility.yul\":2175:2179   */\n  0x41\n    /* \"#utility.yul\":2172:2173   */\n  0x04\n    /* \"#utility.yul\":2165:2180   */\n  mstore\n    /* \"#utility.yul\":2199:2203   */\n  0x24\n    /* \"#utility.yul\":2196:2197   */\n  0x00\n    /* \"#utility.yul\":2189:2204   */\n  revert\n    /* \"#utility.yul\":2216:2396   */\ntag_42:\n    /* \"#utility.yul\":2264:2341   */\n  0x4e487b7100000000000000000000000000000000000000000000000000000000\n    /* \"#utility.yul\":2261:2262   */\n  0x00\n    /* \"#utility.yul\":2254:2342   */\n  mstore\n    /* \"#utility.yul\":2361:2365   */\n  0x22\n    /* \"#utility.yul\":2358:2359   */\n  0x04\n    /* \"#utility.yul\":2351:2366   */\n  mstore\n    /* \"#utility.yul\":2385:2389   */\n  0x24\n    /* \"#utility.yul\":2382:2383   */\n  0x00\n    /* \"#utility.yul\":2375:2390   */\n  revert\n    /* \"#utility.yul\":2402:2722   */\ntag_43:\n    /* \"#utility.yul\":2446:2452   */\n  0x00\n    /* \"#utility.yul\":2483:2484   */\n  0x02\n    /* \"#utility.yul\":2477:2481   */\n  dup3\n    /* \"#utility.yul\":2473:2485   */\n  div\n    /* \"#utility.yul\":2463:2485   */\n  swap1\n  pop\n    /* \"#utility.yul\":2530:2531   */\n  0x01\n    /* \"#utility.yul\":2524:2528   */\n  dup3\n    /* \"#utility.yul\":2520:2532   */\n  and\n    /* \"#utility.yul\":2551:2569   */\n  dup1\n    /* \"#utility.yul\":2541:2622   */\n  tag_92\n  jumpi\n    /* \"#utility.yul\":2607:2611   */\n  0x7f\n    /* \"#utility.yul\":2599:2605   */\n  dup3\n    /* \"#utility.yul\":2595:2612   */\n  and\n    /* \"#utility.yul\":2585:2612   */\n  swap2\n  pop\n    /* \"#utility.yul\":2541:2622   */\ntag_92:\n    /* \"#utility.yul\":2669:2671   */\n  0x20\n    /* \"#utility.yul\":2661:2667   */\n  dup3\n    /* \"#utility.yul\":2658:2672   */\n  lt\n    /* \"#utility.yul\":2638:2656   */\n  dup2\n    /* \"#utility.yul\":2635:2673   */\n  sub\n    /* \"#utility.yul\":2632:2716   */\n  tag_93\n  jumpi\n    /* \"#utility.yul\":2688:2706   */\n  tag_94\n  tag_42\n  jump\t// in\ntag_94:\n    /* \"#utility.yul\":2632:2716   */\ntag_93:\n    /* \"#utility.yul\":2453:2722   */\n  pop\n    /* \"#utility.yul\":2402:2722   */\n  swap2\n  swap1\n  pop\n  jump\t// out\n    /* \"#utility.yul\":2728:2869   */\ntag_44:\n    /* \"#utility.yul\":2777:2781   */\n  0x00\n    /* \"#utility.yul\":2800:2803   */\n  dup2\n    /* \"#utility.yul\":2792:2803   */\n  swap1\n  pop\n    /* \"#utility.yul\":2823:2826   */\n  dup2\n    /* \"#utility.yul\":2820:2821   */\n  0x00\n    /* \"#utility.yul\":2813:2827   */\n  mstore\n    /* \"#utility.yul\":2857:2861   */\n  0x20\n    /* \"#utility.yul\":2854:2855   */\n  0x00\n    /* \"#utility.yul\":2844:2862   */\n  keccak256\n    /* \"#utility.yul\":2836:2862   */\n  swap1\n  pop\n    /* \"#utility.yul\":2728:2869   */\n  swap2\n  swap1\n  pop\n  jump\t// out\n    /* \"#utility.yul\":2875:2968   */\ntag_45:\n    /* \"#utility.yul\":2912:2918   */\n  0x00\n    /* \"#utility.yul\":2959:2961   */\n  0x20\n    /* \"#utility.yul\":2954:2956   */\n  0x1f\n    /* \"#utility.yul\":2947:2952   */\n  dup4\n    /* \"#utility.yul\":2943:2957   */\n  add\n    /* \"#utility.yul\":2939:2962   */\n  div\n    /* \"#utility.yul\":2929:2962   */\n  swap1\n  pop\n    /* \"#utility.yul\":2875:2968   */\n  swap2\n  swap1\n  pop\n  jump\t// out\n    /* \"#utility.yul\":2974:3081   */\ntag_46:\n    /* \"#utility.yul\":3018:3026   */\n  0x00\n    /* \"#utility.yul\":3068:3073   */\n  dup3\n    /* \"#utility.yul\":3062:3066   */\n  dup3\n    /* \"#utility.yul\":3058:3074   */\n  shl\n    /* \"#utility.yul\":3037:3074   */\n  swap1\n  pop\n    /* \"#utility.yul\":2974:3081   */\n  swap3\n  swap2\n  pop\n  pop\n  jump\t// out\n    /* \"#utility.yul\":3087:3480   */\ntag_47:\n    /* \"#utility.yul\":3156:3162   */\n  0x00\n    /* \"#utility.yul\":3206:3207   */\n  0x08\n    /* \"#utility.yul\":3194:3204   */\n  dup4\n    /* \"#utility.yul\":3190:3208   */\n  mul\n    /* \"#utility.yul\":3229:3326   */\n  tag_99\n    /* \"#utility.yul\":3259:3325   */\n  0xffffffffffffffffffffffffffffffffffffffffffffffffffffffffffffffff\n    /* \"#utility.yul\":3248:3257   */\n  dup3\n    /* \"#utility.yul\":3229:3326   */\n  tag_46\n  jump\t// in\ntag_99:\n    /* \"#utility.yul\":3347:3386   */\n  tag_100\n    /* \"#utility.yul\":3377:3385   */\n  dup7\n    /* \"#utility.yul\":3366:3375   */\n  dup4\n    /* \"#utility.yul\":3347:3386   */\n  tag_46\n  jump\t// in\ntag_100:\n    /* \"#utility.yul\":3335:3386   */\n  swap6\n  pop\n    /* \"#utility.yul\":3419:3423   */\n  dup1\n    /* \"#utility.yul\":3415:3424   */\n  not\n    /* \"#utility.yul\":3408:3413   */\n  dup5\n    /* \"#utility.yul\":3404:3425   */\n  and\n    /* \"#utility.yul\":3395:3425   */\n  swap4\n  pop\n    /* \"#utility.yul\":3468:3472   */\n  dup1\n    /* \"#utility.yul\":3458:3466   */\n  dup7\n    /* \"#utility.yul\":3454:3473   */\n  and\n    /* \"#utility.yul\":3447:3452   */\n  dup5\n    /* \"#utility.yul\":3444:3474   */\n  or\n    /* \"#utility.yul\":3434:3474   */\n  swap3\n  pop\n    /* \"#utility.yul\":3163:3480   */\n  pop\n  pop\n    /* \"#utility.yul\":3087:3480   */\n  swap4\n  swap3\n  pop\n  pop\n  pop\n  jump\t// out\n    /* \"#utility.yul\":3486:3546   */\ntag_48:\n    /* \"#utility.yul\":3514:3517   */\n  0x00\n    /* \"#utility.yul\":3535:3540   */\n  dup2\n    /* \"#utility.yul\":3528:3540   */\n  swap1\n  pop\n    /* \"#utility.yul\":3486:3546   */\n  swap2\n  swap1\n  pop\n  jump\t// out\n    /* \"#utility.yul\":3552:3694   */\ntag_49:\n    /* \"#utility.yul\":3602:3611   */\n  0x00\n    /* \"#utility.yul\":3635:3688   */\n  tag_103\n    /* \"#utility.yul\":3653:3687   */\n  tag_104\n    /* \"#utility.yul\":3662:3686   */\n  tag_105\n    /* \"#utility.yul\":3680:3685   */\n  dup5\n    /* \"#utility.yul\":3662:3686   */\n  tag_37\n  jump\t// in\ntag_105:\n    /* \"#utility.yul\":3653:3687   */\n  tag_48\n  jump\t// in\ntag_104:\n    /* \"#utility.yul\":3635:3688   */\n  tag_37\n  jump\t// in\ntag_103:\n    /* \"#utility.yul\":3622:3688   */\n  swap1\n  pop\n    /* \"#utility.yul\":3552:3694   */\n  swap2\n  swap1\n  pop\n  jump\t// out\n    /* \"#utility.yul\":3700:3775   */\ntag_50:\n    /* \"#utility.yul\":3743:3746   */\n  0x00\n    /* \"#utility.yul\":3764:3769   */\n  dup2\n    /* \"#utility.yul\":3757:3769   */\n  swap1\n  pop\n    /* \"#utility.yul\":3700:3775   */\n  swap2\n  swap1\n  pop\n  jump\t// out\n    /* \"#utility.yul\":3781:4050   */\ntag_51:\n    /* \"#utility.yul\":3891:3930   */\n  tag_108\n    /* \"#utility.yul\":3922:3929   */\n  dup4\n    /* \"#utility.yul\":3891:3930   */\n  tag_49\n  jump\t// in\ntag_108:\n    /* \"#utility.yul\":3952:4043   */\n  tag_109\n    /* \"#utility.yul\":4001:4042   */\n  tag_110\n    /* \"#utility.yul\":4025:4041   */\n  dup3\n    /* \"#utility.yul\":4001:4042   */\n  tag_50\n  jump\t// in\ntag_110:\n    /* \"#utility.yul\":3993:3999   */\n  dup5\n    /* \"#utility.yul\":3986:3990   */\n  dup5\n    /* \"#utility.yul\":3980:3991   */\n  sload\n    /* \"#utility.yul\":3952:4043   */\n  tag_47\n  jump\t// in\ntag_109:\n    /* \"#utility.yul\":3946:3950   */\n  dup3\n    /* \"#utility.yul\":3939:4044   */\n  sstore\n    /* \"#utility.yul\":3857:4050   */\n  pop\n    /* \"#utility.yul\":3781:4050   */\n  pop\n  pop\n  pop\n  jump\t// out\n    /* \"#utility.yul\":4056:4129   */\ntag_52:\n    /* \"#utility.yul\":4101:4104   */\n  0x00\n    /* \"#utility.yul\":4056:4129   */\n  swap1\n  jump\t// out\n    /* \"#utility.yul\":4135:4324   */\ntag_53:\n    /* \"#utility.yul\":4212:4244   */\n  tag_113\n  tag_52\n  jump\t// in\ntag_113:\n    /* \"#utility.yul\":4253:4318   */\n  tag_114\n    /* \"#utility.yul\":4311:4317   */\n  dup2\n    /* \"#utility.yul\":4303:4309   */\n  dup5\n    /* \"#utility.yul\":4297:4301   */\n  dup5\n    /* \"#utility.yul\":4253:4318   */\n  tag_51\n  jump\t// in\ntag_114:\n    /* \"#utility.yul\":4188:4324   */\n  pop\n    /* \"#utility.yul\":4135:4324   */\n  pop\n  pop\n  jump\t// out\n    /* \"#utility.yul\":4330:4516   */\ntag_54:\n    /* \"#utility.yul\":4390:4510   */\ntag_116:\n    /* \"#utility.yul\":4407:4410   */\n  dup2\n    /* \"#utility.yul\":4400:4405   */\n  dup2\n    /* \"#utility.yul\":4397:4411   */\n  lt\n    /* \"#utility.yul\":4390:4510   */\n  iszero\n  tag_118\n  jumpi\n    /* \"#utility.yul\":4461:4500   */\n  tag_119\n    /* \"#utility.yul\":4498:4499   */\n  0x00\n    /* \"#utility.yul\":4491:4496   */\n  dup3\n    /* \"#utility.yul\":4461:4500   */\n  tag_53\n  jump\t// in\ntag_119:\n    /* \"#utility.yul\":4434:4435   */\n  0x01\n    /* \"#utility.yul\":4427:4432   */\n  dup2\n    /* \"#utility.yul\":4423:4436   */\n  add\n    /* \"#utility.yul\":4414:4436   */\n  swap1\n  pop\n    /* \"#utility.yul\":4390:4510   */\n  jump(tag_116)\ntag_118:\n    /* \"#utility.yul\":4330:4516   */\n  pop\n  pop\n  jump\t// out\n    /* \"#utility.yul\":4522:5065   */\ntag_55:\n    /* \"#utility.yul\":4623:4625   */\n  0x1f\n    /* \"#utility.yul\":4618:4621   */\n  dup3\n    /* \"#utility.yul\":4615:4626   */\n  gt\n    /* \"#utility.yul\":4612:5058   */\n  iszero\n  tag_121\n  jumpi\n    /* \"#utility.yul\":4657:4695   */\n  tag_122\n    /* \"#utility.yul\":4689:4694   */\n  dup2\n    /* \"#utility.yul\":4657:4695   */\n  tag_44\n  jump\t// in\ntag_122:\n    /* \"#utility.yul\":4741:4770   */\n  tag_123\n    /* \"#utility.yul\":4759:4769   */\n  dup5\n    /* \"#utility.yul\":4741:4770   */\n  tag_45\n  jump\t// in\ntag_123:\n    /* \"#utility.yul\":4731:4739   */\n  dup2\n    /* \"#utility.yul\":4727:4771   */\n  add\n    /* \"#utility.yul\":4924:4926   */\n  0x20\n    /* \"#utility.yul\":4912:4922   */\n  dup6\n    /* \"#utility.yul\":4909:4927   */\n  lt\n    /* \"#utility.yul\":4906:4955   */\n  iszero\n  tag_124\n  jumpi\n    /* \"#utility.yul\":4945:4953   */\n  dup2\n    /* \"#utility.yul\":4930:4953   */\n  swap1\n  pop\n    /* \"#utility.yul\":4906:4955   */\ntag_124:\n    /* \"#utility.yul\":4968:5048   */\n  tag_125\n    /* \"#utility.yul\":5024:5046   */\n  tag_126\n    /* \"#utility.yul\":5042:5045   */\n  dup6\n    /* \"#utility.yul\":5024:5046   */\n  tag_45\n  jump\t// in\ntag_126:\n    /* \"#utility.yul\":5014:5022   */\n  dup4\n    /* \"#utility.yul\":5010:5047   */\n  add\n    /* \"#utility.yul\":4997:5008   */\n  dup3\n    /* \"#utility.yul\":4968:5048   */\n  tag_54\n  jump\t// in\ntag_125:\n    /* \"#utility.yul\":4627:5058   */\n  pop\n  pop\n    /* \"#utility.yul\":4612:5058   */\ntag_121:\n    /* \"#utility.yul\":4522:5065   */\n  pop\n  pop\n  pop\n  jump\t// out\n    /* \"#utility.yul\":5071:5188   */\ntag_56:\n    /* \"#utility.yul\":5125:5133   */\n  0x00\n    /* \"#utility.yul\":5175:5180   */\n  dup3\n    /* \"#utility.yul\":5169:5173   */\n  dup3\n    /* \"#utility.yul\":5165:5181   */\n  shr\n    /* \"#utility.yul\":5144:5181   */\n  swap1\n  pop\n    /* \"#utility.yul\":5071:5188   */\n  swap3\n  swap2\n  pop\n  pop\n  jump\t// out\n    /* \"#utility.yul\":5194:5363   */\ntag_57:\n    /* \"#utility.yul\":5238:5244   */\n  0x00\n    /* \"#utility.yul\":5271:5322   */\n  tag_129\n    /* \"#utility.yul\":5319:5320   */\n  0x00\n    /* \"#utility.yul\":5315:5321   */\n  not\n    /* \"#utility.yul\":5307:5312   */\n  dup5\n    /* \"#utility.yul\":5304:5305   */\n  0x08\n    /* \"#utility.yul\":5300:5313   */\n  mul\n    /* \"#utility.yul\":5271:5322   */\n  tag_56\n  jump\t// in\ntag_129:\n    /* \"#utility.yul\":5267:5323   */\n  not\n    /* \"#utility.yul\":5352:5356   */\n  dup1\n    /* \"#utility.yul\":5346:5350   */\n  dup4\n    /* \"#utility.yul\":5342:5357   */\n  and\n    /* \"#utility.yul\":5332:5357   */\n  swap2\n  pop\n    /* \"#utility.yul\":5245:5363   */\n  pop\n    /* \"#utility.yul\":5194:5363   */\n  swap3\n  swap2\n  pop\n  pop\n  jump\t// out\n    /* \"#utility.yul\":5368:5663   */\ntag_58:\n    /* \"#utility.yul\":5444:5448   */\n  0x00\n    /* \"#utility.yul\":5590:5619   */\n  tag_131\n    /* \"#utility.yul\":5615:5618   */\n  dup4\n    /* \"#utility.yul\":5609:5613   */\n  dup4\n    /* \"#utility.yul\":5590:5619   */\n  tag_57\n  jump\t// in\ntag_131:\n    /* \"#utility.yul\":5582:5619   */\n  swap2\n  pop\n    /* \"#utility.yul\":5652:5655   */\n  dup3\n    /* \"#utility.yul\":5649:5650   */\n  0x02\n    /* \"#utility.yul\":5645:5656   */\n  mul\n    /* \"#utility.yul\":5639:5643   */\n  dup3\n    /* \"#utility.yul\":5636:5657   */\n  or\n    /* \"#utility.yul\":5628:5657   */\n  swap1\n  pop\n    /* \"#utility.yul\":5368:5663   */\n  swap3\n  swap2\n  pop\n  pop\n  jump\t// out\n    /* \"#utility.yul\":5668:7063   */\ntag_9:\n    /* \"#utility.yul\":5785:5822   */\n  tag_133\n    /* \"#utility.yul\":5818:5821   */\n  dup3\n    /* \"#utility.yul\":5785:5822   */\n  tag_40\n  jump\t// in\ntag_133:\n    /* \"#utility.yul\":5887:5905   */\n  0xffffffffffffffff\n    /* \"#utility.yul\":5879:5885   */\n  dup2\n    /* \"#utility.yul\":5876:5906   */\n  gt\n    /* \"#utility.yul\":5873:5929   */\n  iszero\n  tag_134\n  jumpi\n    /* \"#utility.yul\":5909:5927   */\n  tag_135\n  tag_41\n  jump\t// in\ntag_135:\n    /* \"#utility.yul\":5873:5929   */\ntag_134:\n    /* \"#utility.yul\":5953:5991   */\n  tag_136\n    /* \"#utility.yul\":5985:5989   */\n  dup3\n    /* \"#utility.yul\":5979:5990   */\n  sload\n    /* \"#utility.yul\":5953:5991   */\n  tag_43\n  jump\t// in\ntag_136:\n    /* \"#utility.yul\":6038:6105   */\n  tag_137\n    /* \"#utility.yul\":6098:6104   */\n  dup3\n    /* \"#utility.yul\":6090:6096   */\n  dup3\n    /* \"#utility.yul\":6084:6088   */\n  dup6\n    /* \"#utility.yul\":6038:6105   */\n  tag_55\n  jump\t// in\ntag_137:\n    /* \"#utility.yul\":6132:6133   */\n  0x00\n    /* \"#utility.yul\":6156:6160   */\n  0x20\n    /* \"#utility.yul\":6143:6160   */\n  swap1\n  pop\n    /* \"#utility.yul\":6188:6190   */\n  0x1f\n    /* \"#utility.yul\":6180:6186   */\n  dup4\n    /* \"#utility.yul\":6177:6191   */\n  gt\n    /* \"#utility.yul\":6205:6206   */\n  0x01\n    /* \"#utility.yul\":6200:6818   */\n  dup2\n  eq\n  tag_139\n  jumpi\n    /* \"#utility.yul\":6862:6863   */\n  0x00\n    /* \"#utility.yul\":6879:6885   */\n  dup5\n    /* \"#utility.yul\":6876:6953   */\n  iszero\n  tag_140\n  jumpi\n    /* \"#utility.yul\":6928:6937   */\n  dup3\n    /* \"#utility.yul\":6923:6926   */\n  dup8\n    /* \"#utility.yul\":6919:6938   */\n  add\n    /* \"#utility.yul\":6913:6939   */\n  mload\n    /* \"#utility.yul\":6904:6939   */\n  swap1\n  pop\n    /* \"#utility.yul\":6876:6953   */\ntag_140:\n    /* \"#utility.yul\":6979:7046   */\n  tag_141\n    /* \"#utility.yul\":7039:7045   */\n  dup6\n    /* \"#utility.yul\":7032:7037   */\n  dup3\n    /* \"#utility.yul\":6979:7046   */\n  tag_58\n  jump\t// in\ntag_141:\n    /* \"#utility.yul\":6973:6977   */\n  dup7\n    /* \"#utility.yul\":6966:7047   */\n  sstore\n    /* \"#utility.yul\":6835:7057   */\n  pop\n    /* \"#utility.yul\":6170:7057   */\n  jump(tag_138)\n    /* \"#utility.yul\":6200:6818   */\ntag_139:\n    /* \"#utility.yul\":6252:6256   */\n  0x1f\n    /* \"#utility.yul\":6248:6257   */\n  not\n    /* \"#utility.yul\":6240:6246   */\n  dup5\n    /* \"#utility.yul\":6236:6258   */\n  and\n    /* \"#utility.yul\":6286:6323   */\n  tag_142\n    /* \"#utility.yul\":6318:6322   */\n  dup7\n    /* \"#utility.yul\":6286:6323   */\n  tag_44\n  jump\t// in\ntag_142:\n    /* \"#utility.yul\":6345:6346   */\n  0x00\n    /* \"#utility.yul\":6359:6567   */\ntag_143:\n    /* \"#utility.yul\":6373:6380   */\n  dup3\n    /* \"#utility.yul\":6370:6371   */\n  dup2\n    /* \"#utility.yul\":6367:6381   */\n  lt\n    /* \"#utility.yul\":6359:6567   */\n  iszero\n  tag_145\n  jumpi\n    /* \"#utility.yul\":6452:6461   */\n  dup5\n    /* \"#utility.yul\":6447:6450   */\n  dup10\n    /* \"#utility.yul\":6443:6462   */\n  add\n    /* \"#utility.yul\":6437:6463   */\n  mload\n    /* \"#utility.yul\":6429:6435   */\n  dup3\n    /* \"#utility.yul\":6422:6464   */\n  sstore\n    /* \"#utility.yul\":6503:6504   */\n  0x01\n    /* \"#utility.yul\":6495:6501   */\n  dup3\n    /* \"#utility.yul\":6491:6505   */\n  add\n    /* \"#utility.yul\":6481:6505   */\n  swap2\n  pop\n    /* \"#utility.yul\":6550:6552   */\n  0x20\n    /* \"#utility.yul\":6539:6548   */\n  dup6\n    /* \"#utility.yul\":6535:6553   */\n  add\n    /* \"#utility.yul\":6522:6553   */\n  swap5\n  pop\n    /* \"#utility.yul\":6396:6400   */\n  0x20\n    /* \"#utility.yul\":6393:6394   */\n  dup2\n    /* \"#utility.yul\":6389:6401   */\n  add\n    /* \"#utility.yul\":6384:6401   */\n  swap1\n  pop\n    /* \"#utility.yul\":6359:6567   */\n  jump(tag_143)\ntag_145:\n    /* \"#utility.yul\":6595:6601   */\n  dup7\n    /* \"#utility.yul\":6586:6593   */\n  dup4\n    /* \"#utility.yul\":6583:6602   */\n  lt\n    /* \"#utility.yul\":6580:6759   */\n  iszero\n  tag_146\n  jumpi\n    /* \"#utility.yul\":6653:6662   */\n  dup5\n    /* \"#utility.yul\":6648:6651   */\n  dup10\n    /* \"#utility.yul\":6644:6663   */\n  add\n    /* \"#utility.yul\":6638:6664   */\n  mload\n    /* \"#utility.yul\":6696:6744   */\n  tag_147\n    /* \"#utility.yul\":6738:6742   */\n  0x1f\n    /* \"#utility.yul\":6730:6736   */\n  dup10\n    /* \"#utility.yul\":6726:6743   */\n  and\n    /* \"#utility.yul\":6715:6724   */\n  dup3\n    /* \"#utility.yul\":6696:6744   */\n  tag_57\n  jump\t// in\ntag_147:\n    /* \"#utility.yul\":6688:6694   */\n  dup4\n    /* \"#utility.yul\":6681:6745   */\n  sstore\n    /* \"#utility.yul\":6603:6759   */\n  pop\n    /* \"#utility.yul\":6580:6759   */\ntag_146:\n    /* \"#utility.yul\":6805:6806   */\n  0x01\n    /* \"#utility.yul\":6801:6802   */\n  0x02\n    /* \"#utility.yul\":6793:6799   */\n  dup9\n    /* \"#utility.yul\":6789:6803   */\n  mul\n    /* \"#utility.yul\":6785:6807   */\n  add\n    /* \"#utility.yul\":6779:6783   */\n  dup9\n    /* \"#utility.yul\":6772:6808   */\n  sstore\n    /* \"#utility.yul\":6207:6818   */\n  pop\n  pop\n  pop\n    /* \"#utility.yul\":6170:7057   */\ntag_138:\n  pop\n    /* \"#utility.yul\":5760:7063   */\n  pop\n  pop\n  pop\n    /* \"#utility.yul\":5668:7063   */\n  pop\n  pop\n  jump\t// out\n    /* \"#utility.yul\":7069:7167   */\ntag_59:\n    /* \"#utility.yul\":7120:7126   */\n  0x00\n    /* \"#utility.yul\":7154:7159   */\n  dup2\n    /* \"#utility.yul\":7148:7160   */\n  mload\n    /* \"#utility.yul\":7138:7160   */\n  swap1\n  pop\n    /* \"#utility.yul\":7069:7167   */\n  swap2\n  swap1\n  pop\n  jump\t// out\n    /* \"#utility.yul\":7173:7320   */\ntag_60:\n    /* \"#utility.yul\":7274:7285   */\n  0x00\n    /* \"#utility.yul\":7311:7314   */\n  dup2\n    /* \"#utility.yul\":7296:7314   */\n  swap1\n  pop\n    /* \"#utility.yul\":7173:7320   */\n  swap3\n  swap2\n  pop\n  pop\n  jump\t// out\n    /* \"#utility.yul\":7326:7465   */\ntag_61:\n    /* \"#utility.yul\":7415:7421   */\n  dup3\n    /* \"#utility.yul\":7410:7413   */\n  dup2\n    /* \"#utility.yul\":7405:7408   */\n  dup4\n    /* \"#utility.yul\":7399:7422   */\n  mcopy\n    /* \"#utility.yul\":7456:7457   */\n  0x00\n    /* \"#utility.yul\":7447:7453   */\n  dup4\n    /* \"#utility.yul\":7442:7445   */\n  dup4\n    /* \"#utility.yul\":7438:7454   */\n  add\n    /* \"#utility.yul\":7431:7458   */\n  mstore\n    /* \"#utility.yul\":7326:7465   */\n  pop\n  pop\n  pop\n  jump\t// out\n    /* \"#utility.yul\":7471:7857   */\ntag_62:\n    /* \"#utility.yul\":7575:7578   */\n  0x00\n    /* \"#utility.yul\":7603:7641   */\n  tag_152\n    /* \"#utility.yul\":7635:7640   */\n  dup3\n    /* \"#utility.yul\":7603:7641   */\n  tag_59\n  jump\t// in\ntag_152:\n    /* \"#utility.yul\":7657:7745   */\n  tag_153\n    /* \"#utility.yul\":7738:7744   */\n  dup2\n    /* \"#utility.yul\":7733:7736   */\n  dup6\n    /* \"#utility.yul\":7657:7745   */\n  tag_60\n  jump\t// in\ntag_153:\n    /* \"#utility.yul\":7650:7745   */\n  swap4\n  pop\n    /* \"#utility.yul\":7754:7819   */\n  tag_154\n    /* \"#utility.yul\":7812:7818   */\n  dup2\n    /* \"#utility.yul\":7807:7810   */\n  dup6\n    /* \"#utility.yul\":7800:7804   */\n  0x20\n    /* \"#utility.yul\":7793:7798   */\n  dup7\n    /* \"#utility.yul\":7789:7805   */\n  add\n    /* \"#utility.yul\":7754:7819   */\n  tag_61\n  jump\t// in\ntag_154:\n    /* \"#utility.yul\":7844:7850   */\n  dup1\n    /* \"#utility.yul\":7839:7842   */\n  dup5\n    /* \"#utility.yul\":7835:7851   */\n  add\n    /* \"#utility.yul\":7828:7851   */\n  swap2\n  pop\n    /* \"#utility.yul\":7579:7857   */\n  pop\n    /* \"#utility.yul\":7471:7857   */\n  swap3\n  swap2\n  pop\n  pop\n  jump\t// out\n    /* \"#utility.yul\":7863:8134   */\ntag_20:\n    /* \"#utility.yul\":7993:7996   */\n  0x00\n    /* \"#utility.yul\":8015:8108   */\n  tag_156\n    /* \"#utility.yul\":8104:8107   */\n  dup3\n    /* \"#utility.yul\":8095:8101   */\n  dup5\n    /* \"#utility.yul\":8015:8108   */\n  tag_62\n  jump\t// in\ntag_156:\n    /* \"#utility.yul\":8008:8108   */\n  swap2\n  pop\n    /* \"#utility.yul\":8125:8128   */\n  dup2\n    /* \"#utility.yul\":8118:8128   */\n  swap1\n  pop\n    /* \"#utility.yul\":7863:8134   */\n  swap3\n  swap2\n  pop\n  pop\n  jump\t// out\n    /* \"#utility.yul\":8140:8491   */\ntag_27:\n    /* \"#utility.yul\":8210:8216   */\n  0x00\n    /* \"#utility.yul\":8259:8261   */\n  0x20\n    /* \"#utility.yul\":8247:8256   */\n  dup3\n    /* \"#utility.yul\":8238:8245   */\n  dup5\n    /* \"#utility.yul\":8234:8257   */\n  sub\n    /* \"#utility.yul\":8230:8262   */\n  slt\n    /* \"#utility.yul\":8227:8346   */\n  iszero\n  tag_158\n  jumpi\n    /* \"#utility.yul\":8265:8344   */\n  tag_159\n  tag_30\n  jump\t// in\ntag_159:\n    /* \"#utility.yul\":8227:8346   */\ntag_158:\n    /* \"#utility.yul\":8385:8386   */\n  0x00\n    /* \"#utility.yul\":8410:8474   */\n  tag_160\n    /* \"#utility.yul\":8466:8473   */\n  dup5\n    /* \"#utility.yul\":8457:8463   */\n  dup3\n    /* \"#utility.yul\":8446:8455   */\n  dup6\n    /* \"#utility.yul\":8442:8464   */\n  add\n    /* \"#utility.yul\":8410:8474   */\n  tag_39\n  jump\t// in\ntag_160:\n    /* \"#utility.yul\":8400:8474   */\n  swap2\n  pop\n    /* \"#utility.yul\":8356:8484   */\n  pop\n    /* \"#utility.yul\":8140:8491   */\n  swap3\n  swap2\n  pop\n  pop\n  jump\t// out\n    /* \"src/Vaults.sol\":175:703  contract Vaults is ERC4626Fees {... */\ntag_17:\n  mload(0x80)\n  mload(0xa0)\n  codecopy(0x00, dataOffset(sub_0), dataSize(sub_0))\n  0x00\n  assignImmutable(\"0xf5e5f362c88d870042340181c8ba3c810faeaf69b620e2b6c1b44f2a54634680\")\n  0x00\n  assignImmutable(\"0x2b94863e8a5710fa2a2df950f83723d3cf9047cafa56ad6e529f5e55ac56c9e6\")\n  return(0x00, dataSize(sub_0))\nstop\n\nsub_0: assembly {\n        /* \"src/Vaults.sol\":175:703  contract Vaults is ERC4626Fees {... */\n      mstore(0x40, 0x80)\n      callvalue\n      dup1\n      iszero\n      tag_1\n      jumpi\n      0x00\n      dup1\n      revert\n    tag_1:\n      pop\n      jumpi(tag_2, lt(calldatasize, 0x04))\n      shr(0xe0, calldataload(0x00))\n      dup1\n      0x8da5cb5b\n      gt\n      tag_30\n      jumpi\n      dup1\n      0xba0af7a9\n      gt\n      tag_31\n      jumpi\n      dup1\n      0xce96cb77\n      gt\n      tag_32\n      jumpi\n      dup1\n      0xce96cb77\n      eq\n      tag_26\n      jumpi\n      dup1\n      0xd905777e\n      eq\n      tag_27\n      jumpi\n      dup1\n      0xdd62ed3e\n      eq\n      tag_28\n      jumpi\n      dup1\n      0xef8b30f7\n      eq\n      tag_29\n      jumpi\n      jump(tag_2)\n    tag_32:\n      dup1\n      0xba0af7a9\n      eq\n      tag_23\n      jumpi\n      dup1\n      0xc63d75b6\n      eq\n      tag_24\n      jumpi\n      dup1\n      0xc6e6f592\n      eq\n      tag_25\n      jumpi\n      jump(tag_2)\n    tag_31:\n      dup1\n      0xa9059cbb\n      gt\n      tag_33\n      jumpi\n      dup1\n      0xa9059cbb\n      eq\n      tag_19\n      jumpi\n      dup1\n      0xb3d7f6b9\n      eq\n      tag_20\n      jumpi\n      dup1\n      0xb460af94\n      eq\n      tag_21\n      jumpi\n      dup1\n      0xba087652\n      eq\n      tag_22\n      jumpi\n      jump(tag_2)\n    tag_33:\n      dup1\n      0x8da5cb5b\n      eq\n      tag_16\n      jumpi\n      dup1\n      0x94bf804d\n      eq\n      tag_17\n      jumpi\n      dup1\n      0x95d89b41\n      eq\n      tag_18\n      jumpi\n      jump(tag_2)\n    tag_30:\n      dup1\n      0x23b872dd\n      gt\n      tag_34\n      jumpi\n      dup1\n      0x402d267d\n      gt\n      tag_35\n      jumpi\n      dup1\n      0x402d267d\n      eq\n      tag_12\n      jumpi\n      dup1\n      0x4cdad506\n      eq\n      tag_13\n      jumpi\n      dup1\n      0x6e553f65\n      eq\n      tag_14\n      jumpi\n      dup1\n      0x70a08231\n      eq\n      tag_15\n      jumpi\n      jump(tag_2)\n    tag_35:\n      dup1\n      0x23b872dd\n      eq\n      tag_9\n      jumpi\n      dup1\n      0x313ce567\n      eq\n      tag_10\n      jumpi\n      dup1\n      0x38d52e0f\n      eq\n      tag_11\n      jumpi\n      jump(tag_2)\n    tag_34:\n      dup1\n      0x01e1d114\n      eq\n      tag_3\n      jumpi\n      dup1\n      0x06fdde03\n      eq\n      tag_4\n      jumpi\n      dup1\n      0x07a2d13a\n      eq\n      tag_5\n      jumpi\n      dup1\n      0x095ea7b3\n      eq\n      tag_6\n      jumpi\n      dup1\n      0x0a28a477\n      eq\n      tag_7\n      jumpi\n      dup1\n      0x18160ddd\n      eq\n      tag_8\n      jumpi\n    tag_2:\n      0x00\n      dup1\n      revert\n        /* \"lib/openzeppelin-contracts/contracts/token/ERC20/extensions/ERC4626.sol\":5780:5896  function totalAssets() public view virtual returns (uint256) {... */\n    tag_3:\n      tag_36\n      tag_37\n      jump\t// in\n    tag_36:\n      mload(0x40)\n      tag_38\n      swap2\n      swap1\n      tag_39\n      jump\t// in\n    tag_38:\n      mload(0x40)\n      dup1\n      swap2\n      sub\n      swap1\n      return\n        /* \"lib/openzeppelin-contracts/contracts/token/ERC20/ERC20.sol\":2074:2163  function name() public view virtual returns (string memory) {... */\n    tag_4:\n      tag_40\n      tag_41\n      jump\t// in\n    tag_40:\n      mload(0x40)\n      tag_42\n      swap2\n      swap1\n      tag_43\n      jump\t// in\n    tag_42:\n      mload(0x40)\n      dup1\n      swap2\n      sub\n      swap1\n      return\n        /* \"lib/openzeppelin-contracts/contracts/token/ERC20/extensions/ERC4626.sol\":6152:6300  function convertToAssets(uint256 shares) public view virtual returns (uint256) {... */\n    tag_5:\n      tag_44\n      0x04\n      dup1\n      calldatasize\n      sub\n      dup2\n      add\n      swap1\n      tag_45\n      swap2\n      swap1\n      tag_46\n      jump\t// in\n    tag_45:\n      tag_47\n      jump\t// in\n    tag_44:\n      mload(0x40)\n      tag_48\n      swap2\n      swap1\n      tag_39\n      jump\t// in\n    tag_48:\n      mload(0x40)\n      dup1\n      swap2\n      sub\n      swap1\n      return\n        /* \"lib/openzeppelin-contracts/contracts/token/ERC20/ERC20.sol\":4293:4479  function approve(address spender, uint256 value) public virtual returns (bool) {... */\n    tag_6:\n      tag_49\n      0x04\n      dup1\n      calldatasize\n      sub\n      dup2\n      add\n      swap1\n      tag_50\n      swap2\n      swap1\n      tag_51\n      jump\t// in\n    tag_50:\n      tag_52\n      jump\t// in\n    tag_49:\n      mload(0x40)\n      tag_53\n      swap2\n      swap1\n      tag_54\n      jump\t// in\n    tag_53:\n      mload(0x40)\n      dup1\n      swap2\n      sub\n      swap1\n      return\n        /* \"lib/openzeppelin-contracts/contracts/mocks/docs/ERC4626Fees.sol\":1249:1460  function previewWithdraw(uint256 assets) public view virtual override returns (uint256) {... */\n    tag_7:\n      tag_55\n      0x04\n      dup1\n      calldatasize\n      sub\n      dup2\n      add\n      swap1\n      tag_56\n      swap2\n      swap1\n      tag_46\n      jump\t// in\n    tag_56:\n      tag_57\n      jump\t// in\n    tag_55:\n      mload(0x40)\n      tag_58\n      swap2\n      swap1\n      tag_39\n      jump\t// in\n    tag_58:\n      mload(0x40)\n      dup1\n      swap2\n      sub\n      swap1\n      return\n        /* \"lib/openzeppelin-contracts/contracts/token/ERC20/ERC20.sol\":3144:3241  function totalSupply() public view virtual returns (uint256) {... */\n    tag_8:\n      tag_59\n      tag_60\n      jump\t// in\n    tag_59:\n      mload(0x40)\n      tag_61\n      swap2\n      swap1\n      tag_39\n      jump\t// in\n    tag_61:\n      mload(0x40)\n      dup1\n      swap2\n      sub\n      swap1\n      return\n        /* \"lib/openzeppelin-contracts/contracts/token/ERC20/ERC20.sol\":5039:5283  function transferFrom(address from, address to, uint256 value) public virtual returns (bool) {... */\n    tag_9:\n      tag_62\n      0x04\n      dup1\n      calldatasize\n      sub\n      dup2\n      add\n      swap1\n      tag_63\n      swap2\n      swap1\n      tag_64\n      jump\t// in\n    tag_63:\n      tag_65\n      jump\t// in\n    tag_62:\n      mload(0x40)\n      tag_66\n      swap2\n      swap1\n      tag_54\n      jump\t// in\n    tag_66:\n      mload(0x40)\n      dup1\n      swap2\n      sub\n      swap1\n      return\n        /* \"lib/openzeppelin-contracts/contracts/token/ERC20/extensions/ERC4626.sol\":5441:5592  function decimals() public view virtual override(IERC20Metadata, ERC20) returns (uint8) {... */\n    tag_10:\n      tag_67\n      tag_68\n      jump\t// in\n    tag_67:\n      mload(0x40)\n      tag_69\n      swap2\n      swap1\n      tag_70\n      jump\t// in\n    tag_69:\n      mload(0x40)\n      dup1\n      swap2\n      sub\n      swap1\n      return\n        /* \"lib/openzeppelin-contracts/contracts/token/ERC20/extensions/ERC4626.sol\":5636:5730  function asset() public view virtual returns (address) {... */\n    tag_11:\n      tag_71\n      tag_72\n      jump\t// in\n    tag_71:\n      mload(0x40)\n      tag_73\n      swap2\n      swap1\n      tag_74\n      jump\t// in\n    tag_73:\n      mload(0x40)\n      dup1\n      swap2\n      sub\n      swap1\n      return\n        /* \"lib/openzeppelin-contracts/contracts/token/ERC20/extensions/ERC4626.sol\":6349:6457  function maxDeposit(address) public view virtual returns (uint256) {... */\n    tag_12:\n      tag_75\n      0x04\n      dup1\n      calldatasize\n      sub\n      dup2\n      add\n      swap1\n      tag_76\n      swap2\n      swap1\n      tag_77\n      jump\t// in\n    tag_76:\n      tag_78\n      jump\t// in\n    tag_75:\n      mload(0x40)\n      tag_79\n      swap2\n      swap1\n      tag_39\n      jump\t// in\n    tag_79:\n      mload(0x40)\n      dup1\n      swap2\n      sub\n      swap1\n      return\n        /* \"lib/openzeppelin-contracts/contracts/mocks/docs/ERC4626Fees.sol\":1547:1762  function previewRedeem(uint256 shares) public view virtual override returns (uint256) {... */\n    tag_13:\n      tag_80\n      0x04\n      dup1\n      calldatasize\n      sub\n      dup2\n      add\n      swap1\n      tag_81\n      swap2\n      swap1\n      tag_46\n      jump\t// in\n    tag_81:\n      tag_82\n      jump\t// in\n    tag_80:\n      mload(0x40)\n      tag_83\n      swap2\n      swap1\n      tag_39\n      jump\t// in\n    tag_83:\n      mload(0x40)\n      dup1\n      swap2\n      sub\n      swap1\n      return\n        /* \"lib/openzeppelin-contracts/contracts/token/ERC20/extensions/ERC4626.sol\":7809:8201  function deposit(uint256 assets, address receiver) public virtual returns (uint256) {... */\n    tag_14:\n      tag_84\n      0x04\n      dup1\n      calldatasize\n      sub\n      dup2\n      add\n      swap1\n      tag_85\n      swap2\n      swap1\n      tag_86\n      jump\t// in\n    tag_85:\n      tag_87\n      jump\t// in\n    tag_84:\n      mload(0x40)\n      tag_88\n      swap2\n      swap1\n      tag_39\n      jump\t// in\n    tag_88:\n      mload(0x40)\n      dup1\n      swap2\n      sub\n      swap1\n      return\n        /* \"lib/openzeppelin-contracts/contracts/token/ERC20/ERC20.sol\":3299:3415  function balanceOf(address account) public view virtual returns (uint256) {... */\n    tag_15:\n      tag_89\n      0x04\n      dup1\n      calldatasize\n      sub\n      dup2\n      add\n      swap1\n      tag_90\n      swap2\n      swap1\n      tag_77\n      jump\t// in\n    tag_90:\n      tag_91\n      jump\t// in\n    tag_89:\n      mload(0x40)\n      tag_92\n      swap2\n      swap1\n      tag_39\n      jump\t// in\n    tag_92:\n      mload(0x40)\n      dup1\n      swap2\n      sub\n      swap1\n      return\n        /* \"src/Vaults.sol\":212:240  address payable public owner */\n    tag_16:\n      tag_93\n      tag_94\n      jump\t// in\n    tag_93:\n      mload(0x40)\n      tag_95\n      swap2\n      swap1\n      tag_96\n      jump\t// in\n    tag_95:\n      mload(0x40)\n      dup1\n      swap2\n      sub\n      swap1\n      return\n        /* \"lib/openzeppelin-contracts/contracts/token/ERC20/extensions/ERC4626.sol\":8468:8848  function mint(uint256 shares, address receiver) public virtual returns (uint256) {... */\n    tag_17:\n      tag_97\n      0x04\n      dup1\n      calldatasize\n      sub\n      dup2\n      add\n      swap1\n      tag_98\n      swap2\n      swap1\n      tag_86\n      jump\t// in\n    tag_98:\n      tag_99\n      jump\t// in\n    tag_97:\n      mload(0x40)\n      tag_100\n      swap2\n      swap1\n      tag_39\n      jump\t// in\n    tag_100:\n      mload(0x40)\n      dup1\n      swap2\n      sub\n      swap1\n      return\n        /* \"lib/openzeppelin-contracts/contracts/token/ERC20/ERC20.sol\":2276:2369  function symbol() public view virtual returns (string memory) {... */\n    tag_18:\n      tag_101\n      tag_102\n      jump\t// in\n    tag_101:\n      mload(0x40)\n      tag_103\n      swap2\n      swap1\n      tag_43\n      jump\t// in\n    tag_103:\n      mload(0x40)\n      dup1\n      swap2\n      sub\n      swap1\n      return\n        /* \"lib/openzeppelin-contracts/contracts/token/ERC20/ERC20.sol\":3610:3788  function transfer(address to, uint256 value) public virtual returns (bool) {... */\n    tag_19:\n      tag_104\n      0x04\n      dup1\n      calldatasize\n      sub\n      dup2\n      add\n      swap1\n      tag_105\n      swap2\n      swap1\n      tag_51\n      jump\t// in\n    tag_105:\n      tag_106\n      jump\t// in\n    tag_104:\n      mload(0x40)\n      tag_107\n      swap2\n      swap1\n      tag_54\n      jump\t// in\n    tag_107:\n      mload(0x40)\n      dup1\n      swap2\n      sub\n      swap1\n      return\n        /* \"lib/openzeppelin-contracts/contracts/mocks/docs/ERC4626Fees.sol\":948:1158  function previewMint(uint256 shares) public view virtual override returns (uint256) {... */\n    tag_20:\n      tag_108\n      0x04\n      dup1\n      calldatasize\n      sub\n      dup2\n      add\n      swap1\n      tag_109\n      swap2\n      swap1\n      tag_46\n      jump\t// in\n    tag_109:\n      tag_110\n      jump\t// in\n    tag_108:\n      mload(0x40)\n      tag_111\n      swap2\n      swap1\n      tag_39\n      jump\t// in\n    tag_111:\n      mload(0x40)\n      dup1\n      swap2\n      sub\n      swap1\n      return\n        /* \"lib/openzeppelin-contracts/contracts/token/ERC20/extensions/ERC4626.sol\":8895:9308  function withdraw(uint256 assets, address receiver, address owner) public virtual returns (uint256) {... */\n    tag_21:\n      tag_112\n      0x04\n      dup1\n      calldatasize\n      sub\n      dup2\n      add\n      swap1\n      tag_113\n      swap2\n      swap1\n      tag_114\n      jump\t// in\n    tag_113:\n      tag_115\n      jump\t// in\n    tag_112:\n      mload(0x40)\n      tag_116\n      swap2\n      swap1\n      tag_39\n      jump\t// in\n    tag_116:\n      mload(0x40)\n      dup1\n      swap2\n      sub\n      swap1\n      return\n        /* \"lib/openzeppelin-contracts/contracts/token/ERC20/extensions/ERC4626.sol\":9353:9758  function redeem(uint256 shares, address receiver, address owner) public virtual returns (uint256) {... */\n    tag_22:\n      tag_117\n      0x04\n      dup1\n      calldatasize\n      sub\n      dup2\n      add\n      swap1\n      tag_118\n      swap2\n      swap1\n      tag_114\n      jump\t// in\n    tag_118:\n      tag_119\n      jump\t// in\n    tag_117:\n      mload(0x40)\n      tag_120\n      swap2\n      swap1\n      tag_39\n      jump\t// in\n    tag_120:\n      mload(0x40)\n      dup1\n      swap2\n      sub\n      swap1\n      return\n        /* \"src/Vaults.sol\":246:280  uint256 public entryFeeBasisPoints */\n    tag_23:\n      tag_121\n      tag_122\n      jump\t// in\n    tag_121:\n      mload(0x40)\n      tag_123\n      swap2\n      swap1\n      tag_39\n      jump\t// in\n    tag_123:\n      mload(0x40)\n      dup1\n      swap2\n      sub\n      swap1\n      return\n        /* \"lib/openzeppelin-contracts/contracts/token/ERC20/extensions/ERC4626.sol\":6503:6608  function maxMint(address) public view virtual returns (uint256) {... */\n    tag_24:\n      tag_124\n      0x04\n      dup1\n      calldatasize\n      sub\n      dup2\n      add\n      swap1\n      tag_125\n      swap2\n      swap1\n      tag_77\n      jump\t// in\n    tag_125:\n      tag_126\n      jump\t// in\n    tag_124:\n      mload(0x40)\n      tag_127\n      swap2\n      swap1\n      tag_39\n      jump\t// in\n    tag_127:\n      mload(0x40)\n      dup1\n      swap2\n      sub\n      swap1\n      return\n        /* \"lib/openzeppelin-contracts/contracts/token/ERC20/extensions/ERC4626.sol\":5950:6098  function convertToShares(uint256 assets) public view virtual returns (uint256) {... */\n    tag_25:\n      tag_128\n      0x04\n      dup1\n      calldatasize\n      sub\n      dup2\n      add\n      swap1\n      tag_129\n      swap2\n      swap1\n      tag_46\n      jump\t// in\n    tag_129:\n      tag_130\n      jump\t// in\n    tag_128:\n      mload(0x40)\n      tag_131\n      swap2\n      swap1\n      tag_39\n      jump\t// in\n    tag_131:\n      mload(0x40)\n      dup1\n      swap2\n      sub\n      swap1\n      return\n        /* \"lib/openzeppelin-contracts/contracts/token/ERC20/extensions/ERC4626.sol\":6658:6811  function maxWithdraw(address owner) public view virtual returns (uint256) {... */\n    tag_26:\n      tag_132\n      0x04\n      dup1\n      calldatasize\n      sub\n      dup2\n      add\n      swap1\n      tag_133\n      swap2\n      swap1\n      tag_77\n      jump\t// in\n    tag_133:\n      tag_134\n      jump\t// in\n    tag_132:\n      mload(0x40)\n      tag_135\n      swap2\n      swap1\n      tag_39\n      jump\t// in\n    tag_135:\n      mload(0x40)\n      dup1\n      swap2\n      sub\n      swap1\n      return\n        /* \"lib/openzeppelin-contracts/contracts/token/ERC20/extensions/ERC4626.sol\":6859:6971  function maxRedeem(address owner) public view virtual returns (uint256) {... */\n    tag_27:\n      tag_136\n      0x04\n      dup1\n      calldatasize\n      sub\n      dup2\n      add\n      swap1\n      tag_137\n      swap2\n      swap1\n      tag_77\n      jump\t// in\n    tag_137:\n      tag_138\n      jump\t// in\n    tag_136:\n      mload(0x40)\n      tag_139\n      swap2\n      swap1\n      tag_39\n      jump\t// in\n    tag_139:\n      mload(0x40)\n      dup1\n      swap2\n      sub\n      swap1\n      return\n        /* \"lib/openzeppelin-contracts/contracts/token/ERC20/ERC20.sol\":3846:3986  function allowance(address owner, address spender) public view virtual returns (uint256) {... */\n    tag_28:\n      tag_140\n      0x04\n      dup1\n      calldatasize\n      sub\n      dup2\n      add\n      swap1\n      tag_141\n      swap2\n      swap1\n      tag_142\n      jump\t// in\n    tag_141:\n      tag_143\n      jump\t// in\n    tag_140:\n      mload(0x40)\n      tag_144\n      swap2\n      swap1\n      tag_39\n      jump\t// in\n    tag_144:\n      mload(0x40)\n      dup1\n      swap2\n      sub\n      swap1\n      return\n        /* \"lib/openzeppelin-contracts/contracts/mocks/docs/ERC4626Fees.sol\":652:864  function previewDeposit(uint256 assets) public view virtual override returns (uint256) {... */\n    tag_29:\n      tag_145\n      0x04\n      dup1\n      calldatasize\n      sub\n      dup2\n      add\n      swap1\n      tag_146\n      swap2\n      swap1\n      tag_46\n      jump\t// in\n    tag_146:\n      tag_147\n      jump\t// in\n    tag_145:\n      mload(0x40)\n      tag_148\n      swap2\n      swap1\n      tag_39\n      jump\t// in\n    tag_148:\n      mload(0x40)\n      dup1\n      swap2\n      sub\n      swap1\n      return\n        /* \"lib/openzeppelin-contracts/contracts/token/ERC20/extensions/ERC4626.sol\":5780:5896  function totalAssets() public view virtual returns (uint256) {... */\n    tag_37:\n        /* \"lib/openzeppelin-contracts/contracts/token/ERC20/extensions/ERC4626.sol\":5832:5839  uint256 */\n      0x00\n        /* \"lib/openzeppelin-contracts/contracts/token/ERC20/extensions/ERC4626.sol\":5858:5864  _asset */\n      immutable(\"0x2b94863e8a5710fa2a2df950f83723d3cf9047cafa56ad6e529f5e55ac56c9e6\")\n        /* \"lib/openzeppelin-contracts/contracts/token/ERC20/extensions/ERC4626.sol\":5858:5874  _asset.balanceOf */\n      0xffffffffffffffffffffffffffffffffffffffff\n      and\n      0x70a08231\n        /* \"lib/openzeppelin-contracts/contracts/token/ERC20/extensions/ERC4626.sol\":5883:5887  this */\n      address\n        /* \"lib/openzeppelin-contracts/contracts/token/ERC20/extensions/ERC4626.sol\":5858:5889  _asset.balanceOf(address(this)) */\n      mload(0x40)\n      dup3\n      0xffffffff\n      and\n      0xe0\n      shl\n      dup2\n      mstore\n      0x04\n      add\n      tag_150\n      swap2\n      swap1\n      tag_74\n      jump\t// in\n    tag_150:\n      0x20\n      mload(0x40)\n      dup1\n      dup4\n      sub\n      dup2\n      dup7\n      gas\n      staticcall\n      iszero\n      dup1\n      iszero\n      tag_152\n      jumpi\n      returndatasize\n      0x00\n      dup1\n      returndatacopy\n      revert(0x00, returndatasize)\n    tag_152:\n      pop\n      pop\n      pop\n      pop\n      mload(0x40)\n      returndatasize\n      not(0x1f)\n      0x1f\n      dup3\n      add\n      and\n      dup3\n      add\n      dup1\n      0x40\n      mstore\n      pop\n      dup2\n      add\n      swap1\n      tag_153\n      swap2\n      swap1\n      tag_154\n      jump\t// in\n    tag_153:\n        /* \"lib/openzeppelin-contracts/contracts/token/ERC20/extensions/ERC4626.sol\":5851:5889  return _asset.balanceOf(address(this)) */\n      swap1\n      pop\n        /* \"lib/openzeppelin-contracts/contracts/token/ERC20/extensions/ERC4626.sol\":5780:5896  function totalAssets() public view virtual returns (uint256) {... */\n      swap1\n      jump\t// out\n        /* \"lib/openzeppelin-contracts/contracts/token/ERC20/ERC20.sol\":2074:2163  function name() public view virtual returns (string memory) {... */\n    tag_41:\n        /* \"lib/openzeppelin-contracts/contracts/token/ERC20/ERC20.sol\":2119:2132  string memory */\n      0x60\n        /* \"lib/openzeppelin-contracts/contracts/token/ERC20/ERC20.sol\":2151:2156  _name */\n      0x03\n        /* \"lib/openzeppelin-contracts/contracts/token/ERC20/ERC20.sol\":2144:2156  return _name */\n      dup1\n      sload\n      tag_156\n      swap1\n      tag_157\n      jump\t// in\n    tag_156:\n      dup1\n      0x1f\n      add\n      0x20\n      dup1\n      swap2\n      div\n      mul\n      0x20\n      add\n      mload(0x40)\n      swap1\n      dup2\n      add\n      0x40\n      mstore\n      dup1\n      swap3\n      swap2\n      swap1\n      dup2\n      dup2\n      mstore\n      0x20\n      add\n      dup3\n      dup1\n      sload\n      tag_158\n      swap1\n      tag_157\n      jump\t// in\n    tag_158:\n      dup1\n      iszero\n      tag_159\n      jumpi\n      dup1\n      0x1f\n      lt\n      tag_160\n      jumpi\n      0x0100\n      dup1\n      dup4\n      sload\n      div\n      mul\n      dup4\n      mstore\n      swap2\n      0x20\n      add\n      swap2\n      jump(tag_159)\n    tag_160:\n      dup3\n      add\n      swap2\n      swap1\n      0x00\n      mstore\n      keccak256(0x00, 0x20)\n      swap1\n    tag_161:\n      dup2\n      sload\n      dup2\n      mstore\n      swap1\n      0x01\n      add\n      swap1\n      0x20\n      add\n      dup1\n      dup4\n      gt\n      tag_161\n      jumpi\n      dup3\n      swap1\n      sub\n      0x1f\n      and\n      dup3\n      add\n      swap2\n    tag_159:\n      pop\n      pop\n      pop\n      pop\n      pop\n      swap1\n      pop\n        /* \"lib/openzeppelin-contracts/contracts/token/ERC20/ERC20.sol\":2074:2163  function name() public view virtual returns (string memory) {... */\n      swap1\n      jump\t// out\n        /* \"lib/openzeppelin-contracts/contracts/token/ERC20/extensions/ERC4626.sol\":6152:6300  function convertToAssets(uint256 shares) public view virtual returns (uint256) {... */\n    tag_47:\n        /* \"lib/openzeppelin-contracts/contracts/token/ERC20/extensions/ERC4626.sol\":6222:6229  uint256 */\n      0x00\n        /* \"lib/openzeppelin-contracts/contracts/token/ERC20/extensions/ERC4626.sol\":6248:6293  _convertToAssets(shares, Math.Rounding.Floor) */\n      tag_163\n        /* \"lib/openzeppelin-contracts/contracts/token/ERC20/extensions/ERC4626.sol\":6265:6271  shares */\n      dup3\n        /* \"lib/openzeppelin-contracts/contracts/token/ERC20/extensions/ERC4626.sol\":6273:6292  Math.Rounding.Floor */\n      0x00\n        /* \"lib/openzeppelin-contracts/contracts/token/ERC20/extensions/ERC4626.sol\":6248:6264  _convertToAssets */\n      tag_164\n        /* \"lib/openzeppelin-contracts/contracts/token/ERC20/extensions/ERC4626.sol\":6248:6293  _convertToAssets(shares, Math.Rounding.Floor) */\n      jump\t// in\n    tag_163:\n        /* \"lib/openzeppelin-contracts/contracts/token/ERC20/extensions/ERC4626.sol\":6241:6293  return _convertToAssets(shares, Math.Rounding.Floor) */\n      swap1\n      pop\n        /* \"lib/openzeppelin-contracts/contracts/token/ERC20/extensions/ERC4626.sol\":6152:6300  function convertToAssets(uint256 shares) public view virtual returns (uint256) {... */\n      swap2\n      swap1\n      pop\n      jump\t// out\n        /* \"lib/openzeppelin-contracts/contracts/token/ERC20/ERC20.sol\":4293:4479  function approve(address spender, uint256 value) public virtual returns (bool) {... */\n    tag_52:\n        /* \"lib/openzeppelin-contracts/contracts/token/ERC20/ERC20.sol\":4366:4370  bool */\n      0x00\n        /* \"lib/openzeppelin-contracts/contracts/token/ERC20/ERC20.sol\":4382:4395  address owner */\n      dup1\n        /* \"lib/openzeppelin-contracts/contracts/token/ERC20/ERC20.sol\":4398:4410  _msgSender() */\n      tag_166\n        /* \"lib/openzeppelin-contracts/contracts/token/ERC20/ERC20.sol\":4398:4408  _msgSender */\n      tag_167\n        /* \"lib/openzeppelin-contracts/contracts/token/ERC20/ERC20.sol\":4398:4410  _msgSender() */\n      jump\t// in\n    tag_166:\n        /* \"lib/openzeppelin-contracts/contracts/token/ERC20/ERC20.sol\":4382:4410  address owner = _msgSender() */\n      swap1\n      pop\n        /* \"lib/openzeppelin-contracts/contracts/token/ERC20/ERC20.sol\":4420:4451  _approve(owner, spender, value) */\n      tag_168\n        /* \"lib/openzeppelin-contracts/contracts/token/ERC20/ERC20.sol\":4429:4434  owner */\n      dup2\n        /* \"lib/openzeppelin-contracts/contracts/token/ERC20/ERC20.sol\":4436:4443  spender */\n      dup6\n        /* \"lib/openzeppelin-contracts/contracts/token/ERC20/ERC20.sol\":4445:4450  value */\n      dup6\n        /* \"lib/openzeppelin-contracts/contracts/token/ERC20/ERC20.sol\":4420:4428  _approve */\n      tag_169\n        /* \"lib/openzeppelin-contracts/contracts/token/ERC20/ERC20.sol\":4420:4451  _approve(owner, spender, value) */\n      jump\t// in\n    tag_168:\n        /* \"lib/openzeppelin-contracts/contracts/token/ERC20/ERC20.sol\":4468:4472  true */\n      0x01\n        /* \"lib/openzeppelin-contracts/contracts/token/ERC20/ERC20.sol\":4461:4472  return true */\n      swap2\n      pop\n      pop\n        /* \"lib/openzeppelin-contracts/contracts/token/ERC20/ERC20.sol\":4293:4479  function approve(address spender, uint256 value) public virtual returns (bool) {... */\n      swap3\n      swap2\n      pop\n      pop\n      jump\t// out\n        /* \"lib/openzeppelin-contracts/contracts/mocks/docs/ERC4626Fees.sol\":1249:1460  function previewWithdraw(uint256 assets) public view virtual override returns (uint256) {... */\n    tag_57:\n        /* \"lib/openzeppelin-contracts/contracts/mocks/docs/ERC4626Fees.sol\":1328:1335  uint256 */\n      0x00\n        /* \"lib/openzeppelin-contracts/contracts/mocks/docs/ERC4626Fees.sol\":1347:1358  uint256 fee */\n      dup1\n        /* \"lib/openzeppelin-contracts/contracts/mocks/docs/ERC4626Fees.sol\":1361:1401  _feeOnRaw(assets, _exitFeeBasisPoints()) */\n      tag_171\n        /* \"lib/openzeppelin-contracts/contracts/mocks/docs/ERC4626Fees.sol\":1371:1377  assets */\n      dup4\n        /* \"lib/openzeppelin-contracts/contracts/mocks/docs/ERC4626Fees.sol\":1379:1400  _exitFeeBasisPoints() */\n      tag_172\n        /* \"lib/openzeppelin-contracts/contracts/mocks/docs/ERC4626Fees.sol\":1379:1398  _exitFeeBasisPoints */\n      tag_173\n        /* \"lib/openzeppelin-contracts/contracts/mocks/docs/ERC4626Fees.sol\":1379:1400  _exitFeeBasisPoints() */\n      jump\t// in\n    tag_172:\n        /* \"lib/openzeppelin-contracts/contracts/mocks/docs/ERC4626Fees.sol\":1361:1370  _feeOnRaw */\n      tag_174\n        /* \"lib/openzeppelin-contracts/contracts/mocks/docs/ERC4626Fees.sol\":1361:1401  _feeOnRaw(assets, _exitFeeBasisPoints()) */\n      jump\t// in\n    tag_171:\n        /* \"lib/openzeppelin-contracts/contracts/mocks/docs/ERC4626Fees.sol\":1347:1401  uint256 fee = _feeOnRaw(assets, _exitFeeBasisPoints()) */\n      swap1\n      pop\n        /* \"lib/openzeppelin-contracts/contracts/mocks/docs/ERC4626Fees.sol\":1418:1453  super.previewWithdraw(assets + fee) */\n      tag_175\n        /* \"lib/openzeppelin-contracts/contracts/mocks/docs/ERC4626Fees.sol\":1449:1452  fee */\n      dup2\n        /* \"lib/openzeppelin-contracts/contracts/mocks/docs/ERC4626Fees.sol\":1440:1446  assets */\n      dup5\n        /* \"lib/openzeppelin-contracts/contracts/mocks/docs/ERC4626Fees.sol\":1440:1452  assets + fee */\n      tag_176\n      swap2\n      swap1\n      tag_177\n      jump\t// in\n    tag_176:\n        /* \"lib/openzeppelin-contracts/contracts/mocks/docs/ERC4626Fees.sol\":1418:1439  super.previewWithdraw */\n      tag_178\n        /* \"lib/openzeppelin-contracts/contracts/mocks/docs/ERC4626Fees.sol\":1418:1453  super.previewWithdraw(assets + fee) */\n      jump\t// in\n    tag_175:\n        /* \"lib/openzeppelin-contracts/contracts/mocks/docs/ERC4626Fees.sol\":1411:1453  return super.previewWithdraw(assets + fee) */\n      swap2\n      pop\n      pop\n        /* \"lib/openzeppelin-contracts/contracts/mocks/docs/ERC4626Fees.sol\":1249:1460  function previewWithdraw(uint256 assets) public view virtual override returns (uint256) {... */\n      swap2\n      swap1\n      pop\n      jump\t// out\n        /* \"lib/openzeppelin-contracts/contracts/token/ERC20/ERC20.sol\":3144:3241  function totalSupply() public view virtual returns (uint256) {... */\n    tag_60:\n        /* \"lib/openzeppelin-contracts/contracts/token/ERC20/ERC20.sol\":3196:3203  uint256 */\n      0x00\n        /* \"lib/openzeppelin-contracts/contracts/token/ERC20/ERC20.sol\":3222:3234  _totalSupply */\n      sload(0x02)\n        /* \"lib/openzeppelin-contracts/contracts/token/ERC20/ERC20.sol\":3215:3234  return _totalSupply */\n      swap1\n      pop\n        /* \"lib/openzeppelin-contracts/contracts/token/ERC20/ERC20.sol\":3144:3241  function totalSupply() public view virtual returns (uint256) {... */\n      swap1\n      jump\t// out\n        /* \"lib/openzeppelin-contracts/contracts/token/ERC20/ERC20.sol\":5039:5283  function transferFrom(address from, address to, uint256 value) public virtual returns (bool) {... */\n    tag_65:\n        /* \"lib/openzeppelin-contracts/contracts/token/ERC20/ERC20.sol\":5126:5130  bool */\n      0x00\n        /* \"lib/openzeppelin-contracts/contracts/token/ERC20/ERC20.sol\":5142:5157  address spender */\n      dup1\n        /* \"lib/openzeppelin-contracts/contracts/token/ERC20/ERC20.sol\":5160:5172  _msgSender() */\n      tag_181\n        /* \"lib/openzeppelin-contracts/contracts/token/ERC20/ERC20.sol\":5160:5170  _msgSender */\n      tag_167\n        /* \"lib/openzeppelin-contracts/contracts/token/ERC20/ERC20.sol\":5160:5172  _msgSender() */\n      jump\t// in\n    tag_181:\n        /* \"lib/openzeppelin-contracts/contracts/token/ERC20/ERC20.sol\":5142:5172  address spender = _msgSender() */\n      swap1\n      pop\n        /* \"lib/openzeppelin-contracts/contracts/token/ERC20/ERC20.sol\":5182:5219  _spendAllowance(from, spender, value) */\n      tag_182\n        /* \"lib/openzeppelin-contracts/contracts/token/ERC20/ERC20.sol\":5198:5202  from */\n      dup6\n        /* \"lib/openzeppelin-contracts/contracts/token/ERC20/ERC20.sol\":5204:5211  spender */\n      dup3\n        /* \"lib/openzeppelin-contracts/contracts/token/ERC20/ERC20.sol\":5213:5218  value */\n      dup6\n        /* \"lib/openzeppelin-contracts/contracts/token/ERC20/ERC20.sol\":5182:5197  _spendAllowance */\n      tag_183\n        /* \"lib/openzeppelin-contracts/contracts/token/ERC20/ERC20.sol\":5182:5219  _spendAllowance(from, spender, value) */\n      jump\t// in\n    tag_182:\n        /* \"lib/openzeppelin-contracts/contracts/token/ERC20/ERC20.sol\":5229:5255  _transfer(from, to, value) */\n      tag_184\n        /* \"lib/openzeppelin-contracts/contracts/token/ERC20/ERC20.sol\":5239:5243  from */\n      dup6\n        /* \"lib/openzeppelin-contracts/contracts/token/ERC20/ERC20.sol\":5245:5247  to */\n      dup6\n        /* \"lib/openzeppelin-contracts/contracts/token/ERC20/ERC20.sol\":5249:5254  value */\n      dup6\n        /* \"lib/openzeppelin-contracts/contracts/token/ERC20/ERC20.sol\":5229:5238  _transfer */\n      tag_185\n        /* \"lib/openzeppelin-contracts/contracts/token/ERC20/ERC20.sol\":5229:5255  _transfer(from, to, value) */\n      jump\t// in\n    tag_184:\n        /* \"lib/openzeppelin-contracts/contracts/token/ERC20/ERC20.sol\":5272:5276  true */\n      0x01\n        /* \"lib/openzeppelin-contracts/contracts/token/ERC20/ERC20.sol\":5265:5276  return true */\n      swap2\n      pop\n      pop\n        /* \"lib/openzeppelin-contracts/contracts/token/ERC20/ERC20.sol\":5039:5283  function transferFrom(address from, address to, uint256 value) public virtual returns (bool) {... */\n      swap4\n      swap3\n      pop\n      pop\n      pop\n      jump\t// out\n        /* \"lib/openzeppelin-contracts/contracts/token/ERC20/extensions/ERC4626.sol\":5441:5592  function decimals() public view virtual override(IERC20Metadata, ERC20) returns (uint8) {... */\n    tag_68:\n        /* \"lib/openzeppelin-contracts/contracts/token/ERC20/extensions/ERC4626.sol\":5522:5527  uint8 */\n      0x00\n        /* \"lib/openzeppelin-contracts/contracts/token/ERC20/extensions/ERC4626.sol\":5568:5585  _decimalsOffset() */\n      tag_187\n        /* \"lib/openzeppelin-contracts/contracts/token/ERC20/extensions/ERC4626.sol\":5568:5583  _decimalsOffset */\n      tag_188\n        /* \"lib/openzeppelin-contracts/contracts/token/ERC20/extensions/ERC4626.sol\":5568:5585  _decimalsOffset() */\n      jump\t// in\n    tag_187:\n        /* \"lib/openzeppelin-contracts/contracts/token/ERC20/extensions/ERC4626.sol\":5546:5565  _underlyingDecimals */\n      immutable(\"0xf5e5f362c88d870042340181c8ba3c810faeaf69b620e2b6c1b44f2a54634680\")\n        /* \"lib/openzeppelin-contracts/contracts/token/ERC20/extensions/ERC4626.sol\":5546:5585  _underlyingDecimals + _decimalsOffset() */\n      tag_189\n      swap2\n      swap1\n      tag_190\n      jump\t// in\n    tag_189:\n        /* \"lib/openzeppelin-contracts/contracts/token/ERC20/extensions/ERC4626.sol\":5539:5585  return _underlyingDecimals + _decimalsOffset() */\n      swap1\n      pop\n        /* \"lib/openzeppelin-contracts/contracts/token/ERC20/extensions/ERC4626.sol\":5441:5592  function decimals() public view virtual override(IERC20Metadata, ERC20) returns (uint8) {... */\n      swap1\n      jump\t// out\n        /* \"lib/openzeppelin-contracts/contracts/token/ERC20/extensions/ERC4626.sol\":5636:5730  function asset() public view virtual returns (address) {... */\n    tag_72:\n        /* \"lib/openzeppelin-contracts/contracts/token/ERC20/extensions/ERC4626.sol\":5682:5689  address */\n      0x00\n        /* \"lib/openzeppelin-contracts/contracts/token/ERC20/extensions/ERC4626.sol\":5716:5722  _asset */\n      immutable(\"0x2b94863e8a5710fa2a2df950f83723d3cf9047cafa56ad6e529f5e55ac56c9e6\")\n        /* \"lib/openzeppelin-contracts/contracts/token/ERC20/extensions/ERC4626.sol\":5701:5723  return address(_asset) */\n      swap1\n      pop\n        /* \"lib/openzeppelin-contracts/contracts/token/ERC20/extensions/ERC4626.sol\":5636:5730  function asset() public view virtual returns (address) {... */\n      swap1\n      jump\t// out\n        /* \"lib/openzeppelin-contracts/contracts/token/ERC20/extensions/ERC4626.sol\":6349:6457  function maxDeposit(address) public view virtual returns (uint256) {... */\n    tag_78:\n        /* \"lib/openzeppelin-contracts/contracts/token/ERC20/extensions/ERC4626.sol\":6407:6414  uint256 */\n      0x00\n        /* \"lib/openzeppelin-contracts/contracts/token/ERC20/extensions/ERC4626.sol\":6433:6450  type(uint256).max */\n      0xffffffffffffffffffffffffffffffffffffffffffffffffffffffffffffffff\n        /* \"lib/openzeppelin-contracts/contracts/token/ERC20/extensions/ERC4626.sol\":6426:6450  return type(uint256).max */\n      swap1\n      pop\n        /* \"lib/openzeppelin-contracts/contracts/token/ERC20/extensions/ERC4626.sol\":6349:6457  function maxDeposit(address) public view virtual returns (uint256) {... */\n      swap2\n      swap1\n      pop\n      jump\t// out\n        /* \"lib/openzeppelin-contracts/contracts/mocks/docs/ERC4626Fees.sol\":1547:1762  function previewRedeem(uint256 shares) public view virtual override returns (uint256) {... */\n    tag_82:\n        /* \"lib/openzeppelin-contracts/contracts/mocks/docs/ERC4626Fees.sol\":1624:1631  uint256 */\n      0x00\n        /* \"lib/openzeppelin-contracts/contracts/mocks/docs/ERC4626Fees.sol\":1643:1657  uint256 assets */\n      dup1\n        /* \"lib/openzeppelin-contracts/contracts/mocks/docs/ERC4626Fees.sol\":1660:1687  super.previewRedeem(shares) */\n      tag_194\n        /* \"lib/openzeppelin-contracts/contracts/mocks/docs/ERC4626Fees.sol\":1680:1686  shares */\n      dup4\n        /* \"lib/openzeppelin-contracts/contracts/mocks/docs/ERC4626Fees.sol\":1660:1679  super.previewRedeem */\n      tag_195\n        /* \"lib/openzeppelin-contracts/contracts/mocks/docs/ERC4626Fees.sol\":1660:1687  super.previewRedeem(shares) */\n      jump\t// in\n    tag_194:\n        /* \"lib/openzeppelin-contracts/contracts/mocks/docs/ERC4626Fees.sol\":1643:1687  uint256 assets = super.previewRedeem(shares) */\n      swap1\n      pop\n        /* \"lib/openzeppelin-contracts/contracts/mocks/docs/ERC4626Fees.sol\":1713:1755  _feeOnTotal(assets, _exitFeeBasisPoints()) */\n      tag_196\n        /* \"lib/openzeppelin-contracts/contracts/mocks/docs/ERC4626Fees.sol\":1725:1731  assets */\n      dup2\n        /* \"lib/openzeppelin-contracts/contracts/mocks/docs/ERC4626Fees.sol\":1733:1754  _exitFeeBasisPoints() */\n      tag_197\n        /* \"lib/openzeppelin-contracts/contracts/mocks/docs/ERC4626Fees.sol\":1733:1752  _exitFeeBasisPoints */\n      tag_173\n        /* \"lib/openzeppelin-contracts/contracts/mocks/docs/ERC4626Fees.sol\":1733:1754  _exitFeeBasisPoints() */\n      jump\t// in\n    tag_197:\n        /* \"lib/openzeppelin-contracts/contracts/mocks/docs/ERC4626Fees.sol\":1713:1724  _feeOnTotal */\n      tag_198\n        /* \"lib/openzeppelin-contracts/contracts/mocks/docs/ERC4626Fees.sol\":1713:1755  _feeOnTotal(assets, _exitFeeBasisPoints()) */\n      jump\t// in\n    tag_196:\n        /* \"lib/openzeppelin-contracts/contracts/mocks/docs/ERC4626Fees.sol\":1704:1710  assets */\n      dup2\n        /* \"lib/openzeppelin-contracts/contracts/mocks/docs/ERC4626Fees.sol\":1704:1755  assets - _feeOnTotal(assets, _exitFeeBasisPoints()) */\n      tag_199\n      swap2\n      swap1\n      tag_200\n      jump\t// in\n    tag_199:\n        /* \"lib/openzeppelin-contracts/contracts/mocks/docs/ERC4626Fees.sol\":1697:1755  return assets - _feeOnTotal(assets, _exitFeeBasisPoints()) */\n      swap2\n      pop\n      pop\n        /* \"lib/openzeppelin-contracts/contracts/mocks/docs/ERC4626Fees.sol\":1547:1762  function previewRedeem(uint256 shares) public view virtual override returns (uint256) {... */\n      swap2\n      swap1\n      pop\n      jump\t// out\n        /* \"lib/openzeppelin-contracts/contracts/token/ERC20/extensions/ERC4626.sol\":7809:8201  function deposit(uint256 assets, address receiver) public virtual returns (uint256) {... */\n    tag_87:\n        /* \"lib/openzeppelin-contracts/contracts/token/ERC20/extensions/ERC4626.sol\":7884:7891  uint256 */\n      0x00\n        /* \"lib/openzeppelin-contracts/contracts/token/ERC20/extensions/ERC4626.sol\":7903:7920  uint256 maxAssets */\n      dup1\n        /* \"lib/openzeppelin-contracts/contracts/token/ERC20/extensions/ERC4626.sol\":7923:7943  maxDeposit(receiver) */\n      tag_202\n        /* \"lib/openzeppelin-contracts/contracts/token/ERC20/extensions/ERC4626.sol\":7934:7942  receiver */\n      dup4\n        /* \"lib/openzeppelin-contracts/contracts/token/ERC20/extensions/ERC4626.sol\":7923:7933  maxDeposit */\n      tag_78\n        /* \"lib/openzeppelin-contracts/contracts/token/ERC20/extensions/ERC4626.sol\":7923:7943  maxDeposit(receiver) */\n      jump\t// in\n    tag_202:\n        /* \"lib/openzeppelin-contracts/contracts/token/ERC20/extensions/ERC4626.sol\":7903:7943  uint256 maxAssets = maxDeposit(receiver) */\n      swap1\n      pop\n        /* \"lib/openzeppelin-contracts/contracts/token/ERC20/extensions/ERC4626.sol\":7966:7975  maxAssets */\n      dup1\n        /* \"lib/openzeppelin-contracts/contracts/token/ERC20/extensions/ERC4626.sol\":7957:7963  assets */\n      dup5\n        /* \"lib/openzeppelin-contracts/contracts/token/ERC20/extensions/ERC4626.sol\":7957:7975  assets > maxAssets */\n      gt\n        /* \"lib/openzeppelin-contracts/contracts/token/ERC20/extensions/ERC4626.sol\":7953:8063  if (assets > maxAssets) {... */\n      iszero\n      tag_203\n      jumpi\n        /* \"lib/openzeppelin-contracts/contracts/token/ERC20/extensions/ERC4626.sol\":8024:8032  receiver */\n      dup3\n        /* \"lib/openzeppelin-contracts/contracts/token/ERC20/extensions/ERC4626.sol\":8034:8040  assets */\n      dup5\n        /* \"lib/openzeppelin-contracts/contracts/token/ERC20/extensions/ERC4626.sol\":8042:8051  maxAssets */\n      dup3\n        /* \"lib/openzeppelin-contracts/contracts/token/ERC20/extensions/ERC4626.sol\":7998:8052  ERC4626ExceededMaxDeposit(receiver, assets, maxAssets) */\n      mload(0x40)\n      0x79012fb200000000000000000000000000000000000000000000000000000000\n      dup2\n      mstore\n      0x04\n      add\n      tag_204\n      swap4\n      swap3\n      swap2\n      swap1\n      tag_205\n      jump\t// in\n    tag_204:\n      mload(0x40)\n      dup1\n      swap2\n      sub\n      swap1\n      revert\n        /* \"lib/openzeppelin-contracts/contracts/token/ERC20/extensions/ERC4626.sol\":7953:8063  if (assets > maxAssets) {... */\n    tag_203:\n        /* \"lib/openzeppelin-contracts/contracts/token/ERC20/extensions/ERC4626.sol\":8073:8087  uint256 shares */\n      0x00\n        /* \"lib/openzeppelin-contracts/contracts/token/ERC20/extensions/ERC4626.sol\":8090:8112  previewDeposit(assets) */\n      tag_206\n        /* \"lib/openzeppelin-contracts/contracts/token/ERC20/extensions/ERC4626.sol\":8105:8111  assets */\n      dup6\n        /* \"lib/openzeppelin-contracts/contracts/token/ERC20/extensions/ERC4626.sol\":8090:8104  previewDeposit */\n      tag_147\n        /* \"lib/openzeppelin-contracts/contracts/token/ERC20/extensions/ERC4626.sol\":8090:8112  previewDeposit(assets) */\n      jump\t// in\n    tag_206:\n        /* \"lib/openzeppelin-contracts/contracts/token/ERC20/extensions/ERC4626.sol\":8073:8112  uint256 shares = previewDeposit(assets) */\n      swap1\n      pop\n        /* \"lib/openzeppelin-contracts/contracts/token/ERC20/extensions/ERC4626.sol\":8122:8170  _deposit(_msgSender(), receiver, assets, shares) */\n      tag_207\n        /* \"lib/openzeppelin-contracts/contracts/token/ERC20/extensions/ERC4626.sol\":8131:8143  _msgSender() */\n      tag_208\n        /* \"lib/openzeppelin-contracts/contracts/token/ERC20/extensions/ERC4626.sol\":8131:8141  _msgSender */\n      tag_167\n        /* \"lib/openzeppelin-contracts/contracts/token/ERC20/extensions/ERC4626.sol\":8131:8143  _msgSender() */\n      jump\t// in\n    tag_208:\n        /* \"lib/openzeppelin-contracts/contracts/token/ERC20/extensions/ERC4626.sol\":8145:8153  receiver */\n      dup6\n        /* \"lib/openzeppelin-contracts/contracts/token/ERC20/extensions/ERC4626.sol\":8155:8161  assets */\n      dup8\n        /* \"lib/openzeppelin-contracts/contracts/token/ERC20/extensions/ERC4626.sol\":8163:8169  shares */\n      dup5\n        /* \"lib/openzeppelin-contracts/contracts/token/ERC20/extensions/ERC4626.sol\":8122:8130  _deposit */\n      tag_209\n        /* \"lib/openzeppelin-contracts/contracts/token/ERC20/extensions/ERC4626.sol\":8122:8170  _deposit(_msgSender(), receiver, assets, shares) */\n      jump\t// in\n    tag_207:\n        /* \"lib/openzeppelin-contracts/contracts/token/ERC20/extensions/ERC4626.sol\":8188:8194  shares */\n      dup1\n        /* \"lib/openzeppelin-contracts/contracts/token/ERC20/extensions/ERC4626.sol\":8181:8194  return shares */\n      swap3\n      pop\n      pop\n      pop\n        /* \"lib/openzeppelin-contracts/contracts/token/ERC20/extensions/ERC4626.sol\":7809:8201  function deposit(uint256 assets, address receiver) public virtual returns (uint256) {... */\n      swap3\n      swap2\n      pop\n      pop\n      jump\t// out\n        /* \"lib/openzeppelin-contracts/contracts/token/ERC20/ERC20.sol\":3299:3415  function balanceOf(address account) public view virtual returns (uint256) {... */\n    tag_91:\n        /* \"lib/openzeppelin-contracts/contracts/token/ERC20/ERC20.sol\":3364:3371  uint256 */\n      0x00\n        /* \"lib/openzeppelin-contracts/contracts/token/ERC20/ERC20.sol\":3390:3399  _balances */\n      dup1\n        /* \"lib/openzeppelin-contracts/contracts/token/ERC20/ERC20.sol\":3390:3408  _balances[account] */\n      0x00\n        /* \"lib/openzeppelin-contracts/contracts/token/ERC20/ERC20.sol\":3400:3407  account */\n      dup4\n        /* \"lib/openzeppelin-contracts/contracts/token/ERC20/ERC20.sol\":3390:3408  _balances[account] */\n      0xffffffffffffffffffffffffffffffffffffffff\n      and\n      0xffffffffffffffffffffffffffffffffffffffff\n      and\n      dup2\n      mstore\n      0x20\n      add\n      swap1\n      dup2\n      mstore\n      0x20\n      add\n      0x00\n      keccak256\n      sload\n        /* \"lib/openzeppelin-contracts/contracts/token/ERC20/ERC20.sol\":3383:3408  return _balances[account] */\n      swap1\n      pop\n        /* \"lib/openzeppelin-contracts/contracts/token/ERC20/ERC20.sol\":3299:3415  function balanceOf(address account) public view virtual returns (uint256) {... */\n      swap2\n      swap1\n      pop\n      jump\t// out\n        /* \"src/Vaults.sol\":212:240  address payable public owner */\n    tag_94:\n      0x05\n      0x00\n      swap1\n      sload\n      swap1\n      0x0100\n      exp\n      swap1\n      div\n      0xffffffffffffffffffffffffffffffffffffffff\n      and\n      dup2\n      jump\t// out\n        /* \"lib/openzeppelin-contracts/contracts/token/ERC20/extensions/ERC4626.sol\":8468:8848  function mint(uint256 shares, address receiver) public virtual returns (uint256) {... */\n    tag_99:\n        /* \"lib/openzeppelin-contracts/contracts/token/ERC20/extensions/ERC4626.sol\":8540:8547  uint256 */\n      0x00\n        /* \"lib/openzeppelin-contracts/contracts/token/ERC20/extensions/ERC4626.sol\":8559:8576  uint256 maxShares */\n      dup1\n        /* \"lib/openzeppelin-contracts/contracts/token/ERC20/extensions/ERC4626.sol\":8579:8596  maxMint(receiver) */\n      tag_212\n        /* \"lib/openzeppelin-contracts/contracts/token/ERC20/extensions/ERC4626.sol\":8587:8595  receiver */\n      dup4\n        /* \"lib/openzeppelin-contracts/contracts/token/ERC20/extensions/ERC4626.sol\":8579:8586  maxMint */\n      tag_126\n        /* \"lib/openzeppelin-contracts/contracts/token/ERC20/extensions/ERC4626.sol\":8579:8596  maxMint(receiver) */\n      jump\t// in\n    tag_212:\n        /* \"lib/openzeppelin-contracts/contracts/token/ERC20/extensions/ERC4626.sol\":8559:8596  uint256 maxShares = maxMint(receiver) */\n      swap1\n      pop\n        /* \"lib/openzeppelin-contracts/contracts/token/ERC20/extensions/ERC4626.sol\":8619:8628  maxShares */\n      dup1\n        /* \"lib/openzeppelin-contracts/contracts/token/ERC20/extensions/ERC4626.sol\":8610:8616  shares */\n      dup5\n        /* \"lib/openzeppelin-contracts/contracts/token/ERC20/extensions/ERC4626.sol\":8610:8628  shares > maxShares */\n      gt\n        /* \"lib/openzeppelin-contracts/contracts/token/ERC20/extensions/ERC4626.sol\":8606:8713  if (shares > maxShares) {... */\n      iszero\n      tag_213\n      jumpi\n        /* \"lib/openzeppelin-contracts/contracts/token/ERC20/extensions/ERC4626.sol\":8674:8682  receiver */\n      dup3\n        /* \"lib/openzeppelin-contracts/contracts/token/ERC20/extensions/ERC4626.sol\":8684:8690  shares */\n      dup5\n        /* \"lib/openzeppelin-contracts/contracts/token/ERC20/extensions/ERC4626.sol\":8692:8701  maxShares */\n      dup3\n        /* \"lib/openzeppelin-contracts/contracts/token/ERC20/extensions/ERC4626.sol\":8651:8702  ERC4626ExceededMaxMint(receiver, shares, maxShares) */\n      mload(0x40)\n      0x284ff66700000000000000000000000000000000000000000000000000000000\n      dup2\n      mstore\n      0x04\n      add\n      tag_214\n      swap4\n      swap3\n      swap2\n      swap1\n      tag_205\n      jump\t// in\n    tag_214:\n      mload(0x40)\n      dup1\n      swap2\n      sub\n      swap1\n      revert\n        /* \"lib/openzeppelin-contracts/contracts/token/ERC20/extensions/ERC4626.sol\":8606:8713  if (shares > maxShares) {... */\n    tag_213:\n        /* \"lib/openzeppelin-contracts/contracts/token/ERC20/extensions/ERC4626.sol\":8723:8737  uint256 assets */\n      0x00\n        /* \"lib/openzeppelin-contracts/contracts/token/ERC20/extensions/ERC4626.sol\":8740:8759  previewMint(shares) */\n      tag_215\n        /* \"lib/openzeppelin-contracts/contracts/token/ERC20/extensions/ERC4626.sol\":8752:8758  shares */\n      dup6\n        /* \"lib/openzeppelin-contracts/contracts/token/ERC20/extensions/ERC4626.sol\":8740:8751  previewMint */\n      tag_110\n        /* \"lib/openzeppelin-contracts/contracts/token/ERC20/extensions/ERC4626.sol\":8740:8759  previewMint(shares) */\n      jump\t// in\n    tag_215:\n        /* \"lib/openzeppelin-contracts/contracts/token/ERC20/extensions/ERC4626.sol\":8723:8759  uint256 assets = previewMint(shares) */\n      swap1\n      pop\n        /* \"lib/openzeppelin-contracts/contracts/token/ERC20/extensions/ERC4626.sol\":8769:8817  _deposit(_msgSender(), receiver, assets, shares) */\n      tag_216\n        /* \"lib/openzeppelin-contracts/contracts/token/ERC20/extensions/ERC4626.sol\":8778:8790  _msgSender() */\n      tag_217\n        /* \"lib/openzeppelin-contracts/contracts/token/ERC20/extensions/ERC4626.sol\":8778:8788  _msgSender */\n      tag_167\n        /* \"lib/openzeppelin-contracts/contracts/token/ERC20/extensions/ERC4626.sol\":8778:8790  _msgSender() */\n      jump\t// in\n    tag_217:\n        /* \"lib/openzeppelin-contracts/contracts/token/ERC20/extensions/ERC4626.sol\":8792:8800  receiver */\n      dup6\n        /* \"lib/openzeppelin-contracts/contracts/token/ERC20/extensions/ERC4626.sol\":8802:8808  assets */\n      dup4\n        /* \"lib/openzeppelin-contracts/contracts/token/ERC20/extensions/ERC4626.sol\":8810:8816  shares */\n      dup9\n        /* \"lib/openzeppelin-contracts/contracts/token/ERC20/extensions/ERC4626.sol\":8769:8777  _deposit */\n      tag_209\n        /* \"lib/openzeppelin-contracts/contracts/token/ERC20/extensions/ERC4626.sol\":8769:8817  _deposit(_msgSender(), receiver, assets, shares) */\n      jump\t// in\n    tag_216:\n        /* \"lib/openzeppelin-contracts/contracts/token/ERC20/extensions/ERC4626.sol\":8835:8841  assets */\n      dup1\n        /* \"lib/openzeppelin-contracts/contracts/token/ERC20/extensions/ERC4626.sol\":8828:8841  return assets */\n      swap3\n      pop\n      pop\n      pop\n        /* \"lib/openzeppelin-contracts/contracts/token/ERC20/extensions/ERC4626.sol\":8468:8848  function mint(uint256 shares, address receiver) public virtual returns (uint256) {... */\n      swap3\n      swap2\n      pop\n      pop\n      jump\t// out\n        /* \"lib/openzeppelin-contracts/contracts/token/ERC20/ERC20.sol\":2276:2369  function symbol() public view virtual returns (string memory) {... */\n    tag_102:\n        /* \"lib/openzeppelin-contracts/contracts/token/ERC20/ERC20.sol\":2323:2336  string memory */\n      0x60\n        /* \"lib/openzeppelin-contracts/contracts/token/ERC20/ERC20.sol\":2355:2362  _symbol */\n      0x04\n        /* \"lib/openzeppelin-contracts/contracts/token/ERC20/ERC20.sol\":2348:2362  return _symbol */\n      dup1\n      sload\n      tag_219\n      swap1\n      tag_157\n      jump\t// in\n    tag_219:\n      dup1\n      0x1f\n      add\n      0x20\n      dup1\n      swap2\n      div\n      mul\n      0x20\n      add\n      mload(0x40)\n      swap1\n      dup2\n      add\n      0x40\n      mstore\n      dup1\n      swap3\n      swap2\n      swap1\n      dup2\n      dup2\n      mstore\n      0x20\n      add\n      dup3\n      dup1\n      sload\n      tag_220\n      swap1\n      tag_157\n      jump\t// in\n    tag_220:\n      dup1\n      iszero\n      tag_221\n      jumpi\n      dup1\n      0x1f\n      lt\n      tag_222\n      jumpi\n      0x0100\n      dup1\n      dup4\n      sload\n      div\n      mul\n      dup4\n      mstore\n      swap2\n      0x20\n      add\n      swap2\n      jump(tag_221)\n    tag_222:\n      dup3\n      add\n      swap2\n      swap1\n      0x00\n      mstore\n      keccak256(0x00, 0x20)\n      swap1\n    tag_223:\n      dup2\n      sload\n      dup2\n      mstore\n      swap1\n      0x01\n      add\n      swap1\n      0x20\n      add\n      dup1\n      dup4\n      gt\n      tag_223\n      jumpi\n      dup3\n      swap1\n      sub\n      0x1f\n      and\n      dup3\n      add\n      swap2\n    tag_221:\n      pop\n      pop\n      pop\n      pop\n      pop\n      swap1\n      pop\n        /* \"lib/openzeppelin-contracts/contracts/token/ERC20/ERC20.sol\":2276:2369  function symbol() public view virtual returns (string memory) {... */\n      swap1\n      jump\t// out\n        /* \"lib/openzeppelin-contracts/contracts/token/ERC20/ERC20.sol\":3610:3788  function transfer(address to, uint256 value) public virtual returns (bool) {... */\n    tag_106:\n        /* \"lib/openzeppelin-contracts/contracts/token/ERC20/ERC20.sol\":3679:3683  bool */\n      0x00\n        /* \"lib/openzeppelin-contracts/contracts/token/ERC20/ERC20.sol\":3695:3708  address owner */\n      dup1\n        /* \"lib/openzeppelin-contracts/contracts/token/ERC20/ERC20.sol\":3711:3723  _msgSender() */\n      tag_225\n        /* \"lib/openzeppelin-contracts/contracts/token/ERC20/ERC20.sol\":3711:3721  _msgSender */\n      tag_167\n        /* \"lib/openzeppelin-contracts/contracts/token/ERC20/ERC20.sol\":3711:3723  _msgSender() */\n      jump\t// in\n    tag_225:\n        /* \"lib/openzeppelin-contracts/contracts/token/ERC20/ERC20.sol\":3695:3723  address owner = _msgSender() */\n      swap1\n      pop\n        /* \"lib/openzeppelin-contracts/contracts/token/ERC20/ERC20.sol\":3733:3760  _transfer(owner, to, value) */\n      tag_226\n        /* \"lib/openzeppelin-contracts/contracts/token/ERC20/ERC20.sol\":3743:3748  owner */\n      dup2\n        /* \"lib/openzeppelin-contracts/contracts/token/ERC20/ERC20.sol\":3750:3752  to */\n      dup6\n        /* \"lib/openzeppelin-contracts/contracts/token/ERC20/ERC20.sol\":3754:3759  value */\n      dup6\n        /* \"lib/openzeppelin-contracts/contracts/token/ERC20/ERC20.sol\":3733:3742  _transfer */\n      tag_185\n        /* \"lib/openzeppelin-contracts/contracts/token/ERC20/ERC20.sol\":3733:3760  _transfer(owner, to, value) */\n      jump\t// in\n    tag_226:\n        /* \"lib/openzeppelin-contracts/contracts/token/ERC20/ERC20.sol\":3777:3781  true */\n      0x01\n        /* \"lib/openzeppelin-contracts/contracts/token/ERC20/ERC20.sol\":3770:3781  return true */\n      swap2\n      pop\n      pop\n        /* \"lib/openzeppelin-contracts/contracts/token/ERC20/ERC20.sol\":3610:3788  function transfer(address to, uint256 value) public virtual returns (bool) {... */\n      swap3\n      swap2\n      pop\n      pop\n      jump\t// out\n        /* \"lib/openzeppelin-contracts/contracts/mocks/docs/ERC4626Fees.sol\":948:1158  function previewMint(uint256 shares) public view virtual override returns (uint256) {... */\n    tag_110:\n        /* \"lib/openzeppelin-contracts/contracts/mocks/docs/ERC4626Fees.sol\":1023:1030  uint256 */\n      0x00\n        /* \"lib/openzeppelin-contracts/contracts/mocks/docs/ERC4626Fees.sol\":1042:1056  uint256 assets */\n      dup1\n        /* \"lib/openzeppelin-contracts/contracts/mocks/docs/ERC4626Fees.sol\":1059:1084  super.previewMint(shares) */\n      tag_228\n        /* \"lib/openzeppelin-contracts/contracts/mocks/docs/ERC4626Fees.sol\":1077:1083  shares */\n      dup4\n        /* \"lib/openzeppelin-contracts/contracts/mocks/docs/ERC4626Fees.sol\":1059:1076  super.previewMint */\n      tag_229\n        /* \"lib/openzeppelin-contracts/contracts/mocks/docs/ERC4626Fees.sol\":1059:1084  super.previewMint(shares) */\n      jump\t// in\n    tag_228:\n        /* \"lib/openzeppelin-contracts/contracts/mocks/docs/ERC4626Fees.sol\":1042:1084  uint256 assets = super.previewMint(shares) */\n      swap1\n      pop\n        /* \"lib/openzeppelin-contracts/contracts/mocks/docs/ERC4626Fees.sol\":1110:1151  _feeOnRaw(assets, _entryFeeBasisPoints()) */\n      tag_230\n        /* \"lib/openzeppelin-contracts/contracts/mocks/docs/ERC4626Fees.sol\":1120:1126  assets */\n      dup2\n        /* \"lib/openzeppelin-contracts/contracts/mocks/docs/ERC4626Fees.sol\":1128:1150  _entryFeeBasisPoints() */\n      tag_231\n        /* \"lib/openzeppelin-contracts/contracts/mocks/docs/ERC4626Fees.sol\":1128:1148  _entryFeeBasisPoints */\n      tag_232\n        /* \"lib/openzeppelin-contracts/contracts/mocks/docs/ERC4626Fees.sol\":1128:1150  _entryFeeBasisPoints() */\n      jump\t// in\n    tag_231:\n        /* \"lib/openzeppelin-contracts/contracts/mocks/docs/ERC4626Fees.sol\":1110:1119  _feeOnRaw */\n      tag_174\n        /* \"lib/openzeppelin-contracts/contracts/mocks/docs/ERC4626Fees.sol\":1110:1151  _feeOnRaw(assets, _entryFeeBasisPoints()) */\n      jump\t// in\n    tag_230:\n        /* \"lib/openzeppelin-contracts/contracts/mocks/docs/ERC4626Fees.sol\":1101:1107  assets */\n      dup2\n        /* \"lib/openzeppelin-contracts/contracts/mocks/docs/ERC4626Fees.sol\":1101:1151  assets + _feeOnRaw(assets, _entryFeeBasisPoints()) */\n      tag_233\n      swap2\n      swap1\n      tag_177\n      jump\t// in\n    tag_233:\n        /* \"lib/openzeppelin-contracts/contracts/mocks/docs/ERC4626Fees.sol\":1094:1151  return assets + _feeOnRaw(assets, _entryFeeBasisPoints()) */\n      swap2\n      pop\n      pop\n        /* \"lib/openzeppelin-contracts/contracts/mocks/docs/ERC4626Fees.sol\":948:1158  function previewMint(uint256 shares) public view virtual override returns (uint256) {... */\n      swap2\n      swap1\n      pop\n      jump\t// out\n        /* \"lib/openzeppelin-contracts/contracts/token/ERC20/extensions/ERC4626.sol\":8895:9308  function withdraw(uint256 assets, address receiver, address owner) public virtual returns (uint256) {... */\n    tag_115:\n        /* \"lib/openzeppelin-contracts/contracts/token/ERC20/extensions/ERC4626.sol\":8986:8993  uint256 */\n      0x00\n        /* \"lib/openzeppelin-contracts/contracts/token/ERC20/extensions/ERC4626.sol\":9005:9022  uint256 maxAssets */\n      dup1\n        /* \"lib/openzeppelin-contracts/contracts/token/ERC20/extensions/ERC4626.sol\":9025:9043  maxWithdraw(owner) */\n      tag_235\n        /* \"lib/openzeppelin-contracts/contracts/token/ERC20/extensions/ERC4626.sol\":9037:9042  owner */\n      dup4\n        /* \"lib/openzeppelin-contracts/contracts/token/ERC20/extensions/ERC4626.sol\":9025:9036  maxWithdraw */\n      tag_134\n        /* \"lib/openzeppelin-contracts/contracts/token/ERC20/extensions/ERC4626.sol\":9025:9043  maxWithdraw(owner) */\n      jump\t// in\n    tag_235:\n        /* \"lib/openzeppelin-contracts/contracts/token/ERC20/extensions/ERC4626.sol\":9005:9043  uint256 maxAssets = maxWithdraw(owner) */\n      swap1\n      pop\n        /* \"lib/openzeppelin-contracts/contracts/token/ERC20/extensions/ERC4626.sol\":9066:9075  maxAssets */\n      dup1\n        /* \"lib/openzeppelin-contracts/contracts/token/ERC20/extensions/ERC4626.sol\":9057:9063  assets */\n      dup6\n        /* \"lib/openzeppelin-contracts/contracts/token/ERC20/extensions/ERC4626.sol\":9057:9075  assets > maxAssets */\n      gt\n        /* \"lib/openzeppelin-contracts/contracts/token/ERC20/extensions/ERC4626.sol\":9053:9161  if (assets > maxAssets) {... */\n      iszero\n      tag_236\n      jumpi\n        /* \"lib/openzeppelin-contracts/contracts/token/ERC20/extensions/ERC4626.sol\":9125:9130  owner */\n      dup3\n        /* \"lib/openzeppelin-contracts/contracts/token/ERC20/extensions/ERC4626.sol\":9132:9138  assets */\n      dup6\n        /* \"lib/openzeppelin-contracts/contracts/token/ERC20/extensions/ERC4626.sol\":9140:9149  maxAssets */\n      dup3\n        /* \"lib/openzeppelin-contracts/contracts/token/ERC20/extensions/ERC4626.sol\":9098:9150  ERC4626ExceededMaxWithdraw(owner, assets, maxAssets) */\n      mload(0x40)\n      0xfe9cceec00000000000000000000000000000000000000000000000000000000\n      dup2\n      mstore\n      0x04\n      add\n      tag_237\n      swap4\n      swap3\n      swap2\n      swap1\n      tag_205\n      jump\t// in\n    tag_237:\n      mload(0x40)\n      dup1\n      swap2\n      sub\n      swap1\n      revert\n        /* \"lib/openzeppelin-contracts/contracts/token/ERC20/extensions/ERC4626.sol\":9053:9161  if (assets > maxAssets) {... */\n    tag_236:\n        /* \"lib/openzeppelin-contracts/contracts/token/ERC20/extensions/ERC4626.sol\":9171:9185  uint256 shares */\n      0x00\n        /* \"lib/openzeppelin-contracts/contracts/token/ERC20/extensions/ERC4626.sol\":9188:9211  previewWithdraw(assets) */\n      tag_238\n        /* \"lib/openzeppelin-contracts/contracts/token/ERC20/extensions/ERC4626.sol\":9204:9210  assets */\n      dup7\n        /* \"lib/openzeppelin-contracts/contracts/token/ERC20/extensions/ERC4626.sol\":9188:9203  previewWithdraw */\n      tag_57\n        /* \"lib/openzeppelin-contracts/contracts/token/ERC20/extensions/ERC4626.sol\":9188:9211  previewWithdraw(assets) */\n      jump\t// in\n    tag_238:\n        /* \"lib/openzeppelin-contracts/contracts/token/ERC20/extensions/ERC4626.sol\":9171:9211  uint256 shares = previewWithdraw(assets) */\n      swap1\n      pop\n        /* \"lib/openzeppelin-contracts/contracts/token/ERC20/extensions/ERC4626.sol\":9221:9277  _withdraw(_msgSender(), receiver, owner, assets, shares) */\n      tag_239\n        /* \"lib/openzeppelin-contracts/contracts/token/ERC20/extensions/ERC4626.sol\":9231:9243  _msgSender() */\n      tag_240\n        /* \"lib/openzeppelin-contracts/contracts/token/ERC20/extensions/ERC4626.sol\":9231:9241  _msgSender */\n      tag_167\n        /* \"lib/openzeppelin-contracts/contracts/token/ERC20/extensions/ERC4626.sol\":9231:9243  _msgSender() */\n      jump\t// in\n    tag_240:\n        /* \"lib/openzeppelin-contracts/contracts/token/ERC20/extensions/ERC4626.sol\":9245:9253  receiver */\n      dup7\n        /* \"lib/openzeppelin-contracts/contracts/token/ERC20/extensions/ERC4626.sol\":9255:9260  owner */\n      dup7\n        /* \"lib/openzeppelin-contracts/contracts/token/ERC20/extensions/ERC4626.sol\":9262:9268  assets */\n      dup10\n        /* \"lib/openzeppelin-contracts/contracts/token/ERC20/extensions/ERC4626.sol\":9270:9276  shares */\n      dup6\n        /* \"lib/openzeppelin-contracts/contracts/token/ERC20/extensions/ERC4626.sol\":9221:9230  _withdraw */\n      tag_241\n        /* \"lib/openzeppelin-contracts/contracts/token/ERC20/extensions/ERC4626.sol\":9221:9277  _withdraw(_msgSender(), receiver, owner, assets, shares) */\n      jump\t// in\n    tag_239:\n        /* \"lib/openzeppelin-contracts/contracts/token/ERC20/extensions/ERC4626.sol\":9295:9301  shares */\n      dup1\n        /* \"lib/openzeppelin-contracts/contracts/token/ERC20/extensions/ERC4626.sol\":9288:9301  return shares */\n      swap3\n      pop\n      pop\n      pop\n        /* \"lib/openzeppelin-contracts/contracts/token/ERC20/extensions/ERC4626.sol\":8895:9308  function withdraw(uint256 assets, address receiver, address owner) public virtual returns (uint256) {... */\n      swap4\n      swap3\n      pop\n      pop\n      pop\n      jump\t// out\n        /* \"lib/openzeppelin-contracts/contracts/token/ERC20/extensions/ERC4626.sol\":9353:9758  function redeem(uint256 shares, address receiver, address owner) public virtual returns (uint256) {... */\n    tag_119:\n        /* \"lib/openzeppelin-contracts/contracts/token/ERC20/extensions/ERC4626.sol\":9442:9449  uint256 */\n      0x00\n        /* \"lib/openzeppelin-contracts/contracts/token/ERC20/extensions/ERC4626.sol\":9461:9478  uint256 maxShares */\n      dup1\n        /* \"lib/openzeppelin-contracts/contracts/token/ERC20/extensions/ERC4626.sol\":9481:9497  maxRedeem(owner) */\n      tag_243\n        /* \"lib/openzeppelin-contracts/contracts/token/ERC20/extensions/ERC4626.sol\":9491:9496  owner */\n      dup4\n        /* \"lib/openzeppelin-contracts/contracts/token/ERC20/extensions/ERC4626.sol\":9481:9490  maxRedeem */\n      tag_138\n        /* \"lib/openzeppelin-contracts/contracts/token/ERC20/extensions/ERC4626.sol\":9481:9497  maxRedeem(owner) */\n      jump\t// in\n    tag_243:\n        /* \"lib/openzeppelin-contracts/contracts/token/ERC20/extensions/ERC4626.sol\":9461:9497  uint256 maxShares = maxRedeem(owner) */\n      swap1\n      pop\n        /* \"lib/openzeppelin-contracts/contracts/token/ERC20/extensions/ERC4626.sol\":9520:9529  maxShares */\n      dup1\n        /* \"lib/openzeppelin-contracts/contracts/token/ERC20/extensions/ERC4626.sol\":9511:9517  shares */\n      dup6\n        /* \"lib/openzeppelin-contracts/contracts/token/ERC20/extensions/ERC4626.sol\":9511:9529  shares > maxShares */\n      gt\n        /* \"lib/openzeppelin-contracts/contracts/token/ERC20/extensions/ERC4626.sol\":9507:9613  if (shares > maxShares) {... */\n      iszero\n      tag_244\n      jumpi\n        /* \"lib/openzeppelin-contracts/contracts/token/ERC20/extensions/ERC4626.sol\":9577:9582  owner */\n      dup3\n        /* \"lib/openzeppelin-contracts/contracts/token/ERC20/extensions/ERC4626.sol\":9584:9590  shares */\n      dup6\n        /* \"lib/openzeppelin-contracts/contracts/token/ERC20/extensions/ERC4626.sol\":9592:9601  maxShares */\n      dup3\n        /* \"lib/openzeppelin-contracts/contracts/token/ERC20/extensions/ERC4626.sol\":9552:9602  ERC4626ExceededMaxRedeem(owner, shares, maxShares) */\n      mload(0x40)\n      0xb94abeec00000000000000000000000000000000000000000000000000000000\n      dup2\n      mstore\n      0x04\n      add\n      tag_245\n      swap4\n      swap3\n      swap2\n      swap1\n      tag_205\n      jump\t// in\n    tag_245:\n      mload(0x40)\n      dup1\n      swap2\n      sub\n      swap1\n      revert\n        /* \"lib/openzeppelin-contracts/contracts/token/ERC20/extensions/ERC4626.sol\":9507:9613  if (shares > maxShares) {... */\n    tag_244:\n        /* \"lib/openzeppelin-contracts/contracts/token/ERC20/extensions/ERC4626.sol\":9623:9637  uint256 assets */\n      0x00\n        /* \"lib/openzeppelin-contracts/contracts/token/ERC20/extensions/ERC4626.sol\":9640:9661  previewRedeem(shares) */\n      tag_246\n        /* \"lib/openzeppelin-contracts/contracts/token/ERC20/extensions/ERC4626.sol\":9654:9660  shares */\n      dup7\n        /* \"lib/openzeppelin-contracts/contracts/token/ERC20/extensions/ERC4626.sol\":9640:9653  previewRedeem */\n      tag_82\n        /* \"lib/openzeppelin-contracts/contracts/token/ERC20/extensions/ERC4626.sol\":9640:9661  previewRedeem(shares) */\n      jump\t// in\n    tag_246:\n        /* \"lib/openzeppelin-contracts/contracts/token/ERC20/extensions/ERC4626.sol\":9623:9661  uint256 assets = previewRedeem(shares) */\n      swap1\n      pop\n        /* \"lib/openzeppelin-contracts/contracts/token/ERC20/extensions/ERC4626.sol\":9671:9727  _withdraw(_msgSender(), receiver, owner, assets, shares) */\n      tag_247\n        /* \"lib/openzeppelin-contracts/contracts/token/ERC20/extensions/ERC4626.sol\":9681:9693  _msgSender() */\n      tag_248\n        /* \"lib/openzeppelin-contracts/contracts/token/ERC20/extensions/ERC4626.sol\":9681:9691  _msgSender */\n      tag_167\n        /* \"lib/openzeppelin-contracts/contracts/token/ERC20/extensions/ERC4626.sol\":9681:9693  _msgSender() */\n      jump\t// in\n    tag_248:\n        /* \"lib/openzeppelin-contracts/contracts/token/ERC20/extensions/ERC4626.sol\":9695:9703  receiver */\n      dup7\n        /* \"lib/openzeppelin-contracts/contracts/token/ERC20/extensions/ERC4626.sol\":9705:9710  owner */\n      dup7\n        /* \"lib/openzeppelin-contracts/contracts/token/ERC20/extensions/ERC4626.sol\":9712:9718  assets */\n      dup5\n        /* \"lib/openzeppelin-contracts/contracts/token/ERC20/extensions/ERC4626.sol\":9720:9726  shares */\n      dup11\n        /* \"lib/openzeppelin-contracts/contracts/token/ERC20/extensions/ERC4626.sol\":9671:9680  _withdraw */\n      tag_241\n        /* \"lib/openzeppelin-contracts/contracts/token/ERC20/extensions/ERC4626.sol\":9671:9727  _withdraw(_msgSender(), receiver, owner, assets, shares) */\n      jump\t// in\n    tag_247:\n        /* \"lib/openzeppelin-contracts/contracts/token/ERC20/extensions/ERC4626.sol\":9745:9751  assets */\n      dup1\n        /* \"lib/openzeppelin-contracts/contracts/token/ERC20/extensions/ERC4626.sol\":9738:9751  return assets */\n      swap3\n      pop\n      pop\n      pop\n        /* \"lib/openzeppelin-contracts/contracts/token/ERC20/extensions/ERC4626.sol\":9353:9758  function redeem(uint256 shares, address receiver, address owner) public virtual returns (uint256) {... */\n      swap4\n      swap3\n      pop\n      pop\n      pop\n      jump\t// out\n        /* \"src/Vaults.sol\":246:280  uint256 public entryFeeBasisPoints */\n    tag_122:\n      sload(0x06)\n      dup2\n      jump\t// out\n        /* \"lib/openzeppelin-contracts/contracts/token/ERC20/extensions/ERC4626.sol\":6503:6608  function maxMint(address) public view virtual returns (uint256) {... */\n    tag_126:\n        /* \"lib/openzeppelin-contracts/contracts/token/ERC20/extensions/ERC4626.sol\":6558:6565  uint256 */\n      0x00\n        /* \"lib/openzeppelin-contracts/contracts/token/ERC20/extensions/ERC4626.sol\":6584:6601  type(uint256).max */\n      0xffffffffffffffffffffffffffffffffffffffffffffffffffffffffffffffff\n        /* \"lib/openzeppelin-contracts/contracts/token/ERC20/extensions/ERC4626.sol\":6577:6601  return type(uint256).max */\n      swap1\n      pop\n        /* \"lib/openzeppelin-contracts/contracts/token/ERC20/extensions/ERC4626.sol\":6503:6608  function maxMint(address) public view virtual returns (uint256) {... */\n      swap2\n      swap1\n      pop\n      jump\t// out\n        /* \"lib/openzeppelin-contracts/contracts/token/ERC20/extensions/ERC4626.sol\":5950:6098  function convertToShares(uint256 assets) public view virtual returns (uint256) {... */\n    tag_130:\n        /* \"lib/openzeppelin-contracts/contracts/token/ERC20/extensions/ERC4626.sol\":6020:6027  uint256 */\n      0x00\n        /* \"lib/openzeppelin-contracts/contracts/token/ERC20/extensions/ERC4626.sol\":6046:6091  _convertToShares(assets, Math.Rounding.Floor) */\n      tag_251\n        /* \"lib/openzeppelin-contracts/contracts/token/ERC20/extensions/ERC4626.sol\":6063:6069  assets */\n      dup3\n        /* \"lib/openzeppelin-contracts/contracts/token/ERC20/extensions/ERC4626.sol\":6071:6090  Math.Rounding.Floor */\n      0x00\n        /* \"lib/openzeppelin-contracts/contracts/token/ERC20/extensions/ERC4626.sol\":6046:6062  _convertToShares */\n      tag_252\n        /* \"lib/openzeppelin-contracts/contracts/token/ERC20/extensions/ERC4626.sol\":6046:6091  _convertToShares(assets, Math.Rounding.Floor) */\n      jump\t// in\n    tag_251:\n        /* \"lib/openzeppelin-contracts/contracts/token/ERC20/extensions/ERC4626.sol\":6039:6091  return _convertToShares(assets, Math.Rounding.Floor) */\n      swap1\n      pop\n        /* \"lib/openzeppelin-contracts/contracts/token/ERC20/extensions/ERC4626.sol\":5950:6098  function convertToShares(uint256 assets) public view virtual returns (uint256) {... */\n      swap2\n      swap1\n      pop\n      jump\t// out\n        /* \"lib/openzeppelin-contracts/contracts/token/ERC20/extensions/ERC4626.sol\":6658:6811  function maxWithdraw(address owner) public view virtual returns (uint256) {... */\n    tag_134:\n        /* \"lib/openzeppelin-contracts/contracts/token/ERC20/extensions/ERC4626.sol\":6723:6730  uint256 */\n      0x00\n        /* \"lib/openzeppelin-contracts/contracts/token/ERC20/extensions/ERC4626.sol\":6749:6804  _convertToAssets(balanceOf(owner), Math.Rounding.Floor) */\n      tag_254\n        /* \"lib/openzeppelin-contracts/contracts/token/ERC20/extensions/ERC4626.sol\":6766:6782  balanceOf(owner) */\n      tag_255\n        /* \"lib/openzeppelin-contracts/contracts/token/ERC20/extensions/ERC4626.sol\":6776:6781  owner */\n      dup4\n        /* \"lib/openzeppelin-contracts/contracts/token/ERC20/extensions/ERC4626.sol\":6766:6775  balanceOf */\n      tag_91\n        /* \"lib/openzeppelin-contracts/contracts/token/ERC20/extensions/ERC4626.sol\":6766:6782  balanceOf(owner) */\n      jump\t// in\n    tag_255:\n        /* \"lib/openzeppelin-contracts/contracts/token/ERC20/extensions/ERC4626.sol\":6784:6803  Math.Rounding.Floor */\n      0x00\n        /* \"lib/openzeppelin-contracts/contracts/token/ERC20/extensions/ERC4626.sol\":6749:6765  _convertToAssets */\n      tag_164\n        /* \"lib/openzeppelin-contracts/contracts/token/ERC20/extensions/ERC4626.sol\":6749:6804  _convertToAssets(balanceOf(owner), Math.Rounding.Floor) */\n      jump\t// in\n    tag_254:\n        /* \"lib/openzeppelin-contracts/contracts/token/ERC20/extensions/ERC4626.sol\":6742:6804  return _convertToAssets(balanceOf(owner), Math.Rounding.Floor) */\n      swap1\n      pop\n        /* \"lib/openzeppelin-contracts/contracts/token/ERC20/extensions/ERC4626.sol\":6658:6811  function maxWithdraw(address owner) public view virtual returns (uint256) {... */\n      swap2\n      swap1\n      pop\n      jump\t// out\n        /* \"lib/openzeppelin-contracts/contracts/token/ERC20/extensions/ERC4626.sol\":6859:6971  function maxRedeem(address owner) public view virtual returns (uint256) {... */\n    tag_138:\n        /* \"lib/openzeppelin-contracts/contracts/token/ERC20/extensions/ERC4626.sol\":6922:6929  uint256 */\n      0x00\n        /* \"lib/openzeppelin-contracts/contracts/token/ERC20/extensions/ERC4626.sol\":6948:6964  balanceOf(owner) */\n      tag_257\n        /* \"lib/openzeppelin-contracts/contracts/token/ERC20/extensions/ERC4626.sol\":6958:6963  owner */\n      dup3\n        /* \"lib/openzeppelin-contracts/contracts/token/ERC20/extensions/ERC4626.sol\":6948:6957  balanceOf */\n      tag_91\n        /* \"lib/openzeppelin-contracts/contracts/token/ERC20/extensions/ERC4626.sol\":6948:6964  balanceOf(owner) */\n      jump\t// in\n    tag_257:\n        /* \"lib/openzeppelin-contracts/contracts/token/ERC20/extensions/ERC4626.sol\":6941:6964  return balanceOf(owner) */\n      swap1\n      pop\n        /* \"lib/openzeppelin-contracts/contracts/token/ERC20/extensions/ERC4626.sol\":6859:6971  function maxRedeem(address owner) public view virtual returns (uint256) {... */\n      swap2\n      swap1\n      pop\n      jump\t// out\n        /* \"lib/openzeppelin-contracts/contracts/token/ERC20/ERC20.sol\":3846:3986  function allowance(address owner, address spender) public view virtual returns (uint256) {... */\n    tag_143:\n        /* \"lib/openzeppelin-contracts/contracts/token/ERC20/ERC20.sol\":3926:3933  uint256 */\n      0x00\n        /* \"lib/openzeppelin-contracts/contracts/token/ERC20/ERC20.sol\":3952:3963  _allowances */\n      0x01\n        /* \"lib/openzeppelin-contracts/contracts/token/ERC20/ERC20.sol\":3952:3970  _allowances[owner] */\n      0x00\n        /* \"lib/openzeppelin-contracts/contracts/token/ERC20/ERC20.sol\":3964:3969  owner */\n      dup5\n        /* \"lib/openzeppelin-contracts/contracts/token/ERC20/ERC20.sol\":3952:3970  _allowances[owner] */\n      0xffffffffffffffffffffffffffffffffffffffff\n      and\n      0xffffffffffffffffffffffffffffffffffffffff\n      and\n      dup2\n      mstore\n      0x20\n      add\n      swap1\n      dup2\n      mstore\n      0x20\n      add\n      0x00\n      keccak256\n        /* \"lib/openzeppelin-contracts/contracts/token/ERC20/ERC20.sol\":3952:3979  _allowances[owner][spender] */\n      0x00\n        /* \"lib/openzeppelin-contracts/contracts/token/ERC20/ERC20.sol\":3971:3978  spender */\n      dup4\n        /* \"lib/openzeppelin-contracts/contracts/token/ERC20/ERC20.sol\":3952:3979  _allowances[owner][spender] */\n      0xffffffffffffffffffffffffffffffffffffffff\n      and\n      0xffffffffffffffffffffffffffffffffffffffff\n      and\n      dup2\n      mstore\n      0x20\n      add\n      swap1\n      dup2\n      mstore\n      0x20\n      add\n      0x00\n      keccak256\n      sload\n        /* \"lib/openzeppelin-contracts/contracts/token/ERC20/ERC20.sol\":3945:3979  return _allowances[owner][spender] */\n      swap1\n      pop\n        /* \"lib/openzeppelin-contracts/contracts/token/ERC20/ERC20.sol\":3846:3986  function allowance(address owner, address spender) public view virtual returns (uint256) {... */\n      swap3\n      swap2\n      pop\n      pop\n      jump\t// out\n        /* \"lib/openzeppelin-contracts/contracts/mocks/docs/ERC4626Fees.sol\":652:864  function previewDeposit(uint256 assets) public view virtual override returns (uint256) {... */\n    tag_147:\n        /* \"lib/openzeppelin-contracts/contracts/mocks/docs/ERC4626Fees.sol\":730:737  uint256 */\n      0x00\n        /* \"lib/openzeppelin-contracts/contracts/mocks/docs/ERC4626Fees.sol\":749:760  uint256 fee */\n      dup1\n        /* \"lib/openzeppelin-contracts/contracts/mocks/docs/ERC4626Fees.sol\":763:806  _feeOnTotal(assets, _entryFeeBasisPoints()) */\n      tag_260\n        /* \"lib/openzeppelin-contracts/contracts/mocks/docs/ERC4626Fees.sol\":775:781  assets */\n      dup4\n        /* \"lib/openzeppelin-contracts/contracts/mocks/docs/ERC4626Fees.sol\":783:805  _entryFeeBasisPoints() */\n      tag_261\n        /* \"lib/openzeppelin-contracts/contracts/mocks/docs/ERC4626Fees.sol\":783:803  _entryFeeBasisPoints */\n      tag_232\n        /* \"lib/openzeppelin-contracts/contracts/mocks/docs/ERC4626Fees.sol\":783:805  _entryFeeBasisPoints() */\n      jump\t// in\n    tag_261:\n        /* \"lib/openzeppelin-contracts/contracts/mocks/docs/ERC4626Fees.sol\":763:774  _feeOnTotal */\n      tag_198\n        /* \"lib/openzeppelin-contracts/contracts/mocks/docs/ERC4626Fees.sol\":763:806  _feeOnTotal(assets, _entryFeeBasisPoints()) */\n      jump\t// in\n    tag_260:\n        /* \"lib/openzeppelin-contracts/contracts/mocks/docs/ERC4626Fees.sol\":749:806  uint256 fee = _feeOnTotal(assets, _entryFeeBasisPoints()) */\n      swap1\n      pop\n        /* \"lib/openzeppelin-contracts/contracts/mocks/docs/ERC4626Fees.sol\":823:857  super.previewDeposit(assets - fee) */\n      tag_262\n        /* \"lib/openzeppelin-contracts/contracts/mocks/docs/ERC4626Fees.sol\":853:856  fee */\n      dup2\n        /* \"lib/openzeppelin-contracts/contracts/mocks/docs/ERC4626Fees.sol\":844:850  assets */\n      dup5\n        /* \"lib/openzeppelin-contracts/contracts/mocks/docs/ERC4626Fees.sol\":844:856  assets - fee */\n      tag_263\n      swap2\n      swap1\n      tag_200\n      jump\t// in\n    tag_263:\n        /* \"lib/openzeppelin-contracts/contracts/mocks/docs/ERC4626Fees.sol\":823:843  super.previewDeposit */\n      tag_264\n        /* \"lib/openzeppelin-contracts/contracts/mocks/docs/ERC4626Fees.sol\":823:857  super.previewDeposit(assets - fee) */\n      jump\t// in\n    tag_262:\n        /* \"lib/openzeppelin-contracts/contracts/mocks/docs/ERC4626Fees.sol\":816:857  return super.previewDeposit(assets - fee) */\n      swap2\n      pop\n      pop\n        /* \"lib/openzeppelin-contracts/contracts/mocks/docs/ERC4626Fees.sol\":652:864  function previewDeposit(uint256 assets) public view virtual override returns (uint256) {... */\n      swap2\n      swap1\n      pop\n      jump\t// out\n        /* \"lib/openzeppelin-contracts/contracts/token/ERC20/extensions/ERC4626.sol\":10219:10432  function _convertToAssets(uint256 shares, Math.Rounding rounding) internal view virtual returns (uint256) {... */\n    tag_164:\n        /* \"lib/openzeppelin-contracts/contracts/token/ERC20/extensions/ERC4626.sol\":10316:10323  uint256 */\n      0x00\n        /* \"lib/openzeppelin-contracts/contracts/token/ERC20/extensions/ERC4626.sol\":10342:10425  shares.mulDiv(totalAssets() + 1, totalSupply() + 10 ** _decimalsOffset(), rounding) */\n      tag_266\n        /* \"lib/openzeppelin-contracts/contracts/token/ERC20/extensions/ERC4626.sol\":10372:10373  1 */\n      0x01\n        /* \"lib/openzeppelin-contracts/contracts/token/ERC20/extensions/ERC4626.sol\":10356:10369  totalAssets() */\n      tag_267\n        /* \"lib/openzeppelin-contracts/contracts/token/ERC20/extensions/ERC4626.sol\":10356:10367  totalAssets */\n      tag_37\n        /* \"lib/openzeppelin-contracts/contracts/token/ERC20/extensions/ERC4626.sol\":10356:10369  totalAssets() */\n      jump\t// in\n    tag_267:\n        /* \"lib/openzeppelin-contracts/contracts/token/ERC20/extensions/ERC4626.sol\":10356:10373  totalAssets() + 1 */\n      tag_268\n      swap2\n      swap1\n      tag_177\n      jump\t// in\n    tag_268:\n        /* \"lib/openzeppelin-contracts/contracts/token/ERC20/extensions/ERC4626.sol\":10397:10414  _decimalsOffset() */\n      tag_269\n        /* \"lib/openzeppelin-contracts/contracts/token/ERC20/extensions/ERC4626.sol\":10397:10412  _decimalsOffset */\n      tag_188\n        /* \"lib/openzeppelin-contracts/contracts/token/ERC20/extensions/ERC4626.sol\":10397:10414  _decimalsOffset() */\n      jump\t// in\n    tag_269:\n        /* \"lib/openzeppelin-contracts/contracts/token/ERC20/extensions/ERC4626.sol\":10391:10393  10 */\n      0x0a\n        /* \"lib/openzeppelin-contracts/contracts/token/ERC20/extensions/ERC4626.sol\":10391:10414  10 ** _decimalsOffset() */\n      tag_270\n      swap2\n      swap1\n      tag_271\n      jump\t// in\n    tag_270:\n        /* \"lib/openzeppelin-contracts/contracts/token/ERC20/extensions/ERC4626.sol\":10375:10388  totalSupply() */\n      tag_272\n        /* \"lib/openzeppelin-contracts/contracts/token/ERC20/extensions/ERC4626.sol\":10375:10386  totalSupply */\n      tag_60\n        /* \"lib/openzeppelin-contracts/contracts/token/ERC20/extensions/ERC4626.sol\":10375:10388  totalSupply() */\n      jump\t// in\n    tag_272:\n        /* \"lib/openzeppelin-contracts/contracts/token/ERC20/extensions/ERC4626.sol\":10375:10414  totalSupply() + 10 ** _decimalsOffset() */\n      tag_273\n      swap2\n      swap1\n      tag_177\n      jump\t// in\n    tag_273:\n        /* \"lib/openzeppelin-contracts/contracts/token/ERC20/extensions/ERC4626.sol\":10416:10424  rounding */\n      dup5\n        /* \"lib/openzeppelin-contracts/contracts/token/ERC20/extensions/ERC4626.sol\":10342:10348  shares */\n      dup7\n        /* \"lib/openzeppelin-contracts/contracts/token/ERC20/extensions/ERC4626.sol\":10342:10355  shares.mulDiv */\n      tag_274\n      swap1\n        /* \"lib/openzeppelin-contracts/contracts/token/ERC20/extensions/ERC4626.sol\":10342:10425  shares.mulDiv(totalAssets() + 1, totalSupply() + 10 ** _decimalsOffset(), rounding) */\n      swap4\n      swap3\n      swap2\n      swap1\n      0xffffffff\n      and\n      jump\t// in\n    tag_266:\n        /* \"lib/openzeppelin-contracts/contracts/token/ERC20/extensions/ERC4626.sol\":10335:10425  return shares.mulDiv(totalAssets() + 1, totalSupply() + 10 ** _decimalsOffset(), rounding) */\n      swap1\n      pop\n        /* \"lib/openzeppelin-contracts/contracts/token/ERC20/extensions/ERC4626.sol\":10219:10432  function _convertToAssets(uint256 shares, Math.Rounding rounding) internal view virtual returns (uint256) {... */\n      swap3\n      swap2\n      pop\n      pop\n      jump\t// out\n        /* \"lib/openzeppelin-contracts/contracts/utils/Context.sol\":656:752  function _msgSender() internal view virtual returns (address) {... */\n    tag_167:\n        /* \"lib/openzeppelin-contracts/contracts/utils/Context.sol\":709:716  address */\n      0x00\n        /* \"lib/openzeppelin-contracts/contracts/utils/Context.sol\":735:745  msg.sender */\n      caller\n        /* \"lib/openzeppelin-contracts/contracts/utils/Context.sol\":728:745  return msg.sender */\n      swap1\n      pop\n        /* \"lib/openzeppelin-contracts/contracts/utils/Context.sol\":656:752  function _msgSender() internal view virtual returns (address) {... */\n      swap1\n      jump\t// out\n        /* \"lib/openzeppelin-contracts/contracts/token/ERC20/ERC20.sol\":8989:9117  function _approve(address owner, address spender, uint256 value) internal {... */\n    tag_169:\n        /* \"lib/openzeppelin-contracts/contracts/token/ERC20/ERC20.sol\":9073:9110  _approve(owner, spender, value, true) */\n      tag_277\n        /* \"lib/openzeppelin-contracts/contracts/token/ERC20/ERC20.sol\":9082:9087  owner */\n      dup4\n        /* \"lib/openzeppelin-contracts/contracts/token/ERC20/ERC20.sol\":9089:9096  spender */\n      dup4\n        /* \"lib/openzeppelin-contracts/contracts/token/ERC20/ERC20.sol\":9098:9103  value */\n      dup4\n        /* \"lib/openzeppelin-contracts/contracts/token/ERC20/ERC20.sol\":9105:9109  true */\n      0x01\n        /* \"lib/openzeppelin-contracts/contracts/token/ERC20/ERC20.sol\":9073:9081  _approve */\n      tag_278\n        /* \"lib/openzeppelin-contracts/contracts/token/ERC20/ERC20.sol\":9073:9110  _approve(owner, spender, value, true) */\n      jump\t// in\n    tag_277:\n        /* \"lib/openzeppelin-contracts/contracts/token/ERC20/ERC20.sol\":8989:9117  function _approve(address owner, address spender, uint256 value) internal {... */\n      pop\n      pop\n      pop\n      jump\t// out\n        /* \"lib/openzeppelin-contracts/contracts/mocks/docs/ERC4626Fees.sol\":3021:3149  function _exitFeeBasisPoints() internal view virtual returns (uint256) {... */\n    tag_173:\n        /* \"lib/openzeppelin-contracts/contracts/mocks/docs/ERC4626Fees.sol\":3083:3090  uint256 */\n      0x00\n        /* \"lib/openzeppelin-contracts/contracts/mocks/docs/ERC4626Fees.sol\":3021:3149  function _exitFeeBasisPoints() internal view virtual returns (uint256) {... */\n      swap1\n      jump\t// out\n        /* \"lib/openzeppelin-contracts/contracts/mocks/docs/ERC4626Fees.sol\":3665:3848  function _feeOnRaw(uint256 assets, uint256 feeBasisPoints) private pure returns (uint256) {... */\n    tag_174:\n        /* \"lib/openzeppelin-contracts/contracts/mocks/docs/ERC4626Fees.sol\":3746:3753  uint256 */\n      0x00\n        /* \"lib/openzeppelin-contracts/contracts/mocks/docs/ERC4626Fees.sol\":3772:3841  assets.mulDiv(feeBasisPoints, _BASIS_POINT_SCALE, Math.Rounding.Ceil) */\n      tag_281\n        /* \"lib/openzeppelin-contracts/contracts/mocks/docs/ERC4626Fees.sol\":3786:3800  feeBasisPoints */\n      dup3\n        /* \"lib/openzeppelin-contracts/contracts/mocks/docs/ERC4626Fees.sol\":532:535  1e4 */\n      0x2710\n        /* \"lib/openzeppelin-contracts/contracts/mocks/docs/ERC4626Fees.sol\":3822:3840  Math.Rounding.Ceil */\n      0x01\n        /* \"lib/openzeppelin-contracts/contracts/mocks/docs/ERC4626Fees.sol\":3772:3778  assets */\n      dup7\n        /* \"lib/openzeppelin-contracts/contracts/mocks/docs/ERC4626Fees.sol\":3772:3785  assets.mulDiv */\n      tag_274\n      swap1\n        /* \"lib/openzeppelin-contracts/contracts/mocks/docs/ERC4626Fees.sol\":3772:3841  assets.mulDiv(feeBasisPoints, _BASIS_POINT_SCALE, Math.Rounding.Ceil) */\n      swap4\n      swap3\n      swap2\n      swap1\n      0xffffffff\n      and\n      jump\t// in\n    tag_281:\n        /* \"lib/openzeppelin-contracts/contracts/mocks/docs/ERC4626Fees.sol\":3765:3841  return assets.mulDiv(feeBasisPoints, _BASIS_POINT_SCALE, Math.Rounding.Ceil) */\n      swap1\n      pop\n        /* \"lib/openzeppelin-contracts/contracts/mocks/docs/ERC4626Fees.sol\":3665:3848  function _feeOnRaw(uint256 assets, uint256 feeBasisPoints) private pure returns (uint256) {... */\n      swap3\n      swap2\n      pop\n      pop\n      jump\t// out\n        /* \"lib/openzeppelin-contracts/contracts/token/ERC20/extensions/ERC4626.sol\":7418:7565  function previewWithdraw(uint256 assets) public view virtual returns (uint256) {... */\n    tag_178:\n        /* \"lib/openzeppelin-contracts/contracts/token/ERC20/extensions/ERC4626.sol\":7488:7495  uint256 */\n      0x00\n        /* \"lib/openzeppelin-contracts/contracts/token/ERC20/extensions/ERC4626.sol\":7514:7558  _convertToShares(assets, Math.Rounding.Ceil) */\n      tag_283\n        /* \"lib/openzeppelin-contracts/contracts/token/ERC20/extensions/ERC4626.sol\":7531:7537  assets */\n      dup3\n        /* \"lib/openzeppelin-contracts/contracts/token/ERC20/extensions/ERC4626.sol\":7539:7557  Math.Rounding.Ceil */\n      0x01\n        /* \"lib/openzeppelin-contracts/contracts/token/ERC20/extensions/ERC4626.sol\":7514:7530  _convertToShares */\n      tag_252\n        /* \"lib/openzeppelin-contracts/contracts/token/ERC20/extensions/ERC4626.sol\":7514:7558  _convertToShares(assets, Math.Rounding.Ceil) */\n      jump\t// in\n    tag_283:\n        /* \"lib/openzeppelin-contracts/contracts/token/ERC20/extensions/ERC4626.sol\":7507:7558  return _convertToShares(assets, Math.Rounding.Ceil) */\n      swap1\n      pop\n        /* \"lib/openzeppelin-contracts/contracts/token/ERC20/extensions/ERC4626.sol\":7418:7565  function previewWithdraw(uint256 assets) public view virtual returns (uint256) {... */\n      swap2\n      swap1\n      pop\n      jump\t// out\n        /* \"lib/openzeppelin-contracts/contracts/token/ERC20/ERC20.sol\":10663:11140  function _spendAllowance(address owner, address spender, uint256 value) internal virtual {... */\n    tag_183:\n        /* \"lib/openzeppelin-contracts/contracts/token/ERC20/ERC20.sol\":10762:10786  uint256 currentAllowance */\n      0x00\n        /* \"lib/openzeppelin-contracts/contracts/token/ERC20/ERC20.sol\":10789:10814  allowance(owner, spender) */\n      tag_285\n        /* \"lib/openzeppelin-contracts/contracts/token/ERC20/ERC20.sol\":10799:10804  owner */\n      dup5\n        /* \"lib/openzeppelin-contracts/contracts/token/ERC20/ERC20.sol\":10806:10813  spender */\n      dup5\n        /* \"lib/openzeppelin-contracts/contracts/token/ERC20/ERC20.sol\":10789:10798  allowance */\n      tag_143\n        /* \"lib/openzeppelin-contracts/contracts/token/ERC20/ERC20.sol\":10789:10814  allowance(owner, spender) */\n      jump\t// in\n    tag_285:\n        /* \"lib/openzeppelin-contracts/contracts/token/ERC20/ERC20.sol\":10762:10814  uint256 currentAllowance = allowance(owner, spender) */\n      swap1\n      pop\n        /* \"lib/openzeppelin-contracts/contracts/token/ERC20/ERC20.sol\":10848:10865  type(uint256).max */\n      0xffffffffffffffffffffffffffffffffffffffffffffffffffffffffffffffff\n        /* \"lib/openzeppelin-contracts/contracts/token/ERC20/ERC20.sol\":10828:10844  currentAllowance */\n      dup2\n        /* \"lib/openzeppelin-contracts/contracts/token/ERC20/ERC20.sol\":10828:10865  currentAllowance != type(uint256).max */\n      eq\n        /* \"lib/openzeppelin-contracts/contracts/token/ERC20/ERC20.sol\":10824:11134  if (currentAllowance != type(uint256).max) {... */\n      tag_286\n      jumpi\n        /* \"lib/openzeppelin-contracts/contracts/token/ERC20/ERC20.sol\":10904:10909  value */\n      dup2\n        /* \"lib/openzeppelin-contracts/contracts/token/ERC20/ERC20.sol\":10885:10901  currentAllowance */\n      dup2\n        /* \"lib/openzeppelin-contracts/contracts/token/ERC20/ERC20.sol\":10885:10909  currentAllowance < value */\n      lt\n        /* \"lib/openzeppelin-contracts/contracts/token/ERC20/ERC20.sol\":10881:11011  if (currentAllowance < value) {... */\n      iszero\n      tag_287\n      jumpi\n        /* \"lib/openzeppelin-contracts/contracts/token/ERC20/ERC20.sol\":10963:10970  spender */\n      dup3\n        /* \"lib/openzeppelin-contracts/contracts/token/ERC20/ERC20.sol\":10972:10988  currentAllowance */\n      dup2\n        /* \"lib/openzeppelin-contracts/contracts/token/ERC20/ERC20.sol\":10990:10995  value */\n      dup4\n        /* \"lib/openzeppelin-contracts/contracts/token/ERC20/ERC20.sol\":10936:10996  ERC20InsufficientAllowance(spender, currentAllowance, value) */\n      mload(0x40)\n      0xfb8f41b200000000000000000000000000000000000000000000000000000000\n      dup2\n      mstore\n      0x04\n      add\n      tag_288\n      swap4\n      swap3\n      swap2\n      swap1\n      tag_205\n      jump\t// in\n    tag_288:\n      mload(0x40)\n      dup1\n      swap2\n      sub\n      swap1\n      revert\n        /* \"lib/openzeppelin-contracts/contracts/token/ERC20/ERC20.sol\":10881:11011  if (currentAllowance < value) {... */\n    tag_287:\n        /* \"lib/openzeppelin-contracts/contracts/token/ERC20/ERC20.sol\":11052:11109  _approve(owner, spender, currentAllowance - value, false) */\n      tag_289\n        /* \"lib/openzeppelin-contracts/contracts/token/ERC20/ERC20.sol\":11061:11066  owner */\n      dup5\n        /* \"lib/openzeppelin-contracts/contracts/token/ERC20/ERC20.sol\":11068:11075  spender */\n      dup5\n        /* \"lib/openzeppelin-contracts/contracts/token/ERC20/ERC20.sol\":11096:11101  value */\n      dup5\n        /* \"lib/openzeppelin-contracts/contracts/token/ERC20/ERC20.sol\":11077:11093  currentAllowance */\n      dup5\n        /* \"lib/openzeppelin-contracts/contracts/token/ERC20/ERC20.sol\":11077:11101  currentAllowance - value */\n      sub\n        /* \"lib/openzeppelin-contracts/contracts/token/ERC20/ERC20.sol\":11103:11108  false */\n      0x00\n        /* \"lib/openzeppelin-contracts/contracts/token/ERC20/ERC20.sol\":11052:11060  _approve */\n      tag_278\n        /* \"lib/openzeppelin-contracts/contracts/token/ERC20/ERC20.sol\":11052:11109  _approve(owner, spender, currentAllowance - value, false) */\n      jump\t// in\n    tag_289:\n        /* \"lib/openzeppelin-contracts/contracts/token/ERC20/ERC20.sol\":10824:11134  if (currentAllowance != type(uint256).max) {... */\n    tag_286:\n        /* \"lib/openzeppelin-contracts/contracts/token/ERC20/ERC20.sol\":10752:11140  {... */\n      pop\n        /* \"lib/openzeppelin-contracts/contracts/token/ERC20/ERC20.sol\":10663:11140  function _spendAllowance(address owner, address spender, uint256 value) internal virtual {... */\n      pop\n      pop\n      pop\n      jump\t// out\n        /* \"lib/openzeppelin-contracts/contracts/token/ERC20/ERC20.sol\":5656:5956  function _transfer(address from, address to, uint256 value) internal {... */\n    tag_185:\n        /* \"lib/openzeppelin-contracts/contracts/token/ERC20/ERC20.sol\":5755:5756  0 */\n      0x00\n        /* \"lib/openzeppelin-contracts/contracts/token/ERC20/ERC20.sol\":5739:5757  from == address(0) */\n      0xffffffffffffffffffffffffffffffffffffffff\n      and\n        /* \"lib/openzeppelin-contracts/contracts/token/ERC20/ERC20.sol\":5739:5743  from */\n      dup4\n        /* \"lib/openzeppelin-contracts/contracts/token/ERC20/ERC20.sol\":5739:5757  from == address(0) */\n      0xffffffffffffffffffffffffffffffffffffffff\n      and\n      sub\n        /* \"lib/openzeppelin-contracts/contracts/token/ERC20/ERC20.sol\":5735:5821  if (from == address(0)) {... */\n      tag_291\n      jumpi\n        /* \"lib/openzeppelin-contracts/contracts/token/ERC20/ERC20.sol\":5807:5808  0 */\n      0x00\n        /* \"lib/openzeppelin-contracts/contracts/token/ERC20/ERC20.sol\":5780:5810  ERC20InvalidSender(address(0)) */\n      mload(0x40)\n      0x96c6fd1e00000000000000000000000000000000000000000000000000000000\n      dup2\n      mstore\n      0x04\n      add\n      tag_292\n      swap2\n      swap1\n      tag_74\n      jump\t// in\n    tag_292:\n      mload(0x40)\n      dup1\n      swap2\n      sub\n      swap1\n      revert\n        /* \"lib/openzeppelin-contracts/contracts/token/ERC20/ERC20.sol\":5735:5821  if (from == address(0)) {... */\n    tag_291:\n        /* \"lib/openzeppelin-contracts/contracts/token/ERC20/ERC20.sol\":5848:5849  0 */\n      0x00\n        /* \"lib/openzeppelin-contracts/contracts/token/ERC20/ERC20.sol\":5834:5850  to == address(0) */\n      0xffffffffffffffffffffffffffffffffffffffff\n      and\n        /* \"lib/openzeppelin-contracts/contracts/token/ERC20/ERC20.sol\":5834:5836  to */\n      dup3\n        /* \"lib/openzeppelin-contracts/contracts/token/ERC20/ERC20.sol\":5834:5850  to == address(0) */\n      0xffffffffffffffffffffffffffffffffffffffff\n      and\n      sub\n        /* \"lib/openzeppelin-contracts/contracts/token/ERC20/ERC20.sol\":5830:5916  if (to == address(0)) {... */\n      tag_293\n      jumpi\n        /* \"lib/openzeppelin-contracts/contracts/token/ERC20/ERC20.sol\":5902:5903  0 */\n      0x00\n        /* \"lib/openzeppelin-contracts/contracts/token/ERC20/ERC20.sol\":5873:5905  ERC20InvalidReceiver(address(0)) */\n      mload(0x40)\n      0xec442f0500000000000000000000000000000000000000000000000000000000\n      dup2\n      mstore\n      0x04\n      add\n      tag_294\n      swap2\n      swap1\n      tag_74\n      jump\t// in\n    tag_294:\n      mload(0x40)\n      dup1\n      swap2\n      sub\n      swap1\n      revert\n        /* \"lib/openzeppelin-contracts/contracts/token/ERC20/ERC20.sol\":5830:5916  if (to == address(0)) {... */\n    tag_293:\n        /* \"lib/openzeppelin-contracts/contracts/token/ERC20/ERC20.sol\":5925:5949  _update(from, to, value) */\n      tag_295\n        /* \"lib/openzeppelin-contracts/contracts/token/ERC20/ERC20.sol\":5933:5937  from */\n      dup4\n        /* \"lib/openzeppelin-contracts/contracts/token/ERC20/ERC20.sol\":5939:5941  to */\n      dup4\n        /* \"lib/openzeppelin-contracts/contracts/token/ERC20/ERC20.sol\":5943:5948  value */\n      dup4\n        /* \"lib/openzeppelin-contracts/contracts/token/ERC20/ERC20.sol\":5925:5932  _update */\n      tag_296\n        /* \"lib/openzeppelin-contracts/contracts/token/ERC20/ERC20.sol\":5925:5949  _update(from, to, value) */\n      jump\t// in\n    tag_295:\n        /* \"lib/openzeppelin-contracts/contracts/token/ERC20/ERC20.sol\":5656:5956  function _transfer(address from, address to, uint256 value) internal {... */\n      pop\n      pop\n      pop\n      jump\t// out\n        /* \"lib/openzeppelin-contracts/contracts/token/ERC20/extensions/ERC4626.sol\":12313:12403  function _decimalsOffset() internal view virtual returns (uint8) {... */\n    tag_188:\n        /* \"lib/openzeppelin-contracts/contracts/token/ERC20/extensions/ERC4626.sol\":12371:12376  uint8 */\n      0x00\n        /* \"lib/openzeppelin-contracts/contracts/token/ERC20/extensions/ERC4626.sol\":12313:12403  function _decimalsOffset() internal view virtual returns (uint8) {... */\n      swap1\n      jump\t// out\n        /* \"lib/openzeppelin-contracts/contracts/token/ERC20/extensions/ERC4626.sol\":7617:7763  function previewRedeem(uint256 shares) public view virtual returns (uint256) {... */\n    tag_195:\n        /* \"lib/openzeppelin-contracts/contracts/token/ERC20/extensions/ERC4626.sol\":7685:7692  uint256 */\n      0x00\n        /* \"lib/openzeppelin-contracts/contracts/token/ERC20/extensions/ERC4626.sol\":7711:7756  _convertToAssets(shares, Math.Rounding.Floor) */\n      tag_299\n        /* \"lib/openzeppelin-contracts/contracts/token/ERC20/extensions/ERC4626.sol\":7728:7734  shares */\n      dup3\n        /* \"lib/openzeppelin-contracts/contracts/token/ERC20/extensions/ERC4626.sol\":7736:7755  Math.Rounding.Floor */\n      0x00\n        /* \"lib/openzeppelin-contracts/contracts/token/ERC20/extensions/ERC4626.sol\":7711:7727  _convertToAssets */\n      tag_164\n        /* \"lib/openzeppelin-contracts/contracts/token/ERC20/extensions/ERC4626.sol\":7711:7756  _convertToAssets(shares, Math.Rounding.Floor) */\n      jump\t// in\n    tag_299:\n        /* \"lib/openzeppelin-contracts/contracts/token/ERC20/extensions/ERC4626.sol\":7704:7756  return _convertToAssets(shares, Math.Rounding.Floor) */\n      swap1\n      pop\n        /* \"lib/openzeppelin-contracts/contracts/token/ERC20/extensions/ERC4626.sol\":7617:7763  function previewRedeem(uint256 shares) public view virtual returns (uint256) {... */\n      swap2\n      swap1\n      pop\n      jump\t// out\n        /* \"lib/openzeppelin-contracts/contracts/mocks/docs/ERC4626Fees.sol\":4010:4212  function _feeOnTotal(uint256 assets, uint256 feeBasisPoints) private pure returns (uint256) {... */\n    tag_198:\n        /* \"lib/openzeppelin-contracts/contracts/mocks/docs/ERC4626Fees.sol\":4093:4100  uint256 */\n      0x00\n        /* \"lib/openzeppelin-contracts/contracts/mocks/docs/ERC4626Fees.sol\":4119:4205  assets.mulDiv(feeBasisPoints, feeBasisPoints + _BASIS_POINT_SCALE, Math.Rounding.Ceil) */\n      tag_301\n        /* \"lib/openzeppelin-contracts/contracts/mocks/docs/ERC4626Fees.sol\":4133:4147  feeBasisPoints */\n      dup3\n        /* \"lib/openzeppelin-contracts/contracts/mocks/docs/ERC4626Fees.sol\":532:535  1e4 */\n      0x2710\n        /* \"lib/openzeppelin-contracts/contracts/mocks/docs/ERC4626Fees.sol\":4149:4163  feeBasisPoints */\n      dup5\n        /* \"lib/openzeppelin-contracts/contracts/mocks/docs/ERC4626Fees.sol\":4149:4184  feeBasisPoints + _BASIS_POINT_SCALE */\n      tag_302\n      swap2\n      swap1\n      tag_177\n      jump\t// in\n    tag_302:\n        /* \"lib/openzeppelin-contracts/contracts/mocks/docs/ERC4626Fees.sol\":4186:4204  Math.Rounding.Ceil */\n      0x01\n        /* \"lib/openzeppelin-contracts/contracts/mocks/docs/ERC4626Fees.sol\":4119:4125  assets */\n      dup7\n        /* \"lib/openzeppelin-contracts/contracts/mocks/docs/ERC4626Fees.sol\":4119:4132  assets.mulDiv */\n      tag_274\n      swap1\n        /* \"lib/openzeppelin-contracts/contracts/mocks/docs/ERC4626Fees.sol\":4119:4205  assets.mulDiv(feeBasisPoints, feeBasisPoints + _BASIS_POINT_SCALE, Math.Rounding.Ceil) */\n      swap4\n      swap3\n      swap2\n      swap1\n      0xffffffff\n      and\n      jump\t// in\n    tag_301:\n        /* \"lib/openzeppelin-contracts/contracts/mocks/docs/ERC4626Fees.sol\":4112:4205  return assets.mulDiv(feeBasisPoints, feeBasisPoints + _BASIS_POINT_SCALE, Math.Rounding.Ceil) */\n      swap1\n      pop\n        /* \"lib/openzeppelin-contracts/contracts/mocks/docs/ERC4626Fees.sol\":4010:4212  function _feeOnTotal(uint256 assets, uint256 feeBasisPoints) private pure returns (uint256) {... */\n      swap3\n      swap2\n      pop\n      pop\n      jump\t// out\n        /* \"lib/openzeppelin-contracts/contracts/mocks/docs/ERC4626Fees.sol\":1846:2272  function _deposit(address caller, address receiver, uint256 assets, uint256 shares) internal virtual override {... */\n    tag_209:\n        /* \"lib/openzeppelin-contracts/contracts/mocks/docs/ERC4626Fees.sol\":1966:1977  uint256 fee */\n      0x00\n        /* \"lib/openzeppelin-contracts/contracts/mocks/docs/ERC4626Fees.sol\":1980:2023  _feeOnTotal(assets, _entryFeeBasisPoints()) */\n      tag_304\n        /* \"lib/openzeppelin-contracts/contracts/mocks/docs/ERC4626Fees.sol\":1992:1998  assets */\n      dup4\n        /* \"lib/openzeppelin-contracts/contracts/mocks/docs/ERC4626Fees.sol\":2000:2022  _entryFeeBasisPoints() */\n      tag_305\n        /* \"lib/openzeppelin-contracts/contracts/mocks/docs/ERC4626Fees.sol\":2000:2020  _entryFeeBasisPoints */\n      tag_232\n        /* \"lib/openzeppelin-contracts/contracts/mocks/docs/ERC4626Fees.sol\":2000:2022  _entryFeeBasisPoints() */\n      jump\t// in\n    tag_305:\n        /* \"lib/openzeppelin-contracts/contracts/mocks/docs/ERC4626Fees.sol\":1980:1991  _feeOnTotal */\n      tag_198\n        /* \"lib/openzeppelin-contracts/contracts/mocks/docs/ERC4626Fees.sol\":1980:2023  _feeOnTotal(assets, _entryFeeBasisPoints()) */\n      jump\t// in\n    tag_304:\n        /* \"lib/openzeppelin-contracts/contracts/mocks/docs/ERC4626Fees.sol\":1966:2023  uint256 fee = _feeOnTotal(assets, _entryFeeBasisPoints()) */\n      swap1\n      pop\n        /* \"lib/openzeppelin-contracts/contracts/mocks/docs/ERC4626Fees.sol\":2033:2050  address recipient */\n      0x00\n        /* \"lib/openzeppelin-contracts/contracts/mocks/docs/ERC4626Fees.sol\":2053:2073  _entryFeeRecipient() */\n      tag_306\n        /* \"lib/openzeppelin-contracts/contracts/mocks/docs/ERC4626Fees.sol\":2053:2071  _entryFeeRecipient */\n      tag_307\n        /* \"lib/openzeppelin-contracts/contracts/mocks/docs/ERC4626Fees.sol\":2053:2073  _entryFeeRecipient() */\n      jump\t// in\n    tag_306:\n        /* \"lib/openzeppelin-contracts/contracts/mocks/docs/ERC4626Fees.sol\":2033:2073  address recipient = _entryFeeRecipient() */\n      swap1\n      pop\n        /* \"lib/openzeppelin-contracts/contracts/mocks/docs/ERC4626Fees.sol\":2084:2132  super._deposit(caller, receiver, assets, shares) */\n      tag_308\n        /* \"lib/openzeppelin-contracts/contracts/mocks/docs/ERC4626Fees.sol\":2099:2105  caller */\n      dup7\n        /* \"lib/openzeppelin-contracts/contracts/mocks/docs/ERC4626Fees.sol\":2107:2115  receiver */\n      dup7\n        /* \"lib/openzeppelin-contracts/contracts/mocks/docs/ERC4626Fees.sol\":2117:2123  assets */\n      dup7\n        /* \"lib/openzeppelin-contracts/contracts/mocks/docs/ERC4626Fees.sol\":2125:2131  shares */\n      dup7\n        /* \"lib/openzeppelin-contracts/contracts/mocks/docs/ERC4626Fees.sol\":2084:2098  super._deposit */\n      tag_309\n        /* \"lib/openzeppelin-contracts/contracts/mocks/docs/ERC4626Fees.sol\":2084:2132  super._deposit(caller, receiver, assets, shares) */\n      jump\t// in\n    tag_308:\n        /* \"lib/openzeppelin-contracts/contracts/mocks/docs/ERC4626Fees.sol\":2153:2154  0 */\n      0x00\n        /* \"lib/openzeppelin-contracts/contracts/mocks/docs/ERC4626Fees.sol\":2147:2150  fee */\n      dup3\n        /* \"lib/openzeppelin-contracts/contracts/mocks/docs/ERC4626Fees.sol\":2147:2154  fee > 0 */\n      gt\n        /* \"lib/openzeppelin-contracts/contracts/mocks/docs/ERC4626Fees.sol\":2147:2184  fee > 0 && recipient != address(this) */\n      dup1\n      iszero\n      tag_310\n      jumpi\n      pop\n        /* \"lib/openzeppelin-contracts/contracts/mocks/docs/ERC4626Fees.sol\":2179:2183  this */\n      address\n        /* \"lib/openzeppelin-contracts/contracts/mocks/docs/ERC4626Fees.sol\":2158:2184  recipient != address(this) */\n      0xffffffffffffffffffffffffffffffffffffffff\n      and\n        /* \"lib/openzeppelin-contracts/contracts/mocks/docs/ERC4626Fees.sol\":2158:2167  recipient */\n      dup2\n        /* \"lib/openzeppelin-contracts/contracts/mocks/docs/ERC4626Fees.sol\":2158:2184  recipient != address(this) */\n      0xffffffffffffffffffffffffffffffffffffffff\n      and\n      eq\n      iszero\n        /* \"lib/openzeppelin-contracts/contracts/mocks/docs/ERC4626Fees.sol\":2147:2184  fee > 0 && recipient != address(this) */\n    tag_310:\n        /* \"lib/openzeppelin-contracts/contracts/mocks/docs/ERC4626Fees.sol\":2143:2266  if (fee > 0 && recipient != address(this)) {... */\n      iszero\n      tag_311\n      jumpi\n        /* \"lib/openzeppelin-contracts/contracts/mocks/docs/ERC4626Fees.sol\":2200:2255  SafeERC20.safeTransfer(IERC20(asset()), recipient, fee) */\n      tag_312\n        /* \"lib/openzeppelin-contracts/contracts/mocks/docs/ERC4626Fees.sol\":2230:2237  asset() */\n      tag_313\n        /* \"lib/openzeppelin-contracts/contracts/mocks/docs/ERC4626Fees.sol\":2230:2235  asset */\n      tag_72\n        /* \"lib/openzeppelin-contracts/contracts/mocks/docs/ERC4626Fees.sol\":2230:2237  asset() */\n      jump\t// in\n    tag_313:\n        /* \"lib/openzeppelin-contracts/contracts/mocks/docs/ERC4626Fees.sol\":2240:2249  recipient */\n      dup3\n        /* \"lib/openzeppelin-contracts/contracts/mocks/docs/ERC4626Fees.sol\":2251:2254  fee */\n      dup5\n        /* \"lib/openzeppelin-contracts/contracts/mocks/docs/ERC4626Fees.sol\":2200:2222  SafeERC20.safeTransfer */\n      tag_314\n        /* \"lib/openzeppelin-contracts/contracts/mocks/docs/ERC4626Fees.sol\":2200:2255  SafeERC20.safeTransfer(IERC20(asset()), recipient, fee) */\n      jump\t// in\n    tag_312:\n        /* \"lib/openzeppelin-contracts/contracts/mocks/docs/ERC4626Fees.sol\":2143:2266  if (fee > 0 && recipient != address(this)) {... */\n    tag_311:\n        /* \"lib/openzeppelin-contracts/contracts/mocks/docs/ERC4626Fees.sol\":1956:2272  {... */\n      pop\n      pop\n        /* \"lib/openzeppelin-contracts/contracts/mocks/docs/ERC4626Fees.sol\":1846:2272  function _deposit(address caller, address receiver, uint256 assets, uint256 shares) internal virtual override {... */\n      pop\n      pop\n      pop\n      pop\n      jump\t// out\n        /* \"lib/openzeppelin-contracts/contracts/token/ERC20/extensions/ERC4626.sol\":7221:7364  function previewMint(uint256 shares) public view virtual returns (uint256) {... */\n    tag_229:\n        /* \"lib/openzeppelin-contracts/contracts/token/ERC20/extensions/ERC4626.sol\":7287:7294  uint256 */\n      0x00\n        /* \"lib/openzeppelin-contracts/contracts/token/ERC20/extensions/ERC4626.sol\":7313:7357  _convertToAssets(shares, Math.Rounding.Ceil) */\n      tag_316\n        /* \"lib/openzeppelin-contracts/contracts/token/ERC20/extensions/ERC4626.sol\":7330:7336  shares */\n      dup3\n        /* \"lib/openzeppelin-contracts/contracts/token/ERC20/extensions/ERC4626.sol\":7338:7356  Math.Rounding.Ceil */\n      0x01\n        /* \"lib/openzeppelin-contracts/contracts/token/ERC20/extensions/ERC4626.sol\":7313:7329  _convertToAssets */\n      tag_164\n        /* \"lib/openzeppelin-contracts/contracts/token/ERC20/extensions/ERC4626.sol\":7313:7357  _convertToAssets(shares, Math.Rounding.Ceil) */\n      jump\t// in\n    tag_316:\n        /* \"lib/openzeppelin-contracts/contracts/token/ERC20/extensions/ERC4626.sol\":7306:7357  return _convertToAssets(shares, Math.Rounding.Ceil) */\n      swap1\n      pop\n        /* \"lib/openzeppelin-contracts/contracts/token/ERC20/extensions/ERC4626.sol\":7221:7364  function previewMint(uint256 shares) public view virtual returns (uint256) {... */\n      swap2\n      swap1\n      pop\n      jump\t// out\n        /* \"src/Vaults.sol\":479:595  function _entryFeeBasisPoints() internal view override returns (uint256) {... */\n    tag_232:\n        /* \"src/Vaults.sol\":543:550  uint256 */\n      0x00\n        /* \"src/Vaults.sol\":569:588  entryFeeBasisPoints */\n      sload(0x06)\n        /* \"src/Vaults.sol\":562:588  return entryFeeBasisPoints */\n      swap1\n      pop\n        /* \"src/Vaults.sol\":479:595  function _entryFeeBasisPoints() internal view override returns (uint256) {... */\n      swap1\n      jump\t// out\n        /* \"lib/openzeppelin-contracts/contracts/mocks/docs/ERC4626Fees.sol\":2354:2846  function _withdraw(... */\n    tag_241:\n        /* \"lib/openzeppelin-contracts/contracts/mocks/docs/ERC4626Fees.sol\":2536:2547  uint256 fee */\n      0x00\n        /* \"lib/openzeppelin-contracts/contracts/mocks/docs/ERC4626Fees.sol\":2550:2590  _feeOnRaw(assets, _exitFeeBasisPoints()) */\n      tag_319\n        /* \"lib/openzeppelin-contracts/contracts/mocks/docs/ERC4626Fees.sol\":2560:2566  assets */\n      dup4\n        /* \"lib/openzeppelin-contracts/contracts/mocks/docs/ERC4626Fees.sol\":2568:2589  _exitFeeBasisPoints() */\n      tag_320\n        /* \"lib/openzeppelin-contracts/contracts/mocks/docs/ERC4626Fees.sol\":2568:2587  _exitFeeBasisPoints */\n      tag_173\n        /* \"lib/openzeppelin-contracts/contracts/mocks/docs/ERC4626Fees.sol\":2568:2589  _exitFeeBasisPoints() */\n      jump\t// in\n    tag_320:\n        /* \"lib/openzeppelin-contracts/contracts/mocks/docs/ERC4626Fees.sol\":2550:2559  _feeOnRaw */\n      tag_174\n        /* \"lib/openzeppelin-contracts/contracts/mocks/docs/ERC4626Fees.sol\":2550:2590  _feeOnRaw(assets, _exitFeeBasisPoints()) */\n      jump\t// in\n    tag_319:\n        /* \"lib/openzeppelin-contracts/contracts/mocks/docs/ERC4626Fees.sol\":2536:2590  uint256 fee = _feeOnRaw(assets, _exitFeeBasisPoints()) */\n      swap1\n      pop\n        /* \"lib/openzeppelin-contracts/contracts/mocks/docs/ERC4626Fees.sol\":2600:2617  address recipient */\n      0x00\n        /* \"lib/openzeppelin-contracts/contracts/mocks/docs/ERC4626Fees.sol\":2620:2639  _exitFeeRecipient() */\n      tag_321\n        /* \"lib/openzeppelin-contracts/contracts/mocks/docs/ERC4626Fees.sol\":2620:2637  _exitFeeRecipient */\n      tag_322\n        /* \"lib/openzeppelin-contracts/contracts/mocks/docs/ERC4626Fees.sol\":2620:2639  _exitFeeRecipient() */\n      jump\t// in\n    tag_321:\n        /* \"lib/openzeppelin-contracts/contracts/mocks/docs/ERC4626Fees.sol\":2600:2639  address recipient = _exitFeeRecipient() */\n      swap1\n      pop\n        /* \"lib/openzeppelin-contracts/contracts/mocks/docs/ERC4626Fees.sol\":2650:2706  super._withdraw(caller, receiver, owner, assets, shares) */\n      tag_323\n        /* \"lib/openzeppelin-contracts/contracts/mocks/docs/ERC4626Fees.sol\":2666:2672  caller */\n      dup8\n        /* \"lib/openzeppelin-contracts/contracts/mocks/docs/ERC4626Fees.sol\":2674:2682  receiver */\n      dup8\n        /* \"lib/openzeppelin-contracts/contracts/mocks/docs/ERC4626Fees.sol\":2684:2689  owner */\n      dup8\n        /* \"lib/openzeppelin-contracts/contracts/mocks/docs/ERC4626Fees.sol\":2691:2697  assets */\n      dup8\n        /* \"lib/openzeppelin-contracts/contracts/mocks/docs/ERC4626Fees.sol\":2699:2705  shares */\n      dup8\n        /* \"lib/openzeppelin-contracts/contracts/mocks/docs/ERC4626Fees.sol\":2650:2665  super._withdraw */\n      tag_324\n        /* \"lib/openzeppelin-contracts/contracts/mocks/docs/ERC4626Fees.sol\":2650:2706  super._withdraw(caller, receiver, owner, assets, shares) */\n      jump\t// in\n    tag_323:\n        /* \"lib/openzeppelin-contracts/contracts/mocks/docs/ERC4626Fees.sol\":2727:2728  0 */\n      0x00\n        /* \"lib/openzeppelin-contracts/contracts/mocks/docs/ERC4626Fees.sol\":2721:2724  fee */\n      dup3\n        /* \"lib/openzeppelin-contracts/contracts/mocks/docs/ERC4626Fees.sol\":2721:2728  fee > 0 */\n      gt\n        /* \"lib/openzeppelin-contracts/contracts/mocks/docs/ERC4626Fees.sol\":2721:2758  fee > 0 && recipient != address(this) */\n      dup1\n      iszero\n      tag_325\n      jumpi\n      pop\n        /* \"lib/openzeppelin-contracts/contracts/mocks/docs/ERC4626Fees.sol\":2753:2757  this */\n      address\n        /* \"lib/openzeppelin-contracts/contracts/mocks/docs/ERC4626Fees.sol\":2732:2758  recipient != address(this) */\n      0xffffffffffffffffffffffffffffffffffffffff\n      and\n        /* \"lib/openzeppelin-contracts/contracts/mocks/docs/ERC4626Fees.sol\":2732:2741  recipient */\n      dup2\n        /* \"lib/openzeppelin-contracts/contracts/mocks/docs/ERC4626Fees.sol\":2732:2758  recipient != address(this) */\n      0xffffffffffffffffffffffffffffffffffffffff\n      and\n      eq\n      iszero\n        /* \"lib/openzeppelin-contracts/contracts/mocks/docs/ERC4626Fees.sol\":2721:2758  fee > 0 && recipient != address(this) */\n    tag_325:\n        /* \"lib/openzeppelin-contracts/contracts/mocks/docs/ERC4626Fees.sol\":2717:2840  if (fee > 0 && recipient != address(this)) {... */\n      iszero\n      tag_326\n      jumpi\n        /* \"lib/openzeppelin-contracts/contracts/mocks/docs/ERC4626Fees.sol\":2774:2829  SafeERC20.safeTransfer(IERC20(asset()), recipient, fee) */\n      tag_327\n        /* \"lib/openzeppelin-contracts/contracts/mocks/docs/ERC4626Fees.sol\":2804:2811  asset() */\n      tag_328\n        /* \"lib/openzeppelin-contracts/contracts/mocks/docs/ERC4626Fees.sol\":2804:2809  asset */\n      tag_72\n        /* \"lib/openzeppelin-contracts/contracts/mocks/docs/ERC4626Fees.sol\":2804:2811  asset() */\n      jump\t// in\n    tag_328:\n        /* \"lib/openzeppelin-contracts/contracts/mocks/docs/ERC4626Fees.sol\":2814:2823  recipient */\n      dup3\n        /* \"lib/openzeppelin-contracts/contracts/mocks/docs/ERC4626Fees.sol\":2825:2828  fee */\n      dup5\n        /* \"lib/openzeppelin-contracts/contracts/mocks/docs/ERC4626Fees.sol\":2774:2796  SafeERC20.safeTransfer */\n      tag_314\n        /* \"lib/openzeppelin-contracts/contracts/mocks/docs/ERC4626Fees.sol\":2774:2829  SafeERC20.safeTransfer(IERC20(asset()), recipient, fee) */\n      jump\t// in\n    tag_327:\n        /* \"lib/openzeppelin-contracts/contracts/mocks/docs/ERC4626Fees.sol\":2717:2840  if (fee > 0 && recipient != address(this)) {... */\n    tag_326:\n        /* \"lib/openzeppelin-contracts/contracts/mocks/docs/ERC4626Fees.sol\":2526:2846  {... */\n      pop\n      pop\n        /* \"lib/openzeppelin-contracts/contracts/mocks/docs/ERC4626Fees.sol\":2354:2846  function _withdraw(... */\n      pop\n      pop\n      pop\n      pop\n      pop\n      jump\t// out\n        /* \"lib/openzeppelin-contracts/contracts/token/ERC20/extensions/ERC4626.sol\":9882:10095  function _convertToShares(uint256 assets, Math.Rounding rounding) internal view virtual returns (uint256) {... */\n    tag_252:\n        /* \"lib/openzeppelin-contracts/contracts/token/ERC20/extensions/ERC4626.sol\":9979:9986  uint256 */\n      0x00\n        /* \"lib/openzeppelin-contracts/contracts/token/ERC20/extensions/ERC4626.sol\":10005:10088  assets.mulDiv(totalSupply() + 10 ** _decimalsOffset(), totalAssets() + 1, rounding) */\n      tag_330\n        /* \"lib/openzeppelin-contracts/contracts/token/ERC20/extensions/ERC4626.sol\":10041:10058  _decimalsOffset() */\n      tag_331\n        /* \"lib/openzeppelin-contracts/contracts/token/ERC20/extensions/ERC4626.sol\":10041:10056  _decimalsOffset */\n      tag_188\n        /* \"lib/openzeppelin-contracts/contracts/token/ERC20/extensions/ERC4626.sol\":10041:10058  _decimalsOffset() */\n      jump\t// in\n    tag_331:\n        /* \"lib/openzeppelin-contracts/contracts/token/ERC20/extensions/ERC4626.sol\":10035:10037  10 */\n      0x0a\n        /* \"lib/openzeppelin-contracts/contracts/token/ERC20/extensions/ERC4626.sol\":10035:10058  10 ** _decimalsOffset() */\n      tag_332\n      swap2\n      swap1\n      tag_271\n      jump\t// in\n    tag_332:\n        /* \"lib/openzeppelin-contracts/contracts/token/ERC20/extensions/ERC4626.sol\":10019:10032  totalSupply() */\n      tag_333\n        /* \"lib/openzeppelin-contracts/contracts/token/ERC20/extensions/ERC4626.sol\":10019:10030  totalSupply */\n      tag_60\n        /* \"lib/openzeppelin-contracts/contracts/token/ERC20/extensions/ERC4626.sol\":10019:10032  totalSupply() */\n      jump\t// in\n    tag_333:\n        /* \"lib/openzeppelin-contracts/contracts/token/ERC20/extensions/ERC4626.sol\":10019:10058  totalSupply() + 10 ** _decimalsOffset() */\n      tag_334\n      swap2\n      swap1\n      tag_177\n      jump\t// in\n    tag_334:\n        /* \"lib/openzeppelin-contracts/contracts/token/ERC20/extensions/ERC4626.sol\":10076:10077  1 */\n      0x01\n        /* \"lib/openzeppelin-contracts/contracts/token/ERC20/extensions/ERC4626.sol\":10060:10073  totalAssets() */\n      tag_335\n        /* \"lib/openzeppelin-contracts/contracts/token/ERC20/extensions/ERC4626.sol\":10060:10071  totalAssets */\n      tag_37\n        /* \"lib/openzeppelin-contracts/contracts/token/ERC20/extensions/ERC4626.sol\":10060:10073  totalAssets() */\n      jump\t// in\n    tag_335:\n        /* \"lib/openzeppelin-contracts/contracts/token/ERC20/extensions/ERC4626.sol\":10060:10077  totalAssets() + 1 */\n      tag_336\n      swap2\n      swap1\n      tag_177\n      jump\t// in\n    tag_336:\n        /* \"lib/openzeppelin-contracts/contracts/token/ERC20/extensions/ERC4626.sol\":10079:10087  rounding */\n      dup5\n        /* \"lib/openzeppelin-contracts/contracts/token/ERC20/extensions/ERC4626.sol\":10005:10011  assets */\n      dup7\n        /* \"lib/openzeppelin-contracts/contracts/token/ERC20/extensions/ERC4626.sol\":10005:10018  assets.mulDiv */\n      tag_274\n      swap1\n        /* \"lib/openzeppelin-contracts/contracts/token/ERC20/extensions/ERC4626.sol\":10005:10088  assets.mulDiv(totalSupply() + 10 ** _decimalsOffset(), totalAssets() + 1, rounding) */\n      swap4\n      swap3\n      swap2\n      swap1\n      0xffffffff\n      and\n      jump\t// in\n    tag_330:\n        /* \"lib/openzeppelin-contracts/contracts/token/ERC20/extensions/ERC4626.sol\":9998:10088  return assets.mulDiv(totalSupply() + 10 ** _decimalsOffset(), totalAssets() + 1, rounding) */\n      swap1\n      pop\n        /* \"lib/openzeppelin-contracts/contracts/token/ERC20/extensions/ERC4626.sol\":9882:10095  function _convertToShares(uint256 assets, Math.Rounding rounding) internal view virtual returns (uint256) {... */\n      swap3\n      swap2\n      pop\n      pop\n      jump\t// out\n        /* \"lib/openzeppelin-contracts/contracts/token/ERC20/extensions/ERC4626.sol\":7024:7171  function previewDeposit(uint256 assets) public view virtual returns (uint256) {... */\n    tag_264:\n        /* \"lib/openzeppelin-contracts/contracts/token/ERC20/extensions/ERC4626.sol\":7093:7100  uint256 */\n      0x00\n        /* \"lib/openzeppelin-contracts/contracts/token/ERC20/extensions/ERC4626.sol\":7119:7164  _convertToShares(assets, Math.Rounding.Floor) */\n      tag_338\n        /* \"lib/openzeppelin-contracts/contracts/token/ERC20/extensions/ERC4626.sol\":7136:7142  assets */\n      dup3\n        /* \"lib/openzeppelin-contracts/contracts/token/ERC20/extensions/ERC4626.sol\":7144:7163  Math.Rounding.Floor */\n      0x00\n        /* \"lib/openzeppelin-contracts/contracts/token/ERC20/extensions/ERC4626.sol\":7119:7135  _convertToShares */\n      tag_252\n        /* \"lib/openzeppelin-contracts/contracts/token/ERC20/extensions/ERC4626.sol\":7119:7164  _convertToShares(assets, Math.Rounding.Floor) */\n      jump\t// in\n    tag_338:\n        /* \"lib/openzeppelin-contracts/contracts/token/ERC20/extensions/ERC4626.sol\":7112:7164  return _convertToShares(assets, Math.Rounding.Floor) */\n      swap1\n      pop\n        /* \"lib/openzeppelin-contracts/contracts/token/ERC20/extensions/ERC4626.sol\":7024:7171  function previewDeposit(uint256 assets) public view virtual returns (uint256) {... */\n      swap2\n      swap1\n      pop\n      jump\t// out\n        /* \"lib/openzeppelin-contracts/contracts/utils/math/Math.sol\":8051:8353  function mulDiv(uint256 x, uint256 y, uint256 denominator, Rounding rounding) internal pure returns (uint256) {... */\n    tag_274:\n        /* \"lib/openzeppelin-contracts/contracts/utils/math/Math.sol\":8152:8159  uint256 */\n      0x00\n        /* \"lib/openzeppelin-contracts/contracts/utils/math/Math.sol\":8171:8185  uint256 result */\n      dup1\n        /* \"lib/openzeppelin-contracts/contracts/utils/math/Math.sol\":8188:8213  mulDiv(x, y, denominator) */\n      tag_340\n        /* \"lib/openzeppelin-contracts/contracts/utils/math/Math.sol\":8195:8196  x */\n      dup7\n        /* \"lib/openzeppelin-contracts/contracts/utils/math/Math.sol\":8198:8199  y */\n      dup7\n        /* \"lib/openzeppelin-contracts/contracts/utils/math/Math.sol\":8201:8212  denominator */\n      dup7\n        /* \"lib/openzeppelin-contracts/contracts/utils/math/Math.sol\":8188:8194  mulDiv */\n      tag_341\n        /* \"lib/openzeppelin-contracts/contracts/utils/math/Math.sol\":8188:8213  mulDiv(x, y, denominator) */\n      jump\t// in\n    tag_340:\n        /* \"lib/openzeppelin-contracts/contracts/utils/math/Math.sol\":8171:8213  uint256 result = mulDiv(x, y, denominator) */\n      swap1\n      pop\n        /* \"lib/openzeppelin-contracts/contracts/utils/math/Math.sol\":8227:8253  unsignedRoundsUp(rounding) */\n      tag_342\n        /* \"lib/openzeppelin-contracts/contracts/utils/math/Math.sol\":8244:8252  rounding */\n      dup4\n        /* \"lib/openzeppelin-contracts/contracts/utils/math/Math.sol\":8227:8243  unsignedRoundsUp */\n      tag_343\n        /* \"lib/openzeppelin-contracts/contracts/utils/math/Math.sol\":8227:8253  unsignedRoundsUp(rounding) */\n      jump\t// in\n    tag_342:\n        /* \"lib/openzeppelin-contracts/contracts/utils/math/Math.sol\":8227:8286  unsignedRoundsUp(rounding) && mulmod(x, y, denominator) > 0 */\n      dup1\n      iszero\n      tag_344\n      jumpi\n      pop\n        /* \"lib/openzeppelin-contracts/contracts/utils/math/Math.sol\":8285:8286  0 */\n      0x00\n        /* \"lib/openzeppelin-contracts/contracts/utils/math/Math.sol\":8270:8281  denominator */\n      dup5\n        /* \"lib/openzeppelin-contracts/contracts/utils/math/Math.sol\":8257:8282  mulmod(x, y, denominator) */\n      dup1\n      tag_345\n      jumpi\n      tag_346\n      tag_347\n      jump\t// in\n    tag_346:\n    tag_345:\n        /* \"lib/openzeppelin-contracts/contracts/utils/math/Math.sol\":8267:8268  y */\n      dup7\n        /* \"lib/openzeppelin-contracts/contracts/utils/math/Math.sol\":8264:8265  x */\n      dup9\n        /* \"lib/openzeppelin-contracts/contracts/utils/math/Math.sol\":8257:8282  mulmod(x, y, denominator) */\n      mulmod\n        /* \"lib/openzeppelin-contracts/contracts/utils/math/Math.sol\":8257:8286  mulmod(x, y, denominator) > 0 */\n      gt\n        /* \"lib/openzeppelin-contracts/contracts/utils/math/Math.sol\":8227:8286  unsignedRoundsUp(rounding) && mulmod(x, y, denominator) > 0 */\n    tag_344:\n        /* \"lib/openzeppelin-contracts/contracts/utils/math/Math.sol\":8223:8324  if (unsignedRoundsUp(rounding) && mulmod(x, y, denominator) > 0) {... */\n      iszero\n      tag_348\n      jumpi\n        /* \"lib/openzeppelin-contracts/contracts/utils/math/Math.sol\":8312:8313  1 */\n      0x01\n        /* \"lib/openzeppelin-contracts/contracts/utils/math/Math.sol\":8302:8313  result += 1 */\n      dup2\n      tag_349\n      swap2\n      swap1\n      tag_177\n      jump\t// in\n    tag_349:\n      swap1\n      pop\n        /* \"lib/openzeppelin-contracts/contracts/utils/math/Math.sol\":8223:8324  if (unsignedRoundsUp(rounding) && mulmod(x, y, denominator) > 0) {... */\n    tag_348:\n        /* \"lib/openzeppelin-contracts/contracts/utils/math/Math.sol\":8340:8346  result */\n      dup1\n        /* \"lib/openzeppelin-contracts/contracts/utils/math/Math.sol\":8333:8346  return result */\n      swap2\n      pop\n      pop\n        /* \"lib/openzeppelin-contracts/contracts/utils/math/Math.sol\":8051:8353  function mulDiv(uint256 x, uint256 y, uint256 denominator, Rounding rounding) internal pure returns (uint256) {... */\n      swap5\n      swap4\n      pop\n      pop\n      pop\n      pop\n      jump\t// out\n        /* \"lib/openzeppelin-contracts/contracts/token/ERC20/ERC20.sol\":9949:10381  function _approve(address owner, address spender, uint256 value, bool emitEvent) internal virtual {... */\n    tag_278:\n        /* \"lib/openzeppelin-contracts/contracts/token/ERC20/ERC20.sol\":10078:10079  0 */\n      0x00\n        /* \"lib/openzeppelin-contracts/contracts/token/ERC20/ERC20.sol\":10061:10080  owner == address(0) */\n      0xffffffffffffffffffffffffffffffffffffffff\n      and\n        /* \"lib/openzeppelin-contracts/contracts/token/ERC20/ERC20.sol\":10061:10066  owner */\n      dup5\n        /* \"lib/openzeppelin-contracts/contracts/token/ERC20/ERC20.sol\":10061:10080  owner == address(0) */\n      0xffffffffffffffffffffffffffffffffffffffff\n      and\n      sub\n        /* \"lib/openzeppelin-contracts/contracts/token/ERC20/ERC20.sol\":10057:10146  if (owner == address(0)) {... */\n      tag_351\n      jumpi\n        /* \"lib/openzeppelin-contracts/contracts/token/ERC20/ERC20.sol\":10132:10133  0 */\n      0x00\n        /* \"lib/openzeppelin-contracts/contracts/token/ERC20/ERC20.sol\":10103:10135  ERC20InvalidApprover(address(0)) */\n      mload(0x40)\n      0xe602df0500000000000000000000000000000000000000000000000000000000\n      dup2\n      mstore\n      0x04\n      add\n      tag_352\n      swap2\n      swap1\n      tag_74\n      jump\t// in\n    tag_352:\n      mload(0x40)\n      dup1\n      swap2\n      sub\n      swap1\n      revert\n        /* \"lib/openzeppelin-contracts/contracts/token/ERC20/ERC20.sol\":10057:10146  if (owner == address(0)) {... */\n    tag_351:\n        /* \"lib/openzeppelin-contracts/contracts/token/ERC20/ERC20.sol\":10178:10179  0 */\n      0x00\n        /* \"lib/openzeppelin-contracts/contracts/token/ERC20/ERC20.sol\":10159:10180  spender == address(0) */\n      0xffffffffffffffffffffffffffffffffffffffff\n      and\n        /* \"lib/openzeppelin-contracts/contracts/token/ERC20/ERC20.sol\":10159:10166  spender */\n      dup4\n        /* \"lib/openzeppelin-contracts/contracts/token/ERC20/ERC20.sol\":10159:10180  spender == address(0) */\n      0xffffffffffffffffffffffffffffffffffffffff\n      and\n      sub\n        /* \"lib/openzeppelin-contracts/contracts/token/ERC20/ERC20.sol\":10155:10245  if (spender == address(0)) {... */\n      tag_353\n      jumpi\n        /* \"lib/openzeppelin-contracts/contracts/token/ERC20/ERC20.sol\":10231:10232  0 */\n      0x00\n        /* \"lib/openzeppelin-contracts/contracts/token/ERC20/ERC20.sol\":10203:10234  ERC20InvalidSpender(address(0)) */\n      mload(0x40)\n      0x94280d6200000000000000000000000000000000000000000000000000000000\n      dup2\n      mstore\n      0x04\n      add\n      tag_354\n      swap2\n      swap1\n      tag_74\n      jump\t// in\n    tag_354:\n      mload(0x40)\n      dup1\n      swap2\n      sub\n      swap1\n      revert\n        /* \"lib/openzeppelin-contracts/contracts/token/ERC20/ERC20.sol\":10155:10245  if (spender == address(0)) {... */\n    tag_353:\n        /* \"lib/openzeppelin-contracts/contracts/token/ERC20/ERC20.sol\":10284:10289  value */\n      dup2\n        /* \"lib/openzeppelin-contracts/contracts/token/ERC20/ERC20.sol\":10254:10265  _allowances */\n      0x01\n        /* \"lib/openzeppelin-contracts/contracts/token/ERC20/ERC20.sol\":10254:10272  _allowances[owner] */\n      0x00\n        /* \"lib/openzeppelin-contracts/contracts/token/ERC20/ERC20.sol\":10266:10271  owner */\n      dup7\n        /* \"lib/openzeppelin-contracts/contracts/token/ERC20/ERC20.sol\":10254:10272  _allowances[owner] */\n      0xffffffffffffffffffffffffffffffffffffffff\n      and\n      0xffffffffffffffffffffffffffffffffffffffff\n      and\n      dup2\n      mstore\n      0x20\n      add\n      swap1\n      dup2\n      mstore\n      0x20\n      add\n      0x00\n      keccak256\n        /* \"lib/openzeppelin-contracts/contracts/token/ERC20/ERC20.sol\":10254:10281  _allowances[owner][spender] */\n      0x00\n        /* \"lib/openzeppelin-contracts/contracts/token/ERC20/ERC20.sol\":10273:10280  spender */\n      dup6\n        /* \"lib/openzeppelin-contracts/contracts/token/ERC20/ERC20.sol\":10254:10281  _allowances[owner][spender] */\n      0xffffffffffffffffffffffffffffffffffffffff\n      and\n      0xffffffffffffffffffffffffffffffffffffffff\n      and\n      dup2\n      mstore\n      0x20\n      add\n      swap1\n      dup2\n      mstore\n      0x20\n      add\n      0x00\n      keccak256\n        /* \"lib/openzeppelin-contracts/contracts/token/ERC20/ERC20.sol\":10254:10289  _allowances[owner][spender] = value */\n      dup2\n      swap1\n      sstore\n      pop\n        /* \"lib/openzeppelin-contracts/contracts/token/ERC20/ERC20.sol\":10303:10312  emitEvent */\n      dup1\n        /* \"lib/openzeppelin-contracts/contracts/token/ERC20/ERC20.sol\":10299:10375  if (emitEvent) {... */\n      iszero\n      tag_355\n      jumpi\n        /* \"lib/openzeppelin-contracts/contracts/token/ERC20/ERC20.sol\":10349:10356  spender */\n      dup3\n        /* \"lib/openzeppelin-contracts/contracts/token/ERC20/ERC20.sol\":10333:10364  Approval(owner, spender, value) */\n      0xffffffffffffffffffffffffffffffffffffffff\n      and\n        /* \"lib/openzeppelin-contracts/contracts/token/ERC20/ERC20.sol\":10342:10347  owner */\n      dup5\n        /* \"lib/openzeppelin-contracts/contracts/token/ERC20/ERC20.sol\":10333:10364  Approval(owner, spender, value) */\n      0xffffffffffffffffffffffffffffffffffffffff\n      and\n      0x8c5be1e5ebec7d5bd14f71427d1e84f3dd0314c0f7b2291e5b200ac8c7c3b925\n        /* \"lib/openzeppelin-contracts/contracts/token/ERC20/ERC20.sol\":10358:10363  value */\n      dup5\n        /* \"lib/openzeppelin-contracts/contracts/token/ERC20/ERC20.sol\":10333:10364  Approval(owner, spender, value) */\n      mload(0x40)\n      tag_356\n      swap2\n      swap1\n      tag_39\n      jump\t// in\n    tag_356:\n      mload(0x40)\n      dup1\n      swap2\n      sub\n      swap1\n      log3\n        /* \"lib/openzeppelin-contracts/contracts/token/ERC20/ERC20.sol\":10299:10375  if (emitEvent) {... */\n    tag_355:\n        /* \"lib/openzeppelin-contracts/contracts/token/ERC20/ERC20.sol\":9949:10381  function _approve(address owner, address spender, uint256 value, bool emitEvent) internal virtual {... */\n      pop\n      pop\n      pop\n      pop\n      jump\t// out\n        /* \"lib/openzeppelin-contracts/contracts/token/ERC20/ERC20.sol\":6271:7378  function _update(address from, address to, uint256 value) internal virtual {... */\n    tag_296:\n        /* \"lib/openzeppelin-contracts/contracts/token/ERC20/ERC20.sol\":6376:6377  0 */\n      0x00\n        /* \"lib/openzeppelin-contracts/contracts/token/ERC20/ERC20.sol\":6360:6378  from == address(0) */\n      0xffffffffffffffffffffffffffffffffffffffff\n      and\n        /* \"lib/openzeppelin-contracts/contracts/token/ERC20/ERC20.sol\":6360:6364  from */\n      dup4\n        /* \"lib/openzeppelin-contracts/contracts/token/ERC20/ERC20.sol\":6360:6378  from == address(0) */\n      0xffffffffffffffffffffffffffffffffffffffff\n      and\n      sub\n        /* \"lib/openzeppelin-contracts/contracts/token/ERC20/ERC20.sol\":6356:6896  if (from == address(0)) {... */\n      tag_358\n      jumpi\n        /* \"lib/openzeppelin-contracts/contracts/token/ERC20/ERC20.sol\":6512:6517  value */\n      dup1\n        /* \"lib/openzeppelin-contracts/contracts/token/ERC20/ERC20.sol\":6496:6508  _totalSupply */\n      0x02\n      0x00\n        /* \"lib/openzeppelin-contracts/contracts/token/ERC20/ERC20.sol\":6496:6517  _totalSupply += value */\n      dup3\n      dup3\n      sload\n      tag_359\n      swap2\n      swap1\n      tag_177\n      jump\t// in\n    tag_359:\n      swap3\n      pop\n      pop\n      dup2\n      swap1\n      sstore\n      pop\n        /* \"lib/openzeppelin-contracts/contracts/token/ERC20/ERC20.sol\":6356:6896  if (from == address(0)) {... */\n      jump(tag_360)\n    tag_358:\n        /* \"lib/openzeppelin-contracts/contracts/token/ERC20/ERC20.sol\":6548:6567  uint256 fromBalance */\n      0x00\n        /* \"lib/openzeppelin-contracts/contracts/token/ERC20/ERC20.sol\":6570:6579  _balances */\n      dup1\n        /* \"lib/openzeppelin-contracts/contracts/token/ERC20/ERC20.sol\":6570:6585  _balances[from] */\n      0x00\n        /* \"lib/openzeppelin-contracts/contracts/token/ERC20/ERC20.sol\":6580:6584  from */\n      dup6\n        /* \"lib/openzeppelin-contracts/contracts/token/ERC20/ERC20.sol\":6570:6585  _balances[from] */\n      0xffffffffffffffffffffffffffffffffffffffff\n      and\n      0xffffffffffffffffffffffffffffffffffffffff\n      and\n      dup2\n      mstore\n      0x20\n      add\n      swap1\n      dup2\n      mstore\n      0x20\n      add\n      0x00\n      keccak256\n      sload\n        /* \"lib/openzeppelin-contracts/contracts/token/ERC20/ERC20.sol\":6548:6585  uint256 fromBalance = _balances[from] */\n      swap1\n      pop\n        /* \"lib/openzeppelin-contracts/contracts/token/ERC20/ERC20.sol\":6617:6622  value */\n      dup2\n        /* \"lib/openzeppelin-contracts/contracts/token/ERC20/ERC20.sol\":6603:6614  fromBalance */\n      dup2\n        /* \"lib/openzeppelin-contracts/contracts/token/ERC20/ERC20.sol\":6603:6622  fromBalance < value */\n      lt\n        /* \"lib/openzeppelin-contracts/contracts/token/ERC20/ERC20.sol\":6599:6714  if (fromBalance < value) {... */\n      iszero\n      tag_361\n      jumpi\n        /* \"lib/openzeppelin-contracts/contracts/token/ERC20/ERC20.sol\":6674:6678  from */\n      dup4\n        /* \"lib/openzeppelin-contracts/contracts/token/ERC20/ERC20.sol\":6680:6691  fromBalance */\n      dup2\n        /* \"lib/openzeppelin-contracts/contracts/token/ERC20/ERC20.sol\":6693:6698  value */\n      dup4\n        /* \"lib/openzeppelin-contracts/contracts/token/ERC20/ERC20.sol\":6649:6699  ERC20InsufficientBalance(from, fromBalance, value) */\n      mload(0x40)\n      0xe450d38c00000000000000000000000000000000000000000000000000000000\n      dup2\n      mstore\n      0x04\n      add\n      tag_362\n      swap4\n      swap3\n      swap2\n      swap1\n      tag_205\n      jump\t// in\n    tag_362:\n      mload(0x40)\n      dup1\n      swap2\n      sub\n      swap1\n      revert\n        /* \"lib/openzeppelin-contracts/contracts/token/ERC20/ERC20.sol\":6599:6714  if (fromBalance < value) {... */\n    tag_361:\n        /* \"lib/openzeppelin-contracts/contracts/token/ERC20/ERC20.sol\":6866:6871  value */\n      dup2\n        /* \"lib/openzeppelin-contracts/contracts/token/ERC20/ERC20.sol\":6852:6863  fromBalance */\n      dup2\n        /* \"lib/openzeppelin-contracts/contracts/token/ERC20/ERC20.sol\":6852:6871  fromBalance - value */\n      sub\n        /* \"lib/openzeppelin-contracts/contracts/token/ERC20/ERC20.sol\":6834:6843  _balances */\n      0x00\n        /* \"lib/openzeppelin-contracts/contracts/token/ERC20/ERC20.sol\":6834:6849  _balances[from] */\n      dup1\n        /* \"lib/openzeppelin-contracts/contracts/token/ERC20/ERC20.sol\":6844:6848  from */\n      dup7\n        /* \"lib/openzeppelin-contracts/contracts/token/ERC20/ERC20.sol\":6834:6849  _balances[from] */\n      0xffffffffffffffffffffffffffffffffffffffff\n      and\n      0xffffffffffffffffffffffffffffffffffffffff\n      and\n      dup2\n      mstore\n      0x20\n      add\n      swap1\n      dup2\n      mstore\n      0x20\n      add\n      0x00\n      keccak256\n        /* \"lib/openzeppelin-contracts/contracts/token/ERC20/ERC20.sol\":6834:6871  _balances[from] = fromBalance - value */\n      dup2\n      swap1\n      sstore\n      pop\n        /* \"lib/openzeppelin-contracts/contracts/token/ERC20/ERC20.sol\":6534:6896  {... */\n      pop\n        /* \"lib/openzeppelin-contracts/contracts/token/ERC20/ERC20.sol\":6356:6896  if (from == address(0)) {... */\n    tag_360:\n        /* \"lib/openzeppelin-contracts/contracts/token/ERC20/ERC20.sol\":6924:6925  0 */\n      0x00\n        /* \"lib/openzeppelin-contracts/contracts/token/ERC20/ERC20.sol\":6910:6926  to == address(0) */\n      0xffffffffffffffffffffffffffffffffffffffff\n      and\n        /* \"lib/openzeppelin-contracts/contracts/token/ERC20/ERC20.sol\":6910:6912  to */\n      dup3\n        /* \"lib/openzeppelin-contracts/contracts/token/ERC20/ERC20.sol\":6910:6926  to == address(0) */\n      0xffffffffffffffffffffffffffffffffffffffff\n      and\n      sub\n        /* \"lib/openzeppelin-contracts/contracts/token/ERC20/ERC20.sol\":6906:7331  if (to == address(0)) {... */\n      tag_363\n      jumpi\n        /* \"lib/openzeppelin-contracts/contracts/token/ERC20/ERC20.sol\":7089:7094  value */\n      dup1\n        /* \"lib/openzeppelin-contracts/contracts/token/ERC20/ERC20.sol\":7073:7085  _totalSupply */\n      0x02\n      0x00\n        /* \"lib/openzeppelin-contracts/contracts/token/ERC20/ERC20.sol\":7073:7094  _totalSupply -= value */\n      dup3\n      dup3\n      sload\n      sub\n      swap3\n      pop\n      pop\n      dup2\n      swap1\n      sstore\n      pop\n        /* \"lib/openzeppelin-contracts/contracts/token/ERC20/ERC20.sol\":6906:7331  if (to == address(0)) {... */\n      jump(tag_364)\n    tag_363:\n        /* \"lib/openzeppelin-contracts/contracts/token/ERC20/ERC20.sol\":7301:7306  value */\n      dup1\n        /* \"lib/openzeppelin-contracts/contracts/token/ERC20/ERC20.sol\":7284:7293  _balances */\n      0x00\n        /* \"lib/openzeppelin-contracts/contracts/token/ERC20/ERC20.sol\":7284:7297  _balances[to] */\n      dup1\n        /* \"lib/openzeppelin-contracts/contracts/token/ERC20/ERC20.sol\":7294:7296  to */\n      dup5\n        /* \"lib/openzeppelin-contracts/contracts/token/ERC20/ERC20.sol\":7284:7297  _balances[to] */\n      0xffffffffffffffffffffffffffffffffffffffff\n      and\n      0xffffffffffffffffffffffffffffffffffffffff\n      and\n      dup2\n      mstore\n      0x20\n      add\n      swap1\n      dup2\n      mstore\n      0x20\n      add\n      0x00\n      keccak256\n      0x00\n        /* \"lib/openzeppelin-contracts/contracts/token/ERC20/ERC20.sol\":7284:7306  _balances[to] += value */\n      dup3\n      dup3\n      sload\n      add\n      swap3\n      pop\n      pop\n      dup2\n      swap1\n      sstore\n      pop\n        /* \"lib/openzeppelin-contracts/contracts/token/ERC20/ERC20.sol\":6906:7331  if (to == address(0)) {... */\n    tag_364:\n        /* \"lib/openzeppelin-contracts/contracts/token/ERC20/ERC20.sol\":7361:7363  to */\n      dup2\n        /* \"lib/openzeppelin-contracts/contracts/token/ERC20/ERC20.sol\":7346:7371  Transfer(from, to, value) */\n      0xffffffffffffffffffffffffffffffffffffffff\n      and\n        /* \"lib/openzeppelin-contracts/contracts/token/ERC20/ERC20.sol\":7355:7359  from */\n      dup4\n        /* \"lib/openzeppelin-contracts/contracts/token/ERC20/ERC20.sol\":7346:7371  Transfer(from, to, value) */\n      0xffffffffffffffffffffffffffffffffffffffff\n      and\n      0xddf252ad1be2c89b69c2b068fc378daa952ba7f163c4a11628f55a4df523b3ef\n        /* \"lib/openzeppelin-contracts/contracts/token/ERC20/ERC20.sol\":7365:7370  value */\n      dup4\n        /* \"lib/openzeppelin-contracts/contracts/token/ERC20/ERC20.sol\":7346:7371  Transfer(from, to, value) */\n      mload(0x40)\n      tag_365\n      swap2\n      swap1\n      tag_39\n      jump\t// in\n    tag_365:\n      mload(0x40)\n      dup1\n      swap2\n      sub\n      swap1\n      log3\n        /* \"lib/openzeppelin-contracts/contracts/token/ERC20/ERC20.sol\":6271:7378  function _update(address from, address to, uint256 value) internal virtual {... */\n      pop\n      pop\n      pop\n      jump\t// out\n        /* \"src/Vaults.sol\":601:701  function _entryFeeRecipient() internal view override returns (address) {... */\n    tag_307:\n        /* \"src/Vaults.sol\":663:670  address */\n      0x00\n        /* \"src/Vaults.sol\":689:694  owner */\n      0x05\n      0x00\n      swap1\n      sload\n      swap1\n      0x0100\n      exp\n      swap1\n      div\n      0xffffffffffffffffffffffffffffffffffffffff\n      and\n        /* \"src/Vaults.sol\":682:694  return owner */\n      swap1\n      pop\n        /* \"src/Vaults.sol\":601:701  function _entryFeeRecipient() internal view override returns (address) {... */\n      swap1\n      jump\t// out\n        /* \"lib/openzeppelin-contracts/contracts/token/ERC20/extensions/ERC4626.sol\":10496:11326  function _deposit(address caller, address receiver, uint256 assets, uint256 shares) internal virtual {... */\n    tag_309:\n        /* \"lib/openzeppelin-contracts/contracts/token/ERC20/extensions/ERC4626.sol\":11164:11229  SafeERC20.safeTransferFrom(_asset, caller, address(this), assets) */\n      tag_368\n        /* \"lib/openzeppelin-contracts/contracts/token/ERC20/extensions/ERC4626.sol\":11191:11197  _asset */\n      immutable(\"0x2b94863e8a5710fa2a2df950f83723d3cf9047cafa56ad6e529f5e55ac56c9e6\")\n        /* \"lib/openzeppelin-contracts/contracts/token/ERC20/extensions/ERC4626.sol\":11199:11205  caller */\n      dup6\n        /* \"lib/openzeppelin-contracts/contracts/token/ERC20/extensions/ERC4626.sol\":11215:11219  this */\n      address\n        /* \"lib/openzeppelin-contracts/contracts/token/ERC20/extensions/ERC4626.sol\":11222:11228  assets */\n      dup6\n        /* \"lib/openzeppelin-contracts/contracts/token/ERC20/extensions/ERC4626.sol\":11164:11190  SafeERC20.safeTransferFrom */\n      tag_369\n        /* \"lib/openzeppelin-contracts/contracts/token/ERC20/extensions/ERC4626.sol\":11164:11229  SafeERC20.safeTransferFrom(_asset, caller, address(this), assets) */\n      jump\t// in\n    tag_368:\n        /* \"lib/openzeppelin-contracts/contracts/token/ERC20/extensions/ERC4626.sol\":11239:11262  _mint(receiver, shares) */\n      tag_370\n        /* \"lib/openzeppelin-contracts/contracts/token/ERC20/extensions/ERC4626.sol\":11245:11253  receiver */\n      dup4\n        /* \"lib/openzeppelin-contracts/contracts/token/ERC20/extensions/ERC4626.sol\":11255:11261  shares */\n      dup3\n        /* \"lib/openzeppelin-contracts/contracts/token/ERC20/extensions/ERC4626.sol\":11239:11244  _mint */\n      tag_371\n        /* \"lib/openzeppelin-contracts/contracts/token/ERC20/extensions/ERC4626.sol\":11239:11262  _mint(receiver, shares) */\n      jump\t// in\n    tag_370:\n        /* \"lib/openzeppelin-contracts/contracts/token/ERC20/extensions/ERC4626.sol\":11294:11302  receiver */\n      dup3\n        /* \"lib/openzeppelin-contracts/contracts/token/ERC20/extensions/ERC4626.sol\":11278:11319  Deposit(caller, receiver, assets, shares) */\n      0xffffffffffffffffffffffffffffffffffffffff\n      and\n        /* \"lib/openzeppelin-contracts/contracts/token/ERC20/extensions/ERC4626.sol\":11286:11292  caller */\n      dup5\n        /* \"lib/openzeppelin-contracts/contracts/token/ERC20/extensions/ERC4626.sol\":11278:11319  Deposit(caller, receiver, assets, shares) */\n      0xffffffffffffffffffffffffffffffffffffffff\n      and\n      0xdcbc1c05240f31ff3ad067ef1ee35ce4997762752e3a095284754544f4c709d7\n        /* \"lib/openzeppelin-contracts/contracts/token/ERC20/extensions/ERC4626.sol\":11304:11310  assets */\n      dup5\n        /* \"lib/openzeppelin-contracts/contracts/token/ERC20/extensions/ERC4626.sol\":11312:11318  shares */\n      dup5\n        /* \"lib/openzeppelin-contracts/contracts/token/ERC20/extensions/ERC4626.sol\":11278:11319  Deposit(caller, receiver, assets, shares) */\n      mload(0x40)\n      tag_372\n      swap3\n      swap2\n      swap1\n      tag_373\n      jump\t// in\n    tag_372:\n      mload(0x40)\n      dup1\n      swap2\n      sub\n      swap1\n      log3\n        /* \"lib/openzeppelin-contracts/contracts/token/ERC20/extensions/ERC4626.sol\":10496:11326  function _deposit(address caller, address receiver, uint256 assets, uint256 shares) internal virtual {... */\n      pop\n      pop\n      pop\n      pop\n      jump\t// out\n        /* \"lib/openzeppelin-contracts/contracts/token/ERC20/utils/SafeERC20.sol\":1303:1463  function safeTransfer(IERC20 token, address to, uint256 value) internal {... */\n    tag_314:\n        /* \"lib/openzeppelin-contracts/contracts/token/ERC20/utils/SafeERC20.sol\":1385:1456  _callOptionalReturn(token, abi.encodeCall(token.transfer, (to, value))) */\n      tag_375\n        /* \"lib/openzeppelin-contracts/contracts/token/ERC20/utils/SafeERC20.sol\":1405:1410  token */\n      dup4\n        /* \"lib/openzeppelin-contracts/contracts/token/ERC20/utils/SafeERC20.sol\":1427:1432  token */\n      dup5\n        /* \"lib/openzeppelin-contracts/contracts/token/ERC20/utils/SafeERC20.sol\":1427:1441  token.transfer */\n      0xffffffffffffffffffffffffffffffffffffffff\n      and\n      0xa9059cbb\n        /* \"lib/openzeppelin-contracts/contracts/token/ERC20/utils/SafeERC20.sol\":1444:1446  to */\n      dup6\n        /* \"lib/openzeppelin-contracts/contracts/token/ERC20/utils/SafeERC20.sol\":1448:1453  value */\n      dup6\n        /* \"lib/openzeppelin-contracts/contracts/token/ERC20/utils/SafeERC20.sol\":1412:1455  abi.encodeCall(token.transfer, (to, value)) */\n      add(0x24, mload(0x40))\n      tag_376\n      swap3\n      swap2\n      swap1\n      tag_377\n      jump\t// in\n    tag_376:\n      mload(0x40)\n      0x20\n      dup2\n      dup4\n      sub\n      sub\n      dup2\n      mstore\n      swap1\n      0x40\n      mstore\n      swap2\n      pop\n      0xe0\n      shl\n      0x20\n      dup3\n      add\n      dup1\n      mload\n      0xffffffffffffffffffffffffffffffffffffffffffffffffffffffff\n      dup4\n      dup2\n      dup4\n      and\n      or\n      dup4\n      mstore\n      pop\n      pop\n      pop\n      pop\n        /* \"lib/openzeppelin-contracts/contracts/token/ERC20/utils/SafeERC20.sol\":1385:1404  _callOptionalReturn */\n      tag_378\n        /* \"lib/openzeppelin-contracts/contracts/token/ERC20/utils/SafeERC20.sol\":1385:1456  _callOptionalReturn(token, abi.encodeCall(token.transfer, (to, value))) */\n      jump\t// in\n    tag_375:\n        /* \"lib/openzeppelin-contracts/contracts/token/ERC20/utils/SafeERC20.sol\":1303:1463  function safeTransfer(IERC20 token, address to, uint256 value) internal {... */\n      pop\n      pop\n      pop\n      jump\t// out\n        /* \"lib/openzeppelin-contracts/contracts/mocks/docs/ERC4626Fees.sol\":3305:3448  function _exitFeeRecipient() internal view virtual returns (address) {... */\n    tag_322:\n        /* \"lib/openzeppelin-contracts/contracts/mocks/docs/ERC4626Fees.sol\":3365:3372  address */\n      0x00\n        /* \"lib/openzeppelin-contracts/contracts/mocks/docs/ERC4626Fees.sol\":3305:3448  function _exitFeeRecipient() internal view virtual returns (address) {... */\n      swap1\n      jump\t// out\n        /* \"lib/openzeppelin-contracts/contracts/token/ERC20/extensions/ERC4626.sol\":11393:12307  function _withdraw(... */\n    tag_324:\n        /* \"lib/openzeppelin-contracts/contracts/token/ERC20/extensions/ERC4626.sol\":11580:11585  owner */\n      dup3\n        /* \"lib/openzeppelin-contracts/contracts/token/ERC20/extensions/ERC4626.sol\":11570:11585  caller != owner */\n      0xffffffffffffffffffffffffffffffffffffffff\n      and\n        /* \"lib/openzeppelin-contracts/contracts/token/ERC20/extensions/ERC4626.sol\":11570:11576  caller */\n      dup6\n        /* \"lib/openzeppelin-contracts/contracts/token/ERC20/extensions/ERC4626.sol\":11570:11585  caller != owner */\n      0xffffffffffffffffffffffffffffffffffffffff\n      and\n      eq\n        /* \"lib/openzeppelin-contracts/contracts/token/ERC20/extensions/ERC4626.sol\":11566:11650  if (caller != owner) {... */\n      tag_381\n      jumpi\n        /* \"lib/openzeppelin-contracts/contracts/token/ERC20/extensions/ERC4626.sol\":11601:11639  _spendAllowance(owner, caller, shares) */\n      tag_382\n        /* \"lib/openzeppelin-contracts/contracts/token/ERC20/extensions/ERC4626.sol\":11617:11622  owner */\n      dup4\n        /* \"lib/openzeppelin-contracts/contracts/token/ERC20/extensions/ERC4626.sol\":11624:11630  caller */\n      dup7\n        /* \"lib/openzeppelin-contracts/contracts/token/ERC20/extensions/ERC4626.sol\":11632:11638  shares */\n      dup4\n        /* \"lib/openzeppelin-contracts/contracts/token/ERC20/extensions/ERC4626.sol\":11601:11616  _spendAllowance */\n      tag_183\n        /* \"lib/openzeppelin-contracts/contracts/token/ERC20/extensions/ERC4626.sol\":11601:11639  _spendAllowance(owner, caller, shares) */\n      jump\t// in\n    tag_382:\n        /* \"lib/openzeppelin-contracts/contracts/token/ERC20/extensions/ERC4626.sol\":11566:11650  if (caller != owner) {... */\n    tag_381:\n        /* \"lib/openzeppelin-contracts/contracts/token/ERC20/extensions/ERC4626.sol\":12157:12177  _burn(owner, shares) */\n      tag_383\n        /* \"lib/openzeppelin-contracts/contracts/token/ERC20/extensions/ERC4626.sol\":12163:12168  owner */\n      dup4\n        /* \"lib/openzeppelin-contracts/contracts/token/ERC20/extensions/ERC4626.sol\":12170:12176  shares */\n      dup3\n        /* \"lib/openzeppelin-contracts/contracts/token/ERC20/extensions/ERC4626.sol\":12157:12162  _burn */\n      tag_384\n        /* \"lib/openzeppelin-contracts/contracts/token/ERC20/extensions/ERC4626.sol\":12157:12177  _burn(owner, shares) */\n      jump\t// in\n    tag_383:\n        /* \"lib/openzeppelin-contracts/contracts/token/ERC20/extensions/ERC4626.sol\":12187:12235  SafeERC20.safeTransfer(_asset, receiver, assets) */\n      tag_385\n        /* \"lib/openzeppelin-contracts/contracts/token/ERC20/extensions/ERC4626.sol\":12210:12216  _asset */\n      immutable(\"0x2b94863e8a5710fa2a2df950f83723d3cf9047cafa56ad6e529f5e55ac56c9e6\")\n        /* \"lib/openzeppelin-contracts/contracts/token/ERC20/extensions/ERC4626.sol\":12218:12226  receiver */\n      dup6\n        /* \"lib/openzeppelin-contracts/contracts/token/ERC20/extensions/ERC4626.sol\":12228:12234  assets */\n      dup5\n        /* \"lib/openzeppelin-contracts/contracts/token/ERC20/extensions/ERC4626.sol\":12187:12209  SafeERC20.safeTransfer */\n      tag_314\n        /* \"lib/openzeppelin-contracts/contracts/token/ERC20/extensions/ERC4626.sol\":12187:12235  SafeERC20.safeTransfer(_asset, receiver, assets) */\n      jump\t// in\n    tag_385:\n        /* \"lib/openzeppelin-contracts/contracts/token/ERC20/extensions/ERC4626.sol\":12278:12283  owner */\n      dup3\n        /* \"lib/openzeppelin-contracts/contracts/token/ERC20/extensions/ERC4626.sol\":12251:12300  Withdraw(caller, receiver, owner, assets, shares) */\n      0xffffffffffffffffffffffffffffffffffffffff\n      and\n        /* \"lib/openzeppelin-contracts/contracts/token/ERC20/extensions/ERC4626.sol\":12268:12276  receiver */\n      dup5\n        /* \"lib/openzeppelin-contracts/contracts/token/ERC20/extensions/ERC4626.sol\":12251:12300  Withdraw(caller, receiver, owner, assets, shares) */\n      0xffffffffffffffffffffffffffffffffffffffff\n      and\n        /* \"lib/openzeppelin-contracts/contracts/token/ERC20/extensions/ERC4626.sol\":12260:12266  caller */\n      dup7\n        /* \"lib/openzeppelin-contracts/contracts/token/ERC20/extensions/ERC4626.sol\":12251:12300  Withdraw(caller, receiver, owner, assets, shares) */\n      0xffffffffffffffffffffffffffffffffffffffff\n      and\n      0xfbde797d201c681b91056529119e0b02407c7bb96a4a2c75c01fc9667232c8db\n        /* \"lib/openzeppelin-contracts/contracts/token/ERC20/extensions/ERC4626.sol\":12285:12291  assets */\n      dup6\n        /* \"lib/openzeppelin-contracts/contracts/token/ERC20/extensions/ERC4626.sol\":12293:12299  shares */\n      dup6\n        /* \"lib/openzeppelin-contracts/contracts/token/ERC20/extensions/ERC4626.sol\":12251:12300  Withdraw(caller, receiver, owner, assets, shares) */\n      mload(0x40)\n      tag_386\n      swap3\n      swap2\n      swap1\n      tag_373\n      jump\t// in\n    tag_386:\n      mload(0x40)\n      dup1\n      swap2\n      sub\n      swap1\n      log4\n        /* \"lib/openzeppelin-contracts/contracts/token/ERC20/extensions/ERC4626.sol\":11393:12307  function _withdraw(... */\n      pop\n      pop\n      pop\n      pop\n      pop\n      jump\t// out\n        /* \"lib/openzeppelin-contracts/contracts/utils/math/Math.sol\":3803:7919  function mulDiv(uint256 x, uint256 y, uint256 denominator) internal pure returns (uint256 result) {... */\n    tag_341:\n        /* \"lib/openzeppelin-contracts/contracts/utils/math/Math.sol\":3885:3899  uint256 result */\n      0x00\n        /* \"lib/openzeppelin-contracts/contracts/utils/math/Math.sol\":4232:4245  uint256 prod0 */\n      dup1\n        /* \"lib/openzeppelin-contracts/contracts/utils/math/Math.sol\":4252:4253  y */\n      dup4\n        /* \"lib/openzeppelin-contracts/contracts/utils/math/Math.sol\":4248:4249  x */\n      dup6\n        /* \"lib/openzeppelin-contracts/contracts/utils/math/Math.sol\":4248:4253  x * y */\n      mul\n        /* \"lib/openzeppelin-contracts/contracts/utils/math/Math.sol\":4232:4253  uint256 prod0 = x * y */\n      swap1\n      pop\n        /* \"lib/openzeppelin-contracts/contracts/utils/math/Math.sol\":4312:4325  uint256 prod1 */\n      0x00\n        /* \"lib/openzeppelin-contracts/contracts/utils/math/Math.sol\":4437:4438  0 */\n      dup1\n        /* \"lib/openzeppelin-contracts/contracts/utils/math/Math.sol\":4433:4439  not(0) */\n      not\n        /* \"lib/openzeppelin-contracts/contracts/utils/math/Math.sol\":4430:4431  y */\n      dup6\n        /* \"lib/openzeppelin-contracts/contracts/utils/math/Math.sol\":4427:4428  x */\n      dup8\n        /* \"lib/openzeppelin-contracts/contracts/utils/math/Math.sol\":4420:4440  mulmod(x, y, not(0)) */\n      mulmod\n        /* \"lib/openzeppelin-contracts/contracts/utils/math/Math.sol\":4493:4498  prod0 */\n      dup3\n        /* \"lib/openzeppelin-contracts/contracts/utils/math/Math.sol\":4489:4491  mm */\n      dup2\n        /* \"lib/openzeppelin-contracts/contracts/utils/math/Math.sol\":4486:4499  lt(mm, prod0) */\n      lt\n        /* \"lib/openzeppelin-contracts/contracts/utils/math/Math.sol\":4478:4483  prod0 */\n      dup4\n        /* \"lib/openzeppelin-contracts/contracts/utils/math/Math.sol\":4474:4476  mm */\n      dup3\n        /* \"lib/openzeppelin-contracts/contracts/utils/math/Math.sol\":4470:4484  sub(mm, prod0) */\n      sub\n        /* \"lib/openzeppelin-contracts/contracts/utils/math/Math.sol\":4466:4500  sub(sub(mm, prod0), lt(mm, prod0)) */\n      sub\n        /* \"lib/openzeppelin-contracts/contracts/utils/math/Math.sol\":4457:4500  prod1 := sub(sub(mm, prod0), lt(mm, prod0)) */\n      swap2\n      pop\n        /* \"lib/openzeppelin-contracts/contracts/utils/math/Math.sol\":4392:4514  {... */\n      pop\n        /* \"lib/openzeppelin-contracts/contracts/utils/math/Math.sol\":4604:4605  0 */\n      0x00\n        /* \"lib/openzeppelin-contracts/contracts/utils/math/Math.sol\":4595:4600  prod1 */\n      dup2\n        /* \"lib/openzeppelin-contracts/contracts/utils/math/Math.sol\":4595:4605  prod1 == 0 */\n      sub\n        /* \"lib/openzeppelin-contracts/contracts/utils/math/Math.sol\":4591:4959  if (prod1 == 0) {... */\n      tag_388\n      jumpi\n        /* \"lib/openzeppelin-contracts/contracts/utils/math/Math.sol\":4933:4944  denominator */\n      dup4\n        /* \"lib/openzeppelin-contracts/contracts/utils/math/Math.sol\":4925:4930  prod0 */\n      dup3\n        /* \"lib/openzeppelin-contracts/contracts/utils/math/Math.sol\":4925:4944  prod0 / denominator */\n      dup2\n      tag_389\n      jumpi\n      tag_390\n      tag_347\n      jump\t// in\n    tag_390:\n    tag_389:\n      div\n        /* \"lib/openzeppelin-contracts/contracts/utils/math/Math.sol\":4918:4944  return prod0 / denominator */\n      swap3\n      pop\n      pop\n      pop\n      jump(tag_387)\n        /* \"lib/openzeppelin-contracts/contracts/utils/math/Math.sol\":4591:4959  if (prod1 == 0) {... */\n    tag_388:\n        /* \"lib/openzeppelin-contracts/contracts/utils/math/Math.sol\":5080:5085  prod1 */\n      dup1\n        /* \"lib/openzeppelin-contracts/contracts/utils/math/Math.sol\":5065:5076  denominator */\n      dup5\n        /* \"lib/openzeppelin-contracts/contracts/utils/math/Math.sol\":5065:5085  denominator <= prod1 */\n      gt\n        /* \"lib/openzeppelin-contracts/contracts/utils/math/Math.sol\":5061:5149  if (denominator <= prod1) {... */\n      tag_391\n      jumpi\n        /* \"lib/openzeppelin-contracts/contracts/utils/math/Math.sol\":5112:5134  MathOverflowedMulDiv() */\n      mload(0x40)\n      0x227bc15300000000000000000000000000000000000000000000000000000000\n      dup2\n      mstore\n      0x04\n      add\n      mload(0x40)\n      dup1\n      swap2\n      sub\n      swap1\n      revert\n        /* \"lib/openzeppelin-contracts/contracts/utils/math/Math.sol\":5061:5149  if (denominator <= prod1) {... */\n    tag_391:\n        /* \"lib/openzeppelin-contracts/contracts/utils/math/Math.sol\":5404:5421  uint256 remainder */\n      0x00\n        /* \"lib/openzeppelin-contracts/contracts/utils/math/Math.sol\":5539:5550  denominator */\n      dup5\n        /* \"lib/openzeppelin-contracts/contracts/utils/math/Math.sol\":5536:5537  y */\n      dup7\n        /* \"lib/openzeppelin-contracts/contracts/utils/math/Math.sol\":5533:5534  x */\n      dup9\n        /* \"lib/openzeppelin-contracts/contracts/utils/math/Math.sol\":5526:5551  mulmod(x, y, denominator) */\n      mulmod\n        /* \"lib/openzeppelin-contracts/contracts/utils/math/Math.sol\":5513:5551  remainder := mulmod(x, y, denominator) */\n      swap1\n      pop\n        /* \"lib/openzeppelin-contracts/contracts/utils/math/Math.sol\":5667:5672  prod0 */\n      dup3\n        /* \"lib/openzeppelin-contracts/contracts/utils/math/Math.sol\":5656:5665  remainder */\n      dup2\n        /* \"lib/openzeppelin-contracts/contracts/utils/math/Math.sol\":5653:5673  gt(remainder, prod0) */\n      gt\n        /* \"lib/openzeppelin-contracts/contracts/utils/math/Math.sol\":5646:5651  prod1 */\n      dup3\n        /* \"lib/openzeppelin-contracts/contracts/utils/math/Math.sol\":5642:5674  sub(prod1, gt(remainder, prod0)) */\n      sub\n        /* \"lib/openzeppelin-contracts/contracts/utils/math/Math.sol\":5633:5674  prod1 := sub(prod1, gt(remainder, prod0)) */\n      swap2\n      pop\n        /* \"lib/openzeppelin-contracts/contracts/utils/math/Math.sol\":5711:5720  remainder */\n      dup1\n        /* \"lib/openzeppelin-contracts/contracts/utils/math/Math.sol\":5704:5709  prod0 */\n      dup4\n        /* \"lib/openzeppelin-contracts/contracts/utils/math/Math.sol\":5700:5721  sub(prod0, remainder) */\n      sub\n        /* \"lib/openzeppelin-contracts/contracts/utils/math/Math.sol\":5691:5721  prod0 := sub(prod0, remainder) */\n      swap3\n      pop\n        /* \"lib/openzeppelin-contracts/contracts/utils/math/Math.sol\":5939:5951  uint256 twos */\n      0x00\n        /* \"lib/openzeppelin-contracts/contracts/utils/math/Math.sol\":5973:5984  denominator */\n      dup6\n        /* \"lib/openzeppelin-contracts/contracts/utils/math/Math.sol\":5969:5970  0 */\n      0x00\n        /* \"lib/openzeppelin-contracts/contracts/utils/math/Math.sol\":5969:5984  0 - denominator */\n      sub\n        /* \"lib/openzeppelin-contracts/contracts/utils/math/Math.sol\":5954:5965  denominator */\n      dup7\n        /* \"lib/openzeppelin-contracts/contracts/utils/math/Math.sol\":5954:5985  denominator & (0 - denominator) */\n      and\n        /* \"lib/openzeppelin-contracts/contracts/utils/math/Math.sol\":5939:5985  uint256 twos = denominator & (0 - denominator) */\n      swap1\n      pop\n        /* \"lib/openzeppelin-contracts/contracts/utils/math/Math.sol\":6105:6109  twos */\n      dup1\n        /* \"lib/openzeppelin-contracts/contracts/utils/math/Math.sol\":6092:6103  denominator */\n      dup7\n        /* \"lib/openzeppelin-contracts/contracts/utils/math/Math.sol\":6088:6110  div(denominator, twos) */\n      div\n        /* \"lib/openzeppelin-contracts/contracts/utils/math/Math.sol\":6073:6110  denominator := div(denominator, twos) */\n      swap6\n      pop\n        /* \"lib/openzeppelin-contracts/contracts/utils/math/Math.sol\":6197:6201  twos */\n      dup1\n        /* \"lib/openzeppelin-contracts/contracts/utils/math/Math.sol\":6190:6195  prod0 */\n      dup5\n        /* \"lib/openzeppelin-contracts/contracts/utils/math/Math.sol\":6186:6202  div(prod0, twos) */\n      div\n        /* \"lib/openzeppelin-contracts/contracts/utils/math/Math.sol\":6177:6202  prod0 := div(prod0, twos) */\n      swap4\n      pop\n        /* \"lib/openzeppelin-contracts/contracts/utils/math/Math.sol\":6354:6355  1 */\n      0x01\n        /* \"lib/openzeppelin-contracts/contracts/utils/math/Math.sol\":6347:6351  twos */\n      dup2\n        /* \"lib/openzeppelin-contracts/contracts/utils/math/Math.sol\":6340:6344  twos */\n      dup3\n        /* \"lib/openzeppelin-contracts/contracts/utils/math/Math.sol\":6337:6338  0 */\n      0x00\n        /* \"lib/openzeppelin-contracts/contracts/utils/math/Math.sol\":6333:6345  sub(0, twos) */\n      sub\n        /* \"lib/openzeppelin-contracts/contracts/utils/math/Math.sol\":6329:6352  div(sub(0, twos), twos) */\n      div\n        /* \"lib/openzeppelin-contracts/contracts/utils/math/Math.sol\":6325:6356  add(div(sub(0, twos), twos), 1) */\n      add\n        /* \"lib/openzeppelin-contracts/contracts/utils/math/Math.sol\":6317:6356  twos := add(div(sub(0, twos), twos), 1) */\n      swap1\n      pop\n        /* \"lib/openzeppelin-contracts/contracts/utils/math/Math.sol\":6453:6457  twos */\n      dup1\n        /* \"lib/openzeppelin-contracts/contracts/utils/math/Math.sol\":6445:6450  prod1 */\n      dup4\n        /* \"lib/openzeppelin-contracts/contracts/utils/math/Math.sol\":6445:6457  prod1 * twos */\n      mul\n        /* \"lib/openzeppelin-contracts/contracts/utils/math/Math.sol\":6436:6457  prod0 |= prod1 * twos */\n      dup5\n      or\n      swap4\n      pop\n        /* \"lib/openzeppelin-contracts/contracts/utils/math/Math.sol\":6775:6790  uint256 inverse */\n      0x00\n        /* \"lib/openzeppelin-contracts/contracts/utils/math/Math.sol\":6813:6814  2 */\n      0x02\n        /* \"lib/openzeppelin-contracts/contracts/utils/math/Math.sol\":6798:6809  denominator */\n      dup8\n        /* \"lib/openzeppelin-contracts/contracts/utils/math/Math.sol\":6794:6795  3 */\n      0x03\n        /* \"lib/openzeppelin-contracts/contracts/utils/math/Math.sol\":6794:6809  3 * denominator */\n      mul\n        /* \"lib/openzeppelin-contracts/contracts/utils/math/Math.sol\":6793:6814  (3 * denominator) ^ 2 */\n      xor\n        /* \"lib/openzeppelin-contracts/contracts/utils/math/Math.sol\":6775:6814  uint256 inverse = (3 * denominator) ^ 2 */\n      swap1\n      pop\n        /* \"lib/openzeppelin-contracts/contracts/utils/math/Math.sol\":7060:7067  inverse */\n      dup1\n        /* \"lib/openzeppelin-contracts/contracts/utils/math/Math.sol\":7046:7057  denominator */\n      dup8\n        /* \"lib/openzeppelin-contracts/contracts/utils/math/Math.sol\":7046:7067  denominator * inverse */\n      mul\n        /* \"lib/openzeppelin-contracts/contracts/utils/math/Math.sol\":7042:7043  2 */\n      0x02\n        /* \"lib/openzeppelin-contracts/contracts/utils/math/Math.sol\":7042:7067  2 - denominator * inverse */\n      sub\n        /* \"lib/openzeppelin-contracts/contracts/utils/math/Math.sol\":7031:7067  inverse *= 2 - denominator * inverse */\n      dup2\n      mul\n      swap1\n      pop\n        /* \"lib/openzeppelin-contracts/contracts/utils/math/Math.sol\":7129:7136  inverse */\n      dup1\n        /* \"lib/openzeppelin-contracts/contracts/utils/math/Math.sol\":7115:7126  denominator */\n      dup8\n        /* \"lib/openzeppelin-contracts/contracts/utils/math/Math.sol\":7115:7136  denominator * inverse */\n      mul\n        /* \"lib/openzeppelin-contracts/contracts/utils/math/Math.sol\":7111:7112  2 */\n      0x02\n        /* \"lib/openzeppelin-contracts/contracts/utils/math/Math.sol\":7111:7136  2 - denominator * inverse */\n      sub\n        /* \"lib/openzeppelin-contracts/contracts/utils/math/Math.sol\":7100:7136  inverse *= 2 - denominator * inverse */\n      dup2\n      mul\n      swap1\n      pop\n        /* \"lib/openzeppelin-contracts/contracts/utils/math/Math.sol\":7199:7206  inverse */\n      dup1\n        /* \"lib/openzeppelin-contracts/contracts/utils/math/Math.sol\":7185:7196  denominator */\n      dup8\n        /* \"lib/openzeppelin-contracts/contracts/utils/math/Math.sol\":7185:7206  denominator * inverse */\n      mul\n        /* \"lib/openzeppelin-contracts/contracts/utils/math/Math.sol\":7181:7182  2 */\n      0x02\n        /* \"lib/openzeppelin-contracts/contracts/utils/math/Math.sol\":7181:7206  2 - denominator * inverse */\n      sub\n        /* \"lib/openzeppelin-contracts/contracts/utils/math/Math.sol\":7170:7206  inverse *= 2 - denominator * inverse */\n      dup2\n      mul\n      swap1\n      pop\n        /* \"lib/openzeppelin-contracts/contracts/utils/math/Math.sol\":7269:7276  inverse */\n      dup1\n        /* \"lib/openzeppelin-contracts/contracts/utils/math/Math.sol\":7255:7266  denominator */\n      dup8\n        /* \"lib/openzeppelin-contracts/contracts/utils/math/Math.sol\":7255:7276  denominator * inverse */\n      mul\n        /* \"lib/openzeppelin-contracts/contracts/utils/math/Math.sol\":7251:7252  2 */\n      0x02\n        /* \"lib/openzeppelin-contracts/contracts/utils/math/Math.sol\":7251:7276  2 - denominator * inverse */\n      sub\n        /* \"lib/openzeppelin-contracts/contracts/utils/math/Math.sol\":7240:7276  inverse *= 2 - denominator * inverse */\n      dup2\n      mul\n      swap1\n      pop\n        /* \"lib/openzeppelin-contracts/contracts/utils/math/Math.sol\":7339:7346  inverse */\n      dup1\n        /* \"lib/openzeppelin-contracts/contracts/utils/math/Math.sol\":7325:7336  denominator */\n      dup8\n        /* \"lib/openzeppelin-contracts/contracts/utils/math/Math.sol\":7325:7346  denominator * inverse */\n      mul\n        /* \"lib/openzeppelin-contracts/contracts/utils/math/Math.sol\":7321:7322  2 */\n      0x02\n        /* \"lib/openzeppelin-contracts/contracts/utils/math/Math.sol\":7321:7346  2 - denominator * inverse */\n      sub\n        /* \"lib/openzeppelin-contracts/contracts/utils/math/Math.sol\":7310:7346  inverse *= 2 - denominator * inverse */\n      dup2\n      mul\n      swap1\n      pop\n        /* \"lib/openzeppelin-contracts/contracts/utils/math/Math.sol\":7410:7417  inverse */\n      dup1\n        /* \"lib/openzeppelin-contracts/contracts/utils/math/Math.sol\":7396:7407  denominator */\n      dup8\n        /* \"lib/openzeppelin-contracts/contracts/utils/math/Math.sol\":7396:7417  denominator * inverse */\n      mul\n        /* \"lib/openzeppelin-contracts/contracts/utils/math/Math.sol\":7392:7393  2 */\n      0x02\n        /* \"lib/openzeppelin-contracts/contracts/utils/math/Math.sol\":7392:7417  2 - denominator * inverse */\n      sub\n        /* \"lib/openzeppelin-contracts/contracts/utils/math/Math.sol\":7381:7417  inverse *= 2 - denominator * inverse */\n      dup2\n      mul\n      swap1\n      pop\n        /* \"lib/openzeppelin-contracts/contracts/utils/math/Math.sol\":7868:7875  inverse */\n      dup1\n        /* \"lib/openzeppelin-contracts/contracts/utils/math/Math.sol\":7860:7865  prod0 */\n      dup6\n        /* \"lib/openzeppelin-contracts/contracts/utils/math/Math.sol\":7860:7875  prod0 * inverse */\n      mul\n        /* \"lib/openzeppelin-contracts/contracts/utils/math/Math.sol\":7851:7875  result = prod0 * inverse */\n      swap6\n      pop\n        /* \"lib/openzeppelin-contracts/contracts/utils/math/Math.sol\":7889:7902  return result */\n      pop\n      pop\n      pop\n      pop\n      pop\n        /* \"lib/openzeppelin-contracts/contracts/utils/math/Math.sol\":3803:7919  function mulDiv(uint256 x, uint256 y, uint256 denominator) internal pure returns (uint256 result) {... */\n    tag_387:\n      swap4\n      swap3\n      pop\n      pop\n      pop\n      jump\t// out\n        /* \"lib/openzeppelin-contracts/contracts/utils/math/Math.sol\":14993:15115  function unsignedRoundsUp(Rounding rounding) internal pure returns (bool) {... */\n    tag_343:\n        /* \"lib/openzeppelin-contracts/contracts/utils/math/Math.sol\":15061:15065  bool */\n      0x00\n        /* \"lib/openzeppelin-contracts/contracts/utils/math/Math.sol\":15107:15108  1 */\n      0x01\n        /* \"lib/openzeppelin-contracts/contracts/utils/math/Math.sol\":15102:15103  2 */\n      0x02\n        /* \"lib/openzeppelin-contracts/contracts/utils/math/Math.sol\":15090:15098  rounding */\n      dup4\n        /* \"lib/openzeppelin-contracts/contracts/utils/math/Math.sol\":15084:15099  uint8(rounding) */\n      0x03\n      dup2\n      gt\n      iszero\n      tag_393\n      jumpi\n      tag_394\n      tag_395\n      jump\t// in\n    tag_394:\n    tag_393:\n        /* \"lib/openzeppelin-contracts/contracts/utils/math/Math.sol\":15084:15103  uint8(rounding) % 2 */\n      tag_396\n      swap2\n      swap1\n      tag_397\n      jump\t// in\n    tag_396:\n        /* \"lib/openzeppelin-contracts/contracts/utils/math/Math.sol\":15084:15108  uint8(rounding) % 2 == 1 */\n      0xff\n      and\n      eq\n        /* \"lib/openzeppelin-contracts/contracts/utils/math/Math.sol\":15077:15108  return uint8(rounding) % 2 == 1 */\n      swap1\n      pop\n        /* \"lib/openzeppelin-contracts/contracts/utils/math/Math.sol\":14993:15115  function unsignedRoundsUp(Rounding rounding) internal pure returns (bool) {... */\n      swap2\n      swap1\n      pop\n      jump\t// out\n        /* \"lib/openzeppelin-contracts/contracts/token/ERC20/utils/SafeERC20.sol\":1702:1890  function safeTransferFrom(IERC20 token, address from, address to, uint256 value) internal {... */\n    tag_369:\n        /* \"lib/openzeppelin-contracts/contracts/token/ERC20/utils/SafeERC20.sol\":1802:1883  _callOptionalReturn(token, abi.encodeCall(token.transferFrom, (from, to, value))) */\n      tag_399\n        /* \"lib/openzeppelin-contracts/contracts/token/ERC20/utils/SafeERC20.sol\":1822:1827  token */\n      dup5\n        /* \"lib/openzeppelin-contracts/contracts/token/ERC20/utils/SafeERC20.sol\":1844:1849  token */\n      dup6\n        /* \"lib/openzeppelin-contracts/contracts/token/ERC20/utils/SafeERC20.sol\":1844:1862  token.transferFrom */\n      0xffffffffffffffffffffffffffffffffffffffff\n      and\n      0x23b872dd\n        /* \"lib/openzeppelin-contracts/contracts/token/ERC20/utils/SafeERC20.sol\":1865:1869  from */\n      dup7\n        /* \"lib/openzeppelin-contracts/contracts/token/ERC20/utils/SafeERC20.sol\":1871:1873  to */\n      dup7\n        /* \"lib/openzeppelin-contracts/contracts/token/ERC20/utils/SafeERC20.sol\":1875:1880  value */\n      dup7\n        /* \"lib/openzeppelin-contracts/contracts/token/ERC20/utils/SafeERC20.sol\":1829:1882  abi.encodeCall(token.transferFrom, (from, to, value)) */\n      add(0x24, mload(0x40))\n      tag_400\n      swap4\n      swap3\n      swap2\n      swap1\n      tag_401\n      jump\t// in\n    tag_400:\n      mload(0x40)\n      0x20\n      dup2\n      dup4\n      sub\n      sub\n      dup2\n      mstore\n      swap1\n      0x40\n      mstore\n      swap2\n      pop\n      0xe0\n      shl\n      0x20\n      dup3\n      add\n      dup1\n      mload\n      0xffffffffffffffffffffffffffffffffffffffffffffffffffffffff\n      dup4\n      dup2\n      dup4\n      and\n      or\n      dup4\n      mstore\n      pop\n      pop\n      pop\n      pop\n        /* \"lib/openzeppelin-contracts/contracts/token/ERC20/utils/SafeERC20.sol\":1802:1821  _callOptionalReturn */\n      tag_378\n        /* \"lib/openzeppelin-contracts/contracts/token/ERC20/utils/SafeERC20.sol\":1802:1883  _callOptionalReturn(token, abi.encodeCall(token.transferFrom, (from, to, value))) */\n      jump\t// in\n    tag_399:\n        /* \"lib/openzeppelin-contracts/contracts/token/ERC20/utils/SafeERC20.sol\":1702:1890  function safeTransferFrom(IERC20 token, address from, address to, uint256 value) internal {... */\n      pop\n      pop\n      pop\n      pop\n      jump\t// out\n        /* \"lib/openzeppelin-contracts/contracts/token/ERC20/ERC20.sol\":7721:7929  function _mint(address account, uint256 value) internal {... */\n    tag_371:\n        /* \"lib/openzeppelin-contracts/contracts/token/ERC20/ERC20.sol\":7810:7811  0 */\n      0x00\n        /* \"lib/openzeppelin-contracts/contracts/token/ERC20/ERC20.sol\":7791:7812  account == address(0) */\n      0xffffffffffffffffffffffffffffffffffffffff\n      and\n        /* \"lib/openzeppelin-contracts/contracts/token/ERC20/ERC20.sol\":7791:7798  account */\n      dup3\n        /* \"lib/openzeppelin-contracts/contracts/token/ERC20/ERC20.sol\":7791:7812  account == address(0) */\n      0xffffffffffffffffffffffffffffffffffffffff\n      and\n      sub\n        /* \"lib/openzeppelin-contracts/contracts/token/ERC20/ERC20.sol\":7787:7878  if (account == address(0)) {... */\n      tag_403\n      jumpi\n        /* \"lib/openzeppelin-contracts/contracts/token/ERC20/ERC20.sol\":7864:7865  0 */\n      0x00\n        /* \"lib/openzeppelin-contracts/contracts/token/ERC20/ERC20.sol\":7835:7867  ERC20InvalidReceiver(address(0)) */\n      mload(0x40)\n      0xec442f0500000000000000000000000000000000000000000000000000000000\n      dup2\n      mstore\n      0x04\n      add\n      tag_404\n      swap2\n      swap1\n      tag_74\n      jump\t// in\n    tag_404:\n      mload(0x40)\n      dup1\n      swap2\n      sub\n      swap1\n      revert\n        /* \"lib/openzeppelin-contracts/contracts/token/ERC20/ERC20.sol\":7787:7878  if (account == address(0)) {... */\n    tag_403:\n        /* \"lib/openzeppelin-contracts/contracts/token/ERC20/ERC20.sol\":7887:7922  _update(address(0), account, value) */\n      tag_405\n        /* \"lib/openzeppelin-contracts/contracts/token/ERC20/ERC20.sol\":7903:7904  0 */\n      0x00\n        /* \"lib/openzeppelin-contracts/contracts/token/ERC20/ERC20.sol\":7907:7914  account */\n      dup4\n        /* \"lib/openzeppelin-contracts/contracts/token/ERC20/ERC20.sol\":7916:7921  value */\n      dup4\n        /* \"lib/openzeppelin-contracts/contracts/token/ERC20/ERC20.sol\":7887:7894  _update */\n      tag_296\n        /* \"lib/openzeppelin-contracts/contracts/token/ERC20/ERC20.sol\":7887:7922  _update(address(0), account, value) */\n      jump\t// in\n    tag_405:\n        /* \"lib/openzeppelin-contracts/contracts/token/ERC20/ERC20.sol\":7721:7929  function _mint(address account, uint256 value) internal {... */\n      pop\n      pop\n      jump\t// out\n        /* \"lib/openzeppelin-contracts/contracts/token/ERC20/utils/SafeERC20.sol\":4059:4688  function _callOptionalReturn(IERC20 token, bytes memory data) private {... */\n    tag_378:\n        /* \"lib/openzeppelin-contracts/contracts/token/ERC20/utils/SafeERC20.sol\":4478:4501  bytes memory returndata */\n      0x00\n        /* \"lib/openzeppelin-contracts/contracts/token/ERC20/utils/SafeERC20.sol\":4504:4537  address(token).functionCall(data) */\n      tag_407\n        /* \"lib/openzeppelin-contracts/contracts/token/ERC20/utils/SafeERC20.sol\":4532:4536  data */\n      dup3\n        /* \"lib/openzeppelin-contracts/contracts/token/ERC20/utils/SafeERC20.sol\":4512:4517  token */\n      dup5\n        /* \"lib/openzeppelin-contracts/contracts/token/ERC20/utils/SafeERC20.sol\":4504:4531  address(token).functionCall */\n      0xffffffffffffffffffffffffffffffffffffffff\n      and\n      tag_408\n      swap1\n        /* \"lib/openzeppelin-contracts/contracts/token/ERC20/utils/SafeERC20.sol\":4504:4537  address(token).functionCall(data) */\n      swap2\n      swap1\n      0xffffffff\n      and\n      jump\t// in\n    tag_407:\n        /* \"lib/openzeppelin-contracts/contracts/token/ERC20/utils/SafeERC20.sol\":4478:4537  bytes memory returndata = address(token).functionCall(data) */\n      swap1\n      pop\n        /* \"lib/openzeppelin-contracts/contracts/token/ERC20/utils/SafeERC20.sol\":4572:4573  0 */\n      0x00\n        /* \"lib/openzeppelin-contracts/contracts/token/ERC20/utils/SafeERC20.sol\":4551:4561  returndata */\n      dup2\n        /* \"lib/openzeppelin-contracts/contracts/token/ERC20/utils/SafeERC20.sol\":4551:4568  returndata.length */\n      mload\n        /* \"lib/openzeppelin-contracts/contracts/token/ERC20/utils/SafeERC20.sol\":4551:4573  returndata.length != 0 */\n      eq\n      iszero\n        /* \"lib/openzeppelin-contracts/contracts/token/ERC20/utils/SafeERC20.sol\":4551:4608  returndata.length != 0 && !abi.decode(returndata, (bool)) */\n      dup1\n      iszero\n      tag_409\n      jumpi\n      pop\n        /* \"lib/openzeppelin-contracts/contracts/token/ERC20/utils/SafeERC20.sol\":4589:4599  returndata */\n      dup1\n        /* \"lib/openzeppelin-contracts/contracts/token/ERC20/utils/SafeERC20.sol\":4578:4608  abi.decode(returndata, (bool)) */\n      dup1\n      0x20\n      add\n      swap1\n      mload\n      dup2\n      add\n      swap1\n      tag_410\n      swap2\n      swap1\n      tag_411\n      jump\t// in\n    tag_410:\n        /* \"lib/openzeppelin-contracts/contracts/token/ERC20/utils/SafeERC20.sol\":4577:4608  !abi.decode(returndata, (bool)) */\n      iszero\n        /* \"lib/openzeppelin-contracts/contracts/token/ERC20/utils/SafeERC20.sol\":4551:4608  returndata.length != 0 && !abi.decode(returndata, (bool)) */\n    tag_409:\n        /* \"lib/openzeppelin-contracts/contracts/token/ERC20/utils/SafeERC20.sol\":4547:4682  if (returndata.length != 0 && !abi.decode(returndata, (bool))) {... */\n      iszero\n      tag_412\n      jumpi\n        /* \"lib/openzeppelin-contracts/contracts/token/ERC20/utils/SafeERC20.sol\":4664:4669  token */\n      dup3\n        /* \"lib/openzeppelin-contracts/contracts/token/ERC20/utils/SafeERC20.sol\":4631:4671  SafeERC20FailedOperation(address(token)) */\n      mload(0x40)\n      0x5274afe700000000000000000000000000000000000000000000000000000000\n      dup2\n      mstore\n      0x04\n      add\n      tag_413\n      swap2\n      swap1\n      tag_74\n      jump\t// in\n    tag_413:\n      mload(0x40)\n      dup1\n      swap2\n      sub\n      swap1\n      revert\n        /* \"lib/openzeppelin-contracts/contracts/token/ERC20/utils/SafeERC20.sol\":4547:4682  if (returndata.length != 0 && !abi.decode(returndata, (bool))) {... */\n    tag_412:\n        /* \"lib/openzeppelin-contracts/contracts/token/ERC20/utils/SafeERC20.sol\":4129:4688  {... */\n      pop\n        /* \"lib/openzeppelin-contracts/contracts/token/ERC20/utils/SafeERC20.sol\":4059:4688  function _callOptionalReturn(IERC20 token, bytes memory data) private {... */\n      pop\n      pop\n      jump\t// out\n        /* \"lib/openzeppelin-contracts/contracts/token/ERC20/ERC20.sol\":8247:8453  function _burn(address account, uint256 value) internal {... */\n    tag_384:\n        /* \"lib/openzeppelin-contracts/contracts/token/ERC20/ERC20.sol\":8336:8337  0 */\n      0x00\n        /* \"lib/openzeppelin-contracts/contracts/token/ERC20/ERC20.sol\":8317:8338  account == address(0) */\n      0xffffffffffffffffffffffffffffffffffffffff\n      and\n        /* \"lib/openzeppelin-contracts/contracts/token/ERC20/ERC20.sol\":8317:8324  account */\n      dup3\n        /* \"lib/openzeppelin-contracts/contracts/token/ERC20/ERC20.sol\":8317:8338  account == address(0) */\n      0xffffffffffffffffffffffffffffffffffffffff\n      and\n      sub\n        /* \"lib/openzeppelin-contracts/contracts/token/ERC20/ERC20.sol\":8313:8402  if (account == address(0)) {... */\n      tag_415\n      jumpi\n        /* \"lib/openzeppelin-contracts/contracts/token/ERC20/ERC20.sol\":8388:8389  0 */\n      0x00\n        /* \"lib/openzeppelin-contracts/contracts/token/ERC20/ERC20.sol\":8361:8391  ERC20InvalidSender(address(0)) */\n      mload(0x40)\n      0x96c6fd1e00000000000000000000000000000000000000000000000000000000\n      dup2\n      mstore\n      0x04\n      add\n      tag_416\n      swap2\n      swap1\n      tag_74\n      jump\t// in\n    tag_416:\n      mload(0x40)\n      dup1\n      swap2\n      sub\n      swap1\n      revert\n        /* \"lib/openzeppelin-contracts/contracts/token/ERC20/ERC20.sol\":8313:8402  if (account == address(0)) {... */\n    tag_415:\n        /* \"lib/openzeppelin-contracts/contracts/token/ERC20/ERC20.sol\":8411:8446  _update(account, address(0), value) */\n      tag_417\n        /* \"lib/openzeppelin-contracts/contracts/token/ERC20/ERC20.sol\":8419:8426  account */\n      dup3\n        /* \"lib/openzeppelin-contracts/contracts/token/ERC20/ERC20.sol\":8436:8437  0 */\n      0x00\n        /* \"lib/openzeppelin-contracts/contracts/token/ERC20/ERC20.sol\":8440:8445  value */\n      dup4\n        /* \"lib/openzeppelin-contracts/contracts/token/ERC20/ERC20.sol\":8411:8418  _update */\n      tag_296\n        /* \"lib/openzeppelin-contracts/contracts/token/ERC20/ERC20.sol\":8411:8446  _update(account, address(0), value) */\n      jump\t// in\n    tag_417:\n        /* \"lib/openzeppelin-contracts/contracts/token/ERC20/ERC20.sol\":8247:8453  function _burn(address account, uint256 value) internal {... */\n      pop\n      pop\n      jump\t// out\n        /* \"lib/openzeppelin-contracts/contracts/utils/Address.sol\":2705:2856  function functionCall(address target, bytes memory data) internal returns (bytes memory) {... */\n    tag_408:\n        /* \"lib/openzeppelin-contracts/contracts/utils/Address.sol\":2780:2792  bytes memory */\n      0x60\n        /* \"lib/openzeppelin-contracts/contracts/utils/Address.sol\":2811:2849  functionCallWithValue(target, data, 0) */\n      tag_419\n        /* \"lib/openzeppelin-contracts/contracts/utils/Address.sol\":2833:2839  target */\n      dup4\n        /* \"lib/openzeppelin-contracts/contracts/utils/Address.sol\":2841:2845  data */\n      dup4\n        /* \"lib/openzeppelin-contracts/contracts/utils/Address.sol\":2847:2848  0 */\n      0x00\n        /* \"lib/openzeppelin-contracts/contracts/utils/Address.sol\":2811:2832  functionCallWithValue */\n      tag_420\n        /* \"lib/openzeppelin-contracts/contracts/utils/Address.sol\":2811:2849  functionCallWithValue(target, data, 0) */\n      jump\t// in\n    tag_419:\n        /* \"lib/openzeppelin-contracts/contracts/utils/Address.sol\":2804:2849  return functionCallWithValue(target, data, 0) */\n      swap1\n      pop\n        /* \"lib/openzeppelin-contracts/contracts/utils/Address.sol\":2705:2856  function functionCall(address target, bytes memory data) internal returns (bytes memory) {... */\n      swap3\n      swap2\n      pop\n      pop\n      jump\t// out\n        /* \"lib/openzeppelin-contracts/contracts/utils/Address.sol\":3180:3572  function functionCallWithValue(address target, bytes memory data, uint256 value) internal returns (bytes memory) {... */\n    tag_420:\n        /* \"lib/openzeppelin-contracts/contracts/utils/Address.sol\":3279:3291  bytes memory */\n      0x60\n        /* \"lib/openzeppelin-contracts/contracts/utils/Address.sol\":3331:3336  value */\n      dup2\n        /* \"lib/openzeppelin-contracts/contracts/utils/Address.sol\":3307:3328  address(this).balance */\n      selfbalance\n        /* \"lib/openzeppelin-contracts/contracts/utils/Address.sol\":3307:3336  address(this).balance < value */\n      lt\n        /* \"lib/openzeppelin-contracts/contracts/utils/Address.sol\":3303:3411  if (address(this).balance < value) {... */\n      iszero\n      tag_422\n      jumpi\n        /* \"lib/openzeppelin-contracts/contracts/utils/Address.sol\":3394:3398  this */\n      address\n        /* \"lib/openzeppelin-contracts/contracts/utils/Address.sol\":3359:3400  AddressInsufficientBalance(address(this)) */\n      mload(0x40)\n      0xcd78605900000000000000000000000000000000000000000000000000000000\n      dup2\n      mstore\n      0x04\n      add\n      tag_423\n      swap2\n      swap1\n      tag_74\n      jump\t// in\n    tag_423:\n      mload(0x40)\n      dup1\n      swap2\n      sub\n      swap1\n      revert\n        /* \"lib/openzeppelin-contracts/contracts/utils/Address.sol\":3303:3411  if (address(this).balance < value) {... */\n    tag_422:\n        /* \"lib/openzeppelin-contracts/contracts/utils/Address.sol\":3421:3433  bool success */\n      0x00\n        /* \"lib/openzeppelin-contracts/contracts/utils/Address.sol\":3435:3458  bytes memory returndata */\n      dup1\n        /* \"lib/openzeppelin-contracts/contracts/utils/Address.sol\":3462:3468  target */\n      dup6\n        /* \"lib/openzeppelin-contracts/contracts/utils/Address.sol\":3462:3473  target.call */\n      0xffffffffffffffffffffffffffffffffffffffff\n      and\n        /* \"lib/openzeppelin-contracts/contracts/utils/Address.sol\":3481:3486  value */\n      dup5\n        /* \"lib/openzeppelin-contracts/contracts/utils/Address.sol\":3488:3492  data */\n      dup7\n        /* \"lib/openzeppelin-contracts/contracts/utils/Address.sol\":3462:3493  target.call{value: value}(data) */\n      mload(0x40)\n      tag_424\n      swap2\n      swap1\n      tag_425\n      jump\t// in\n    tag_424:\n      0x00\n      mload(0x40)\n      dup1\n      dup4\n      sub\n      dup2\n      dup6\n      dup8\n      gas\n      call\n      swap3\n      pop\n      pop\n      pop\n      returndatasize\n      dup1\n      0x00\n      dup2\n      eq\n      tag_428\n      jumpi\n      mload(0x40)\n      swap2\n      pop\n      and(add(returndatasize, 0x3f), not(0x1f))\n      dup3\n      add\n      0x40\n      mstore\n      returndatasize\n      dup3\n      mstore\n      returndatasize\n      0x00\n      0x20\n      dup5\n      add\n      returndatacopy\n      jump(tag_427)\n    tag_428:\n      0x60\n      swap2\n      pop\n    tag_427:\n      pop\n        /* \"lib/openzeppelin-contracts/contracts/utils/Address.sol\":3420:3493  (bool success, bytes memory returndata) = target.call{value: value}(data) */\n      swap2\n      pop\n      swap2\n      pop\n        /* \"lib/openzeppelin-contracts/contracts/utils/Address.sol\":3510:3565  verifyCallResultFromTarget(target, success, returndata) */\n      tag_429\n        /* \"lib/openzeppelin-contracts/contracts/utils/Address.sol\":3537:3543  target */\n      dup7\n        /* \"lib/openzeppelin-contracts/contracts/utils/Address.sol\":3545:3552  success */\n      dup4\n        /* \"lib/openzeppelin-contracts/contracts/utils/Address.sol\":3554:3564  returndata */\n      dup4\n        /* \"lib/openzeppelin-contracts/contracts/utils/Address.sol\":3510:3536  verifyCallResultFromTarget */\n      tag_430\n        /* \"lib/openzeppelin-contracts/contracts/utils/Address.sol\":3510:3565  verifyCallResultFromTarget(target, success, returndata) */\n      jump\t// in\n    tag_429:\n        /* \"lib/openzeppelin-contracts/contracts/utils/Address.sol\":3503:3565  return verifyCallResultFromTarget(target, success, returndata) */\n      swap3\n      pop\n      pop\n      pop\n        /* \"lib/openzeppelin-contracts/contracts/utils/Address.sol\":3180:3572  function functionCallWithValue(address target, bytes memory data, uint256 value) internal returns (bytes memory) {... */\n      swap4\n      swap3\n      pop\n      pop\n      pop\n      jump\t// out\n        /* \"lib/openzeppelin-contracts/contracts/utils/Address.sol\":4625:5207  function verifyCallResultFromTarget(... */\n    tag_430:\n        /* \"lib/openzeppelin-contracts/contracts/utils/Address.sol\":4769:4781  bytes memory */\n      0x60\n        /* \"lib/openzeppelin-contracts/contracts/utils/Address.sol\":4798:4805  success */\n      dup3\n        /* \"lib/openzeppelin-contracts/contracts/utils/Address.sol\":4793:5201  if (!success) {... */\n      tag_432\n      jumpi\n        /* \"lib/openzeppelin-contracts/contracts/utils/Address.sol\":4821:4840  _revert(returndata) */\n      tag_433\n        /* \"lib/openzeppelin-contracts/contracts/utils/Address.sol\":4829:4839  returndata */\n      dup3\n        /* \"lib/openzeppelin-contracts/contracts/utils/Address.sol\":4821:4828  _revert */\n      tag_434\n        /* \"lib/openzeppelin-contracts/contracts/utils/Address.sol\":4821:4840  _revert(returndata) */\n      jump\t// in\n    tag_433:\n        /* \"lib/openzeppelin-contracts/contracts/utils/Address.sol\":4793:5201  if (!success) {... */\n      jump(tag_435)\n    tag_432:\n        /* \"lib/openzeppelin-contracts/contracts/utils/Address.sol\":5066:5067  0 */\n      0x00\n        /* \"lib/openzeppelin-contracts/contracts/utils/Address.sol\":5045:5055  returndata */\n      dup3\n        /* \"lib/openzeppelin-contracts/contracts/utils/Address.sol\":5045:5062  returndata.length */\n      mload\n        /* \"lib/openzeppelin-contracts/contracts/utils/Address.sol\":5045:5067  returndata.length == 0 */\n      eq\n        /* \"lib/openzeppelin-contracts/contracts/utils/Address.sol\":5045:5094  returndata.length == 0 && target.code.length == 0 */\n      dup1\n      iszero\n      tag_436\n      jumpi\n      pop\n        /* \"lib/openzeppelin-contracts/contracts/utils/Address.sol\":5093:5094  0 */\n      0x00\n        /* \"lib/openzeppelin-contracts/contracts/utils/Address.sol\":5071:5077  target */\n      dup5\n        /* \"lib/openzeppelin-contracts/contracts/utils/Address.sol\":5071:5089  target.code.length */\n      0xffffffffffffffffffffffffffffffffffffffff\n      and\n      extcodesize\n        /* \"lib/openzeppelin-contracts/contracts/utils/Address.sol\":5071:5094  target.code.length == 0 */\n      eq\n        /* \"lib/openzeppelin-contracts/contracts/utils/Address.sol\":5045:5094  returndata.length == 0 && target.code.length == 0 */\n    tag_436:\n        /* \"lib/openzeppelin-contracts/contracts/utils/Address.sol\":5041:5160  if (returndata.length == 0 && target.code.length == 0) {... */\n      iszero\n      tag_437\n      jumpi\n        /* \"lib/openzeppelin-contracts/contracts/utils/Address.sol\":5138:5144  target */\n      dup4\n        /* \"lib/openzeppelin-contracts/contracts/utils/Address.sol\":5121:5145  AddressEmptyCode(target) */\n      mload(0x40)\n      0x9996b31500000000000000000000000000000000000000000000000000000000\n      dup2\n      mstore\n      0x04\n      add\n      tag_438\n      swap2\n      swap1\n      tag_74\n      jump\t// in\n    tag_438:\n      mload(0x40)\n      dup1\n      swap2\n      sub\n      swap1\n      revert\n        /* \"lib/openzeppelin-contracts/contracts/utils/Address.sol\":5041:5160  if (returndata.length == 0 && target.code.length == 0) {... */\n    tag_437:\n        /* \"lib/openzeppelin-contracts/contracts/utils/Address.sol\":5180:5190  returndata */\n      dup2\n        /* \"lib/openzeppelin-contracts/contracts/utils/Address.sol\":5173:5190  return returndata */\n      swap1\n      pop\n      jump(tag_431)\n        /* \"lib/openzeppelin-contracts/contracts/utils/Address.sol\":4793:5201  if (!success) {... */\n    tag_435:\n        /* \"lib/openzeppelin-contracts/contracts/utils/Address.sol\":4625:5207  function verifyCallResultFromTarget(... */\n    tag_431:\n      swap4\n      swap3\n      pop\n      pop\n      pop\n      jump\t// out\n        /* \"lib/openzeppelin-contracts/contracts/utils/Address.sol\":5743:6259  function _revert(bytes memory returndata) private pure {... */\n    tag_434:\n        /* \"lib/openzeppelin-contracts/contracts/utils/Address.sol\":5894:5895  0 */\n      0x00\n        /* \"lib/openzeppelin-contracts/contracts/utils/Address.sol\":5874:5884  returndata */\n      dup2\n        /* \"lib/openzeppelin-contracts/contracts/utils/Address.sol\":5874:5891  returndata.length */\n      mload\n        /* \"lib/openzeppelin-contracts/contracts/utils/Address.sol\":5874:5895  returndata.length > 0 */\n      gt\n        /* \"lib/openzeppelin-contracts/contracts/utils/Address.sol\":5870:6253  if (returndata.length > 0) {... */\n      iszero\n      tag_440\n      jumpi\n        /* \"lib/openzeppelin-contracts/contracts/utils/Address.sol\":6102:6112  returndata */\n      dup1\n        /* \"lib/openzeppelin-contracts/contracts/utils/Address.sol\":6096:6113  mload(returndata) */\n      mload\n        /* \"lib/openzeppelin-contracts/contracts/utils/Address.sol\":6158:6173  returndata_size */\n      dup1\n        /* \"lib/openzeppelin-contracts/contracts/utils/Address.sol\":6145:6155  returndata */\n      dup3\n        /* \"lib/openzeppelin-contracts/contracts/utils/Address.sol\":6141:6143  32 */\n      0x20\n        /* \"lib/openzeppelin-contracts/contracts/utils/Address.sol\":6137:6156  add(32, returndata) */\n      add\n        /* \"lib/openzeppelin-contracts/contracts/utils/Address.sol\":6130:6174  revert(add(32, returndata), returndata_size) */\n      revert\n        /* \"lib/openzeppelin-contracts/contracts/utils/Address.sol\":5870:6253  if (returndata.length > 0) {... */\n    tag_440:\n        /* \"lib/openzeppelin-contracts/contracts/utils/Address.sol\":6225:6242  FailedInnerCall() */\n      mload(0x40)\n      0x1425ea4200000000000000000000000000000000000000000000000000000000\n      dup2\n      mstore\n      0x04\n      add\n      mload(0x40)\n      dup1\n      swap2\n      sub\n      swap1\n      revert\n        /* \"#utility.yul\":7:84   */\n    tag_442:\n        /* \"#utility.yul\":44:51   */\n      0x00\n        /* \"#utility.yul\":73:78   */\n      dup2\n        /* \"#utility.yul\":62:78   */\n      swap1\n      pop\n        /* \"#utility.yul\":7:84   */\n      swap2\n      swap1\n      pop\n      jump\t// out\n        /* \"#utility.yul\":90:208   */\n    tag_443:\n        /* \"#utility.yul\":177:201   */\n      tag_479\n        /* \"#utility.yul\":195:200   */\n      dup2\n        /* \"#utility.yul\":177:201   */\n      tag_442\n      jump\t// in\n    tag_479:\n        /* \"#utility.yul\":172:175   */\n      dup3\n        /* \"#utility.yul\":165:202   */\n      mstore\n        /* \"#utility.yul\":90:208   */\n      pop\n      pop\n      jump\t// out\n        /* \"#utility.yul\":214:436   */\n    tag_39:\n        /* \"#utility.yul\":307:311   */\n      0x00\n        /* \"#utility.yul\":345:347   */\n      0x20\n        /* \"#utility.yul\":334:343   */\n      dup3\n        /* \"#utility.yul\":330:348   */\n      add\n        /* \"#utility.yul\":322:348   */\n      swap1\n      pop\n        /* \"#utility.yul\":358:429   */\n      tag_481\n        /* \"#utility.yul\":426:427   */\n      0x00\n        /* \"#utility.yul\":415:424   */\n      dup4\n        /* \"#utility.yul\":411:428   */\n      add\n        /* \"#utility.yul\":402:408   */\n      dup5\n        /* \"#utility.yul\":358:429   */\n      tag_443\n      jump\t// in\n    tag_481:\n        /* \"#utility.yul\":214:436   */\n      swap3\n      swap2\n      pop\n      pop\n      jump\t// out\n        /* \"#utility.yul\":442:541   */\n    tag_444:\n        /* \"#utility.yul\":494:500   */\n      0x00\n        /* \"#utility.yul\":528:533   */\n      dup2\n        /* \"#utility.yul\":522:534   */\n      mload\n        /* \"#utility.yul\":512:534   */\n      swap1\n      pop\n        /* \"#utility.yul\":442:541   */\n      swap2\n      swap1\n      pop\n      jump\t// out\n        /* \"#utility.yul\":547:716   */\n    tag_445:\n        /* \"#utility.yul\":631:642   */\n      0x00\n        /* \"#utility.yul\":665:671   */\n      dup3\n        /* \"#utility.yul\":660:663   */\n      dup3\n        /* \"#utility.yul\":653:672   */\n      mstore\n        /* \"#utility.yul\":705:709   */\n      0x20\n        /* \"#utility.yul\":700:703   */\n      dup3\n        /* \"#utility.yul\":696:710   */\n      add\n        /* \"#utility.yul\":681:710   */\n      swap1\n      pop\n        /* \"#utility.yul\":547:716   */\n      swap3\n      swap2\n      pop\n      pop\n      jump\t// out\n        /* \"#utility.yul\":722:861   */\n    tag_446:\n        /* \"#utility.yul\":811:817   */\n      dup3\n        /* \"#utility.yul\":806:809   */\n      dup2\n        /* \"#utility.yul\":801:804   */\n      dup4\n        /* \"#utility.yul\":795:818   */\n      mcopy\n        /* \"#utility.yul\":852:853   */\n      0x00\n        /* \"#utility.yul\":843:849   */\n      dup4\n        /* \"#utility.yul\":838:841   */\n      dup4\n        /* \"#utility.yul\":834:850   */\n      add\n        /* \"#utility.yul\":827:854   */\n      mstore\n        /* \"#utility.yul\":722:861   */\n      pop\n      pop\n      pop\n      jump\t// out\n        /* \"#utility.yul\":867:969   */\n    tag_447:\n        /* \"#utility.yul\":908:914   */\n      0x00\n        /* \"#utility.yul\":959:961   */\n      0x1f\n        /* \"#utility.yul\":955:962   */\n      not\n        /* \"#utility.yul\":950:952   */\n      0x1f\n        /* \"#utility.yul\":943:948   */\n      dup4\n        /* \"#utility.yul\":939:953   */\n      add\n        /* \"#utility.yul\":935:963   */\n      and\n        /* \"#utility.yul\":925:963   */\n      swap1\n      pop\n        /* \"#utility.yul\":867:969   */\n      swap2\n      swap1\n      pop\n      jump\t// out\n        /* \"#utility.yul\":975:1352   */\n    tag_448:\n        /* \"#utility.yul\":1063:1066   */\n      0x00\n        /* \"#utility.yul\":1091:1130   */\n      tag_487\n        /* \"#utility.yul\":1124:1129   */\n      dup3\n        /* \"#utility.yul\":1091:1130   */\n      tag_444\n      jump\t// in\n    tag_487:\n        /* \"#utility.yul\":1146:1217   */\n      tag_488\n        /* \"#utility.yul\":1210:1216   */\n      dup2\n        /* \"#utility.yul\":1205:1208   */\n      dup6\n        /* \"#utility.yul\":1146:1217   */\n      tag_445\n      jump\t// in\n    tag_488:\n        /* \"#utility.yul\":1139:1217   */\n      swap4\n      pop\n        /* \"#utility.yul\":1226:1291   */\n      tag_489\n        /* \"#utility.yul\":1284:1290   */\n      dup2\n        /* \"#utility.yul\":1279:1282   */\n      dup6\n        /* \"#utility.yul\":1272:1276   */\n      0x20\n        /* \"#utility.yul\":1265:1270   */\n      dup7\n        /* \"#utility.yul\":1261:1277   */\n      add\n        /* \"#utility.yul\":1226:1291   */\n      tag_446\n      jump\t// in\n    tag_489:\n        /* \"#utility.yul\":1316:1345   */\n      tag_490\n        /* \"#utility.yul\":1338:1344   */\n      dup2\n        /* \"#utility.yul\":1316:1345   */\n      tag_447\n      jump\t// in\n    tag_490:\n        /* \"#utility.yul\":1311:1314   */\n      dup5\n        /* \"#utility.yul\":1307:1346   */\n      add\n        /* \"#utility.yul\":1300:1346   */\n      swap2\n      pop\n        /* \"#utility.yul\":1067:1352   */\n      pop\n        /* \"#utility.yul\":975:1352   */\n      swap3\n      swap2\n      pop\n      pop\n      jump\t// out\n        /* \"#utility.yul\":1358:1671   */\n    tag_43:\n        /* \"#utility.yul\":1471:1475   */\n      0x00\n        /* \"#utility.yul\":1509:1511   */\n      0x20\n        /* \"#utility.yul\":1498:1507   */\n      dup3\n        /* \"#utility.yul\":1494:1512   */\n      add\n        /* \"#utility.yul\":1486:1512   */\n      swap1\n      pop\n        /* \"#utility.yul\":1558:1567   */\n      dup2\n        /* \"#utility.yul\":1552:1556   */\n      dup2\n        /* \"#utility.yul\":1548:1568   */\n      sub\n        /* \"#utility.yul\":1544:1545   */\n      0x00\n        /* \"#utility.yul\":1533:1542   */\n      dup4\n        /* \"#utility.yul\":1529:1546   */\n      add\n        /* \"#utility.yul\":1522:1569   */\n      mstore\n        /* \"#utility.yul\":1586:1664   */\n      tag_492\n        /* \"#utility.yul\":1659:1663   */\n      dup2\n        /* \"#utility.yul\":1650:1656   */\n      dup5\n        /* \"#utility.yul\":1586:1664   */\n      tag_448\n      jump\t// in\n    tag_492:\n        /* \"#utility.yul\":1578:1664   */\n      swap1\n      pop\n        /* \"#utility.yul\":1358:1671   */\n      swap3\n      swap2\n      pop\n      pop\n      jump\t// out\n        /* \"#utility.yul\":1758:1875   */\n    tag_450:\n        /* \"#utility.yul\":1867:1868   */\n      0x00\n        /* \"#utility.yul\":1864:1865   */\n      dup1\n        /* \"#utility.yul\":1857:1869   */\n      revert\n        /* \"#utility.yul\":2004:2126   */\n    tag_452:\n        /* \"#utility.yul\":2077:2101   */\n      tag_497\n        /* \"#utility.yul\":2095:2100   */\n      dup2\n        /* \"#utility.yul\":2077:2101   */\n      tag_442\n      jump\t// in\n    tag_497:\n        /* \"#utility.yul\":2070:2075   */\n      dup2\n        /* \"#utility.yul\":2067:2102   */\n      eq\n        /* \"#utility.yul\":2057:2120   */\n      tag_498\n      jumpi\n        /* \"#utility.yul\":2116:2117   */\n      0x00\n        /* \"#utility.yul\":2113:2114   */\n      dup1\n        /* \"#utility.yul\":2106:2118   */\n      revert\n        /* \"#utility.yul\":2057:2120   */\n    tag_498:\n        /* \"#utility.yul\":2004:2126   */\n      pop\n      jump\t// out\n        /* \"#utility.yul\":2132:2271   */\n    tag_453:\n        /* \"#utility.yul\":2178:2183   */\n      0x00\n        /* \"#utility.yul\":2216:2222   */\n      dup2\n        /* \"#utility.yul\":2203:2223   */\n      calldataload\n        /* \"#utility.yul\":2194:2223   */\n      swap1\n      pop\n        /* \"#utility.yul\":2232:2265   */\n      tag_500\n        /* \"#utility.yul\":2259:2264   */\n      dup2\n        /* \"#utility.yul\":2232:2265   */\n      tag_452\n      jump\t// in\n    tag_500:\n        /* \"#utility.yul\":2132:2271   */\n      swap3\n      swap2\n      pop\n      pop\n      jump\t// out\n        /* \"#utility.yul\":2277:2606   */\n    tag_46:\n        /* \"#utility.yul\":2336:2342   */\n      0x00\n        /* \"#utility.yul\":2385:2387   */\n      0x20\n        /* \"#utility.yul\":2373:2382   */\n      dup3\n        /* \"#utility.yul\":2364:2371   */\n      dup5\n        /* \"#utility.yul\":2360:2383   */\n      sub\n        /* \"#utility.yul\":2356:2388   */\n      slt\n        /* \"#utility.yul\":2353:2472   */\n      iszero\n      tag_502\n      jumpi\n        /* \"#utility.yul\":2391:2470   */\n      tag_503\n      tag_450\n      jump\t// in\n    tag_503:\n        /* \"#utility.yul\":2353:2472   */\n    tag_502:\n        /* \"#utility.yul\":2511:2512   */\n      0x00\n        /* \"#utility.yul\":2536:2589   */\n      tag_504\n        /* \"#utility.yul\":2581:2588   */\n      dup5\n        /* \"#utility.yul\":2572:2578   */\n      dup3\n        /* \"#utility.yul\":2561:2570   */\n      dup6\n        /* \"#utility.yul\":2557:2579   */\n      add\n        /* \"#utility.yul\":2536:2589   */\n      tag_453\n      jump\t// in\n    tag_504:\n        /* \"#utility.yul\":2526:2589   */\n      swap2\n      pop\n        /* \"#utility.yul\":2482:2599   */\n      pop\n        /* \"#utility.yul\":2277:2606   */\n      swap3\n      swap2\n      pop\n      pop\n      jump\t// out\n        /* \"#utility.yul\":2612:2738   */\n    tag_454:\n        /* \"#utility.yul\":2649:2656   */\n      0x00\n        /* \"#utility.yul\":2689:2731   */\n      0xffffffffffffffffffffffffffffffffffffffff\n        /* \"#utility.yul\":2682:2687   */\n      dup3\n        /* \"#utility.yul\":2678:2732   */\n      and\n        /* \"#utility.yul\":2667:2732   */\n      swap1\n      pop\n        /* \"#utility.yul\":2612:2738   */\n      swap2\n      swap1\n      pop\n      jump\t// out\n        /* \"#utility.yul\":2744:2840   */\n    tag_455:\n        /* \"#utility.yul\":2781:2788   */\n      0x00\n        /* \"#utility.yul\":2810:2834   */\n      tag_507\n        /* \"#utility.yul\":2828:2833   */\n      dup3\n        /* \"#utility.yul\":2810:2834   */\n      tag_454\n      jump\t// in\n    tag_507:\n        /* \"#utility.yul\":2799:2834   */\n      swap1\n      pop\n        /* \"#utility.yul\":2744:2840   */\n      swap2\n      swap1\n      pop\n      jump\t// out\n        /* \"#utility.yul\":2846:2968   */\n    tag_456:\n        /* \"#utility.yul\":2919:2943   */\n      tag_509\n        /* \"#utility.yul\":2937:2942   */\n      dup2\n        /* \"#utility.yul\":2919:2943   */\n      tag_455\n      jump\t// in\n    tag_509:\n        /* \"#utility.yul\":2912:2917   */\n      dup2\n        /* \"#utility.yul\":2909:2944   */\n      eq\n        /* \"#utility.yul\":2899:2962   */\n      tag_510\n      jumpi\n        /* \"#utility.yul\":2958:2959   */\n      0x00\n        /* \"#utility.yul\":2955:2956   */\n      dup1\n        /* \"#utility.yul\":2948:2960   */\n      revert\n        /* \"#utility.yul\":2899:2962   */\n    tag_510:\n        /* \"#utility.yul\":2846:2968   */\n      pop\n      jump\t// out\n        /* \"#utility.yul\":2974:3113   */\n    tag_457:\n        /* \"#utility.yul\":3020:3025   */\n      0x00\n        /* \"#utility.yul\":3058:3064   */\n      dup2\n        /* \"#utility.yul\":3045:3065   */\n      calldataload\n        /* \"#utility.yul\":3036:3065   */\n      swap1\n      pop\n        /* \"#utility.yul\":3074:3107   */\n      tag_512\n        /* \"#utility.yul\":3101:3106   */\n      dup2\n        /* \"#utility.yul\":3074:3107   */\n      tag_456\n      jump\t// in\n    tag_512:\n        /* \"#utility.yul\":2974:3113   */\n      swap3\n      swap2\n      pop\n      pop\n      jump\t// out\n        /* \"#utility.yul\":3119:3593   */\n    tag_51:\n        /* \"#utility.yul\":3187:3193   */\n      0x00\n        /* \"#utility.yul\":3195:3201   */\n      dup1\n        /* \"#utility.yul\":3244:3246   */\n      0x40\n        /* \"#utility.yul\":3232:3241   */\n      dup4\n        /* \"#utility.yul\":3223:3230   */\n      dup6\n        /* \"#utility.yul\":3219:3242   */\n      sub\n        /* \"#utility.yul\":3215:3247   */\n      slt\n        /* \"#utility.yul\":3212:3331   */\n      iszero\n      tag_514\n      jumpi\n        /* \"#utility.yul\":3250:3329   */\n      tag_515\n      tag_450\n      jump\t// in\n    tag_515:\n        /* \"#utility.yul\":3212:3331   */\n    tag_514:\n        /* \"#utility.yul\":3370:3371   */\n      0x00\n        /* \"#utility.yul\":3395:3448   */\n      tag_516\n        /* \"#utility.yul\":3440:3447   */\n      dup6\n        /* \"#utility.yul\":3431:3437   */\n      dup3\n        /* \"#utility.yul\":3420:3429   */\n      dup7\n        /* \"#utility.yul\":3416:3438   */\n      add\n        /* \"#utility.yul\":3395:3448   */\n      tag_457\n      jump\t// in\n    tag_516:\n        /* \"#utility.yul\":3385:3448   */\n      swap3\n      pop\n        /* \"#utility.yul\":3341:3458   */\n      pop\n        /* \"#utility.yul\":3497:3499   */\n      0x20\n        /* \"#utility.yul\":3523:3576   */\n      tag_517\n        /* \"#utility.yul\":3568:3575   */\n      dup6\n        /* \"#utility.yul\":3559:3565   */\n      dup3\n        /* \"#utility.yul\":3548:3557   */\n      dup7\n        /* \"#utility.yul\":3544:3566   */\n      add\n        /* \"#utility.yul\":3523:3576   */\n      tag_453\n      jump\t// in\n    tag_517:\n        /* \"#utility.yul\":3513:3576   */\n      swap2\n      pop\n        /* \"#utility.yul\":3468:3586   */\n      pop\n        /* \"#utility.yul\":3119:3593   */\n      swap3\n      pop\n      swap3\n      swap1\n      pop\n      jump\t// out\n        /* \"#utility.yul\":3599:3689   */\n    tag_458:\n        /* \"#utility.yul\":3633:3640   */\n      0x00\n        /* \"#utility.yul\":3676:3681   */\n      dup2\n        /* \"#utility.yul\":3669:3682   */\n      iszero\n        /* \"#utility.yul\":3662:3683   */\n      iszero\n        /* \"#utility.yul\":3651:3683   */\n      swap1\n      pop\n        /* \"#utility.yul\":3599:3689   */\n      swap2\n      swap1\n      pop\n      jump\t// out\n        /* \"#utility.yul\":3695:3804   */\n    tag_459:\n        /* \"#utility.yul\":3776:3797   */\n      tag_520\n        /* \"#utility.yul\":3791:3796   */\n      dup2\n        /* \"#utility.yul\":3776:3797   */\n      tag_458\n      jump\t// in\n    tag_520:\n        /* \"#utility.yul\":3771:3774   */\n      dup3\n        /* \"#utility.yul\":3764:3798   */\n      mstore\n        /* \"#utility.yul\":3695:3804   */\n      pop\n      pop\n      jump\t// out\n        /* \"#utility.yul\":3810:4020   */\n    tag_54:\n        /* \"#utility.yul\":3897:3901   */\n      0x00\n        /* \"#utility.yul\":3935:3937   */\n      0x20\n        /* \"#utility.yul\":3924:3933   */\n      dup3\n        /* \"#utility.yul\":3920:3938   */\n      add\n        /* \"#utility.yul\":3912:3938   */\n      swap1\n      pop\n        /* \"#utility.yul\":3948:4013   */\n      tag_522\n        /* \"#utility.yul\":4010:4011   */\n      0x00\n        /* \"#utility.yul\":3999:4008   */\n      dup4\n        /* \"#utility.yul\":3995:4012   */\n      add\n        /* \"#utility.yul\":3986:3992   */\n      dup5\n        /* \"#utility.yul\":3948:4013   */\n      tag_459\n      jump\t// in\n    tag_522:\n        /* \"#utility.yul\":3810:4020   */\n      swap3\n      swap2\n      pop\n      pop\n      jump\t// out\n        /* \"#utility.yul\":4026:4645   */\n    tag_64:\n        /* \"#utility.yul\":4103:4109   */\n      0x00\n        /* \"#utility.yul\":4111:4117   */\n      dup1\n        /* \"#utility.yul\":4119:4125   */\n      0x00\n        /* \"#utility.yul\":4168:4170   */\n      0x60\n        /* \"#utility.yul\":4156:4165   */\n      dup5\n        /* \"#utility.yul\":4147:4154   */\n      dup7\n        /* \"#utility.yul\":4143:4166   */\n      sub\n        /* \"#utility.yul\":4139:4171   */\n      slt\n        /* \"#utility.yul\":4136:4255   */\n      iszero\n      tag_524\n      jumpi\n        /* \"#utility.yul\":4174:4253   */\n      tag_525\n      tag_450\n      jump\t// in\n    tag_525:\n        /* \"#utility.yul\":4136:4255   */\n    tag_524:\n        /* \"#utility.yul\":4294:4295   */\n      0x00\n        /* \"#utility.yul\":4319:4372   */\n      tag_526\n        /* \"#utility.yul\":4364:4371   */\n      dup7\n        /* \"#utility.yul\":4355:4361   */\n      dup3\n        /* \"#utility.yul\":4344:4353   */\n      dup8\n        /* \"#utility.yul\":4340:4362   */\n      add\n        /* \"#utility.yul\":4319:4372   */\n      tag_457\n      jump\t// in\n    tag_526:\n        /* \"#utility.yul\":4309:4372   */\n      swap4\n      pop\n        /* \"#utility.yul\":4265:4382   */\n      pop\n        /* \"#utility.yul\":4421:4423   */\n      0x20\n        /* \"#utility.yul\":4447:4500   */\n      tag_527\n        /* \"#utility.yul\":4492:4499   */\n      dup7\n        /* \"#utility.yul\":4483:4489   */\n      dup3\n        /* \"#utility.yul\":4472:4481   */\n      dup8\n        /* \"#utility.yul\":4468:4490   */\n      add\n        /* \"#utility.yul\":4447:4500   */\n      tag_457\n      jump\t// in\n    tag_527:\n        /* \"#utility.yul\":4437:4500   */\n      swap3\n      pop\n        /* \"#utility.yul\":4392:4510   */\n      pop\n        /* \"#utility.yul\":4549:4551   */\n      0x40\n        /* \"#utility.yul\":4575:4628   */\n      tag_528\n        /* \"#utility.yul\":4620:4627   */\n      dup7\n        /* \"#utility.yul\":4611:4617   */\n      dup3\n        /* \"#utility.yul\":4600:4609   */\n      dup8\n        /* \"#utility.yul\":4596:4618   */\n      add\n        /* \"#utility.yul\":4575:4628   */\n      tag_453\n      jump\t// in\n    tag_528:\n        /* \"#utility.yul\":4565:4628   */\n      swap2\n      pop\n        /* \"#utility.yul\":4520:4638   */\n      pop\n        /* \"#utility.yul\":4026:4645   */\n      swap3\n      pop\n      swap3\n      pop\n      swap3\n      jump\t// out\n        /* \"#utility.yul\":4651:4737   */\n    tag_460:\n        /* \"#utility.yul\":4686:4693   */\n      0x00\n        /* \"#utility.yul\":4726:4730   */\n      0xff\n        /* \"#utility.yul\":4719:4724   */\n      dup3\n        /* \"#utility.yul\":4715:4731   */\n      and\n        /* \"#utility.yul\":4704:4731   */\n      swap1\n      pop\n        /* \"#utility.yul\":4651:4737   */\n      swap2\n      swap1\n      pop\n      jump\t// out\n        /* \"#utility.yul\":4743:4855   */\n    tag_461:\n        /* \"#utility.yul\":4826:4848   */\n      tag_531\n        /* \"#utility.yul\":4842:4847   */\n      dup2\n        /* \"#utility.yul\":4826:4848   */\n      tag_460\n      jump\t// in\n    tag_531:\n        /* \"#utility.yul\":4821:4824   */\n      dup3\n        /* \"#utility.yul\":4814:4849   */\n      mstore\n        /* \"#utility.yul\":4743:4855   */\n      pop\n      pop\n      jump\t// out\n        /* \"#utility.yul\":4861:5075   */\n    tag_70:\n        /* \"#utility.yul\":4950:4954   */\n      0x00\n        /* \"#utility.yul\":4988:4990   */\n      0x20\n        /* \"#utility.yul\":4977:4986   */\n      dup3\n        /* \"#utility.yul\":4973:4991   */\n      add\n        /* \"#utility.yul\":4965:4991   */\n      swap1\n      pop\n        /* \"#utility.yul\":5001:5068   */\n      tag_533\n        /* \"#utility.yul\":5065:5066   */\n      0x00\n        /* \"#utility.yul\":5054:5063   */\n      dup4\n        /* \"#utility.yul\":5050:5067   */\n      add\n        /* \"#utility.yul\":5041:5047   */\n      dup5\n        /* \"#utility.yul\":5001:5068   */\n      tag_461\n      jump\t// in\n    tag_533:\n        /* \"#utility.yul\":4861:5075   */\n      swap3\n      swap2\n      pop\n      pop\n      jump\t// out\n        /* \"#utility.yul\":5081:5199   */\n    tag_462:\n        /* \"#utility.yul\":5168:5192   */\n      tag_535\n        /* \"#utility.yul\":5186:5191   */\n      dup2\n        /* \"#utility.yul\":5168:5192   */\n      tag_455\n      jump\t// in\n    tag_535:\n        /* \"#utility.yul\":5163:5166   */\n      dup3\n        /* \"#utility.yul\":5156:5193   */\n      mstore\n        /* \"#utility.yul\":5081:5199   */\n      pop\n      pop\n      jump\t// out\n        /* \"#utility.yul\":5205:5427   */\n    tag_74:\n        /* \"#utility.yul\":5298:5302   */\n      0x00\n        /* \"#utility.yul\":5336:5338   */\n      0x20\n        /* \"#utility.yul\":5325:5334   */\n      dup3\n        /* \"#utility.yul\":5321:5339   */\n      add\n        /* \"#utility.yul\":5313:5339   */\n      swap1\n      pop\n        /* \"#utility.yul\":5349:5420   */\n      tag_537\n        /* \"#utility.yul\":5417:5418   */\n      0x00\n        /* \"#utility.yul\":5406:5415   */\n      dup4\n        /* \"#utility.yul\":5402:5419   */\n      add\n        /* \"#utility.yul\":5393:5399   */\n      dup5\n        /* \"#utility.yul\":5349:5420   */\n      tag_462\n      jump\t// in\n    tag_537:\n        /* \"#utility.yul\":5205:5427   */\n      swap3\n      swap2\n      pop\n      pop\n      jump\t// out\n        /* \"#utility.yul\":5433:5762   */\n    tag_77:\n        /* \"#utility.yul\":5492:5498   */\n      0x00\n        /* \"#utility.yul\":5541:5543   */\n      0x20\n        /* \"#utility.yul\":5529:5538   */\n      dup3\n        /* \"#utility.yul\":5520:5527   */\n      dup5\n        /* \"#utility.yul\":5516:5539   */\n      sub\n        /* \"#utility.yul\":5512:5544   */\n      slt\n        /* \"#utility.yul\":5509:5628   */\n      iszero\n      tag_539\n      jumpi\n        /* \"#utility.yul\":5547:5626   */\n      tag_540\n      tag_450\n      jump\t// in\n    tag_540:\n        /* \"#utility.yul\":5509:5628   */\n    tag_539:\n        /* \"#utility.yul\":5667:5668   */\n      0x00\n        /* \"#utility.yul\":5692:5745   */\n      tag_541\n        /* \"#utility.yul\":5737:5744   */\n      dup5\n        /* \"#utility.yul\":5728:5734   */\n      dup3\n        /* \"#utility.yul\":5717:5726   */\n      dup6\n        /* \"#utility.yul\":5713:5735   */\n      add\n        /* \"#utility.yul\":5692:5745   */\n      tag_457\n      jump\t// in\n    tag_541:\n        /* \"#utility.yul\":5682:5745   */\n      swap2\n      pop\n        /* \"#utility.yul\":5638:5755   */\n      pop\n        /* \"#utility.yul\":5433:5762   */\n      swap3\n      swap2\n      pop\n      pop\n      jump\t// out\n        /* \"#utility.yul\":5768:6242   */\n    tag_86:\n        /* \"#utility.yul\":5836:5842   */\n      0x00\n        /* \"#utility.yul\":5844:5850   */\n      dup1\n        /* \"#utility.yul\":5893:5895   */\n      0x40\n        /* \"#utility.yul\":5881:5890   */\n      dup4\n        /* \"#utility.yul\":5872:5879   */\n      dup6\n        /* \"#utility.yul\":5868:5891   */\n      sub\n        /* \"#utility.yul\":5864:5896   */\n      slt\n        /* \"#utility.yul\":5861:5980   */\n      iszero\n      tag_543\n      jumpi\n        /* \"#utility.yul\":5899:5978   */\n      tag_544\n      tag_450\n      jump\t// in\n    tag_544:\n        /* \"#utility.yul\":5861:5980   */\n    tag_543:\n        /* \"#utility.yul\":6019:6020   */\n      0x00\n        /* \"#utility.yul\":6044:6097   */\n      tag_545\n        /* \"#utility.yul\":6089:6096   */\n      dup6\n        /* \"#utility.yul\":6080:6086   */\n      dup3\n        /* \"#utility.yul\":6069:6078   */\n      dup7\n        /* \"#utility.yul\":6065:6087   */\n      add\n        /* \"#utility.yul\":6044:6097   */\n      tag_453\n      jump\t// in\n    tag_545:\n        /* \"#utility.yul\":6034:6097   */\n      swap3\n      pop\n        /* \"#utility.yul\":5990:6107   */\n      pop\n        /* \"#utility.yul\":6146:6148   */\n      0x20\n        /* \"#utility.yul\":6172:6225   */\n      tag_546\n        /* \"#utility.yul\":6217:6224   */\n      dup6\n        /* \"#utility.yul\":6208:6214   */\n      dup3\n        /* \"#utility.yul\":6197:6206   */\n      dup7\n        /* \"#utility.yul\":6193:6215   */\n      add\n        /* \"#utility.yul\":6172:6225   */\n      tag_457\n      jump\t// in\n    tag_546:\n        /* \"#utility.yul\":6162:6225   */\n      swap2\n      pop\n        /* \"#utility.yul\":6117:6235   */\n      pop\n        /* \"#utility.yul\":5768:6242   */\n      swap3\n      pop\n      swap3\n      swap1\n      pop\n      jump\t// out\n        /* \"#utility.yul\":6248:6352   */\n    tag_463:\n        /* \"#utility.yul\":6293:6300   */\n      0x00\n        /* \"#utility.yul\":6322:6346   */\n      tag_548\n        /* \"#utility.yul\":6340:6345   */\n      dup3\n        /* \"#utility.yul\":6322:6346   */\n      tag_454\n      jump\t// in\n    tag_548:\n        /* \"#utility.yul\":6311:6346   */\n      swap1\n      pop\n        /* \"#utility.yul\":6248:6352   */\n      swap2\n      swap1\n      pop\n      jump\t// out\n        /* \"#utility.yul\":6358:6500   */\n    tag_464:\n        /* \"#utility.yul\":6461:6493   */\n      tag_550\n        /* \"#utility.yul\":6487:6492   */\n      dup2\n        /* \"#utility.yul\":6461:6493   */\n      tag_463\n      jump\t// in\n    tag_550:\n        /* \"#utility.yul\":6456:6459   */\n      dup3\n        /* \"#utility.yul\":6449:6494   */\n      mstore\n        /* \"#utility.yul\":6358:6500   */\n      pop\n      pop\n      jump\t// out\n        /* \"#utility.yul\":6506:6760   */\n    tag_96:\n        /* \"#utility.yul\":6615:6619   */\n      0x00\n        /* \"#utility.yul\":6653:6655   */\n      0x20\n        /* \"#utility.yul\":6642:6651   */\n      dup3\n        /* \"#utility.yul\":6638:6656   */\n      add\n        /* \"#utility.yul\":6630:6656   */\n      swap1\n      pop\n        /* \"#utility.yul\":6666:6753   */\n      tag_552\n        /* \"#utility.yul\":6750:6751   */\n      0x00\n        /* \"#utility.yul\":6739:6748   */\n      dup4\n        /* \"#utility.yul\":6735:6752   */\n      add\n        /* \"#utility.yul\":6726:6732   */\n      dup5\n        /* \"#utility.yul\":6666:6753   */\n      tag_464\n      jump\t// in\n    tag_552:\n        /* \"#utility.yul\":6506:6760   */\n      swap3\n      swap2\n      pop\n      pop\n      jump\t// out\n        /* \"#utility.yul\":6766:7385   */\n    tag_114:\n        /* \"#utility.yul\":6843:6849   */\n      0x00\n        /* \"#utility.yul\":6851:6857   */\n      dup1\n        /* \"#utility.yul\":6859:6865   */\n      0x00\n        /* \"#utility.yul\":6908:6910   */\n      0x60\n        /* \"#utility.yul\":6896:6905   */\n      dup5\n        /* \"#utility.yul\":6887:6894   */\n      dup7\n        /* \"#utility.yul\":6883:6906   */\n      sub\n        /* \"#utility.yul\":6879:6911   */\n      slt\n        /* \"#utility.yul\":6876:6995   */\n      iszero\n      tag_554\n      jumpi\n        /* \"#utility.yul\":6914:6993   */\n      tag_555\n      tag_450\n      jump\t// in\n    tag_555:\n        /* \"#utility.yul\":6876:6995   */\n    tag_554:\n        /* \"#utility.yul\":7034:7035   */\n      0x00\n        /* \"#utility.yul\":7059:7112   */\n      tag_556\n        /* \"#utility.yul\":7104:7111   */\n      dup7\n        /* \"#utility.yul\":7095:7101   */\n      dup3\n        /* \"#utility.yul\":7084:7093   */\n      dup8\n        /* \"#utility.yul\":7080:7102   */\n      add\n        /* \"#utility.yul\":7059:7112   */\n      tag_453\n      jump\t// in\n    tag_556:\n        /* \"#utility.yul\":7049:7112   */\n      swap4\n      pop\n        /* \"#utility.yul\":7005:7122   */\n      pop\n        /* \"#utility.yul\":7161:7163   */\n      0x20\n        /* \"#utility.yul\":7187:7240   */\n      tag_557\n        /* \"#utility.yul\":7232:7239   */\n      dup7\n        /* \"#utility.yul\":7223:7229   */\n      dup3\n        /* \"#utility.yul\":7212:7221   */\n      dup8\n        /* \"#utility.yul\":7208:7230   */\n      add\n        /* \"#utility.yul\":7187:7240   */\n      tag_457\n      jump\t// in\n    tag_557:\n        /* \"#utility.yul\":7177:7240   */\n      swap3\n      pop\n        /* \"#utility.yul\":7132:7250   */\n      pop\n        /* \"#utility.yul\":7289:7291   */\n      0x40\n        /* \"#utility.yul\":7315:7368   */\n      tag_558\n        /* \"#utility.yul\":7360:7367   */\n      dup7\n        /* \"#utility.yul\":7351:7357   */\n      dup3\n        /* \"#utility.yul\":7340:7349   */\n      dup8\n        /* \"#utility.yul\":7336:7358   */\n      add\n        /* \"#utility.yul\":7315:7368   */\n      tag_457\n      jump\t// in\n    tag_558:\n        /* \"#utility.yul\":7305:7368   */\n      swap2\n      pop\n        /* \"#utility.yul\":7260:7378   */\n      pop\n        /* \"#utility.yul\":6766:7385   */\n      swap3\n      pop\n      swap3\n      pop\n      swap3\n      jump\t// out\n        /* \"#utility.yul\":7391:7865   */\n    tag_142:\n        /* \"#utility.yul\":7459:7465   */\n      0x00\n        /* \"#utility.yul\":7467:7473   */\n      dup1\n        /* \"#utility.yul\":7516:7518   */\n      0x40\n        /* \"#utility.yul\":7504:7513   */\n      dup4\n        /* \"#utility.yul\":7495:7502   */\n      dup6\n        /* \"#utility.yul\":7491:7514   */\n      sub\n        /* \"#utility.yul\":7487:7519   */\n      slt\n        /* \"#utility.yul\":7484:7603   */\n      iszero\n      tag_560\n      jumpi\n        /* \"#utility.yul\":7522:7601   */\n      tag_561\n      tag_450\n      jump\t// in\n    tag_561:\n        /* \"#utility.yul\":7484:7603   */\n    tag_560:\n        /* \"#utility.yul\":7642:7643   */\n      0x00\n        /* \"#utility.yul\":7667:7720   */\n      tag_562\n        /* \"#utility.yul\":7712:7719   */\n      dup6\n        /* \"#utility.yul\":7703:7709   */\n      dup3\n        /* \"#utility.yul\":7692:7701   */\n      dup7\n        /* \"#utility.yul\":7688:7710   */\n      add\n        /* \"#utility.yul\":7667:7720   */\n      tag_457\n      jump\t// in\n    tag_562:\n        /* \"#utility.yul\":7657:7720   */\n      swap3\n      pop\n        /* \"#utility.yul\":7613:7730   */\n      pop\n        /* \"#utility.yul\":7769:7771   */\n      0x20\n        /* \"#utility.yul\":7795:7848   */\n      tag_563\n        /* \"#utility.yul\":7840:7847   */\n      dup6\n        /* \"#utility.yul\":7831:7837   */\n      dup3\n        /* \"#utility.yul\":7820:7829   */\n      dup7\n        /* \"#utility.yul\":7816:7838   */\n      add\n        /* \"#utility.yul\":7795:7848   */\n      tag_457\n      jump\t// in\n    tag_563:\n        /* \"#utility.yul\":7785:7848   */\n      swap2\n      pop\n        /* \"#utility.yul\":7740:7858   */\n      pop\n        /* \"#utility.yul\":7391:7865   */\n      swap3\n      pop\n      swap3\n      swap1\n      pop\n      jump\t// out\n        /* \"#utility.yul\":7871:8014   */\n    tag_465:\n        /* \"#utility.yul\":7928:7933   */\n      0x00\n        /* \"#utility.yul\":7959:7965   */\n      dup2\n        /* \"#utility.yul\":7953:7966   */\n      mload\n        /* \"#utility.yul\":7944:7966   */\n      swap1\n      pop\n        /* \"#utility.yul\":7975:8008   */\n      tag_565\n        /* \"#utility.yul\":8002:8007   */\n      dup2\n        /* \"#utility.yul\":7975:8008   */\n      tag_452\n      jump\t// in\n    tag_565:\n        /* \"#utility.yul\":7871:8014   */\n      swap3\n      swap2\n      pop\n      pop\n      jump\t// out\n        /* \"#utility.yul\":8020:8371   */\n    tag_154:\n        /* \"#utility.yul\":8090:8096   */\n      0x00\n        /* \"#utility.yul\":8139:8141   */\n      0x20\n        /* \"#utility.yul\":8127:8136   */\n      dup3\n        /* \"#utility.yul\":8118:8125   */\n      dup5\n        /* \"#utility.yul\":8114:8137   */\n      sub\n        /* \"#utility.yul\":8110:8142   */\n      slt\n        /* \"#utility.yul\":8107:8226   */\n      iszero\n      tag_567\n      jumpi\n        /* \"#utility.yul\":8145:8224   */\n      tag_568\n      tag_450\n      jump\t// in\n    tag_568:\n        /* \"#utility.yul\":8107:8226   */\n    tag_567:\n        /* \"#utility.yul\":8265:8266   */\n      0x00\n        /* \"#utility.yul\":8290:8354   */\n      tag_569\n        /* \"#utility.yul\":8346:8353   */\n      dup5\n        /* \"#utility.yul\":8337:8343   */\n      dup3\n        /* \"#utility.yul\":8326:8335   */\n      dup6\n        /* \"#utility.yul\":8322:8344   */\n      add\n        /* \"#utility.yul\":8290:8354   */\n      tag_465\n      jump\t// in\n    tag_569:\n        /* \"#utility.yul\":8280:8354   */\n      swap2\n      pop\n        /* \"#utility.yul\":8236:8364   */\n      pop\n        /* \"#utility.yul\":8020:8371   */\n      swap3\n      swap2\n      pop\n      pop\n      jump\t// out\n        /* \"#utility.yul\":8377:8557   */\n    tag_466:\n        /* \"#utility.yul\":8425:8502   */\n      0x4e487b7100000000000000000000000000000000000000000000000000000000\n        /* \"#utility.yul\":8422:8423   */\n      0x00\n        /* \"#utility.yul\":8415:8503   */\n      mstore\n        /* \"#utility.yul\":8522:8526   */\n      0x22\n        /* \"#utility.yul\":8519:8520   */\n      0x04\n        /* \"#utility.yul\":8512:8527   */\n      mstore\n        /* \"#utility.yul\":8546:8550   */\n      0x24\n        /* \"#utility.yul\":8543:8544   */\n      0x00\n        /* \"#utility.yul\":8536:8551   */\n      revert\n        /* \"#utility.yul\":8563:8883   */\n    tag_157:\n        /* \"#utility.yul\":8607:8613   */\n      0x00\n        /* \"#utility.yul\":8644:8645   */\n      0x02\n        /* \"#utility.yul\":8638:8642   */\n      dup3\n        /* \"#utility.yul\":8634:8646   */\n      div\n        /* \"#utility.yul\":8624:8646   */\n      swap1\n      pop\n        /* \"#utility.yul\":8691:8692   */\n      0x01\n        /* \"#utility.yul\":8685:8689   */\n      dup3\n        /* \"#utility.yul\":8681:8693   */\n      and\n        /* \"#utility.yul\":8712:8730   */\n      dup1\n        /* \"#utility.yul\":8702:8783   */\n      tag_572\n      jumpi\n        /* \"#utility.yul\":8768:8772   */\n      0x7f\n        /* \"#utility.yul\":8760:8766   */\n      dup3\n        /* \"#utility.yul\":8756:8773   */\n      and\n        /* \"#utility.yul\":8746:8773   */\n      swap2\n      pop\n        /* \"#utility.yul\":8702:8783   */\n    tag_572:\n        /* \"#utility.yul\":8830:8832   */\n      0x20\n        /* \"#utility.yul\":8822:8828   */\n      dup3\n        /* \"#utility.yul\":8819:8833   */\n      lt\n        /* \"#utility.yul\":8799:8817   */\n      dup2\n        /* \"#utility.yul\":8796:8834   */\n      sub\n        /* \"#utility.yul\":8793:8877   */\n      tag_573\n      jumpi\n        /* \"#utility.yul\":8849:8867   */\n      tag_574\n      tag_466\n      jump\t// in\n    tag_574:\n        /* \"#utility.yul\":8793:8877   */\n    tag_573:\n        /* \"#utility.yul\":8614:8883   */\n      pop\n        /* \"#utility.yul\":8563:8883   */\n      swap2\n      swap1\n      pop\n      jump\t// out\n        /* \"#utility.yul\":8889:9069   */\n    tag_467:\n        /* \"#utility.yul\":8937:9014   */\n      0x4e487b7100000000000000000000000000000000000000000000000000000000\n        /* \"#utility.yul\":8934:8935   */\n      0x00\n        /* \"#utility.yul\":8927:9015   */\n      mstore\n        /* \"#utility.yul\":9034:9038   */\n      0x11\n        /* \"#utility.yul\":9031:9032   */\n      0x04\n        /* \"#utility.yul\":9024:9039   */\n      mstore\n        /* \"#utility.yul\":9058:9062   */\n      0x24\n        /* \"#utility.yul\":9055:9056   */\n      0x00\n        /* \"#utility.yul\":9048:9063   */\n      revert\n        /* \"#utility.yul\":9075:9266   */\n    tag_177:\n        /* \"#utility.yul\":9115:9118   */\n      0x00\n        /* \"#utility.yul\":9134:9154   */\n      tag_577\n        /* \"#utility.yul\":9152:9153   */\n      dup3\n        /* \"#utility.yul\":9134:9154   */\n      tag_442\n      jump\t// in\n    tag_577:\n        /* \"#utility.yul\":9129:9154   */\n      swap2\n      pop\n        /* \"#utility.yul\":9168:9188   */\n      tag_578\n        /* \"#utility.yul\":9186:9187   */\n      dup4\n        /* \"#utility.yul\":9168:9188   */\n      tag_442\n      jump\t// in\n    tag_578:\n        /* \"#utility.yul\":9163:9188   */\n      swap3\n      pop\n        /* \"#utility.yul\":9211:9212   */\n      dup3\n        /* \"#utility.yul\":9208:9209   */\n      dup3\n        /* \"#utility.yul\":9204:9213   */\n      add\n        /* \"#utility.yul\":9197:9213   */\n      swap1\n      pop\n        /* \"#utility.yul\":9232:9235   */\n      dup1\n        /* \"#utility.yul\":9229:9230   */\n      dup3\n        /* \"#utility.yul\":9226:9236   */\n      gt\n        /* \"#utility.yul\":9223:9259   */\n      iszero\n      tag_579\n      jumpi\n        /* \"#utility.yul\":9239:9257   */\n      tag_580\n      tag_467\n      jump\t// in\n    tag_580:\n        /* \"#utility.yul\":9223:9259   */\n    tag_579:\n        /* \"#utility.yul\":9075:9266   */\n      swap3\n      swap2\n      pop\n      pop\n      jump\t// out\n        /* \"#utility.yul\":9272:9460   */\n    tag_190:\n        /* \"#utility.yul\":9310:9313   */\n      0x00\n        /* \"#utility.yul\":9329:9347   */\n      tag_582\n        /* \"#utility.yul\":9345:9346   */\n      dup3\n        /* \"#utility.yul\":9329:9347   */\n      tag_460\n      jump\t// in\n    tag_582:\n        /* \"#utility.yul\":9324:9347   */\n      swap2\n      pop\n        /* \"#utility.yul\":9361:9379   */\n      tag_583\n        /* \"#utility.yul\":9377:9378   */\n      dup4\n        /* \"#utility.yul\":9361:9379   */\n      tag_460\n      jump\t// in\n    tag_583:\n        /* \"#utility.yul\":9356:9379   */\n      swap3\n      pop\n        /* \"#utility.yul\":9402:9403   */\n      dup3\n        /* \"#utility.yul\":9399:9400   */\n      dup3\n        /* \"#utility.yul\":9395:9404   */\n      add\n        /* \"#utility.yul\":9388:9404   */\n      swap1\n      pop\n        /* \"#utility.yul\":9425:9429   */\n      0xff\n        /* \"#utility.yul\":9420:9423   */\n      dup2\n        /* \"#utility.yul\":9417:9430   */\n      gt\n        /* \"#utility.yul\":9414:9453   */\n      iszero\n      tag_584\n      jumpi\n        /* \"#utility.yul\":9433:9451   */\n      tag_585\n      tag_467\n      jump\t// in\n    tag_585:\n        /* \"#utility.yul\":9414:9453   */\n    tag_584:\n        /* \"#utility.yul\":9272:9460   */\n      swap3\n      swap2\n      pop\n      pop\n      jump\t// out\n        /* \"#utility.yul\":9466:9660   */\n    tag_200:\n        /* \"#utility.yul\":9506:9510   */\n      0x00\n        /* \"#utility.yul\":9526:9546   */\n      tag_587\n        /* \"#utility.yul\":9544:9545   */\n      dup3\n        /* \"#utility.yul\":9526:9546   */\n      tag_442\n      jump\t// in\n    tag_587:\n        /* \"#utility.yul\":9521:9546   */\n      swap2\n      pop\n        /* \"#utility.yul\":9560:9580   */\n      tag_588\n        /* \"#utility.yul\":9578:9579   */\n      dup4\n        /* \"#utility.yul\":9560:9580   */\n      tag_442\n      jump\t// in\n    tag_588:\n        /* \"#utility.yul\":9555:9580   */\n      swap3\n      pop\n        /* \"#utility.yul\":9604:9605   */\n      dup3\n        /* \"#utility.yul\":9601:9602   */\n      dup3\n        /* \"#utility.yul\":9597:9606   */\n      sub\n        /* \"#utility.yul\":9589:9606   */\n      swap1\n      pop\n        /* \"#utility.yul\":9628:9629   */\n      dup2\n        /* \"#utility.yul\":9622:9626   */\n      dup2\n        /* \"#utility.yul\":9619:9630   */\n      gt\n        /* \"#utility.yul\":9616:9653   */\n      iszero\n      tag_589\n      jumpi\n        /* \"#utility.yul\":9633:9651   */\n      tag_590\n      tag_467\n      jump\t// in\n    tag_590:\n        /* \"#utility.yul\":9616:9653   */\n    tag_589:\n        /* \"#utility.yul\":9466:9660   */\n      swap3\n      swap2\n      pop\n      pop\n      jump\t// out\n        /* \"#utility.yul\":9666:10108   */\n    tag_205:\n        /* \"#utility.yul\":9815:9819   */\n      0x00\n        /* \"#utility.yul\":9853:9855   */\n      0x60\n        /* \"#utility.yul\":9842:9851   */\n      dup3\n        /* \"#utility.yul\":9838:9856   */\n      add\n        /* \"#utility.yul\":9830:9856   */\n      swap1\n      pop\n        /* \"#utility.yul\":9866:9937   */\n      tag_592\n        /* \"#utility.yul\":9934:9935   */\n      0x00\n        /* \"#utility.yul\":9923:9932   */\n      dup4\n        /* \"#utility.yul\":9919:9936   */\n      add\n        /* \"#utility.yul\":9910:9916   */\n      dup7\n        /* \"#utility.yul\":9866:9937   */\n      tag_462\n      jump\t// in\n    tag_592:\n        /* \"#utility.yul\":9947:10019   */\n      tag_593\n        /* \"#utility.yul\":10015:10017   */\n      0x20\n        /* \"#utility.yul\":10004:10013   */\n      dup4\n        /* \"#utility.yul\":10000:10018   */\n      add\n        /* \"#utility.yul\":9991:9997   */\n      dup6\n        /* \"#utility.yul\":9947:10019   */\n      tag_443\n      jump\t// in\n    tag_593:\n        /* \"#utility.yul\":10029:10101   */\n      tag_594\n        /* \"#utility.yul\":10097:10099   */\n      0x40\n        /* \"#utility.yul\":10086:10095   */\n      dup4\n        /* \"#utility.yul\":10082:10100   */\n      add\n        /* \"#utility.yul\":10073:10079   */\n      dup5\n        /* \"#utility.yul\":10029:10101   */\n      tag_443\n      jump\t// in\n    tag_594:\n        /* \"#utility.yul\":9666:10108   */\n      swap5\n      swap4\n      pop\n      pop\n      pop\n      pop\n      jump\t// out\n        /* \"#utility.yul\":10114:10216   */\n    tag_468:\n        /* \"#utility.yul\":10156:10164   */\n      0x00\n        /* \"#utility.yul\":10203:10208   */\n      dup2\n        /* \"#utility.yul\":10200:10201   */\n      0x01\n        /* \"#utility.yul\":10196:10209   */\n      shr\n        /* \"#utility.yul\":10175:10209   */\n      swap1\n      pop\n        /* \"#utility.yul\":10114:10216   */\n      swap2\n      swap1\n      pop\n      jump\t// out\n        /* \"#utility.yul\":10222:11070   */\n    tag_469:\n        /* \"#utility.yul\":10283:10288   */\n      0x00\n        /* \"#utility.yul\":10290:10294   */\n      dup1\n        /* \"#utility.yul\":10314:10320   */\n      dup3\n        /* \"#utility.yul\":10305:10320   */\n      swap2\n      pop\n        /* \"#utility.yul\":10338:10343   */\n      dup4\n        /* \"#utility.yul\":10329:10343   */\n      swap1\n      pop\n        /* \"#utility.yul\":10352:11064   */\n    tag_597:\n        /* \"#utility.yul\":10373:10374   */\n      0x01\n        /* \"#utility.yul\":10363:10371   */\n      dup6\n        /* \"#utility.yul\":10360:10375   */\n      gt\n        /* \"#utility.yul\":10352:11064   */\n      iszero\n      tag_599\n      jumpi\n        /* \"#utility.yul\":10468:10472   */\n      dup1\n        /* \"#utility.yul\":10463:10466   */\n      dup7\n        /* \"#utility.yul\":10459:10473   */\n      div\n        /* \"#utility.yul\":10453:10457   */\n      dup2\n        /* \"#utility.yul\":10450:10474   */\n      gt\n        /* \"#utility.yul\":10447:10497   */\n      iszero\n      tag_600\n      jumpi\n        /* \"#utility.yul\":10477:10495   */\n      tag_601\n      tag_467\n      jump\t// in\n    tag_601:\n        /* \"#utility.yul\":10447:10497   */\n    tag_600:\n        /* \"#utility.yul\":10527:10528   */\n      0x01\n        /* \"#utility.yul\":10517:10525   */\n      dup6\n        /* \"#utility.yul\":10513:10529   */\n      and\n        /* \"#utility.yul\":10510:10961   */\n      iszero\n      tag_602\n      jumpi\n        /* \"#utility.yul\":10942:10946   */\n      dup1\n        /* \"#utility.yul\":10935:10940   */\n      dup3\n        /* \"#utility.yul\":10931:10947   */\n      mul\n        /* \"#utility.yul\":10922:10947   */\n      swap2\n      pop\n        /* \"#utility.yul\":10510:10961   */\n    tag_602:\n        /* \"#utility.yul\":10992:10996   */\n      dup1\n        /* \"#utility.yul\":10986:10990   */\n      dup2\n        /* \"#utility.yul\":10982:10997   */\n      mul\n        /* \"#utility.yul\":10974:10997   */\n      swap1\n      pop\n        /* \"#utility.yul\":11022:11054   */\n      tag_603\n        /* \"#utility.yul\":11045:11053   */\n      dup6\n        /* \"#utility.yul\":11022:11054   */\n      tag_468\n      jump\t// in\n    tag_603:\n        /* \"#utility.yul\":11010:11054   */\n      swap5\n      pop\n        /* \"#utility.yul\":10352:11064   */\n      jump(tag_597)\n    tag_599:\n        /* \"#utility.yul\":10222:11070   */\n      swap5\n      pop\n      swap5\n      swap3\n      pop\n      pop\n      pop\n      jump\t// out\n        /* \"#utility.yul\":11076:12149   */\n    tag_470:\n        /* \"#utility.yul\":11130:11135   */\n      0x00\n        /* \"#utility.yul\":11321:11329   */\n      dup3\n        /* \"#utility.yul\":11311:11351   */\n      tag_605\n      jumpi\n        /* \"#utility.yul\":11342:11343   */\n      0x01\n        /* \"#utility.yul\":11333:11343   */\n      swap1\n      pop\n        /* \"#utility.yul\":11344:11349   */\n      jump(tag_604)\n        /* \"#utility.yul\":11311:11351   */\n    tag_605:\n        /* \"#utility.yul\":11370:11374   */\n      dup2\n        /* \"#utility.yul\":11360:11396   */\n      tag_606\n      jumpi\n        /* \"#utility.yul\":11387:11388   */\n      0x00\n        /* \"#utility.yul\":11378:11388   */\n      swap1\n      pop\n        /* \"#utility.yul\":11389:11394   */\n      jump(tag_604)\n        /* \"#utility.yul\":11360:11396   */\n    tag_606:\n        /* \"#utility.yul\":11456:11460   */\n      dup2\n        /* \"#utility.yul\":11504:11505   */\n      0x01\n        /* \"#utility.yul\":11499:11526   */\n      dup2\n      eq\n      tag_608\n      jumpi\n        /* \"#utility.yul\":11540:11541   */\n      0x02\n        /* \"#utility.yul\":11535:11726   */\n      dup2\n      eq\n      tag_609\n      jumpi\n        /* \"#utility.yul\":11449:11726   */\n      jump(tag_607)\n        /* \"#utility.yul\":11499:11526   */\n    tag_608:\n        /* \"#utility.yul\":11517:11518   */\n      0x01\n        /* \"#utility.yul\":11508:11518   */\n      swap2\n      pop\n        /* \"#utility.yul\":11519:11524   */\n      pop\n      jump(tag_604)\n        /* \"#utility.yul\":11535:11726   */\n    tag_609:\n        /* \"#utility.yul\":11580:11583   */\n      0xff\n        /* \"#utility.yul\":11570:11578   */\n      dup5\n        /* \"#utility.yul\":11567:11584   */\n      gt\n        /* \"#utility.yul\":11564:11607   */\n      iszero\n      tag_610\n      jumpi\n        /* \"#utility.yul\":11587:11605   */\n      tag_611\n      tag_467\n      jump\t// in\n    tag_611:\n        /* \"#utility.yul\":11564:11607   */\n    tag_610:\n        /* \"#utility.yul\":11636:11644   */\n      dup4\n        /* \"#utility.yul\":11633:11634   */\n      0x02\n        /* \"#utility.yul\":11629:11645   */\n      exp\n        /* \"#utility.yul\":11620:11645   */\n      swap2\n      pop\n        /* \"#utility.yul\":11671:11674   */\n      dup5\n        /* \"#utility.yul\":11664:11669   */\n      dup3\n        /* \"#utility.yul\":11661:11675   */\n      gt\n        /* \"#utility.yul\":11658:11698   */\n      iszero\n      tag_612\n      jumpi\n        /* \"#utility.yul\":11678:11696   */\n      tag_613\n      tag_467\n      jump\t// in\n    tag_613:\n        /* \"#utility.yul\":11658:11698   */\n    tag_612:\n        /* \"#utility.yul\":11711:11716   */\n      pop\n      jump(tag_604)\n        /* \"#utility.yul\":11449:11726   */\n    tag_607:\n      pop\n        /* \"#utility.yul\":11835:11837   */\n      0x20\n        /* \"#utility.yul\":11825:11833   */\n      dup4\n        /* \"#utility.yul\":11822:11838   */\n      lt\n        /* \"#utility.yul\":11816:11819   */\n      0x0133\n        /* \"#utility.yul\":11810:11814   */\n      dup4\n        /* \"#utility.yul\":11807:11820   */\n      lt\n        /* \"#utility.yul\":11803:11839   */\n      and\n        /* \"#utility.yul\":11785:11787   */\n      0x4e\n        /* \"#utility.yul\":11775:11783   */\n      dup5\n        /* \"#utility.yul\":11772:11788   */\n      lt\n        /* \"#utility.yul\":11767:11769   */\n      0x0b\n        /* \"#utility.yul\":11761:11765   */\n      dup5\n        /* \"#utility.yul\":11758:11770   */\n      lt\n        /* \"#utility.yul\":11754:11789   */\n      and\n        /* \"#utility.yul\":11738:11849   */\n      or\n        /* \"#utility.yul\":11735:11981   */\n      iszero\n      tag_614\n      jumpi\n        /* \"#utility.yul\":11891:11899   */\n      dup3\n        /* \"#utility.yul\":11885:11889   */\n      dup3\n        /* \"#utility.yul\":11881:11900   */\n      exp\n        /* \"#utility.yul\":11872:11900   */\n      swap1\n      pop\n        /* \"#utility.yul\":11926:11929   */\n      dup4\n        /* \"#utility.yul\":11919:11924   */\n      dup2\n        /* \"#utility.yul\":11916:11930   */\n      gt\n        /* \"#utility.yul\":11913:11953   */\n      iszero\n      tag_615\n      jumpi\n        /* \"#utility.yul\":11933:11951   */\n      tag_616\n      tag_467\n      jump\t// in\n    tag_616:\n        /* \"#utility.yul\":11913:11953   */\n    tag_615:\n        /* \"#utility.yul\":11966:11971   */\n      jump(tag_604)\n        /* \"#utility.yul\":11735:11981   */\n    tag_614:\n        /* \"#utility.yul\":12006:12048   */\n      tag_617\n        /* \"#utility.yul\":12044:12047   */\n      dup5\n        /* \"#utility.yul\":12034:12042   */\n      dup5\n        /* \"#utility.yul\":12028:12032   */\n      dup5\n        /* \"#utility.yul\":12025:12026   */\n      0x01\n        /* \"#utility.yul\":12006:12048   */\n      tag_469\n      jump\t// in\n    tag_617:\n        /* \"#utility.yul\":11991:12048   */\n      swap3\n      pop\n      swap1\n      pop\n        /* \"#utility.yul\":12080:12084   */\n      dup2\n        /* \"#utility.yul\":12075:12078   */\n      dup5\n        /* \"#utility.yul\":12071:12085   */\n      div\n        /* \"#utility.yul\":12064:12069   */\n      dup2\n        /* \"#utility.yul\":12061:12086   */\n      gt\n        /* \"#utility.yul\":12058:12109   */\n      iszero\n      tag_618\n      jumpi\n        /* \"#utility.yul\":12089:12107   */\n      tag_619\n      tag_467\n      jump\t// in\n    tag_619:\n        /* \"#utility.yul\":12058:12109   */\n    tag_618:\n        /* \"#utility.yul\":12138:12142   */\n      dup2\n        /* \"#utility.yul\":12131:12136   */\n      dup2\n        /* \"#utility.yul\":12127:12143   */\n      mul\n        /* \"#utility.yul\":12118:12143   */\n      swap1\n      pop\n        /* \"#utility.yul\":11076:12149   */\n    tag_604:\n      swap4\n      swap3\n      pop\n      pop\n      pop\n      jump\t// out\n        /* \"#utility.yul\":12155:12436   */\n    tag_271:\n        /* \"#utility.yul\":12213:12218   */\n      0x00\n        /* \"#utility.yul\":12237:12260   */\n      tag_621\n        /* \"#utility.yul\":12255:12259   */\n      dup3\n        /* \"#utility.yul\":12237:12260   */\n      tag_442\n      jump\t// in\n    tag_621:\n        /* \"#utility.yul\":12229:12260   */\n      swap2\n      pop\n        /* \"#utility.yul\":12281:12306   */\n      tag_622\n        /* \"#utility.yul\":12297:12305   */\n      dup4\n        /* \"#utility.yul\":12281:12306   */\n      tag_460\n      jump\t// in\n    tag_622:\n        /* \"#utility.yul\":12269:12306   */\n      swap3\n      pop\n        /* \"#utility.yul\":12325:12429   */\n      tag_623\n        /* \"#utility.yul\":12362:12428   */\n      0xffffffffffffffffffffffffffffffffffffffffffffffffffffffffffffffff\n        /* \"#utility.yul\":12352:12360   */\n      dup5\n        /* \"#utility.yul\":12346:12350   */\n      dup5\n        /* \"#utility.yul\":12325:12429   */\n      tag_470\n      jump\t// in\n    tag_623:\n        /* \"#utility.yul\":12316:12429   */\n      swap1\n      pop\n        /* \"#utility.yul\":12155:12436   */\n      swap3\n      swap2\n      pop\n      pop\n      jump\t// out\n        /* \"#utility.yul\":12442:12622   */\n    tag_347:\n        /* \"#utility.yul\":12490:12567   */\n      0x4e487b7100000000000000000000000000000000000000000000000000000000\n        /* \"#utility.yul\":12487:12488   */\n      0x00\n        /* \"#utility.yul\":12480:12568   */\n      mstore\n        /* \"#utility.yul\":12587:12591   */\n      0x12\n        /* \"#utility.yul\":12584:12585   */\n      0x04\n        /* \"#utility.yul\":12577:12592   */\n      mstore\n        /* \"#utility.yul\":12611:12615   */\n      0x24\n        /* \"#utility.yul\":12608:12609   */\n      0x00\n        /* \"#utility.yul\":12601:12616   */\n      revert\n        /* \"#utility.yul\":12628:12960   */\n    tag_373:\n        /* \"#utility.yul\":12749:12753   */\n      0x00\n        /* \"#utility.yul\":12787:12789   */\n      0x40\n        /* \"#utility.yul\":12776:12785   */\n      dup3\n        /* \"#utility.yul\":12772:12790   */\n      add\n        /* \"#utility.yul\":12764:12790   */\n      swap1\n      pop\n        /* \"#utility.yul\":12800:12871   */\n      tag_626\n        /* \"#utility.yul\":12868:12869   */\n      0x00\n        /* \"#utility.yul\":12857:12866   */\n      dup4\n        /* \"#utility.yul\":12853:12870   */\n      add\n        /* \"#utility.yul\":12844:12850   */\n      dup6\n        /* \"#utility.yul\":12800:12871   */\n      tag_443\n      jump\t// in\n    tag_626:\n        /* \"#utility.yul\":12881:12953   */\n      tag_627\n        /* \"#utility.yul\":12949:12951   */\n      0x20\n        /* \"#utility.yul\":12938:12947   */\n      dup4\n        /* \"#utility.yul\":12934:12952   */\n      add\n        /* \"#utility.yul\":12925:12931   */\n      dup5\n        /* \"#utility.yul\":12881:12953   */\n      tag_443\n      jump\t// in\n    tag_627:\n        /* \"#utility.yul\":12628:12960   */\n      swap4\n      swap3\n      pop\n      pop\n      pop\n      jump\t// out\n        /* \"#utility.yul\":12966:13298   */\n    tag_377:\n        /* \"#utility.yul\":13087:13091   */\n      0x00\n        /* \"#utility.yul\":13125:13127   */\n      0x40\n        /* \"#utility.yul\":13114:13123   */\n      dup3\n        /* \"#utility.yul\":13110:13128   */\n      add\n        /* \"#utility.yul\":13102:13128   */\n      swap1\n      pop\n        /* \"#utility.yul\":13138:13209   */\n      tag_629\n        /* \"#utility.yul\":13206:13207   */\n      0x00\n        /* \"#utility.yul\":13195:13204   */\n      dup4\n        /* \"#utility.yul\":13191:13208   */\n      add\n        /* \"#utility.yul\":13182:13188   */\n      dup6\n        /* \"#utility.yul\":13138:13209   */\n      tag_462\n      jump\t// in\n    tag_629:\n        /* \"#utility.yul\":13219:13291   */\n      tag_630\n        /* \"#utility.yul\":13287:13289   */\n      0x20\n        /* \"#utility.yul\":13276:13285   */\n      dup4\n        /* \"#utility.yul\":13272:13290   */\n      add\n        /* \"#utility.yul\":13263:13269   */\n      dup5\n        /* \"#utility.yul\":13219:13291   */\n      tag_443\n      jump\t// in\n    tag_630:\n        /* \"#utility.yul\":12966:13298   */\n      swap4\n      swap3\n      pop\n      pop\n      pop\n      jump\t// out\n        /* \"#utility.yul\":13304:13484   */\n    tag_395:\n        /* \"#utility.yul\":13352:13429   */\n      0x4e487b7100000000000000000000000000000000000000000000000000000000\n        /* \"#utility.yul\":13349:13350   */\n      0x00\n        /* \"#utility.yul\":13342:13430   */\n      mstore\n        /* \"#utility.yul\":13449:13453   */\n      0x21\n        /* \"#utility.yul\":13446:13447   */\n      0x04\n        /* \"#utility.yul\":13439:13454   */\n      mstore\n        /* \"#utility.yul\":13473:13477   */\n      0x24\n        /* \"#utility.yul\":13470:13471   */\n      0x00\n        /* \"#utility.yul\":13463:13478   */\n      revert\n        /* \"#utility.yul\":13490:13660   */\n    tag_397:\n        /* \"#utility.yul\":13520:13521   */\n      0x00\n        /* \"#utility.yul\":13537:13555   */\n      tag_633\n        /* \"#utility.yul\":13553:13554   */\n      dup3\n        /* \"#utility.yul\":13537:13555   */\n      tag_460\n      jump\t// in\n    tag_633:\n        /* \"#utility.yul\":13532:13555   */\n      swap2\n      pop\n        /* \"#utility.yul\":13569:13587   */\n      tag_634\n        /* \"#utility.yul\":13585:13586   */\n      dup4\n        /* \"#utility.yul\":13569:13587   */\n      tag_460\n      jump\t// in\n    tag_634:\n        /* \"#utility.yul\":13564:13587   */\n      swap3\n      pop\n        /* \"#utility.yul\":13606:13607   */\n      dup3\n        /* \"#utility.yul\":13596:13631   */\n      tag_635\n      jumpi\n        /* \"#utility.yul\":13611:13629   */\n      tag_636\n      tag_347\n      jump\t// in\n    tag_636:\n        /* \"#utility.yul\":13596:13631   */\n    tag_635:\n        /* \"#utility.yul\":13652:13653   */\n      dup3\n        /* \"#utility.yul\":13649:13650   */\n      dup3\n        /* \"#utility.yul\":13645:13654   */\n      mod\n        /* \"#utility.yul\":13640:13654   */\n      swap1\n      pop\n        /* \"#utility.yul\":13490:13660   */\n      swap3\n      swap2\n      pop\n      pop\n      jump\t// out\n        /* \"#utility.yul\":13666:14108   */\n    tag_401:\n        /* \"#utility.yul\":13815:13819   */\n      0x00\n        /* \"#utility.yul\":13853:13855   */\n      0x60\n        /* \"#utility.yul\":13842:13851   */\n      dup3\n        /* \"#utility.yul\":13838:13856   */\n      add\n        /* \"#utility.yul\":13830:13856   */\n      swap1\n      pop\n        /* \"#utility.yul\":13866:13937   */\n      tag_638\n        /* \"#utility.yul\":13934:13935   */\n      0x00\n        /* \"#utility.yul\":13923:13932   */\n      dup4\n        /* \"#utility.yul\":13919:13936   */\n      add\n        /* \"#utility.yul\":13910:13916   */\n      dup7\n        /* \"#utility.yul\":13866:13937   */\n      tag_462\n      jump\t// in\n    tag_638:\n        /* \"#utility.yul\":13947:14019   */\n      tag_639\n        /* \"#utility.yul\":14015:14017   */\n      0x20\n        /* \"#utility.yul\":14004:14013   */\n      dup4\n        /* \"#utility.yul\":14000:14018   */\n      add\n        /* \"#utility.yul\":13991:13997   */\n      dup6\n        /* \"#utility.yul\":13947:14019   */\n      tag_462\n      jump\t// in\n    tag_639:\n        /* \"#utility.yul\":14029:14101   */\n      tag_640\n        /* \"#utility.yul\":14097:14099   */\n      0x40\n        /* \"#utility.yul\":14086:14095   */\n      dup4\n        /* \"#utility.yul\":14082:14100   */\n      add\n        /* \"#utility.yul\":14073:14079   */\n      dup5\n        /* \"#utility.yul\":14029:14101   */\n      tag_443\n      jump\t// in\n    tag_640:\n        /* \"#utility.yul\":13666:14108   */\n      swap5\n      swap4\n      pop\n      pop\n      pop\n      pop\n      jump\t// out\n        /* \"#utility.yul\":14114:14230   */\n    tag_471:\n        /* \"#utility.yul\":14184:14205   */\n      tag_642\n        /* \"#utility.yul\":14199:14204   */\n      dup2\n        /* \"#utility.yul\":14184:14205   */\n      tag_458\n      jump\t// in\n    tag_642:\n        /* \"#utility.yul\":14177:14182   */\n      dup2\n        /* \"#utility.yul\":14174:14206   */\n      eq\n        /* \"#utility.yul\":14164:14224   */\n      tag_643\n      jumpi\n        /* \"#utility.yul\":14220:14221   */\n      0x00\n        /* \"#utility.yul\":14217:14218   */\n      dup1\n        /* \"#utility.yul\":14210:14222   */\n      revert\n        /* \"#utility.yul\":14164:14224   */\n    tag_643:\n        /* \"#utility.yul\":14114:14230   */\n      pop\n      jump\t// out\n        /* \"#utility.yul\":14236:14373   */\n    tag_472:\n        /* \"#utility.yul\":14290:14295   */\n      0x00\n        /* \"#utility.yul\":14321:14327   */\n      dup2\n        /* \"#utility.yul\":14315:14328   */\n      mload\n        /* \"#utility.yul\":14306:14328   */\n      swap1\n      pop\n        /* \"#utility.yul\":14337:14367   */\n      tag_645\n        /* \"#utility.yul\":14361:14366   */\n      dup2\n        /* \"#utility.yul\":14337:14367   */\n      tag_471\n      jump\t// in\n    tag_645:\n        /* \"#utility.yul\":14236:14373   */\n      swap3\n      swap2\n      pop\n      pop\n      jump\t// out\n        /* \"#utility.yul\":14379:14724   */\n    tag_411:\n        /* \"#utility.yul\":14446:14452   */\n      0x00\n        /* \"#utility.yul\":14495:14497   */\n      0x20\n        /* \"#utility.yul\":14483:14492   */\n      dup3\n        /* \"#utility.yul\":14474:14481   */\n      dup5\n        /* \"#utility.yul\":14470:14493   */\n      sub\n        /* \"#utility.yul\":14466:14498   */\n      slt\n        /* \"#utility.yul\":14463:14582   */\n      iszero\n      tag_647\n      jumpi\n        /* \"#utility.yul\":14501:14580   */\n      tag_648\n      tag_450\n      jump\t// in\n    tag_648:\n        /* \"#utility.yul\":14463:14582   */\n    tag_647:\n        /* \"#utility.yul\":14621:14622   */\n      0x00\n        /* \"#utility.yul\":14646:14707   */\n      tag_649\n        /* \"#utility.yul\":14699:14706   */\n      dup5\n        /* \"#utility.yul\":14690:14696   */\n      dup3\n        /* \"#utility.yul\":14679:14688   */\n      dup6\n        /* \"#utility.yul\":14675:14697   */\n      add\n        /* \"#utility.yul\":14646:14707   */\n      tag_472\n      jump\t// in\n    tag_649:\n        /* \"#utility.yul\":14636:14707   */\n      swap2\n      pop\n        /* \"#utility.yul\":14592:14717   */\n      pop\n        /* \"#utility.yul\":14379:14724   */\n      swap3\n      swap2\n      pop\n      pop\n      jump\t// out\n        /* \"#utility.yul\":14730:14828   */\n    tag_473:\n        /* \"#utility.yul\":14781:14787   */\n      0x00\n        /* \"#utility.yul\":14815:14820   */\n      dup2\n        /* \"#utility.yul\":14809:14821   */\n      mload\n        /* \"#utility.yul\":14799:14821   */\n      swap1\n      pop\n        /* \"#utility.yul\":14730:14828   */\n      swap2\n      swap1\n      pop\n      jump\t// out\n        /* \"#utility.yul\":14834:14981   */\n    tag_474:\n        /* \"#utility.yul\":14935:14946   */\n      0x00\n        /* \"#utility.yul\":14972:14975   */\n      dup2\n        /* \"#utility.yul\":14957:14975   */\n      swap1\n      pop\n        /* \"#utility.yul\":14834:14981   */\n      swap3\n      swap2\n      pop\n      pop\n      jump\t// out\n        /* \"#utility.yul\":14987:15373   */\n    tag_475:\n        /* \"#utility.yul\":15091:15094   */\n      0x00\n        /* \"#utility.yul\":15119:15157   */\n      tag_653\n        /* \"#utility.yul\":15151:15156   */\n      dup3\n        /* \"#utility.yul\":15119:15157   */\n      tag_473\n      jump\t// in\n    tag_653:\n        /* \"#utility.yul\":15173:15261   */\n      tag_654\n        /* \"#utility.yul\":15254:15260   */\n      dup2\n        /* \"#utility.yul\":15249:15252   */\n      dup6\n        /* \"#utility.yul\":15173:15261   */\n      tag_474\n      jump\t// in\n    tag_654:\n        /* \"#utility.yul\":15166:15261   */\n      swap4\n      pop\n        /* \"#utility.yul\":15270:15335   */\n      tag_655\n        /* \"#utility.yul\":15328:15334   */\n      dup2\n        /* \"#utility.yul\":15323:15326   */\n      dup6\n        /* \"#utility.yul\":15316:15320   */\n      0x20\n        /* \"#utility.yul\":15309:15314   */\n      dup7\n        /* \"#utility.yul\":15305:15321   */\n      add\n        /* \"#utility.yul\":15270:15335   */\n      tag_446\n      jump\t// in\n    tag_655:\n        /* \"#utility.yul\":15360:15366   */\n      dup1\n        /* \"#utility.yul\":15355:15358   */\n      dup5\n        /* \"#utility.yul\":15351:15367   */\n      add\n        /* \"#utility.yul\":15344:15367   */\n      swap2\n      pop\n        /* \"#utility.yul\":15095:15373   */\n      pop\n        /* \"#utility.yul\":14987:15373   */\n      swap3\n      swap2\n      pop\n      pop\n      jump\t// out\n        /* \"#utility.yul\":15379:15650   */\n    tag_425:\n        /* \"#utility.yul\":15509:15512   */\n      0x00\n        /* \"#utility.yul\":15531:15624   */\n      tag_657\n        /* \"#utility.yul\":15620:15623   */\n      dup3\n        /* \"#utility.yul\":15611:15617   */\n      dup5\n        /* \"#utility.yul\":15531:15624   */\n      tag_475\n      jump\t// in\n    tag_657:\n        /* \"#utility.yul\":15524:15624   */\n      swap2\n      pop\n        /* \"#utility.yul\":15641:15644   */\n      dup2\n        /* \"#utility.yul\":15634:15644   */\n      swap1\n      pop\n        /* \"#utility.yul\":15379:15650   */\n      swap3\n      swap2\n      pop\n      pop\n      jump\t// out\n\n    auxdata: 0xa2646970667358221220c733f6cb83933133afe6a4d42c9cdc1af596c077301b34c416913646670960b464736f6c63430008190033\n}\n",
				"bytecode": {
					"linkReferences": {},
					"object": "60c060405234801561000f575f80fd5b50604051612c83380380612c8383398181016040528101906100319190610320565b816040518060400160405280600f81526020017f42726f6b656e204d616e20486f6c6500000000000000000000000000000000008152506040518060400160405280600481526020017f76424d480000000000000000000000000000000000000000000000000000000081525081600390816100ad919061058f565b5080600490816100bd919061058f565b5050505f806100d18361017560201b60201c565b91509150816100e15760126100e3565b805b60ff1660a08160ff16815250508273ffffffffffffffffffffffffffffffffffffffff1660808173ffffffffffffffffffffffffffffffffffffffff16815250505050503360055f6101000a81548173ffffffffffffffffffffffffffffffffffffffff021916908373ffffffffffffffffffffffffffffffffffffffff1602179055508060068190555050506106f1565b5f805f808473ffffffffffffffffffffffffffffffffffffffff1660405160240160405160208183030381529060405263313ce56760e01b6020820180517bffffffffffffffffffffffffffffffffffffffffffffffffffffffff83818316178352505050506040516101e891906106b0565b5f60405180830381855afa9150503d805f8114610220576040519150601f19603f3d011682016040523d82523d5f602084013e610225565b606091505b509150915081801561023957506020815110155b15610270575f8180602001905181019061025391906106c6565b905060ff8016811161026e5760018194509450505050610279565b505b5f809350935050505b915091565b5f80fd5b5f73ffffffffffffffffffffffffffffffffffffffff82169050919050565b5f6102ab82610282565b9050919050565b5f6102bc826102a1565b9050919050565b6102cc816102b2565b81146102d6575f80fd5b50565b5f815190506102e7816102c3565b92915050565b5f819050919050565b6102ff816102ed565b8114610309575f80fd5b50565b5f8151905061031a816102f6565b92915050565b5f80604083850312156103365761033561027e565b5b5f610343858286016102d9565b92505060206103548582860161030c565b9150509250929050565b5f81519050919050565b7f4e487b71000000000000000000000000000000000000000000000000000000005f52604160045260245ffd5b7f4e487b71000000000000000000000000000000000000000000000000000000005f52602260045260245ffd5b5f60028204905060018216806103d957607f821691505b6020821081036103ec576103eb610395565b5b50919050565b5f819050815f5260205f209050919050565b5f6020601f8301049050919050565b5f82821b905092915050565b5f6008830261044e7fffffffffffffffffffffffffffffffffffffffffffffffffffffffffffffffff82610413565b6104588683610413565b95508019841693508086168417925050509392505050565b5f819050919050565b5f61049361048e610489846102ed565b610470565b6102ed565b9050919050565b5f819050919050565b6104ac83610479565b6104c06104b88261049a565b84845461041f565b825550505050565b5f90565b6104d46104c8565b6104df8184846104a3565b505050565b5b81811015610502576104f75f826104cc565b6001810190506104e5565b5050565b601f82111561054757610518816103f2565b61052184610404565b81016020851015610530578190505b61054461053c85610404565b8301826104e4565b50505b505050565b5f82821c905092915050565b5f6105675f198460080261054c565b1980831691505092915050565b5f61057f8383610558565b9150826002028217905092915050565b6105988261035e565b67ffffffffffffffff8111156105b1576105b0610368565b5b6105bb82546103c2565b6105c6828285610506565b5f60209050601f8311600181146105f7575f84156105e5578287015190505b6105ef8582610574565b865550610656565b601f198416610605866103f2565b5f5b8281101561062c57848901518255600182019150602085019450602081019050610607565b868310156106495784890151610645601f891682610558565b8355505b6001600288020188555050505b505050505050565b5f81519050919050565b5f81905092915050565b8281835e5f83830152505050565b5f61068a8261065e565b6106948185610668565b93506106a4818560208601610672565b80840191505092915050565b5f6106bb8284610680565b915081905092915050565b5f602082840312156106db576106da61027e565b5b5f6106e88482850161030c565b91505092915050565b60805160a05161255c6107275f395f61080001525f818161062e015281816108310152818161158e01526116fd015261255c5ff3fe608060405234801561000f575f80fd5b50600436106101a7575f3560e01c80638da5cb5b116100f7578063ba0af7a911610095578063ce96cb771161006f578063ce96cb771461056b578063d905777e1461059b578063dd62ed3e146105cb578063ef8b30f7146105fb576101a7565b8063ba0af7a9146104ed578063c63d75b61461050b578063c6e6f5921461053b576101a7565b8063a9059cbb116100d1578063a9059cbb1461042d578063b3d7f6b91461045d578063b460af941461048d578063ba087652146104bd576101a7565b80638da5cb5b146103c157806394bf804d146103df57806395d89b411461040f576101a7565b806323b872dd11610164578063402d267d1161013e578063402d267d146103015780634cdad506146103315780636e553f651461036157806370a0823114610391576101a7565b806323b872dd14610295578063313ce567146102c557806338d52e0f146102e3576101a7565b806301e1d114146101ab57806306fdde03146101c957806307a2d13a146101e7578063095ea7b3146102175780630a28a4771461024757806318160ddd14610277575b5f80fd5b6101b361062b565b6040516101c09190611cb0565b60405180910390f35b6101d16106c9565b6040516101de9190611d39565b60405180910390f35b61020160048036038101906101fc9190611d87565b610759565b60405161020e9190611cb0565b60405180910390f35b610231600480360381019061022c9190611e0c565b61076b565b60405161023e9190611e64565b60405180910390f35b610261600480360381019061025c9190611d87565b61078d565b60405161026e9190611cb0565b60405180910390f35b61027f6107be565b60405161028c9190611cb0565b60405180910390f35b6102af60048036038101906102aa9190611e7d565b6107c7565b6040516102bc9190611e64565b60405180910390f35b6102cd6107f5565b6040516102da9190611ee8565b60405180910390f35b6102eb61082e565b6040516102f89190611f10565b60405180910390f35b61031b60048036038101906103169190611f29565b610855565b6040516103289190611cb0565b60405180910390f35b61034b60048036038101906103469190611d87565b61087e565b6040516103589190611cb0565b60405180910390f35b61037b60048036038101906103769190611f54565b6108af565b6040516103889190611cb0565b60405180910390f35b6103ab60048036038101906103a69190611f29565b61092f565b6040516103b89190611cb0565b60405180910390f35b6103c9610974565b6040516103d69190611fb2565b60405180910390f35b6103f960048036038101906103f49190611f54565b610999565b6040516104069190611cb0565b60405180910390f35b610417610a19565b6040516104249190611d39565b60405180910390f35b61044760048036038101906104429190611e0c565b610aa9565b6040516104549190611e64565b60405180910390f35b61047760048036038101906104729190611d87565b610acb565b6040516104849190611cb0565b60405180910390f35b6104a760048036038101906104a29190611fcb565b610afc565b6040516104b49190611cb0565b60405180910390f35b6104d760048036038101906104d29190611fcb565b610b7e565b6040516104e49190611cb0565b60405180910390f35b6104f5610c00565b6040516105029190611cb0565b60405180910390f35b61052560048036038101906105209190611f29565b610c06565b6040516105329190611cb0565b60405180910390f35b61055560048036038101906105509190611d87565b610c2f565b6040516105629190611cb0565b60405180910390f35b61058560048036038101906105809190611f29565b610c41565b6040516105929190611cb0565b60405180910390f35b6105b560048036038101906105b09190611f29565b610c5b565b6040516105c29190611cb0565b60405180910390f35b6105e560048036038101906105e0919061201b565b610c6c565b6040516105f29190611cb0565b60405180910390f35b61061560048036038101906106109190611d87565b610cee565b6040516106229190611cb0565b60405180910390f35b5f7f000000000000000000000000000000000000000000000000000000000000000073ffffffffffffffffffffffffffffffffffffffff166370a08231306040518263ffffffff1660e01b81526004016106859190611f10565b602060405180830381865afa1580156106a0573d5f803e3d5ffd5b505050506040513d601f19601f820116820180604052508101906106c4919061206d565b905090565b6060600380546106d8906120c5565b80601f0160208091040260200160405190810160405280929190818152602001828054610704906120c5565b801561074f5780601f106107265761010080835404028352916020019161074f565b820191905f5260205f20905b81548152906001019060200180831161073257829003601f168201915b5050505050905090565b5f610764825f610d1f565b9050919050565b5f80610775610d77565b9050610782818585610d7e565b600191505092915050565b5f806107a08361079b610d90565b610d94565b90506107b681846107b19190612122565b610db7565b915050919050565b5f600254905090565b5f806107d1610d77565b90506107de858285610dca565b6107e9858585610e5c565b60019150509392505050565b5f6107fe610f4c565b7f00000000000000000000000000000000000000000000000000000000000000006108299190612155565b905090565b5f7f0000000000000000000000000000000000000000000000000000000000000000905090565b5f7fffffffffffffffffffffffffffffffffffffffffffffffffffffffffffffffff9050919050565b5f8061088983610f50565b905061089c81610897610d90565b610f62565b816108a79190612189565b915050919050565b5f806108ba83610855565b905080841115610905578284826040517f79012fb20000000000000000000000000000000000000000000000000000000081526004016108fc939291906121bc565b60405180910390fd5b5f61090f85610cee565b905061092461091c610d77565b858784610f90565b809250505092915050565b5f805f8373ffffffffffffffffffffffffffffffffffffffff1673ffffffffffffffffffffffffffffffffffffffff1681526020019081526020015f20549050919050565b60055f9054906101000a900473ffffffffffffffffffffffffffffffffffffffff1681565b5f806109a483610c06565b9050808411156109ef578284826040517f284ff6670000000000000000000000000000000000000000000000000000000081526004016109e6939291906121bc565b60405180910390fd5b5f6109f985610acb565b9050610a0e610a06610d77565b858388610f90565b809250505092915050565b606060048054610a28906120c5565b80601f0160208091040260200160405190810160405280929190818152602001828054610a54906120c5565b8015610a9f5780601f10610a7657610100808354040283529160200191610a9f565b820191905f5260205f20905b815481529060010190602001808311610a8257829003601f168201915b5050505050905090565b5f80610ab3610d77565b9050610ac0818585610e5c565b600191505092915050565b5f80610ad683611016565b9050610ae981610ae4611029565b610d94565b81610af49190612122565b915050919050565b5f80610b0783610c41565b905080851115610b52578285826040517ffe9cceec000000000000000000000000000000000000000000000000000000008152600401610b49939291906121bc565b60405180910390fd5b5f610b5c8661078d565b9050610b72610b69610d77565b86868985611032565b80925050509392505050565b5f80610b8983610c5b565b905080851115610bd4578285826040517fb94abeec000000000000000000000000000000000000000000000000000000008152600401610bcb939291906121bc565b60405180910390fd5b5f610bde8661087e565b9050610bf4610beb610d77565b8686848a611032565b80925050509392505050565b60065481565b5f7fffffffffffffffffffffffffffffffffffffffffffffffffffffffffffffffff9050919050565b5f610c3a825f6110ba565b9050919050565b5f610c54610c4e8361092f565b5f610d1f565b9050919050565b5f610c658261092f565b9050919050565b5f60015f8473ffffffffffffffffffffffffffffffffffffffff1673ffffffffffffffffffffffffffffffffffffffff1681526020019081526020015f205f8373ffffffffffffffffffffffffffffffffffffffff1673ffffffffffffffffffffffffffffffffffffffff1681526020019081526020015f2054905092915050565b5f80610d0183610cfc611029565b610f62565b9050610d178184610d129190612189565b611112565b915050919050565b5f610d6f6001610d2d61062b565b610d379190612122565b610d3f610f4c565b600a610d4b9190612320565b610d536107be565b610d5d9190612122565b8486611124909392919063ffffffff16565b905092915050565b5f33905090565b610d8b8383836001611179565b505050565b5f90565b5f610daf82612710600186611124909392919063ffffffff16565b905092915050565b5f610dc38260016110ba565b9050919050565b5f610dd58484610c6c565b90507fffffffffffffffffffffffffffffffffffffffffffffffffffffffffffffffff8114610e565781811015610e47578281836040517ffb8f41b2000000000000000000000000000000000000000000000000000000008152600401610e3e939291906121bc565b60405180910390fd5b610e5584848484035f611179565b5b50505050565b5f73ffffffffffffffffffffffffffffffffffffffff168373ffffffffffffffffffffffffffffffffffffffff1603610ecc575f6040517f96c6fd1e000000000000000000000000000000000000000000000000000000008152600401610ec39190611f10565b60405180910390fd5b5f73ffffffffffffffffffffffffffffffffffffffff168273ffffffffffffffffffffffffffffffffffffffff1603610f3c575f6040517fec442f05000000000000000000000000000000000000000000000000000000008152600401610f339190611f10565b60405180910390fd5b610f47838383611348565b505050565b5f90565b5f610f5b825f610d1f565b9050919050565b5f610f888261271084610f759190612122565b600186611124909392919063ffffffff16565b905092915050565b5f610fa283610f9d611029565b610f62565b90505f610fad611561565b9050610fbb86868686611589565b5f82118015610ff657503073ffffffffffffffffffffffffffffffffffffffff168173ffffffffffffffffffffffffffffffffffffffff1614155b1561100e5761100d61100661082e565b828461162c565b5b505050505050565b5f611022826001610d1f565b9050919050565b5f600654905090565b5f6110448361103f610d90565b610d94565b90505f61104f6116ab565b905061105e87878787876116af565b5f8211801561109957503073ffffffffffffffffffffffffffffffffffffffff168173ffffffffffffffffffffffffffffffffffffffff1614155b156110b1576110b06110a961082e565b828461162c565b5b50505050505050565b5f61110a6110c6610f4c565b600a6110d29190612320565b6110da6107be565b6110e49190612122565b60016110ee61062b565b6110f89190612122565b8486611124909392919063ffffffff16565b905092915050565b5f61111d825f6110ba565b9050919050565b5f806111318686866117a8565b905061113c836118a7565b801561115857505f84806111535761115261236a565b5b868809115b1561116d5760018161116a9190612122565b90505b80915050949350505050565b5f73ffffffffffffffffffffffffffffffffffffffff168473ffffffffffffffffffffffffffffffffffffffff16036111e9575f6040517fe602df050000000000000000000000000000000000000000000000000000000081526004016111e09190611f10565b60405180910390fd5b5f73ffffffffffffffffffffffffffffffffffffffff168373ffffffffffffffffffffffffffffffffffffffff1603611259575f6040517f94280d620000000000000000000000000000000000000000000000000000000081526004016112509190611f10565b60405180910390fd5b8160015f8673ffffffffffffffffffffffffffffffffffffffff1673ffffffffffffffffffffffffffffffffffffffff1681526020019081526020015f205f8573ffffffffffffffffffffffffffffffffffffffff1673ffffffffffffffffffffffffffffffffffffffff1681526020019081526020015f20819055508015611342578273ffffffffffffffffffffffffffffffffffffffff168473ffffffffffffffffffffffffffffffffffffffff167f8c5be1e5ebec7d5bd14f71427d1e84f3dd0314c0f7b2291e5b200ac8c7c3b925846040516113399190611cb0565b60405180910390a35b50505050565b5f73ffffffffffffffffffffffffffffffffffffffff168373ffffffffffffffffffffffffffffffffffffffff1603611398578060025f82825461138c9190612122565b92505081905550611466565b5f805f8573ffffffffffffffffffffffffffffffffffffffff1673ffffffffffffffffffffffffffffffffffffffff1681526020019081526020015f2054905081811015611421578381836040517fe450d38c000000000000000000000000000000000000000000000000000000008152600401611418939291906121bc565b60405180910390fd5b8181035f808673ffffffffffffffffffffffffffffffffffffffff1673ffffffffffffffffffffffffffffffffffffffff1681526020019081526020015f2081905550505b5f73ffffffffffffffffffffffffffffffffffffffff168273ffffffffffffffffffffffffffffffffffffffff16036114ad578060025f82825403925050819055506114f7565b805f808473ffffffffffffffffffffffffffffffffffffffff1673ffffffffffffffffffffffffffffffffffffffff1681526020019081526020015f205f82825401925050819055505b8173ffffffffffffffffffffffffffffffffffffffff168373ffffffffffffffffffffffffffffffffffffffff167fddf252ad1be2c89b69c2b068fc378daa952ba7f163c4a11628f55a4df523b3ef836040516115549190611cb0565b60405180910390a3505050565b5f60055f9054906101000a900473ffffffffffffffffffffffffffffffffffffffff16905090565b6115b57f00000000000000000000000000000000000000000000000000000000000000008530856118d4565b6115bf8382611956565b8273ffffffffffffffffffffffffffffffffffffffff168473ffffffffffffffffffffffffffffffffffffffff167fdcbc1c05240f31ff3ad067ef1ee35ce4997762752e3a095284754544f4c709d7848460405161161e929190612397565b60405180910390a350505050565b6116a6838473ffffffffffffffffffffffffffffffffffffffff1663a9059cbb858560405160240161165f9291906123be565b604051602081830303815290604052915060e01b6020820180517bffffffffffffffffffffffffffffffffffffffffffffffffffffffff83818316178352505050506119d5565b505050565b5f90565b8273ffffffffffffffffffffffffffffffffffffffff168573ffffffffffffffffffffffffffffffffffffffff16146116ee576116ed838683610dca565b5b6116f88382611a6a565b6117237f0000000000000000000000000000000000000000000000000000000000000000858461162c565b8273ffffffffffffffffffffffffffffffffffffffff168473ffffffffffffffffffffffffffffffffffffffff168673ffffffffffffffffffffffffffffffffffffffff167ffbde797d201c681b91056529119e0b02407c7bb96a4a2c75c01fc9667232c8db8585604051611799929190612397565b60405180910390a45050505050565b5f8083850290505f8019858709828110838203039150505f81036117e0578382816117d6576117d561236a565b5b04925050506118a0565b808411611819576040517f227bc15300000000000000000000000000000000000000000000000000000000815260040160405180910390fd5b5f8486880990508281118203915080830392505f855f038616905080860495508084049350600181825f0304019050808302841793505f600287600302189050808702600203810290508087026002038102905080870260020381029050808702600203810290508087026002038102905080870260020381029050808502955050505050505b9392505050565b5f600160028360038111156118bf576118be6123e5565b5b6118c99190612412565b60ff16149050919050565b611950848573ffffffffffffffffffffffffffffffffffffffff166323b872dd86868660405160240161190993929190612442565b604051602081830303815290604052915060e01b6020820180517bffffffffffffffffffffffffffffffffffffffffffffffffffffffff83818316178352505050506119d5565b50505050565b5f73ffffffffffffffffffffffffffffffffffffffff168273ffffffffffffffffffffffffffffffffffffffff16036119c6575f6040517fec442f050000000000000000000000000000000000000000000000000000000081526004016119bd9190611f10565b60405180910390fd5b6119d15f8383611348565b5050565b5f6119ff828473ffffffffffffffffffffffffffffffffffffffff16611ae990919063ffffffff16565b90505f815114158015611a23575080806020019051810190611a2191906124a1565b155b15611a6557826040517f5274afe7000000000000000000000000000000000000000000000000000000008152600401611a5c9190611f10565b60405180910390fd5b505050565b5f73ffffffffffffffffffffffffffffffffffffffff168273ffffffffffffffffffffffffffffffffffffffff1603611ada575f6040517f96c6fd1e000000000000000000000000000000000000000000000000000000008152600401611ad19190611f10565b60405180910390fd5b611ae5825f83611348565b5050565b6060611af683835f611afe565b905092915050565b606081471015611b4557306040517fcd786059000000000000000000000000000000000000000000000000000000008152600401611b3c9190611f10565b60405180910390fd5b5f808573ffffffffffffffffffffffffffffffffffffffff168486604051611b6d9190612510565b5f6040518083038185875af1925050503d805f8114611ba7576040519150601f19603f3d011682016040523d82523d5f602084013e611bac565b606091505b5091509150611bbc868383611bc7565b925050509392505050565b606082611bdc57611bd782611c54565b611c4c565b5f8251148015611c0257505f8473ffffffffffffffffffffffffffffffffffffffff163b145b15611c4457836040517f9996b315000000000000000000000000000000000000000000000000000000008152600401611c3b9190611f10565b60405180910390fd5b819050611c4d565b5b9392505050565b5f81511115611c665780518082602001fd5b6040517f1425ea4200000000000000000000000000000000000000000000000000000000815260040160405180910390fd5b5f819050919050565b611caa81611c98565b82525050565b5f602082019050611cc35f830184611ca1565b92915050565b5f81519050919050565b5f82825260208201905092915050565b8281835e5f83830152505050565b5f601f19601f8301169050919050565b5f611d0b82611cc9565b611d158185611cd3565b9350611d25818560208601611ce3565b611d2e81611cf1565b840191505092915050565b5f6020820190508181035f830152611d518184611d01565b905092915050565b5f80fd5b611d6681611c98565b8114611d70575f80fd5b50565b5f81359050611d8181611d5d565b92915050565b5f60208284031215611d9c57611d9b611d59565b5b5f611da984828501611d73565b91505092915050565b5f73ffffffffffffffffffffffffffffffffffffffff82169050919050565b5f611ddb82611db2565b9050919050565b611deb81611dd1565b8114611df5575f80fd5b50565b5f81359050611e0681611de2565b92915050565b5f8060408385031215611e2257611e21611d59565b5b5f611e2f85828601611df8565b9250506020611e4085828601611d73565b9150509250929050565b5f8115159050919050565b611e5e81611e4a565b82525050565b5f602082019050611e775f830184611e55565b92915050565b5f805f60608486031215611e9457611e93611d59565b5b5f611ea186828701611df8565b9350506020611eb286828701611df8565b9250506040611ec386828701611d73565b9150509250925092565b5f60ff82169050919050565b611ee281611ecd565b82525050565b5f602082019050611efb5f830184611ed9565b92915050565b611f0a81611dd1565b82525050565b5f602082019050611f235f830184611f01565b92915050565b5f60208284031215611f3e57611f3d611d59565b5b5f611f4b84828501611df8565b91505092915050565b5f8060408385031215611f6a57611f69611d59565b5b5f611f7785828601611d73565b9250506020611f8885828601611df8565b9150509250929050565b5f611f9c82611db2565b9050919050565b611fac81611f92565b82525050565b5f602082019050611fc55f830184611fa3565b92915050565b5f805f60608486031215611fe257611fe1611d59565b5b5f611fef86828701611d73565b935050602061200086828701611df8565b925050604061201186828701611df8565b9150509250925092565b5f806040838503121561203157612030611d59565b5b5f61203e85828601611df8565b925050602061204f85828601611df8565b9150509250929050565b5f8151905061206781611d5d565b92915050565b5f6020828403121561208257612081611d59565b5b5f61208f84828501612059565b91505092915050565b7f4e487b71000000000000000000000000000000000000000000000000000000005f52602260045260245ffd5b5f60028204905060018216806120dc57607f821691505b6020821081036120ef576120ee612098565b5b50919050565b7f4e487b71000000000000000000000000000000000000000000000000000000005f52601160045260245ffd5b5f61212c82611c98565b915061213783611c98565b925082820190508082111561214f5761214e6120f5565b5b92915050565b5f61215f82611ecd565b915061216a83611ecd565b9250828201905060ff811115612183576121826120f5565b5b92915050565b5f61219382611c98565b915061219e83611c98565b92508282039050818111156121b6576121b56120f5565b5b92915050565b5f6060820190506121cf5f830186611f01565b6121dc6020830185611ca1565b6121e96040830184611ca1565b949350505050565b5f8160011c9050919050565b5f808291508390505b600185111561224657808604811115612222576122216120f5565b5b60018516156122315780820291505b808102905061223f856121f1565b9450612206565b94509492505050565b5f8261225e5760019050612319565b8161226b575f9050612319565b8160018114612281576002811461228b576122ba565b6001915050612319565b60ff84111561229d5761229c6120f5565b5b8360020a9150848211156122b4576122b36120f5565b5b50612319565b5060208310610133831016604e8410600b84101617156122ef5782820a9050838111156122ea576122e96120f5565b5b612319565b6122fc84848460016121fd565b92509050818404811115612313576123126120f5565b5b81810290505b9392505050565b5f61232a82611c98565b915061233583611ecd565b92506123627fffffffffffffffffffffffffffffffffffffffffffffffffffffffffffffffff848461224f565b905092915050565b7f4e487b71000000000000000000000000000000000000000000000000000000005f52601260045260245ffd5b5f6040820190506123aa5f830185611ca1565b6123b76020830184611ca1565b9392505050565b5f6040820190506123d15f830185611f01565b6123de6020830184611ca1565b9392505050565b7f4e487b71000000000000000000000000000000000000000000000000000000005f52602160045260245ffd5b5f61241c82611ecd565b915061242783611ecd565b9250826124375761243661236a565b5b828206905092915050565b5f6060820190506124555f830186611f01565b6124626020830185611f01565b61246f6040830184611ca1565b949350505050565b61248081611e4a565b811461248a575f80fd5b50565b5f8151905061249b81612477565b92915050565b5f602082840312156124b6576124b5611d59565b5b5f6124c38482850161248d565b91505092915050565b5f81519050919050565b5f81905092915050565b5f6124ea826124cc565b6124f481856124d6565b9350612504818560208601611ce3565b80840191505092915050565b5f61251b82846124e0565b91508190509291505056fea2646970667358221220c733f6cb83933133afe6a4d42c9cdc1af596c077301b34c416913646670960b464736f6c63430008190033",
					"opcodes": "PUSH1 0xC0 PUSH1 0x40 MSTORE CALLVALUE DUP1 ISZERO PUSH2 0xF JUMPI PUSH0 DUP1 REVERT JUMPDEST POP PUSH1 0x40 MLOAD PUSH2 0x2C83 CODESIZE SUB DUP1 PUSH2 0x2C83 DUP4 CODECOPY DUP2 DUP2 ADD PUSH1 0x40 MSTORE DUP2 ADD SWAP1 PUSH2 0x31 SWAP2 SWAP1 PUSH2 0x320 JUMP JUMPDEST DUP2 PUSH1 0x40 MLOAD DUP1 PUSH1 0x40 ADD PUSH1 0x40 MSTORE DUP1 PUSH1 0xF DUP2 MSTORE PUSH1 0x20 ADD PUSH32 0x42726F6B656E204D616E20486F6C650000000000000000000000000000000000 DUP2 MSTORE POP PUSH1 0x40 MLOAD DUP1 PUSH1 0x40 ADD PUSH1 0x40 MSTORE DUP1 PUSH1 0x4 DUP2 MSTORE PUSH1 0x20 ADD PUSH32 0x76424D4800000000000000000000000000000000000000000000000000000000 DUP2 MSTORE POP DUP2 PUSH1 0x3 SWAP1 DUP2 PUSH2 0xAD SWAP2 SWAP1 PUSH2 0x58F JUMP JUMPDEST POP DUP1 PUSH1 0x4 SWAP1 DUP2 PUSH2 0xBD SWAP2 SWAP1 PUSH2 0x58F JUMP JUMPDEST POP POP POP PUSH0 DUP1 PUSH2 0xD1 DUP4 PUSH2 0x175 PUSH1 0x20 SHL PUSH1 0x20 SHR JUMP JUMPDEST SWAP2 POP SWAP2 POP DUP2 PUSH2 0xE1 JUMPI PUSH1 0x12 PUSH2 0xE3 JUMP JUMPDEST DUP1 JUMPDEST PUSH1 0xFF AND PUSH1 0xA0 DUP2 PUSH1 0xFF AND DUP2 MSTORE POP POP DUP3 PUSH20 0xFFFFFFFFFFFFFFFFFFFFFFFFFFFFFFFFFFFFFFFF AND PUSH1 0x80 DUP2 PUSH20 0xFFFFFFFFFFFFFFFFFFFFFFFFFFFFFFFFFFFFFFFF AND DUP2 MSTORE POP POP POP POP POP CALLER PUSH1 0x5 PUSH0 PUSH2 0x100 EXP DUP2 SLOAD DUP2 PUSH20 0xFFFFFFFFFFFFFFFFFFFFFFFFFFFFFFFFFFFFFFFF MUL NOT AND SWAP1 DUP4 PUSH20 0xFFFFFFFFFFFFFFFFFFFFFFFFFFFFFFFFFFFFFFFF AND MUL OR SWAP1 SSTORE POP DUP1 PUSH1 0x6 DUP2 SWAP1 SSTORE POP POP POP PUSH2 0x6F1 JUMP JUMPDEST PUSH0 DUP1 PUSH0 DUP1 DUP5 PUSH20 0xFFFFFFFFFFFFFFFFFFFFFFFFFFFFFFFFFFFFFFFF AND PUSH1 0x40 MLOAD PUSH1 0x24 ADD PUSH1 0x40 MLOAD PUSH1 0x20 DUP2 DUP4 SUB SUB DUP2 MSTORE SWAP1 PUSH1 0x40 MSTORE PUSH4 0x313CE567 PUSH1 0xE0 SHL PUSH1 0x20 DUP3 ADD DUP1 MLOAD PUSH28 0xFFFFFFFFFFFFFFFFFFFFFFFFFFFFFFFFFFFFFFFFFFFFFFFFFFFFFFFF DUP4 DUP2 DUP4 AND OR DUP4 MSTORE POP POP POP POP PUSH1 0x40 MLOAD PUSH2 0x1E8 SWAP2 SWAP1 PUSH2 0x6B0 JUMP JUMPDEST PUSH0 PUSH1 0x40 MLOAD DUP1 DUP4 SUB DUP2 DUP6 GAS STATICCALL SWAP2 POP POP RETURNDATASIZE DUP1 PUSH0 DUP2 EQ PUSH2 0x220 JUMPI PUSH1 0x40 MLOAD SWAP2 POP PUSH1 0x1F NOT PUSH1 0x3F RETURNDATASIZE ADD AND DUP3 ADD PUSH1 0x40 MSTORE RETURNDATASIZE DUP3 MSTORE RETURNDATASIZE PUSH0 PUSH1 0x20 DUP5 ADD RETURNDATACOPY PUSH2 0x225 JUMP JUMPDEST PUSH1 0x60 SWAP2 POP JUMPDEST POP SWAP2 POP SWAP2 POP DUP2 DUP1 ISZERO PUSH2 0x239 JUMPI POP PUSH1 0x20 DUP2 MLOAD LT ISZERO JUMPDEST ISZERO PUSH2 0x270 JUMPI PUSH0 DUP2 DUP1 PUSH1 0x20 ADD SWAP1 MLOAD DUP2 ADD SWAP1 PUSH2 0x253 SWAP2 SWAP1 PUSH2 0x6C6 JUMP JUMPDEST SWAP1 POP PUSH1 0xFF DUP1 AND DUP2 GT PUSH2 0x26E JUMPI PUSH1 0x1 DUP2 SWAP5 POP SWAP5 POP POP POP POP PUSH2 0x279 JUMP JUMPDEST POP JUMPDEST PUSH0 DUP1 SWAP4 POP SWAP4 POP POP POP JUMPDEST SWAP2 POP SWAP2 JUMP JUMPDEST PUSH0 DUP1 REVERT JUMPDEST PUSH0 PUSH20 0xFFFFFFFFFFFFFFFFFFFFFFFFFFFFFFFFFFFFFFFF DUP3 AND SWAP1 POP SWAP2 SWAP1 POP JUMP JUMPDEST PUSH0 PUSH2 0x2AB DUP3 PUSH2 0x282 JUMP JUMPDEST SWAP1 POP SWAP2 SWAP1 POP JUMP JUMPDEST PUSH0 PUSH2 0x2BC DUP3 PUSH2 0x2A1 JUMP JUMPDEST SWAP1 POP SWAP2 SWAP1 POP JUMP JUMPDEST PUSH2 0x2CC DUP2 PUSH2 0x2B2 JUMP JUMPDEST DUP2 EQ PUSH2 0x2D6 JUMPI PUSH0 DUP1 REVERT JUMPDEST POP JUMP JUMPDEST PUSH0 DUP2 MLOAD SWAP1 POP PUSH2 0x2E7 DUP2 PUSH2 0x2C3 JUMP JUMPDEST SWAP3 SWAP2 POP POP JUMP JUMPDEST PUSH0 DUP2 SWAP1 POP SWAP2 SWAP1 POP JUMP JUMPDEST PUSH2 0x2FF DUP2 PUSH2 0x2ED JUMP JUMPDEST DUP2 EQ PUSH2 0x309 JUMPI PUSH0 DUP1 REVERT JUMPDEST POP JUMP JUMPDEST PUSH0 DUP2 MLOAD SWAP1 POP PUSH2 0x31A DUP2 PUSH2 0x2F6 JUMP JUMPDEST SWAP3 SWAP2 POP POP JUMP JUMPDEST PUSH0 DUP1 PUSH1 0x40 DUP4 DUP6 SUB SLT ISZERO PUSH2 0x336 JUMPI PUSH2 0x335 PUSH2 0x27E JUMP JUMPDEST JUMPDEST PUSH0 PUSH2 0x343 DUP6 DUP3 DUP7 ADD PUSH2 0x2D9 JUMP JUMPDEST SWAP3 POP POP PUSH1 0x20 PUSH2 0x354 DUP6 DUP3 DUP7 ADD PUSH2 0x30C JUMP JUMPDEST SWAP2 POP POP SWAP3 POP SWAP3 SWAP1 POP JUMP JUMPDEST PUSH0 DUP2 MLOAD SWAP1 POP SWAP2 SWAP1 POP JUMP JUMPDEST PUSH32 0x4E487B7100000000000000000000000000000000000000000000000000000000 PUSH0 MSTORE PUSH1 0x41 PUSH1 0x4 MSTORE PUSH1 0x24 PUSH0 REVERT JUMPDEST PUSH32 0x4E487B7100000000000000000000000000000000000000000000000000000000 PUSH0 MSTORE PUSH1 0x22 PUSH1 0x4 MSTORE PUSH1 0x24 PUSH0 REVERT JUMPDEST PUSH0 PUSH1 0x2 DUP3 DIV SWAP1 POP PUSH1 0x1 DUP3 AND DUP1 PUSH2 0x3D9 JUMPI PUSH1 0x7F DUP3 AND SWAP2 POP JUMPDEST PUSH1 0x20 DUP3 LT DUP2 SUB PUSH2 0x3EC JUMPI PUSH2 0x3EB PUSH2 0x395 JUMP JUMPDEST JUMPDEST POP SWAP2 SWAP1 POP JUMP JUMPDEST PUSH0 DUP2 SWAP1 POP DUP2 PUSH0 MSTORE PUSH1 0x20 PUSH0 KECCAK256 SWAP1 POP SWAP2 SWAP1 POP JUMP JUMPDEST PUSH0 PUSH1 0x20 PUSH1 0x1F DUP4 ADD DIV SWAP1 POP SWAP2 SWAP1 POP JUMP JUMPDEST PUSH0 DUP3 DUP3 SHL SWAP1 POP SWAP3 SWAP2 POP POP JUMP JUMPDEST PUSH0 PUSH1 0x8 DUP4 MUL PUSH2 0x44E PUSH32 0xFFFFFFFFFFFFFFFFFFFFFFFFFFFFFFFFFFFFFFFFFFFFFFFFFFFFFFFFFFFFFFFF DUP3 PUSH2 0x413 JUMP JUMPDEST PUSH2 0x458 DUP7 DUP4 PUSH2 0x413 JUMP JUMPDEST SWAP6 POP DUP1 NOT DUP5 AND SWAP4 POP DUP1 DUP7 AND DUP5 OR SWAP3 POP POP POP SWAP4 SWAP3 POP POP POP JUMP JUMPDEST PUSH0 DUP2 SWAP1 POP SWAP2 SWAP1 POP JUMP JUMPDEST PUSH0 PUSH2 0x493 PUSH2 0x48E PUSH2 0x489 DUP5 PUSH2 0x2ED JUMP JUMPDEST PUSH2 0x470 JUMP JUMPDEST PUSH2 0x2ED JUMP JUMPDEST SWAP1 POP SWAP2 SWAP1 POP JUMP JUMPDEST PUSH0 DUP2 SWAP1 POP SWAP2 SWAP1 POP JUMP JUMPDEST PUSH2 0x4AC DUP4 PUSH2 0x479 JUMP JUMPDEST PUSH2 0x4C0 PUSH2 0x4B8 DUP3 PUSH2 0x49A JUMP JUMPDEST DUP5 DUP5 SLOAD PUSH2 0x41F JUMP JUMPDEST DUP3 SSTORE POP POP POP POP JUMP JUMPDEST PUSH0 SWAP1 JUMP JUMPDEST PUSH2 0x4D4 PUSH2 0x4C8 JUMP JUMPDEST PUSH2 0x4DF DUP2 DUP5 DUP5 PUSH2 0x4A3 JUMP JUMPDEST POP POP POP JUMP JUMPDEST JUMPDEST DUP2 DUP2 LT ISZERO PUSH2 0x502 JUMPI PUSH2 0x4F7 PUSH0 DUP3 PUSH2 0x4CC JUMP JUMPDEST PUSH1 0x1 DUP2 ADD SWAP1 POP PUSH2 0x4E5 JUMP JUMPDEST POP POP JUMP JUMPDEST PUSH1 0x1F DUP3 GT ISZERO PUSH2 0x547 JUMPI PUSH2 0x518 DUP2 PUSH2 0x3F2 JUMP JUMPDEST PUSH2 0x521 DUP5 PUSH2 0x404 JUMP JUMPDEST DUP2 ADD PUSH1 0x20 DUP6 LT ISZERO PUSH2 0x530 JUMPI DUP2 SWAP1 POP JUMPDEST PUSH2 0x544 PUSH2 0x53C DUP6 PUSH2 0x404 JUMP JUMPDEST DUP4 ADD DUP3 PUSH2 0x4E4 JUMP JUMPDEST POP POP JUMPDEST POP POP POP JUMP JUMPDEST PUSH0 DUP3 DUP3 SHR SWAP1 POP SWAP3 SWAP2 POP POP JUMP JUMPDEST PUSH0 PUSH2 0x567 PUSH0 NOT DUP5 PUSH1 0x8 MUL PUSH2 0x54C JUMP JUMPDEST NOT DUP1 DUP4 AND SWAP2 POP POP SWAP3 SWAP2 POP POP JUMP JUMPDEST PUSH0 PUSH2 0x57F DUP4 DUP4 PUSH2 0x558 JUMP JUMPDEST SWAP2 POP DUP3 PUSH1 0x2 MUL DUP3 OR SWAP1 POP SWAP3 SWAP2 POP POP JUMP JUMPDEST PUSH2 0x598 DUP3 PUSH2 0x35E JUMP JUMPDEST PUSH8 0xFFFFFFFFFFFFFFFF DUP2 GT ISZERO PUSH2 0x5B1 JUMPI PUSH2 0x5B0 PUSH2 0x368 JUMP JUMPDEST JUMPDEST PUSH2 0x5BB DUP3 SLOAD PUSH2 0x3C2 JUMP JUMPDEST PUSH2 0x5C6 DUP3 DUP3 DUP6 PUSH2 0x506 JUMP JUMPDEST PUSH0 PUSH1 0x20 SWAP1 POP PUSH1 0x1F DUP4 GT PUSH1 0x1 DUP2 EQ PUSH2 0x5F7 JUMPI PUSH0 DUP5 ISZERO PUSH2 0x5E5 JUMPI DUP3 DUP8 ADD MLOAD SWAP1 POP JUMPDEST PUSH2 0x5EF DUP6 DUP3 PUSH2 0x574 JUMP JUMPDEST DUP7 SSTORE POP PUSH2 0x656 JUMP JUMPDEST PUSH1 0x1F NOT DUP5 AND PUSH2 0x605 DUP7 PUSH2 0x3F2 JUMP JUMPDEST PUSH0 JUMPDEST DUP3 DUP2 LT ISZERO PUSH2 0x62C JUMPI DUP5 DUP10 ADD MLOAD DUP3 SSTORE PUSH1 0x1 DUP3 ADD SWAP2 POP PUSH1 0x20 DUP6 ADD SWAP5 POP PUSH1 0x20 DUP2 ADD SWAP1 POP PUSH2 0x607 JUMP JUMPDEST DUP7 DUP4 LT ISZERO PUSH2 0x649 JUMPI DUP5 DUP10 ADD MLOAD PUSH2 0x645 PUSH1 0x1F DUP10 AND DUP3 PUSH2 0x558 JUMP JUMPDEST DUP4 SSTORE POP JUMPDEST PUSH1 0x1 PUSH1 0x2 DUP9 MUL ADD DUP9 SSTORE POP POP POP JUMPDEST POP POP POP POP POP POP JUMP JUMPDEST PUSH0 DUP2 MLOAD SWAP1 POP SWAP2 SWAP1 POP JUMP JUMPDEST PUSH0 DUP2 SWAP1 POP SWAP3 SWAP2 POP POP JUMP JUMPDEST DUP3 DUP2 DUP4 MCOPY PUSH0 DUP4 DUP4 ADD MSTORE POP POP POP JUMP JUMPDEST PUSH0 PUSH2 0x68A DUP3 PUSH2 0x65E JUMP JUMPDEST PUSH2 0x694 DUP2 DUP6 PUSH2 0x668 JUMP JUMPDEST SWAP4 POP PUSH2 0x6A4 DUP2 DUP6 PUSH1 0x20 DUP7 ADD PUSH2 0x672 JUMP JUMPDEST DUP1 DUP5 ADD SWAP2 POP POP SWAP3 SWAP2 POP POP JUMP JUMPDEST PUSH0 PUSH2 0x6BB DUP3 DUP5 PUSH2 0x680 JUMP JUMPDEST SWAP2 POP DUP2 SWAP1 POP SWAP3 SWAP2 POP POP JUMP JUMPDEST PUSH0 PUSH1 0x20 DUP3 DUP5 SUB SLT ISZERO PUSH2 0x6DB JUMPI PUSH2 0x6DA PUSH2 0x27E JUMP JUMPDEST JUMPDEST PUSH0 PUSH2 0x6E8 DUP5 DUP3 DUP6 ADD PUSH2 0x30C JUMP JUMPDEST SWAP2 POP POP SWAP3 SWAP2 POP POP JUMP JUMPDEST PUSH1 0x80 MLOAD PUSH1 0xA0 MLOAD PUSH2 0x255C PUSH2 0x727 PUSH0 CODECOPY PUSH0 PUSH2 0x800 ADD MSTORE PUSH0 DUP2 DUP2 PUSH2 0x62E ADD MSTORE DUP2 DUP2 PUSH2 0x831 ADD MSTORE DUP2 DUP2 PUSH2 0x158E ADD MSTORE PUSH2 0x16FD ADD MSTORE PUSH2 0x255C PUSH0 RETURN INVALID PUSH1 0x80 PUSH1 0x40 MSTORE CALLVALUE DUP1 ISZERO PUSH2 0xF JUMPI PUSH0 DUP1 REVERT JUMPDEST POP PUSH1 0x4 CALLDATASIZE LT PUSH2 0x1A7 JUMPI PUSH0 CALLDATALOAD PUSH1 0xE0 SHR DUP1 PUSH4 0x8DA5CB5B GT PUSH2 0xF7 JUMPI DUP1 PUSH4 0xBA0AF7A9 GT PUSH2 0x95 JUMPI DUP1 PUSH4 0xCE96CB77 GT PUSH2 0x6F JUMPI DUP1 PUSH4 0xCE96CB77 EQ PUSH2 0x56B JUMPI DUP1 PUSH4 0xD905777E EQ PUSH2 0x59B JUMPI DUP1 PUSH4 0xDD62ED3E EQ PUSH2 0x5CB JUMPI DUP1 PUSH4 0xEF8B30F7 EQ PUSH2 0x5FB JUMPI PUSH2 0x1A7 JUMP JUMPDEST DUP1 PUSH4 0xBA0AF7A9 EQ PUSH2 0x4ED JUMPI DUP1 PUSH4 0xC63D75B6 EQ PUSH2 0x50B JUMPI DUP1 PUSH4 0xC6E6F592 EQ PUSH2 0x53B JUMPI PUSH2 0x1A7 JUMP JUMPDEST DUP1 PUSH4 0xA9059CBB GT PUSH2 0xD1 JUMPI DUP1 PUSH4 0xA9059CBB EQ PUSH2 0x42D JUMPI DUP1 PUSH4 0xB3D7F6B9 EQ PUSH2 0x45D JUMPI DUP1 PUSH4 0xB460AF94 EQ PUSH2 0x48D JUMPI DUP1 PUSH4 0xBA087652 EQ PUSH2 0x4BD JUMPI PUSH2 0x1A7 JUMP JUMPDEST DUP1 PUSH4 0x8DA5CB5B EQ PUSH2 0x3C1 JUMPI DUP1 PUSH4 0x94BF804D EQ PUSH2 0x3DF JUMPI DUP1 PUSH4 0x95D89B41 EQ PUSH2 0x40F JUMPI PUSH2 0x1A7 JUMP JUMPDEST DUP1 PUSH4 0x23B872DD GT PUSH2 0x164 JUMPI DUP1 PUSH4 0x402D267D GT PUSH2 0x13E JUMPI DUP1 PUSH4 0x402D267D EQ PUSH2 0x301 JUMPI DUP1 PUSH4 0x4CDAD506 EQ PUSH2 0x331 JUMPI DUP1 PUSH4 0x6E553F65 EQ PUSH2 0x361 JUMPI DUP1 PUSH4 0x70A08231 EQ PUSH2 0x391 JUMPI PUSH2 0x1A7 JUMP JUMPDEST DUP1 PUSH4 0x23B872DD EQ PUSH2 0x295 JUMPI DUP1 PUSH4 0x313CE567 EQ PUSH2 0x2C5 JUMPI DUP1 PUSH4 0x38D52E0F EQ PUSH2 0x2E3 JUMPI PUSH2 0x1A7 JUMP JUMPDEST DUP1 PUSH4 0x1E1D114 EQ PUSH2 0x1AB JUMPI DUP1 PUSH4 0x6FDDE03 EQ PUSH2 0x1C9 JUMPI DUP1 PUSH4 0x7A2D13A EQ PUSH2 0x1E7 JUMPI DUP1 PUSH4 0x95EA7B3 EQ PUSH2 0x217 JUMPI DUP1 PUSH4 0xA28A477 EQ PUSH2 0x247 JUMPI DUP1 PUSH4 0x18160DDD EQ PUSH2 0x277 JUMPI JUMPDEST PUSH0 DUP1 REVERT JUMPDEST PUSH2 0x1B3 PUSH2 0x62B JUMP JUMPDEST PUSH1 0x40 MLOAD PUSH2 0x1C0 SWAP2 SWAP1 PUSH2 0x1CB0 JUMP JUMPDEST PUSH1 0x40 MLOAD DUP1 SWAP2 SUB SWAP1 RETURN JUMPDEST PUSH2 0x1D1 PUSH2 0x6C9 JUMP JUMPDEST PUSH1 0x40 MLOAD PUSH2 0x1DE SWAP2 SWAP1 PUSH2 0x1D39 JUMP JUMPDEST PUSH1 0x40 MLOAD DUP1 SWAP2 SUB SWAP1 RETURN JUMPDEST PUSH2 0x201 PUSH1 0x4 DUP1 CALLDATASIZE SUB DUP2 ADD SWAP1 PUSH2 0x1FC SWAP2 SWAP1 PUSH2 0x1D87 JUMP JUMPDEST PUSH2 0x759 JUMP JUMPDEST PUSH1 0x40 MLOAD PUSH2 0x20E SWAP2 SWAP1 PUSH2 0x1CB0 JUMP JUMPDEST PUSH1 0x40 MLOAD DUP1 SWAP2 SUB SWAP1 RETURN JUMPDEST PUSH2 0x231 PUSH1 0x4 DUP1 CALLDATASIZE SUB DUP2 ADD SWAP1 PUSH2 0x22C SWAP2 SWAP1 PUSH2 0x1E0C JUMP JUMPDEST PUSH2 0x76B JUMP JUMPDEST PUSH1 0x40 MLOAD PUSH2 0x23E SWAP2 SWAP1 PUSH2 0x1E64 JUMP JUMPDEST PUSH1 0x40 MLOAD DUP1 SWAP2 SUB SWAP1 RETURN JUMPDEST PUSH2 0x261 PUSH1 0x4 DUP1 CALLDATASIZE SUB DUP2 ADD SWAP1 PUSH2 0x25C SWAP2 SWAP1 PUSH2 0x1D87 JUMP JUMPDEST PUSH2 0x78D JUMP JUMPDEST PUSH1 0x40 MLOAD PUSH2 0x26E SWAP2 SWAP1 PUSH2 0x1CB0 JUMP JUMPDEST PUSH1 0x40 MLOAD DUP1 SWAP2 SUB SWAP1 RETURN JUMPDEST PUSH2 0x27F PUSH2 0x7BE JUMP JUMPDEST PUSH1 0x40 MLOAD PUSH2 0x28C SWAP2 SWAP1 PUSH2 0x1CB0 JUMP JUMPDEST PUSH1 0x40 MLOAD DUP1 SWAP2 SUB SWAP1 RETURN JUMPDEST PUSH2 0x2AF PUSH1 0x4 DUP1 CALLDATASIZE SUB DUP2 ADD SWAP1 PUSH2 0x2AA SWAP2 SWAP1 PUSH2 0x1E7D JUMP JUMPDEST PUSH2 0x7C7 JUMP JUMPDEST PUSH1 0x40 MLOAD PUSH2 0x2BC SWAP2 SWAP1 PUSH2 0x1E64 JUMP JUMPDEST PUSH1 0x40 MLOAD DUP1 SWAP2 SUB SWAP1 RETURN JUMPDEST PUSH2 0x2CD PUSH2 0x7F5 JUMP JUMPDEST PUSH1 0x40 MLOAD PUSH2 0x2DA SWAP2 SWAP1 PUSH2 0x1EE8 JUMP JUMPDEST PUSH1 0x40 MLOAD DUP1 SWAP2 SUB SWAP1 RETURN JUMPDEST PUSH2 0x2EB PUSH2 0x82E JUMP JUMPDEST PUSH1 0x40 MLOAD PUSH2 0x2F8 SWAP2 SWAP1 PUSH2 0x1F10 JUMP JUMPDEST PUSH1 0x40 MLOAD DUP1 SWAP2 SUB SWAP1 RETURN JUMPDEST PUSH2 0x31B PUSH1 0x4 DUP1 CALLDATASIZE SUB DUP2 ADD SWAP1 PUSH2 0x316 SWAP2 SWAP1 PUSH2 0x1F29 JUMP JUMPDEST PUSH2 0x855 JUMP JUMPDEST PUSH1 0x40 MLOAD PUSH2 0x328 SWAP2 SWAP1 PUSH2 0x1CB0 JUMP JUMPDEST PUSH1 0x40 MLOAD DUP1 SWAP2 SUB SWAP1 RETURN JUMPDEST PUSH2 0x34B PUSH1 0x4 DUP1 CALLDATASIZE SUB DUP2 ADD SWAP1 PUSH2 0x346 SWAP2 SWAP1 PUSH2 0x1D87 JUMP JUMPDEST PUSH2 0x87E JUMP JUMPDEST PUSH1 0x40 MLOAD PUSH2 0x358 SWAP2 SWAP1 PUSH2 0x1CB0 JUMP JUMPDEST PUSH1 0x40 MLOAD DUP1 SWAP2 SUB SWAP1 RETURN JUMPDEST PUSH2 0x37B PUSH1 0x4 DUP1 CALLDATASIZE SUB DUP2 ADD SWAP1 PUSH2 0x376 SWAP2 SWAP1 PUSH2 0x1F54 JUMP JUMPDEST PUSH2 0x8AF JUMP JUMPDEST PUSH1 0x40 MLOAD PUSH2 0x388 SWAP2 SWAP1 PUSH2 0x1CB0 JUMP JUMPDEST PUSH1 0x40 MLOAD DUP1 SWAP2 SUB SWAP1 RETURN JUMPDEST PUSH2 0x3AB PUSH1 0x4 DUP1 CALLDATASIZE SUB DUP2 ADD SWAP1 PUSH2 0x3A6 SWAP2 SWAP1 PUSH2 0x1F29 JUMP JUMPDEST PUSH2 0x92F JUMP JUMPDEST PUSH1 0x40 MLOAD PUSH2 0x3B8 SWAP2 SWAP1 PUSH2 0x1CB0 JUMP JUMPDEST PUSH1 0x40 MLOAD DUP1 SWAP2 SUB SWAP1 RETURN JUMPDEST PUSH2 0x3C9 PUSH2 0x974 JUMP JUMPDEST PUSH1 0x40 MLOAD PUSH2 0x3D6 SWAP2 SWAP1 PUSH2 0x1FB2 JUMP JUMPDEST PUSH1 0x40 MLOAD DUP1 SWAP2 SUB SWAP1 RETURN JUMPDEST PUSH2 0x3F9 PUSH1 0x4 DUP1 CALLDATASIZE SUB DUP2 ADD SWAP1 PUSH2 0x3F4 SWAP2 SWAP1 PUSH2 0x1F54 JUMP JUMPDEST PUSH2 0x999 JUMP JUMPDEST PUSH1 0x40 MLOAD PUSH2 0x406 SWAP2 SWAP1 PUSH2 0x1CB0 JUMP JUMPDEST PUSH1 0x40 MLOAD DUP1 SWAP2 SUB SWAP1 RETURN JUMPDEST PUSH2 0x417 PUSH2 0xA19 JUMP JUMPDEST PUSH1 0x40 MLOAD PUSH2 0x424 SWAP2 SWAP1 PUSH2 0x1D39 JUMP JUMPDEST PUSH1 0x40 MLOAD DUP1 SWAP2 SUB SWAP1 RETURN JUMPDEST PUSH2 0x447 PUSH1 0x4 DUP1 CALLDATASIZE SUB DUP2 ADD SWAP1 PUSH2 0x442 SWAP2 SWAP1 PUSH2 0x1E0C JUMP JUMPDEST PUSH2 0xAA9 JUMP JUMPDEST PUSH1 0x40 MLOAD PUSH2 0x454 SWAP2 SWAP1 PUSH2 0x1E64 JUMP JUMPDEST PUSH1 0x40 MLOAD DUP1 SWAP2 SUB SWAP1 RETURN JUMPDEST PUSH2 0x477 PUSH1 0x4 DUP1 CALLDATASIZE SUB DUP2 ADD SWAP1 PUSH2 0x472 SWAP2 SWAP1 PUSH2 0x1D87 JUMP JUMPDEST PUSH2 0xACB JUMP JUMPDEST PUSH1 0x40 MLOAD PUSH2 0x484 SWAP2 SWAP1 PUSH2 0x1CB0 JUMP JUMPDEST PUSH1 0x40 MLOAD DUP1 SWAP2 SUB SWAP1 RETURN JUMPDEST PUSH2 0x4A7 PUSH1 0x4 DUP1 CALLDATASIZE SUB DUP2 ADD SWAP1 PUSH2 0x4A2 SWAP2 SWAP1 PUSH2 0x1FCB JUMP JUMPDEST PUSH2 0xAFC JUMP JUMPDEST PUSH1 0x40 MLOAD PUSH2 0x4B4 SWAP2 SWAP1 PUSH2 0x1CB0 JUMP JUMPDEST PUSH1 0x40 MLOAD DUP1 SWAP2 SUB SWAP1 RETURN JUMPDEST PUSH2 0x4D7 PUSH1 0x4 DUP1 CALLDATASIZE SUB DUP2 ADD SWAP1 PUSH2 0x4D2 SWAP2 SWAP1 PUSH2 0x1FCB JUMP JUMPDEST PUSH2 0xB7E JUMP JUMPDEST PUSH1 0x40 MLOAD PUSH2 0x4E4 SWAP2 SWAP1 PUSH2 0x1CB0 JUMP JUMPDEST PUSH1 0x40 MLOAD DUP1 SWAP2 SUB SWAP1 RETURN JUMPDEST PUSH2 0x4F5 PUSH2 0xC00 JUMP JUMPDEST PUSH1 0x40 MLOAD PUSH2 0x502 SWAP2 SWAP1 PUSH2 0x1CB0 JUMP JUMPDEST PUSH1 0x40 MLOAD DUP1 SWAP2 SUB SWAP1 RETURN JUMPDEST PUSH2 0x525 PUSH1 0x4 DUP1 CALLDATASIZE SUB DUP2 ADD SWAP1 PUSH2 0x520 SWAP2 SWAP1 PUSH2 0x1F29 JUMP JUMPDEST PUSH2 0xC06 JUMP JUMPDEST PUSH1 0x40 MLOAD PUSH2 0x532 SWAP2 SWAP1 PUSH2 0x1CB0 JUMP JUMPDEST PUSH1 0x40 MLOAD DUP1 SWAP2 SUB SWAP1 RETURN JUMPDEST PUSH2 0x555 PUSH1 0x4 DUP1 CALLDATASIZE SUB DUP2 ADD SWAP1 PUSH2 0x550 SWAP2 SWAP1 PUSH2 0x1D87 JUMP JUMPDEST PUSH2 0xC2F JUMP JUMPDEST PUSH1 0x40 MLOAD PUSH2 0x562 SWAP2 SWAP1 PUSH2 0x1CB0 JUMP JUMPDEST PUSH1 0x40 MLOAD DUP1 SWAP2 SUB SWAP1 RETURN JUMPDEST PUSH2 0x585 PUSH1 0x4 DUP1 CALLDATASIZE SUB DUP2 ADD SWAP1 PUSH2 0x580 SWAP2 SWAP1 PUSH2 0x1F29 JUMP JUMPDEST PUSH2 0xC41 JUMP JUMPDEST PUSH1 0x40 MLOAD PUSH2 0x592 SWAP2 SWAP1 PUSH2 0x1CB0 JUMP JUMPDEST PUSH1 0x40 MLOAD DUP1 SWAP2 SUB SWAP1 RETURN JUMPDEST PUSH2 0x5B5 PUSH1 0x4 DUP1 CALLDATASIZE SUB DUP2 ADD SWAP1 PUSH2 0x5B0 SWAP2 SWAP1 PUSH2 0x1F29 JUMP JUMPDEST PUSH2 0xC5B JUMP JUMPDEST PUSH1 0x40 MLOAD PUSH2 0x5C2 SWAP2 SWAP1 PUSH2 0x1CB0 JUMP JUMPDEST PUSH1 0x40 MLOAD DUP1 SWAP2 SUB SWAP1 RETURN JUMPDEST PUSH2 0x5E5 PUSH1 0x4 DUP1 CALLDATASIZE SUB DUP2 ADD SWAP1 PUSH2 0x5E0 SWAP2 SWAP1 PUSH2 0x201B JUMP JUMPDEST PUSH2 0xC6C JUMP JUMPDEST PUSH1 0x40 MLOAD PUSH2 0x5F2 SWAP2 SWAP1 PUSH2 0x1CB0 JUMP JUMPDEST PUSH1 0x40 MLOAD DUP1 SWAP2 SUB SWAP1 RETURN JUMPDEST PUSH2 0x615 PUSH1 0x4 DUP1 CALLDATASIZE SUB DUP2 ADD SWAP1 PUSH2 0x610 SWAP2 SWAP1 PUSH2 0x1D87 JUMP JUMPDEST PUSH2 0xCEE JUMP JUMPDEST PUSH1 0x40 MLOAD PUSH2 0x622 SWAP2 SWAP1 PUSH2 0x1CB0 JUMP JUMPDEST PUSH1 0x40 MLOAD DUP1 SWAP2 SUB SWAP1 RETURN JUMPDEST PUSH0 PUSH32 0x0 PUSH20 0xFFFFFFFFFFFFFFFFFFFFFFFFFFFFFFFFFFFFFFFF AND PUSH4 0x70A08231 ADDRESS PUSH1 0x40 MLOAD DUP3 PUSH4 0xFFFFFFFF AND PUSH1 0xE0 SHL DUP2 MSTORE PUSH1 0x4 ADD PUSH2 0x685 SWAP2 SWAP1 PUSH2 0x1F10 JUMP JUMPDEST PUSH1 0x20 PUSH1 0x40 MLOAD DUP1 DUP4 SUB DUP2 DUP7 GAS STATICCALL ISZERO DUP1 ISZERO PUSH2 0x6A0 JUMPI RETURNDATASIZE PUSH0 DUP1 RETURNDATACOPY RETURNDATASIZE PUSH0 REVERT JUMPDEST POP POP POP POP PUSH1 0x40 MLOAD RETURNDATASIZE PUSH1 0x1F NOT PUSH1 0x1F DUP3 ADD AND DUP3 ADD DUP1 PUSH1 0x40 MSTORE POP DUP2 ADD SWAP1 PUSH2 0x6C4 SWAP2 SWAP1 PUSH2 0x206D JUMP JUMPDEST SWAP1 POP SWAP1 JUMP JUMPDEST PUSH1 0x60 PUSH1 0x3 DUP1 SLOAD PUSH2 0x6D8 SWAP1 PUSH2 0x20C5 JUMP JUMPDEST DUP1 PUSH1 0x1F ADD PUSH1 0x20 DUP1 SWAP2 DIV MUL PUSH1 0x20 ADD PUSH1 0x40 MLOAD SWAP1 DUP2 ADD PUSH1 0x40 MSTORE DUP1 SWAP3 SWAP2 SWAP1 DUP2 DUP2 MSTORE PUSH1 0x20 ADD DUP3 DUP1 SLOAD PUSH2 0x704 SWAP1 PUSH2 0x20C5 JUMP JUMPDEST DUP1 ISZERO PUSH2 0x74F JUMPI DUP1 PUSH1 0x1F LT PUSH2 0x726 JUMPI PUSH2 0x100 DUP1 DUP4 SLOAD DIV MUL DUP4 MSTORE SWAP2 PUSH1 0x20 ADD SWAP2 PUSH2 0x74F JUMP JUMPDEST DUP3 ADD SWAP2 SWAP1 PUSH0 MSTORE PUSH1 0x20 PUSH0 KECCAK256 SWAP1 JUMPDEST DUP2 SLOAD DUP2 MSTORE SWAP1 PUSH1 0x1 ADD SWAP1 PUSH1 0x20 ADD DUP1 DUP4 GT PUSH2 0x732 JUMPI DUP3 SWAP1 SUB PUSH1 0x1F AND DUP3 ADD SWAP2 JUMPDEST POP POP POP POP POP SWAP1 POP SWAP1 JUMP JUMPDEST PUSH0 PUSH2 0x764 DUP3 PUSH0 PUSH2 0xD1F JUMP JUMPDEST SWAP1 POP SWAP2 SWAP1 POP JUMP JUMPDEST PUSH0 DUP1 PUSH2 0x775 PUSH2 0xD77 JUMP JUMPDEST SWAP1 POP PUSH2 0x782 DUP2 DUP6 DUP6 PUSH2 0xD7E JUMP JUMPDEST PUSH1 0x1 SWAP2 POP POP SWAP3 SWAP2 POP POP JUMP JUMPDEST PUSH0 DUP1 PUSH2 0x7A0 DUP4 PUSH2 0x79B PUSH2 0xD90 JUMP JUMPDEST PUSH2 0xD94 JUMP JUMPDEST SWAP1 POP PUSH2 0x7B6 DUP2 DUP5 PUSH2 0x7B1 SWAP2 SWAP1 PUSH2 0x2122 JUMP JUMPDEST PUSH2 0xDB7 JUMP JUMPDEST SWAP2 POP POP SWAP2 SWAP1 POP JUMP JUMPDEST PUSH0 PUSH1 0x2 SLOAD SWAP1 POP SWAP1 JUMP JUMPDEST PUSH0 DUP1 PUSH2 0x7D1 PUSH2 0xD77 JUMP JUMPDEST SWAP1 POP PUSH2 0x7DE DUP6 DUP3 DUP6 PUSH2 0xDCA JUMP JUMPDEST PUSH2 0x7E9 DUP6 DUP6 DUP6 PUSH2 0xE5C JUMP JUMPDEST PUSH1 0x1 SWAP2 POP POP SWAP4 SWAP3 POP POP POP JUMP JUMPDEST PUSH0 PUSH2 0x7FE PUSH2 0xF4C JUMP JUMPDEST PUSH32 0x0 PUSH2 0x829 SWAP2 SWAP1 PUSH2 0x2155 JUMP JUMPDEST SWAP1 POP SWAP1 JUMP JUMPDEST PUSH0 PUSH32 0x0 SWAP1 POP SWAP1 JUMP JUMPDEST PUSH0 PUSH32 0xFFFFFFFFFFFFFFFFFFFFFFFFFFFFFFFFFFFFFFFFFFFFFFFFFFFFFFFFFFFFFFFF SWAP1 POP SWAP2 SWAP1 POP JUMP JUMPDEST PUSH0 DUP1 PUSH2 0x889 DUP4 PUSH2 0xF50 JUMP JUMPDEST SWAP1 POP PUSH2 0x89C DUP2 PUSH2 0x897 PUSH2 0xD90 JUMP JUMPDEST PUSH2 0xF62 JUMP JUMPDEST DUP2 PUSH2 0x8A7 SWAP2 SWAP1 PUSH2 0x2189 JUMP JUMPDEST SWAP2 POP POP SWAP2 SWAP1 POP JUMP JUMPDEST PUSH0 DUP1 PUSH2 0x8BA DUP4 PUSH2 0x855 JUMP JUMPDEST SWAP1 POP DUP1 DUP5 GT ISZERO PUSH2 0x905 JUMPI DUP3 DUP5 DUP3 PUSH1 0x40 MLOAD PUSH32 0x79012FB200000000000000000000000000000000000000000000000000000000 DUP2 MSTORE PUSH1 0x4 ADD PUSH2 0x8FC SWAP4 SWAP3 SWAP2 SWAP1 PUSH2 0x21BC JUMP JUMPDEST PUSH1 0x40 MLOAD DUP1 SWAP2 SUB SWAP1 REVERT JUMPDEST PUSH0 PUSH2 0x90F DUP6 PUSH2 0xCEE JUMP JUMPDEST SWAP1 POP PUSH2 0x924 PUSH2 0x91C PUSH2 0xD77 JUMP JUMPDEST DUP6 DUP8 DUP5 PUSH2 0xF90 JUMP JUMPDEST DUP1 SWAP3 POP POP POP SWAP3 SWAP2 POP POP JUMP JUMPDEST PUSH0 DUP1 PUSH0 DUP4 PUSH20 0xFFFFFFFFFFFFFFFFFFFFFFFFFFFFFFFFFFFFFFFF AND PUSH20 0xFFFFFFFFFFFFFFFFFFFFFFFFFFFFFFFFFFFFFFFF AND DUP2 MSTORE PUSH1 0x20 ADD SWAP1 DUP2 MSTORE PUSH1 0x20 ADD PUSH0 KECCAK256 SLOAD SWAP1 POP SWAP2 SWAP1 POP JUMP JUMPDEST PUSH1 0x5 PUSH0 SWAP1 SLOAD SWAP1 PUSH2 0x100 EXP SWAP1 DIV PUSH20 0xFFFFFFFFFFFFFFFFFFFFFFFFFFFFFFFFFFFFFFFF AND DUP2 JUMP JUMPDEST PUSH0 DUP1 PUSH2 0x9A4 DUP4 PUSH2 0xC06 JUMP JUMPDEST SWAP1 POP DUP1 DUP5 GT ISZERO PUSH2 0x9EF JUMPI DUP3 DUP5 DUP3 PUSH1 0x40 MLOAD PUSH32 0x284FF66700000000000000000000000000000000000000000000000000000000 DUP2 MSTORE PUSH1 0x4 ADD PUSH2 0x9E6 SWAP4 SWAP3 SWAP2 SWAP1 PUSH2 0x21BC JUMP JUMPDEST PUSH1 0x40 MLOAD DUP1 SWAP2 SUB SWAP1 REVERT JUMPDEST PUSH0 PUSH2 0x9F9 DUP6 PUSH2 0xACB JUMP JUMPDEST SWAP1 POP PUSH2 0xA0E PUSH2 0xA06 PUSH2 0xD77 JUMP JUMPDEST DUP6 DUP4 DUP9 PUSH2 0xF90 JUMP JUMPDEST DUP1 SWAP3 POP POP POP SWAP3 SWAP2 POP POP JUMP JUMPDEST PUSH1 0x60 PUSH1 0x4 DUP1 SLOAD PUSH2 0xA28 SWAP1 PUSH2 0x20C5 JUMP JUMPDEST DUP1 PUSH1 0x1F ADD PUSH1 0x20 DUP1 SWAP2 DIV MUL PUSH1 0x20 ADD PUSH1 0x40 MLOAD SWAP1 DUP2 ADD PUSH1 0x40 MSTORE DUP1 SWAP3 SWAP2 SWAP1 DUP2 DUP2 MSTORE PUSH1 0x20 ADD DUP3 DUP1 SLOAD PUSH2 0xA54 SWAP1 PUSH2 0x20C5 JUMP JUMPDEST DUP1 ISZERO PUSH2 0xA9F JUMPI DUP1 PUSH1 0x1F LT PUSH2 0xA76 JUMPI PUSH2 0x100 DUP1 DUP4 SLOAD DIV MUL DUP4 MSTORE SWAP2 PUSH1 0x20 ADD SWAP2 PUSH2 0xA9F JUMP JUMPDEST DUP3 ADD SWAP2 SWAP1 PUSH0 MSTORE PUSH1 0x20 PUSH0 KECCAK256 SWAP1 JUMPDEST DUP2 SLOAD DUP2 MSTORE SWAP1 PUSH1 0x1 ADD SWAP1 PUSH1 0x20 ADD DUP1 DUP4 GT PUSH2 0xA82 JUMPI DUP3 SWAP1 SUB PUSH1 0x1F AND DUP3 ADD SWAP2 JUMPDEST POP POP POP POP POP SWAP1 POP SWAP1 JUMP JUMPDEST PUSH0 DUP1 PUSH2 0xAB3 PUSH2 0xD77 JUMP JUMPDEST SWAP1 POP PUSH2 0xAC0 DUP2 DUP6 DUP6 PUSH2 0xE5C JUMP JUMPDEST PUSH1 0x1 SWAP2 POP POP SWAP3 SWAP2 POP POP JUMP JUMPDEST PUSH0 DUP1 PUSH2 0xAD6 DUP4 PUSH2 0x1016 JUMP JUMPDEST SWAP1 POP PUSH2 0xAE9 DUP2 PUSH2 0xAE4 PUSH2 0x1029 JUMP JUMPDEST PUSH2 0xD94 JUMP JUMPDEST DUP2 PUSH2 0xAF4 SWAP2 SWAP1 PUSH2 0x2122 JUMP JUMPDEST SWAP2 POP POP SWAP2 SWAP1 POP JUMP JUMPDEST PUSH0 DUP1 PUSH2 0xB07 DUP4 PUSH2 0xC41 JUMP JUMPDEST SWAP1 POP DUP1 DUP6 GT ISZERO PUSH2 0xB52 JUMPI DUP3 DUP6 DUP3 PUSH1 0x40 MLOAD PUSH32 0xFE9CCEEC00000000000000000000000000000000000000000000000000000000 DUP2 MSTORE PUSH1 0x4 ADD PUSH2 0xB49 SWAP4 SWAP3 SWAP2 SWAP1 PUSH2 0x21BC JUMP JUMPDEST PUSH1 0x40 MLOAD DUP1 SWAP2 SUB SWAP1 REVERT JUMPDEST PUSH0 PUSH2 0xB5C DUP7 PUSH2 0x78D JUMP JUMPDEST SWAP1 POP PUSH2 0xB72 PUSH2 0xB69 PUSH2 0xD77 JUMP JUMPDEST DUP7 DUP7 DUP10 DUP6 PUSH2 0x1032 JUMP JUMPDEST DUP1 SWAP3 POP POP POP SWAP4 SWAP3 POP POP POP JUMP JUMPDEST PUSH0 DUP1 PUSH2 0xB89 DUP4 PUSH2 0xC5B JUMP JUMPDEST SWAP1 POP DUP1 DUP6 GT ISZERO PUSH2 0xBD4 JUMPI DUP3 DUP6 DUP3 PUSH1 0x40 MLOAD PUSH32 0xB94ABEEC00000000000000000000000000000000000000000000000000000000 DUP2 MSTORE PUSH1 0x4 ADD PUSH2 0xBCB SWAP4 SWAP3 SWAP2 SWAP1 PUSH2 0x21BC JUMP JUMPDEST PUSH1 0x40 MLOAD DUP1 SWAP2 SUB SWAP1 REVERT JUMPDEST PUSH0 PUSH2 0xBDE DUP7 PUSH2 0x87E JUMP JUMPDEST SWAP1 POP PUSH2 0xBF4 PUSH2 0xBEB PUSH2 0xD77 JUMP JUMPDEST DUP7 DUP7 DUP5 DUP11 PUSH2 0x1032 JUMP JUMPDEST DUP1 SWAP3 POP POP POP SWAP4 SWAP3 POP POP POP JUMP JUMPDEST PUSH1 0x6 SLOAD DUP2 JUMP JUMPDEST PUSH0 PUSH32 0xFFFFFFFFFFFFFFFFFFFFFFFFFFFFFFFFFFFFFFFFFFFFFFFFFFFFFFFFFFFFFFFF SWAP1 POP SWAP2 SWAP1 POP JUMP JUMPDEST PUSH0 PUSH2 0xC3A DUP3 PUSH0 PUSH2 0x10BA JUMP JUMPDEST SWAP1 POP SWAP2 SWAP1 POP JUMP JUMPDEST PUSH0 PUSH2 0xC54 PUSH2 0xC4E DUP4 PUSH2 0x92F JUMP JUMPDEST PUSH0 PUSH2 0xD1F JUMP JUMPDEST SWAP1 POP SWAP2 SWAP1 POP JUMP JUMPDEST PUSH0 PUSH2 0xC65 DUP3 PUSH2 0x92F JUMP JUMPDEST SWAP1 POP SWAP2 SWAP1 POP JUMP JUMPDEST PUSH0 PUSH1 0x1 PUSH0 DUP5 PUSH20 0xFFFFFFFFFFFFFFFFFFFFFFFFFFFFFFFFFFFFFFFF AND PUSH20 0xFFFFFFFFFFFFFFFFFFFFFFFFFFFFFFFFFFFFFFFF AND DUP2 MSTORE PUSH1 0x20 ADD SWAP1 DUP2 MSTORE PUSH1 0x20 ADD PUSH0 KECCAK256 PUSH0 DUP4 PUSH20 0xFFFFFFFFFFFFFFFFFFFFFFFFFFFFFFFFFFFFFFFF AND PUSH20 0xFFFFFFFFFFFFFFFFFFFFFFFFFFFFFFFFFFFFFFFF AND DUP2 MSTORE PUSH1 0x20 ADD SWAP1 DUP2 MSTORE PUSH1 0x20 ADD PUSH0 KECCAK256 SLOAD SWAP1 POP SWAP3 SWAP2 POP POP JUMP JUMPDEST PUSH0 DUP1 PUSH2 0xD01 DUP4 PUSH2 0xCFC PUSH2 0x1029 JUMP JUMPDEST PUSH2 0xF62 JUMP JUMPDEST SWAP1 POP PUSH2 0xD17 DUP2 DUP5 PUSH2 0xD12 SWAP2 SWAP1 PUSH2 0x2189 JUMP JUMPDEST PUSH2 0x1112 JUMP JUMPDEST SWAP2 POP POP SWAP2 SWAP1 POP JUMP JUMPDEST PUSH0 PUSH2 0xD6F PUSH1 0x1 PUSH2 0xD2D PUSH2 0x62B JUMP JUMPDEST PUSH2 0xD37 SWAP2 SWAP1 PUSH2 0x2122 JUMP JUMPDEST PUSH2 0xD3F PUSH2 0xF4C JUMP JUMPDEST PUSH1 0xA PUSH2 0xD4B SWAP2 SWAP1 PUSH2 0x2320 JUMP JUMPDEST PUSH2 0xD53 PUSH2 0x7BE JUMP JUMPDEST PUSH2 0xD5D SWAP2 SWAP1 PUSH2 0x2122 JUMP JUMPDEST DUP5 DUP7 PUSH2 0x1124 SWAP1 SWAP4 SWAP3 SWAP2 SWAP1 PUSH4 0xFFFFFFFF AND JUMP JUMPDEST SWAP1 POP SWAP3 SWAP2 POP POP JUMP JUMPDEST PUSH0 CALLER SWAP1 POP SWAP1 JUMP JUMPDEST PUSH2 0xD8B DUP4 DUP4 DUP4 PUSH1 0x1 PUSH2 0x1179 JUMP JUMPDEST POP POP POP JUMP JUMPDEST PUSH0 SWAP1 JUMP JUMPDEST PUSH0 PUSH2 0xDAF DUP3 PUSH2 0x2710 PUSH1 0x1 DUP7 PUSH2 0x1124 SWAP1 SWAP4 SWAP3 SWAP2 SWAP1 PUSH4 0xFFFFFFFF AND JUMP JUMPDEST SWAP1 POP SWAP3 SWAP2 POP POP JUMP JUMPDEST PUSH0 PUSH2 0xDC3 DUP3 PUSH1 0x1 PUSH2 0x10BA JUMP JUMPDEST SWAP1 POP SWAP2 SWAP1 POP JUMP JUMPDEST PUSH0 PUSH2 0xDD5 DUP5 DUP5 PUSH2 0xC6C JUMP JUMPDEST SWAP1 POP PUSH32 0xFFFFFFFFFFFFFFFFFFFFFFFFFFFFFFFFFFFFFFFFFFFFFFFFFFFFFFFFFFFFFFFF DUP2 EQ PUSH2 0xE56 JUMPI DUP2 DUP2 LT ISZERO PUSH2 0xE47 JUMPI DUP3 DUP2 DUP4 PUSH1 0x40 MLOAD PUSH32 0xFB8F41B200000000000000000000000000000000000000000000000000000000 DUP2 MSTORE PUSH1 0x4 ADD PUSH2 0xE3E SWAP4 SWAP3 SWAP2 SWAP1 PUSH2 0x21BC JUMP JUMPDEST PUSH1 0x40 MLOAD DUP1 SWAP2 SUB SWAP1 REVERT JUMPDEST PUSH2 0xE55 DUP5 DUP5 DUP5 DUP5 SUB PUSH0 PUSH2 0x1179 JUMP JUMPDEST JUMPDEST POP POP POP POP JUMP JUMPDEST PUSH0 PUSH20 0xFFFFFFFFFFFFFFFFFFFFFFFFFFFFFFFFFFFFFFFF AND DUP4 PUSH20 0xFFFFFFFFFFFFFFFFFFFFFFFFFFFFFFFFFFFFFFFF AND SUB PUSH2 0xECC JUMPI PUSH0 PUSH1 0x40 MLOAD PUSH32 0x96C6FD1E00000000000000000000000000000000000000000000000000000000 DUP2 MSTORE PUSH1 0x4 ADD PUSH2 0xEC3 SWAP2 SWAP1 PUSH2 0x1F10 JUMP JUMPDEST PUSH1 0x40 MLOAD DUP1 SWAP2 SUB SWAP1 REVERT JUMPDEST PUSH0 PUSH20 0xFFFFFFFFFFFFFFFFFFFFFFFFFFFFFFFFFFFFFFFF AND DUP3 PUSH20 0xFFFFFFFFFFFFFFFFFFFFFFFFFFFFFFFFFFFFFFFF AND SUB PUSH2 0xF3C JUMPI PUSH0 PUSH1 0x40 MLOAD PUSH32 0xEC442F0500000000000000000000000000000000000000000000000000000000 DUP2 MSTORE PUSH1 0x4 ADD PUSH2 0xF33 SWAP2 SWAP1 PUSH2 0x1F10 JUMP JUMPDEST PUSH1 0x40 MLOAD DUP1 SWAP2 SUB SWAP1 REVERT JUMPDEST PUSH2 0xF47 DUP4 DUP4 DUP4 PUSH2 0x1348 JUMP JUMPDEST POP POP POP JUMP JUMPDEST PUSH0 SWAP1 JUMP JUMPDEST PUSH0 PUSH2 0xF5B DUP3 PUSH0 PUSH2 0xD1F JUMP JUMPDEST SWAP1 POP SWAP2 SWAP1 POP JUMP JUMPDEST PUSH0 PUSH2 0xF88 DUP3 PUSH2 0x2710 DUP5 PUSH2 0xF75 SWAP2 SWAP1 PUSH2 0x2122 JUMP JUMPDEST PUSH1 0x1 DUP7 PUSH2 0x1124 SWAP1 SWAP4 SWAP3 SWAP2 SWAP1 PUSH4 0xFFFFFFFF AND JUMP JUMPDEST SWAP1 POP SWAP3 SWAP2 POP POP JUMP JUMPDEST PUSH0 PUSH2 0xFA2 DUP4 PUSH2 0xF9D PUSH2 0x1029 JUMP JUMPDEST PUSH2 0xF62 JUMP JUMPDEST SWAP1 POP PUSH0 PUSH2 0xFAD PUSH2 0x1561 JUMP JUMPDEST SWAP1 POP PUSH2 0xFBB DUP7 DUP7 DUP7 DUP7 PUSH2 0x1589 JUMP JUMPDEST PUSH0 DUP3 GT DUP1 ISZERO PUSH2 0xFF6 JUMPI POP ADDRESS PUSH20 0xFFFFFFFFFFFFFFFFFFFFFFFFFFFFFFFFFFFFFFFF AND DUP2 PUSH20 0xFFFFFFFFFFFFFFFFFFFFFFFFFFFFFFFFFFFFFFFF AND EQ ISZERO JUMPDEST ISZERO PUSH2 0x100E JUMPI PUSH2 0x100D PUSH2 0x1006 PUSH2 0x82E JUMP JUMPDEST DUP3 DUP5 PUSH2 0x162C JUMP JUMPDEST JUMPDEST POP POP POP POP POP POP JUMP JUMPDEST PUSH0 PUSH2 0x1022 DUP3 PUSH1 0x1 PUSH2 0xD1F JUMP JUMPDEST SWAP1 POP SWAP2 SWAP1 POP JUMP JUMPDEST PUSH0 PUSH1 0x6 SLOAD SWAP1 POP SWAP1 JUMP JUMPDEST PUSH0 PUSH2 0x1044 DUP4 PUSH2 0x103F PUSH2 0xD90 JUMP JUMPDEST PUSH2 0xD94 JUMP JUMPDEST SWAP1 POP PUSH0 PUSH2 0x104F PUSH2 0x16AB JUMP JUMPDEST SWAP1 POP PUSH2 0x105E DUP8 DUP8 DUP8 DUP8 DUP8 PUSH2 0x16AF JUMP JUMPDEST PUSH0 DUP3 GT DUP1 ISZERO PUSH2 0x1099 JUMPI POP ADDRESS PUSH20 0xFFFFFFFFFFFFFFFFFFFFFFFFFFFFFFFFFFFFFFFF AND DUP2 PUSH20 0xFFFFFFFFFFFFFFFFFFFFFFFFFFFFFFFFFFFFFFFF AND EQ ISZERO JUMPDEST ISZERO PUSH2 0x10B1 JUMPI PUSH2 0x10B0 PUSH2 0x10A9 PUSH2 0x82E JUMP JUMPDEST DUP3 DUP5 PUSH2 0x162C JUMP JUMPDEST JUMPDEST POP POP POP POP POP POP POP JUMP JUMPDEST PUSH0 PUSH2 0x110A PUSH2 0x10C6 PUSH2 0xF4C JUMP JUMPDEST PUSH1 0xA PUSH2 0x10D2 SWAP2 SWAP1 PUSH2 0x2320 JUMP JUMPDEST PUSH2 0x10DA PUSH2 0x7BE JUMP JUMPDEST PUSH2 0x10E4 SWAP2 SWAP1 PUSH2 0x2122 JUMP JUMPDEST PUSH1 0x1 PUSH2 0x10EE PUSH2 0x62B JUMP JUMPDEST PUSH2 0x10F8 SWAP2 SWAP1 PUSH2 0x2122 JUMP JUMPDEST DUP5 DUP7 PUSH2 0x1124 SWAP1 SWAP4 SWAP3 SWAP2 SWAP1 PUSH4 0xFFFFFFFF AND JUMP JUMPDEST SWAP1 POP SWAP3 SWAP2 POP POP JUMP JUMPDEST PUSH0 PUSH2 0x111D DUP3 PUSH0 PUSH2 0x10BA JUMP JUMPDEST SWAP1 POP SWAP2 SWAP1 POP JUMP JUMPDEST PUSH0 DUP1 PUSH2 0x1131 DUP7 DUP7 DUP7 PUSH2 0x17A8 JUMP JUMPDEST SWAP1 POP PUSH2 0x113C DUP4 PUSH2 0x18A7 JUMP JUMPDEST DUP1 ISZERO PUSH2 0x1158 JUMPI POP PUSH0 DUP5 DUP1 PUSH2 0x1153 JUMPI PUSH2 0x1152 PUSH2 0x236A JUMP JUMPDEST JUMPDEST DUP7 DUP9 MULMOD GT JUMPDEST ISZERO PUSH2 0x116D JUMPI PUSH1 0x1 DUP2 PUSH2 0x116A SWAP2 SWAP1 PUSH2 0x2122 JUMP JUMPDEST SWAP1 POP JUMPDEST DUP1 SWAP2 POP POP SWAP5 SWAP4 POP POP POP POP JUMP JUMPDEST PUSH0 PUSH20 0xFFFFFFFFFFFFFFFFFFFFFFFFFFFFFFFFFFFFFFFF AND DUP5 PUSH20 0xFFFFFFFFFFFFFFFFFFFFFFFFFFFFFFFFFFFFFFFF AND SUB PUSH2 0x11E9 JUMPI PUSH0 PUSH1 0x40 MLOAD PUSH32 0xE602DF0500000000000000000000000000000000000000000000000000000000 DUP2 MSTORE PUSH1 0x4 ADD PUSH2 0x11E0 SWAP2 SWAP1 PUSH2 0x1F10 JUMP JUMPDEST PUSH1 0x40 MLOAD DUP1 SWAP2 SUB SWAP1 REVERT JUMPDEST PUSH0 PUSH20 0xFFFFFFFFFFFFFFFFFFFFFFFFFFFFFFFFFFFFFFFF AND DUP4 PUSH20 0xFFFFFFFFFFFFFFFFFFFFFFFFFFFFFFFFFFFFFFFF AND SUB PUSH2 0x1259 JUMPI PUSH0 PUSH1 0x40 MLOAD PUSH32 0x94280D6200000000000000000000000000000000000000000000000000000000 DUP2 MSTORE PUSH1 0x4 ADD PUSH2 0x1250 SWAP2 SWAP1 PUSH2 0x1F10 JUMP JUMPDEST PUSH1 0x40 MLOAD DUP1 SWAP2 SUB SWAP1 REVERT JUMPDEST DUP2 PUSH1 0x1 PUSH0 DUP7 PUSH20 0xFFFFFFFFFFFFFFFFFFFFFFFFFFFFFFFFFFFFFFFF AND PUSH20 0xFFFFFFFFFFFFFFFFFFFFFFFFFFFFFFFFFFFFFFFF AND DUP2 MSTORE PUSH1 0x20 ADD SWAP1 DUP2 MSTORE PUSH1 0x20 ADD PUSH0 KECCAK256 PUSH0 DUP6 PUSH20 0xFFFFFFFFFFFFFFFFFFFFFFFFFFFFFFFFFFFFFFFF AND PUSH20 0xFFFFFFFFFFFFFFFFFFFFFFFFFFFFFFFFFFFFFFFF AND DUP2 MSTORE PUSH1 0x20 ADD SWAP1 DUP2 MSTORE PUSH1 0x20 ADD PUSH0 KECCAK256 DUP2 SWAP1 SSTORE POP DUP1 ISZERO PUSH2 0x1342 JUMPI DUP3 PUSH20 0xFFFFFFFFFFFFFFFFFFFFFFFFFFFFFFFFFFFFFFFF AND DUP5 PUSH20 0xFFFFFFFFFFFFFFFFFFFFFFFFFFFFFFFFFFFFFFFF AND PUSH32 0x8C5BE1E5EBEC7D5BD14F71427D1E84F3DD0314C0F7B2291E5B200AC8C7C3B925 DUP5 PUSH1 0x40 MLOAD PUSH2 0x1339 SWAP2 SWAP1 PUSH2 0x1CB0 JUMP JUMPDEST PUSH1 0x40 MLOAD DUP1 SWAP2 SUB SWAP1 LOG3 JUMPDEST POP POP POP POP JUMP JUMPDEST PUSH0 PUSH20 0xFFFFFFFFFFFFFFFFFFFFFFFFFFFFFFFFFFFFFFFF AND DUP4 PUSH20 0xFFFFFFFFFFFFFFFFFFFFFFFFFFFFFFFFFFFFFFFF AND SUB PUSH2 0x1398 JUMPI DUP1 PUSH1 0x2 PUSH0 DUP3 DUP3 SLOAD PUSH2 0x138C SWAP2 SWAP1 PUSH2 0x2122 JUMP JUMPDEST SWAP3 POP POP DUP2 SWAP1 SSTORE POP PUSH2 0x1466 JUMP JUMPDEST PUSH0 DUP1 PUSH0 DUP6 PUSH20 0xFFFFFFFFFFFFFFFFFFFFFFFFFFFFFFFFFFFFFFFF AND PUSH20 0xFFFFFFFFFFFFFFFFFFFFFFFFFFFFFFFFFFFFFFFF AND DUP2 MSTORE PUSH1 0x20 ADD SWAP1 DUP2 MSTORE PUSH1 0x20 ADD PUSH0 KECCAK256 SLOAD SWAP1 POP DUP2 DUP2 LT ISZERO PUSH2 0x1421 JUMPI DUP4 DUP2 DUP4 PUSH1 0x40 MLOAD PUSH32 0xE450D38C00000000000000000000000000000000000000000000000000000000 DUP2 MSTORE PUSH1 0x4 ADD PUSH2 0x1418 SWAP4 SWAP3 SWAP2 SWAP1 PUSH2 0x21BC JUMP JUMPDEST PUSH1 0x40 MLOAD DUP1 SWAP2 SUB SWAP1 REVERT JUMPDEST DUP2 DUP2 SUB PUSH0 DUP1 DUP7 PUSH20 0xFFFFFFFFFFFFFFFFFFFFFFFFFFFFFFFFFFFFFFFF AND PUSH20 0xFFFFFFFFFFFFFFFFFFFFFFFFFFFFFFFFFFFFFFFF AND DUP2 MSTORE PUSH1 0x20 ADD SWAP1 DUP2 MSTORE PUSH1 0x20 ADD PUSH0 KECCAK256 DUP2 SWAP1 SSTORE POP POP JUMPDEST PUSH0 PUSH20 0xFFFFFFFFFFFFFFFFFFFFFFFFFFFFFFFFFFFFFFFF AND DUP3 PUSH20 0xFFFFFFFFFFFFFFFFFFFFFFFFFFFFFFFFFFFFFFFF AND SUB PUSH2 0x14AD JUMPI DUP1 PUSH1 0x2 PUSH0 DUP3 DUP3 SLOAD SUB SWAP3 POP POP DUP2 SWAP1 SSTORE POP PUSH2 0x14F7 JUMP JUMPDEST DUP1 PUSH0 DUP1 DUP5 PUSH20 0xFFFFFFFFFFFFFFFFFFFFFFFFFFFFFFFFFFFFFFFF AND PUSH20 0xFFFFFFFFFFFFFFFFFFFFFFFFFFFFFFFFFFFFFFFF AND DUP2 MSTORE PUSH1 0x20 ADD SWAP1 DUP2 MSTORE PUSH1 0x20 ADD PUSH0 KECCAK256 PUSH0 DUP3 DUP3 SLOAD ADD SWAP3 POP POP DUP2 SWAP1 SSTORE POP JUMPDEST DUP2 PUSH20 0xFFFFFFFFFFFFFFFFFFFFFFFFFFFFFFFFFFFFFFFF AND DUP4 PUSH20 0xFFFFFFFFFFFFFFFFFFFFFFFFFFFFFFFFFFFFFFFF AND PUSH32 0xDDF252AD1BE2C89B69C2B068FC378DAA952BA7F163C4A11628F55A4DF523B3EF DUP4 PUSH1 0x40 MLOAD PUSH2 0x1554 SWAP2 SWAP1 PUSH2 0x1CB0 JUMP JUMPDEST PUSH1 0x40 MLOAD DUP1 SWAP2 SUB SWAP1 LOG3 POP POP POP JUMP JUMPDEST PUSH0 PUSH1 0x5 PUSH0 SWAP1 SLOAD SWAP1 PUSH2 0x100 EXP SWAP1 DIV PUSH20 0xFFFFFFFFFFFFFFFFFFFFFFFFFFFFFFFFFFFFFFFF AND SWAP1 POP SWAP1 JUMP JUMPDEST PUSH2 0x15B5 PUSH32 0x0 DUP6 ADDRESS DUP6 PUSH2 0x18D4 JUMP JUMPDEST PUSH2 0x15BF DUP4 DUP3 PUSH2 0x1956 JUMP JUMPDEST DUP3 PUSH20 0xFFFFFFFFFFFFFFFFFFFFFFFFFFFFFFFFFFFFFFFF AND DUP5 PUSH20 0xFFFFFFFFFFFFFFFFFFFFFFFFFFFFFFFFFFFFFFFF AND PUSH32 0xDCBC1C05240F31FF3AD067EF1EE35CE4997762752E3A095284754544F4C709D7 DUP5 DUP5 PUSH1 0x40 MLOAD PUSH2 0x161E SWAP3 SWAP2 SWAP1 PUSH2 0x2397 JUMP JUMPDEST PUSH1 0x40 MLOAD DUP1 SWAP2 SUB SWAP1 LOG3 POP POP POP POP JUMP JUMPDEST PUSH2 0x16A6 DUP4 DUP5 PUSH20 0xFFFFFFFFFFFFFFFFFFFFFFFFFFFFFFFFFFFFFFFF AND PUSH4 0xA9059CBB DUP6 DUP6 PUSH1 0x40 MLOAD PUSH1 0x24 ADD PUSH2 0x165F SWAP3 SWAP2 SWAP1 PUSH2 0x23BE JUMP JUMPDEST PUSH1 0x40 MLOAD PUSH1 0x20 DUP2 DUP4 SUB SUB DUP2 MSTORE SWAP1 PUSH1 0x40 MSTORE SWAP2 POP PUSH1 0xE0 SHL PUSH1 0x20 DUP3 ADD DUP1 MLOAD PUSH28 0xFFFFFFFFFFFFFFFFFFFFFFFFFFFFFFFFFFFFFFFFFFFFFFFFFFFFFFFF DUP4 DUP2 DUP4 AND OR DUP4 MSTORE POP POP POP POP PUSH2 0x19D5 JUMP JUMPDEST POP POP POP JUMP JUMPDEST PUSH0 SWAP1 JUMP JUMPDEST DUP3 PUSH20 0xFFFFFFFFFFFFFFFFFFFFFFFFFFFFFFFFFFFFFFFF AND DUP6 PUSH20 0xFFFFFFFFFFFFFFFFFFFFFFFFFFFFFFFFFFFFFFFF AND EQ PUSH2 0x16EE JUMPI PUSH2 0x16ED DUP4 DUP7 DUP4 PUSH2 0xDCA JUMP JUMPDEST JUMPDEST PUSH2 0x16F8 DUP4 DUP3 PUSH2 0x1A6A JUMP JUMPDEST PUSH2 0x1723 PUSH32 0x0 DUP6 DUP5 PUSH2 0x162C JUMP JUMPDEST DUP3 PUSH20 0xFFFFFFFFFFFFFFFFFFFFFFFFFFFFFFFFFFFFFFFF AND DUP5 PUSH20 0xFFFFFFFFFFFFFFFFFFFFFFFFFFFFFFFFFFFFFFFF AND DUP7 PUSH20 0xFFFFFFFFFFFFFFFFFFFFFFFFFFFFFFFFFFFFFFFF AND PUSH32 0xFBDE797D201C681B91056529119E0B02407C7BB96A4A2C75C01FC9667232C8DB DUP6 DUP6 PUSH1 0x40 MLOAD PUSH2 0x1799 SWAP3 SWAP2 SWAP1 PUSH2 0x2397 JUMP JUMPDEST PUSH1 0x40 MLOAD DUP1 SWAP2 SUB SWAP1 LOG4 POP POP POP POP POP JUMP JUMPDEST PUSH0 DUP1 DUP4 DUP6 MUL SWAP1 POP PUSH0 DUP1 NOT DUP6 DUP8 MULMOD DUP3 DUP2 LT DUP4 DUP3 SUB SUB SWAP2 POP POP PUSH0 DUP2 SUB PUSH2 0x17E0 JUMPI DUP4 DUP3 DUP2 PUSH2 0x17D6 JUMPI PUSH2 0x17D5 PUSH2 0x236A JUMP JUMPDEST JUMPDEST DIV SWAP3 POP POP POP PUSH2 0x18A0 JUMP JUMPDEST DUP1 DUP5 GT PUSH2 0x1819 JUMPI PUSH1 0x40 MLOAD PUSH32 0x227BC15300000000000000000000000000000000000000000000000000000000 DUP2 MSTORE PUSH1 0x4 ADD PUSH1 0x40 MLOAD DUP1 SWAP2 SUB SWAP1 REVERT JUMPDEST PUSH0 DUP5 DUP7 DUP9 MULMOD SWAP1 POP DUP3 DUP2 GT DUP3 SUB SWAP2 POP DUP1 DUP4 SUB SWAP3 POP PUSH0 DUP6 PUSH0 SUB DUP7 AND SWAP1 POP DUP1 DUP7 DIV SWAP6 POP DUP1 DUP5 DIV SWAP4 POP PUSH1 0x1 DUP2 DUP3 PUSH0 SUB DIV ADD SWAP1 POP DUP1 DUP4 MUL DUP5 OR SWAP4 POP PUSH0 PUSH1 0x2 DUP8 PUSH1 0x3 MUL XOR SWAP1 POP DUP1 DUP8 MUL PUSH1 0x2 SUB DUP2 MUL SWAP1 POP DUP1 DUP8 MUL PUSH1 0x2 SUB DUP2 MUL SWAP1 POP DUP1 DUP8 MUL PUSH1 0x2 SUB DUP2 MUL SWAP1 POP DUP1 DUP8 MUL PUSH1 0x2 SUB DUP2 MUL SWAP1 POP DUP1 DUP8 MUL PUSH1 0x2 SUB DUP2 MUL SWAP1 POP DUP1 DUP8 MUL PUSH1 0x2 SUB DUP2 MUL SWAP1 POP DUP1 DUP6 MUL SWAP6 POP POP POP POP POP POP JUMPDEST SWAP4 SWAP3 POP POP POP JUMP JUMPDEST PUSH0 PUSH1 0x1 PUSH1 0x2 DUP4 PUSH1 0x3 DUP2 GT ISZERO PUSH2 0x18BF JUMPI PUSH2 0x18BE PUSH2 0x23E5 JUMP JUMPDEST JUMPDEST PUSH2 0x18C9 SWAP2 SWAP1 PUSH2 0x2412 JUMP JUMPDEST PUSH1 0xFF AND EQ SWAP1 POP SWAP2 SWAP1 POP JUMP JUMPDEST PUSH2 0x1950 DUP5 DUP6 PUSH20 0xFFFFFFFFFFFFFFFFFFFFFFFFFFFFFFFFFFFFFFFF AND PUSH4 0x23B872DD DUP7 DUP7 DUP7 PUSH1 0x40 MLOAD PUSH1 0x24 ADD PUSH2 0x1909 SWAP4 SWAP3 SWAP2 SWAP1 PUSH2 0x2442 JUMP JUMPDEST PUSH1 0x40 MLOAD PUSH1 0x20 DUP2 DUP4 SUB SUB DUP2 MSTORE SWAP1 PUSH1 0x40 MSTORE SWAP2 POP PUSH1 0xE0 SHL PUSH1 0x20 DUP3 ADD DUP1 MLOAD PUSH28 0xFFFFFFFFFFFFFFFFFFFFFFFFFFFFFFFFFFFFFFFFFFFFFFFFFFFFFFFF DUP4 DUP2 DUP4 AND OR DUP4 MSTORE POP POP POP POP PUSH2 0x19D5 JUMP JUMPDEST POP POP POP POP JUMP JUMPDEST PUSH0 PUSH20 0xFFFFFFFFFFFFFFFFFFFFFFFFFFFFFFFFFFFFFFFF AND DUP3 PUSH20 0xFFFFFFFFFFFFFFFFFFFFFFFFFFFFFFFFFFFFFFFF AND SUB PUSH2 0x19C6 JUMPI PUSH0 PUSH1 0x40 MLOAD PUSH32 0xEC442F0500000000000000000000000000000000000000000000000000000000 DUP2 MSTORE PUSH1 0x4 ADD PUSH2 0x19BD SWAP2 SWAP1 PUSH2 0x1F10 JUMP JUMPDEST PUSH1 0x40 MLOAD DUP1 SWAP2 SUB SWAP1 REVERT JUMPDEST PUSH2 0x19D1 PUSH0 DUP4 DUP4 PUSH2 0x1348 JUMP JUMPDEST POP POP JUMP JUMPDEST PUSH0 PUSH2 0x19FF DUP3 DUP5 PUSH20 0xFFFFFFFFFFFFFFFFFFFFFFFFFFFFFFFFFFFFFFFF AND PUSH2 0x1AE9 SWAP1 SWAP2 SWAP1 PUSH4 0xFFFFFFFF AND JUMP JUMPDEST SWAP1 POP PUSH0 DUP2 MLOAD EQ ISZERO DUP1 ISZERO PUSH2 0x1A23 JUMPI POP DUP1 DUP1 PUSH1 0x20 ADD SWAP1 MLOAD DUP2 ADD SWAP1 PUSH2 0x1A21 SWAP2 SWAP1 PUSH2 0x24A1 JUMP JUMPDEST ISZERO JUMPDEST ISZERO PUSH2 0x1A65 JUMPI DUP3 PUSH1 0x40 MLOAD PUSH32 0x5274AFE700000000000000000000000000000000000000000000000000000000 DUP2 MSTORE PUSH1 0x4 ADD PUSH2 0x1A5C SWAP2 SWAP1 PUSH2 0x1F10 JUMP JUMPDEST PUSH1 0x40 MLOAD DUP1 SWAP2 SUB SWAP1 REVERT JUMPDEST POP POP POP JUMP JUMPDEST PUSH0 PUSH20 0xFFFFFFFFFFFFFFFFFFFFFFFFFFFFFFFFFFFFFFFF AND DUP3 PUSH20 0xFFFFFFFFFFFFFFFFFFFFFFFFFFFFFFFFFFFFFFFF AND SUB PUSH2 0x1ADA JUMPI PUSH0 PUSH1 0x40 MLOAD PUSH32 0x96C6FD1E00000000000000000000000000000000000000000000000000000000 DUP2 MSTORE PUSH1 0x4 ADD PUSH2 0x1AD1 SWAP2 SWAP1 PUSH2 0x1F10 JUMP JUMPDEST PUSH1 0x40 MLOAD DUP1 SWAP2 SUB SWAP1 REVERT JUMPDEST PUSH2 0x1AE5 DUP3 PUSH0 DUP4 PUSH2 0x1348 JUMP JUMPDEST POP POP JUMP JUMPDEST PUSH1 0x60 PUSH2 0x1AF6 DUP4 DUP4 PUSH0 PUSH2 0x1AFE JUMP JUMPDEST SWAP1 POP SWAP3 SWAP2 POP POP JUMP JUMPDEST PUSH1 0x60 DUP2 SELFBALANCE LT ISZERO PUSH2 0x1B45 JUMPI ADDRESS PUSH1 0x40 MLOAD PUSH32 0xCD78605900000000000000000000000000000000000000000000000000000000 DUP2 MSTORE PUSH1 0x4 ADD PUSH2 0x1B3C SWAP2 SWAP1 PUSH2 0x1F10 JUMP JUMPDEST PUSH1 0x40 MLOAD DUP1 SWAP2 SUB SWAP1 REVERT JUMPDEST PUSH0 DUP1 DUP6 PUSH20 0xFFFFFFFFFFFFFFFFFFFFFFFFFFFFFFFFFFFFFFFF AND DUP5 DUP7 PUSH1 0x40 MLOAD PUSH2 0x1B6D SWAP2 SWAP1 PUSH2 0x2510 JUMP JUMPDEST PUSH0 PUSH1 0x40 MLOAD DUP1 DUP4 SUB DUP2 DUP6 DUP8 GAS CALL SWAP3 POP POP POP RETURNDATASIZE DUP1 PUSH0 DUP2 EQ PUSH2 0x1BA7 JUMPI PUSH1 0x40 MLOAD SWAP2 POP PUSH1 0x1F NOT PUSH1 0x3F RETURNDATASIZE ADD AND DUP3 ADD PUSH1 0x40 MSTORE RETURNDATASIZE DUP3 MSTORE RETURNDATASIZE PUSH0 PUSH1 0x20 DUP5 ADD RETURNDATACOPY PUSH2 0x1BAC JUMP JUMPDEST PUSH1 0x60 SWAP2 POP JUMPDEST POP SWAP2 POP SWAP2 POP PUSH2 0x1BBC DUP7 DUP4 DUP4 PUSH2 0x1BC7 JUMP JUMPDEST SWAP3 POP POP POP SWAP4 SWAP3 POP POP POP JUMP JUMPDEST PUSH1 0x60 DUP3 PUSH2 0x1BDC JUMPI PUSH2 0x1BD7 DUP3 PUSH2 0x1C54 JUMP JUMPDEST PUSH2 0x1C4C JUMP JUMPDEST PUSH0 DUP3 MLOAD EQ DUP1 ISZERO PUSH2 0x1C02 JUMPI POP PUSH0 DUP5 PUSH20 0xFFFFFFFFFFFFFFFFFFFFFFFFFFFFFFFFFFFFFFFF AND EXTCODESIZE EQ JUMPDEST ISZERO PUSH2 0x1C44 JUMPI DUP4 PUSH1 0x40 MLOAD PUSH32 0x9996B31500000000000000000000000000000000000000000000000000000000 DUP2 MSTORE PUSH1 0x4 ADD PUSH2 0x1C3B SWAP2 SWAP1 PUSH2 0x1F10 JUMP JUMPDEST PUSH1 0x40 MLOAD DUP1 SWAP2 SUB SWAP1 REVERT JUMPDEST DUP2 SWAP1 POP PUSH2 0x1C4D JUMP JUMPDEST JUMPDEST SWAP4 SWAP3 POP POP POP JUMP JUMPDEST PUSH0 DUP2 MLOAD GT ISZERO PUSH2 0x1C66 JUMPI DUP1 MLOAD DUP1 DUP3 PUSH1 0x20 ADD REVERT JUMPDEST PUSH1 0x40 MLOAD PUSH32 0x1425EA4200000000000000000000000000000000000000000000000000000000 DUP2 MSTORE PUSH1 0x4 ADD PUSH1 0x40 MLOAD DUP1 SWAP2 SUB SWAP1 REVERT JUMPDEST PUSH0 DUP2 SWAP1 POP SWAP2 SWAP1 POP JUMP JUMPDEST PUSH2 0x1CAA DUP2 PUSH2 0x1C98 JUMP JUMPDEST DUP3 MSTORE POP POP JUMP JUMPDEST PUSH0 PUSH1 0x20 DUP3 ADD SWAP1 POP PUSH2 0x1CC3 PUSH0 DUP4 ADD DUP5 PUSH2 0x1CA1 JUMP JUMPDEST SWAP3 SWAP2 POP POP JUMP JUMPDEST PUSH0 DUP2 MLOAD SWAP1 POP SWAP2 SWAP1 POP JUMP JUMPDEST PUSH0 DUP3 DUP3 MSTORE PUSH1 0x20 DUP3 ADD SWAP1 POP SWAP3 SWAP2 POP POP JUMP JUMPDEST DUP3 DUP2 DUP4 MCOPY PUSH0 DUP4 DUP4 ADD MSTORE POP POP POP JUMP JUMPDEST PUSH0 PUSH1 0x1F NOT PUSH1 0x1F DUP4 ADD AND SWAP1 POP SWAP2 SWAP1 POP JUMP JUMPDEST PUSH0 PUSH2 0x1D0B DUP3 PUSH2 0x1CC9 JUMP JUMPDEST PUSH2 0x1D15 DUP2 DUP6 PUSH2 0x1CD3 JUMP JUMPDEST SWAP4 POP PUSH2 0x1D25 DUP2 DUP6 PUSH1 0x20 DUP7 ADD PUSH2 0x1CE3 JUMP JUMPDEST PUSH2 0x1D2E DUP2 PUSH2 0x1CF1 JUMP JUMPDEST DUP5 ADD SWAP2 POP POP SWAP3 SWAP2 POP POP JUMP JUMPDEST PUSH0 PUSH1 0x20 DUP3 ADD SWAP1 POP DUP2 DUP2 SUB PUSH0 DUP4 ADD MSTORE PUSH2 0x1D51 DUP2 DUP5 PUSH2 0x1D01 JUMP JUMPDEST SWAP1 POP SWAP3 SWAP2 POP POP JUMP JUMPDEST PUSH0 DUP1 REVERT JUMPDEST PUSH2 0x1D66 DUP2 PUSH2 0x1C98 JUMP JUMPDEST DUP2 EQ PUSH2 0x1D70 JUMPI PUSH0 DUP1 REVERT JUMPDEST POP JUMP JUMPDEST PUSH0 DUP2 CALLDATALOAD SWAP1 POP PUSH2 0x1D81 DUP2 PUSH2 0x1D5D JUMP JUMPDEST SWAP3 SWAP2 POP POP JUMP JUMPDEST PUSH0 PUSH1 0x20 DUP3 DUP5 SUB SLT ISZERO PUSH2 0x1D9C JUMPI PUSH2 0x1D9B PUSH2 0x1D59 JUMP JUMPDEST JUMPDEST PUSH0 PUSH2 0x1DA9 DUP5 DUP3 DUP6 ADD PUSH2 0x1D73 JUMP JUMPDEST SWAP2 POP POP SWAP3 SWAP2 POP POP JUMP JUMPDEST PUSH0 PUSH20 0xFFFFFFFFFFFFFFFFFFFFFFFFFFFFFFFFFFFFFFFF DUP3 AND SWAP1 POP SWAP2 SWAP1 POP JUMP JUMPDEST PUSH0 PUSH2 0x1DDB DUP3 PUSH2 0x1DB2 JUMP JUMPDEST SWAP1 POP SWAP2 SWAP1 POP JUMP JUMPDEST PUSH2 0x1DEB DUP2 PUSH2 0x1DD1 JUMP JUMPDEST DUP2 EQ PUSH2 0x1DF5 JUMPI PUSH0 DUP1 REVERT JUMPDEST POP JUMP JUMPDEST PUSH0 DUP2 CALLDATALOAD SWAP1 POP PUSH2 0x1E06 DUP2 PUSH2 0x1DE2 JUMP JUMPDEST SWAP3 SWAP2 POP POP JUMP JUMPDEST PUSH0 DUP1 PUSH1 0x40 DUP4 DUP6 SUB SLT ISZERO PUSH2 0x1E22 JUMPI PUSH2 0x1E21 PUSH2 0x1D59 JUMP JUMPDEST JUMPDEST PUSH0 PUSH2 0x1E2F DUP6 DUP3 DUP7 ADD PUSH2 0x1DF8 JUMP JUMPDEST SWAP3 POP POP PUSH1 0x20 PUSH2 0x1E40 DUP6 DUP3 DUP7 ADD PUSH2 0x1D73 JUMP JUMPDEST SWAP2 POP POP SWAP3 POP SWAP3 SWAP1 POP JUMP JUMPDEST PUSH0 DUP2 ISZERO ISZERO SWAP1 POP SWAP2 SWAP1 POP JUMP JUMPDEST PUSH2 0x1E5E DUP2 PUSH2 0x1E4A JUMP JUMPDEST DUP3 MSTORE POP POP JUMP JUMPDEST PUSH0 PUSH1 0x20 DUP3 ADD SWAP1 POP PUSH2 0x1E77 PUSH0 DUP4 ADD DUP5 PUSH2 0x1E55 JUMP JUMPDEST SWAP3 SWAP2 POP POP JUMP JUMPDEST PUSH0 DUP1 PUSH0 PUSH1 0x60 DUP5 DUP7 SUB SLT ISZERO PUSH2 0x1E94 JUMPI PUSH2 0x1E93 PUSH2 0x1D59 JUMP JUMPDEST JUMPDEST PUSH0 PUSH2 0x1EA1 DUP7 DUP3 DUP8 ADD PUSH2 0x1DF8 JUMP JUMPDEST SWAP4 POP POP PUSH1 0x20 PUSH2 0x1EB2 DUP7 DUP3 DUP8 ADD PUSH2 0x1DF8 JUMP JUMPDEST SWAP3 POP POP PUSH1 0x40 PUSH2 0x1EC3 DUP7 DUP3 DUP8 ADD PUSH2 0x1D73 JUMP JUMPDEST SWAP2 POP POP SWAP3 POP SWAP3 POP SWAP3 JUMP JUMPDEST PUSH0 PUSH1 0xFF DUP3 AND SWAP1 POP SWAP2 SWAP1 POP JUMP JUMPDEST PUSH2 0x1EE2 DUP2 PUSH2 0x1ECD JUMP JUMPDEST DUP3 MSTORE POP POP JUMP JUMPDEST PUSH0 PUSH1 0x20 DUP3 ADD SWAP1 POP PUSH2 0x1EFB PUSH0 DUP4 ADD DUP5 PUSH2 0x1ED9 JUMP JUMPDEST SWAP3 SWAP2 POP POP JUMP JUMPDEST PUSH2 0x1F0A DUP2 PUSH2 0x1DD1 JUMP JUMPDEST DUP3 MSTORE POP POP JUMP JUMPDEST PUSH0 PUSH1 0x20 DUP3 ADD SWAP1 POP PUSH2 0x1F23 PUSH0 DUP4 ADD DUP5 PUSH2 0x1F01 JUMP JUMPDEST SWAP3 SWAP2 POP POP JUMP JUMPDEST PUSH0 PUSH1 0x20 DUP3 DUP5 SUB SLT ISZERO PUSH2 0x1F3E JUMPI PUSH2 0x1F3D PUSH2 0x1D59 JUMP JUMPDEST JUMPDEST PUSH0 PUSH2 0x1F4B DUP5 DUP3 DUP6 ADD PUSH2 0x1DF8 JUMP JUMPDEST SWAP2 POP POP SWAP3 SWAP2 POP POP JUMP JUMPDEST PUSH0 DUP1 PUSH1 0x40 DUP4 DUP6 SUB SLT ISZERO PUSH2 0x1F6A JUMPI PUSH2 0x1F69 PUSH2 0x1D59 JUMP JUMPDEST JUMPDEST PUSH0 PUSH2 0x1F77 DUP6 DUP3 DUP7 ADD PUSH2 0x1D73 JUMP JUMPDEST SWAP3 POP POP PUSH1 0x20 PUSH2 0x1F88 DUP6 DUP3 DUP7 ADD PUSH2 0x1DF8 JUMP JUMPDEST SWAP2 POP POP SWAP3 POP SWAP3 SWAP1 POP JUMP JUMPDEST PUSH0 PUSH2 0x1F9C DUP3 PUSH2 0x1DB2 JUMP JUMPDEST SWAP1 POP SWAP2 SWAP1 POP JUMP JUMPDEST PUSH2 0x1FAC DUP2 PUSH2 0x1F92 JUMP JUMPDEST DUP3 MSTORE POP POP JUMP JUMPDEST PUSH0 PUSH1 0x20 DUP3 ADD SWAP1 POP PUSH2 0x1FC5 PUSH0 DUP4 ADD DUP5 PUSH2 0x1FA3 JUMP JUMPDEST SWAP3 SWAP2 POP POP JUMP JUMPDEST PUSH0 DUP1 PUSH0 PUSH1 0x60 DUP5 DUP7 SUB SLT ISZERO PUSH2 0x1FE2 JUMPI PUSH2 0x1FE1 PUSH2 0x1D59 JUMP JUMPDEST JUMPDEST PUSH0 PUSH2 0x1FEF DUP7 DUP3 DUP8 ADD PUSH2 0x1D73 JUMP JUMPDEST SWAP4 POP POP PUSH1 0x20 PUSH2 0x2000 DUP7 DUP3 DUP8 ADD PUSH2 0x1DF8 JUMP JUMPDEST SWAP3 POP POP PUSH1 0x40 PUSH2 0x2011 DUP7 DUP3 DUP8 ADD PUSH2 0x1DF8 JUMP JUMPDEST SWAP2 POP POP SWAP3 POP SWAP3 POP SWAP3 JUMP JUMPDEST PUSH0 DUP1 PUSH1 0x40 DUP4 DUP6 SUB SLT ISZERO PUSH2 0x2031 JUMPI PUSH2 0x2030 PUSH2 0x1D59 JUMP JUMPDEST JUMPDEST PUSH0 PUSH2 0x203E DUP6 DUP3 DUP7 ADD PUSH2 0x1DF8 JUMP JUMPDEST SWAP3 POP POP PUSH1 0x20 PUSH2 0x204F DUP6 DUP3 DUP7 ADD PUSH2 0x1DF8 JUMP JUMPDEST SWAP2 POP POP SWAP3 POP SWAP3 SWAP1 POP JUMP JUMPDEST PUSH0 DUP2 MLOAD SWAP1 POP PUSH2 0x2067 DUP2 PUSH2 0x1D5D JUMP JUMPDEST SWAP3 SWAP2 POP POP JUMP JUMPDEST PUSH0 PUSH1 0x20 DUP3 DUP5 SUB SLT ISZERO PUSH2 0x2082 JUMPI PUSH2 0x2081 PUSH2 0x1D59 JUMP JUMPDEST JUMPDEST PUSH0 PUSH2 0x208F DUP5 DUP3 DUP6 ADD PUSH2 0x2059 JUMP JUMPDEST SWAP2 POP POP SWAP3 SWAP2 POP POP JUMP JUMPDEST PUSH32 0x4E487B7100000000000000000000000000000000000000000000000000000000 PUSH0 MSTORE PUSH1 0x22 PUSH1 0x4 MSTORE PUSH1 0x24 PUSH0 REVERT JUMPDEST PUSH0 PUSH1 0x2 DUP3 DIV SWAP1 POP PUSH1 0x1 DUP3 AND DUP1 PUSH2 0x20DC JUMPI PUSH1 0x7F DUP3 AND SWAP2 POP JUMPDEST PUSH1 0x20 DUP3 LT DUP2 SUB PUSH2 0x20EF JUMPI PUSH2 0x20EE PUSH2 0x2098 JUMP JUMPDEST JUMPDEST POP SWAP2 SWAP1 POP JUMP JUMPDEST PUSH32 0x4E487B7100000000000000000000000000000000000000000000000000000000 PUSH0 MSTORE PUSH1 0x11 PUSH1 0x4 MSTORE PUSH1 0x24 PUSH0 REVERT JUMPDEST PUSH0 PUSH2 0x212C DUP3 PUSH2 0x1C98 JUMP JUMPDEST SWAP2 POP PUSH2 0x2137 DUP4 PUSH2 0x1C98 JUMP JUMPDEST SWAP3 POP DUP3 DUP3 ADD SWAP1 POP DUP1 DUP3 GT ISZERO PUSH2 0x214F JUMPI PUSH2 0x214E PUSH2 0x20F5 JUMP JUMPDEST JUMPDEST SWAP3 SWAP2 POP POP JUMP JUMPDEST PUSH0 PUSH2 0x215F DUP3 PUSH2 0x1ECD JUMP JUMPDEST SWAP2 POP PUSH2 0x216A DUP4 PUSH2 0x1ECD JUMP JUMPDEST SWAP3 POP DUP3 DUP3 ADD SWAP1 POP PUSH1 0xFF DUP2 GT ISZERO PUSH2 0x2183 JUMPI PUSH2 0x2182 PUSH2 0x20F5 JUMP JUMPDEST JUMPDEST SWAP3 SWAP2 POP POP JUMP JUMPDEST PUSH0 PUSH2 0x2193 DUP3 PUSH2 0x1C98 JUMP JUMPDEST SWAP2 POP PUSH2 0x219E DUP4 PUSH2 0x1C98 JUMP JUMPDEST SWAP3 POP DUP3 DUP3 SUB SWAP1 POP DUP2 DUP2 GT ISZERO PUSH2 0x21B6 JUMPI PUSH2 0x21B5 PUSH2 0x20F5 JUMP JUMPDEST JUMPDEST SWAP3 SWAP2 POP POP JUMP JUMPDEST PUSH0 PUSH1 0x60 DUP3 ADD SWAP1 POP PUSH2 0x21CF PUSH0 DUP4 ADD DUP7 PUSH2 0x1F01 JUMP JUMPDEST PUSH2 0x21DC PUSH1 0x20 DUP4 ADD DUP6 PUSH2 0x1CA1 JUMP JUMPDEST PUSH2 0x21E9 PUSH1 0x40 DUP4 ADD DUP5 PUSH2 0x1CA1 JUMP JUMPDEST SWAP5 SWAP4 POP POP POP POP JUMP JUMPDEST PUSH0 DUP2 PUSH1 0x1 SHR SWAP1 POP SWAP2 SWAP1 POP JUMP JUMPDEST PUSH0 DUP1 DUP3 SWAP2 POP DUP4 SWAP1 POP JUMPDEST PUSH1 0x1 DUP6 GT ISZERO PUSH2 0x2246 JUMPI DUP1 DUP7 DIV DUP2 GT ISZERO PUSH2 0x2222 JUMPI PUSH2 0x2221 PUSH2 0x20F5 JUMP JUMPDEST JUMPDEST PUSH1 0x1 DUP6 AND ISZERO PUSH2 0x2231 JUMPI DUP1 DUP3 MUL SWAP2 POP JUMPDEST DUP1 DUP2 MUL SWAP1 POP PUSH2 0x223F DUP6 PUSH2 0x21F1 JUMP JUMPDEST SWAP5 POP PUSH2 0x2206 JUMP JUMPDEST SWAP5 POP SWAP5 SWAP3 POP POP POP JUMP JUMPDEST PUSH0 DUP3 PUSH2 0x225E JUMPI PUSH1 0x1 SWAP1 POP PUSH2 0x2319 JUMP JUMPDEST DUP2 PUSH2 0x226B JUMPI PUSH0 SWAP1 POP PUSH2 0x2319 JUMP JUMPDEST DUP2 PUSH1 0x1 DUP2 EQ PUSH2 0x2281 JUMPI PUSH1 0x2 DUP2 EQ PUSH2 0x228B JUMPI PUSH2 0x22BA JUMP JUMPDEST PUSH1 0x1 SWAP2 POP POP PUSH2 0x2319 JUMP JUMPDEST PUSH1 0xFF DUP5 GT ISZERO PUSH2 0x229D JUMPI PUSH2 0x229C PUSH2 0x20F5 JUMP JUMPDEST JUMPDEST DUP4 PUSH1 0x2 EXP SWAP2 POP DUP5 DUP3 GT ISZERO PUSH2 0x22B4 JUMPI PUSH2 0x22B3 PUSH2 0x20F5 JUMP JUMPDEST JUMPDEST POP PUSH2 0x2319 JUMP JUMPDEST POP PUSH1 0x20 DUP4 LT PUSH2 0x133 DUP4 LT AND PUSH1 0x4E DUP5 LT PUSH1 0xB DUP5 LT AND OR ISZERO PUSH2 0x22EF JUMPI DUP3 DUP3 EXP SWAP1 POP DUP4 DUP2 GT ISZERO PUSH2 0x22EA JUMPI PUSH2 0x22E9 PUSH2 0x20F5 JUMP JUMPDEST JUMPDEST PUSH2 0x2319 JUMP JUMPDEST PUSH2 0x22FC DUP5 DUP5 DUP5 PUSH1 0x1 PUSH2 0x21FD JUMP JUMPDEST SWAP3 POP SWAP1 POP DUP2 DUP5 DIV DUP2 GT ISZERO PUSH2 0x2313 JUMPI PUSH2 0x2312 PUSH2 0x20F5 JUMP JUMPDEST JUMPDEST DUP2 DUP2 MUL SWAP1 POP JUMPDEST SWAP4 SWAP3 POP POP POP JUMP JUMPDEST PUSH0 PUSH2 0x232A DUP3 PUSH2 0x1C98 JUMP JUMPDEST SWAP2 POP PUSH2 0x2335 DUP4 PUSH2 0x1ECD JUMP JUMPDEST SWAP3 POP PUSH2 0x2362 PUSH32 0xFFFFFFFFFFFFFFFFFFFFFFFFFFFFFFFFFFFFFFFFFFFFFFFFFFFFFFFFFFFFFFFF DUP5 DUP5 PUSH2 0x224F JUMP JUMPDEST SWAP1 POP SWAP3 SWAP2 POP POP JUMP JUMPDEST PUSH32 0x4E487B7100000000000000000000000000000000000000000000000000000000 PUSH0 MSTORE PUSH1 0x12 PUSH1 0x4 MSTORE PUSH1 0x24 PUSH0 REVERT JUMPDEST PUSH0 PUSH1 0x40 DUP3 ADD SWAP1 POP PUSH2 0x23AA PUSH0 DUP4 ADD DUP6 PUSH2 0x1CA1 JUMP JUMPDEST PUSH2 0x23B7 PUSH1 0x20 DUP4 ADD DUP5 PUSH2 0x1CA1 JUMP JUMPDEST SWAP4 SWAP3 POP POP POP JUMP JUMPDEST PUSH0 PUSH1 0x40 DUP3 ADD SWAP1 POP PUSH2 0x23D1 PUSH0 DUP4 ADD DUP6 PUSH2 0x1F01 JUMP JUMPDEST PUSH2 0x23DE PUSH1 0x20 DUP4 ADD DUP5 PUSH2 0x1CA1 JUMP JUMPDEST SWAP4 SWAP3 POP POP POP JUMP JUMPDEST PUSH32 0x4E487B7100000000000000000000000000000000000000000000000000000000 PUSH0 MSTORE PUSH1 0x21 PUSH1 0x4 MSTORE PUSH1 0x24 PUSH0 REVERT JUMPDEST PUSH0 PUSH2 0x241C DUP3 PUSH2 0x1ECD JUMP JUMPDEST SWAP2 POP PUSH2 0x2427 DUP4 PUSH2 0x1ECD JUMP JUMPDEST SWAP3 POP DUP3 PUSH2 0x2437 JUMPI PUSH2 0x2436 PUSH2 0x236A JUMP JUMPDEST JUMPDEST DUP3 DUP3 MOD SWAP1 POP SWAP3 SWAP2 POP POP JUMP JUMPDEST PUSH0 PUSH1 0x60 DUP3 ADD SWAP1 POP PUSH2 0x2455 PUSH0 DUP4 ADD DUP7 PUSH2 0x1F01 JUMP JUMPDEST PUSH2 0x2462 PUSH1 0x20 DUP4 ADD DUP6 PUSH2 0x1F01 JUMP JUMPDEST PUSH2 0x246F PUSH1 0x40 DUP4 ADD DUP5 PUSH2 0x1CA1 JUMP JUMPDEST SWAP5 SWAP4 POP POP POP POP JUMP JUMPDEST PUSH2 0x2480 DUP2 PUSH2 0x1E4A JUMP JUMPDEST DUP2 EQ PUSH2 0x248A JUMPI PUSH0 DUP1 REVERT JUMPDEST POP JUMP JUMPDEST PUSH0 DUP2 MLOAD SWAP1 POP PUSH2 0x249B DUP2 PUSH2 0x2477 JUMP JUMPDEST SWAP3 SWAP2 POP POP JUMP JUMPDEST PUSH0 PUSH1 0x20 DUP3 DUP5 SUB SLT ISZERO PUSH2 0x24B6 JUMPI PUSH2 0x24B5 PUSH2 0x1D59 JUMP JUMPDEST JUMPDEST PUSH0 PUSH2 0x24C3 DUP5 DUP3 DUP6 ADD PUSH2 0x248D JUMP JUMPDEST SWAP2 POP POP SWAP3 SWAP2 POP POP JUMP JUMPDEST PUSH0 DUP2 MLOAD SWAP1 POP SWAP2 SWAP1 POP JUMP JUMPDEST PUSH0 DUP2 SWAP1 POP SWAP3 SWAP2 POP POP JUMP JUMPDEST PUSH0 PUSH2 0x24EA DUP3 PUSH2 0x24CC JUMP JUMPDEST PUSH2 0x24F4 DUP2 DUP6 PUSH2 0x24D6 JUMP JUMPDEST SWAP4 POP PUSH2 0x2504 DUP2 DUP6 PUSH1 0x20 DUP7 ADD PUSH2 0x1CE3 JUMP JUMPDEST DUP1 DUP5 ADD SWAP2 POP POP SWAP3 SWAP2 POP POP JUMP JUMPDEST PUSH0 PUSH2 0x251B DUP3 DUP5 PUSH2 0x24E0 JUMP JUMPDEST SWAP2 POP DUP2 SWAP1 POP SWAP3 SWAP2 POP POP JUMP INVALID LOG2 PUSH5 0x6970667358 0x22 SLT KECCAK256 0xC7 CALLER 0xF6 0xCB DUP4 SWAP4 BALANCE CALLER 0xAF 0xE6 LOG4 0xD4 0x2C SWAP13 0xDC BYTE CREATE2 SWAP7 0xC0 PUSH24 0x301B34C416913646670960B464736F6C6343000819003300 "
				},
				"gasEstimates": {
					"creation": {
						"codeDepositCost": "1912800",
						"executionCost": "infinite",
						"totalCost": "infinite"
					},
					"external": {
						"allowance(address,address)": "infinite",
						"approve(address,uint256)": "infinite",
						"asset()": "infinite",
						"balanceOf(address)": "2940",
						"convertToAssets(uint256)": "infinite",
						"convertToShares(uint256)": "infinite",
						"decimals()": "infinite",
						"deposit(uint256,address)": "infinite",
						"entryFeeBasisPoints()": "2470",
						"maxDeposit(address)": "686",
						"maxMint(address)": "708",
						"maxRedeem(address)": "2937",
						"maxWithdraw(address)": "infinite",
						"mint(uint256,address)": "infinite",
						"name()": "infinite",
						"owner()": "2554",
						"previewDeposit(uint256)": "infinite",
						"previewMint(uint256)": "infinite",
						"previewRedeem(uint256)": "infinite",
						"previewWithdraw(uint256)": "infinite",
						"redeem(uint256,address,address)": "infinite",
						"symbol()": "infinite",
						"totalAssets()": "infinite",
						"totalSupply()": "2566",
						"transfer(address,uint256)": "infinite",
						"transferFrom(address,address,uint256)": "infinite",
						"withdraw(uint256,address,address)": "infinite"
					},
					"internal": {
						"_entryFeeBasisPoints()": "2122",
						"_entryFeeRecipient()": "2157"
					}
				},
				"methodIdentifiers": {
					"allowance(address,address)": "dd62ed3e",
					"approve(address,uint256)": "095ea7b3",
					"asset()": "38d52e0f",
					"balanceOf(address)": "70a08231",
					"convertToAssets(uint256)": "07a2d13a",
					"convertToShares(uint256)": "c6e6f592",
					"decimals()": "313ce567",
					"deposit(uint256,address)": "6e553f65",
					"entryFeeBasisPoints()": "ba0af7a9",
					"maxDeposit(address)": "402d267d",
					"maxMint(address)": "c63d75b6",
					"maxRedeem(address)": "d905777e",
					"maxWithdraw(address)": "ce96cb77",
					"mint(uint256,address)": "94bf804d",
					"name()": "06fdde03",
					"owner()": "8da5cb5b",
					"previewDeposit(uint256)": "ef8b30f7",
					"previewMint(uint256)": "b3d7f6b9",
					"previewRedeem(uint256)": "4cdad506",
					"previewWithdraw(uint256)": "0a28a477",
					"redeem(uint256,address,address)": "ba087652",
					"symbol()": "95d89b41",
					"totalAssets()": "01e1d114",
					"totalSupply()": "18160ddd",
					"transfer(address,uint256)": "a9059cbb",
					"transferFrom(address,address,uint256)": "23b872dd",
					"withdraw(uint256,address,address)": "b460af94"
				}
			},
			"storageLayout": {
				"storage": [
					{
						"astId": 650,
						"contract": "src/Vaults.sol:Vaults",
						"label": "_balances",
						"offset": 0,
						"slot": "0",
						"type": "t_mapping(t_address,t_uint256)"
					},
					{
						"astId": 656,
						"contract": "src/Vaults.sol:Vaults",
						"label": "_allowances",
						"offset": 0,
						"slot": "1",
						"type": "t_mapping(t_address,t_mapping(t_address,t_uint256))"
					},
					{
						"astId": 658,
						"contract": "src/Vaults.sol:Vaults",
						"label": "_totalSupply",
						"offset": 0,
						"slot": "2",
						"type": "t_uint256"
					},
					{
						"astId": 660,
						"contract": "src/Vaults.sol:Vaults",
						"label": "_name",
						"offset": 0,
						"slot": "3",
						"type": "t_string_storage"
					},
					{
						"astId": 662,
						"contract": "src/Vaults.sol:Vaults",
						"label": "_symbol",
						"offset": 0,
						"slot": "4",
						"type": "t_string_storage"
					},
					{
						"astId": 3602,
						"contract": "src/Vaults.sol:Vaults",
						"label": "owner",
						"offset": 0,
						"slot": "5",
						"type": "t_address_payable"
					},
					{
						"astId": 3604,
						"contract": "src/Vaults.sol:Vaults",
						"label": "entryFeeBasisPoints",
						"offset": 0,
						"slot": "6",
						"type": "t_uint256"
					}
				],
				"types": {
					"t_address": {
						"encoding": "inplace",
						"label": "address",
						"numberOfBytes": "20"
					},
					"t_address_payable": {
						"encoding": "inplace",
						"label": "address payable",
						"numberOfBytes": "20"
					},
					"t_mapping(t_address,t_mapping(t_address,t_uint256))": {
						"encoding": "mapping",
						"key": "t_address",
						"label": "mapping(address => mapping(address => uint256))",
						"numberOfBytes": "32",
						"value": "t_mapping(t_address,t_uint256)"
					},
					"t_mapping(t_address,t_uint256)": {
						"encoding": "mapping",
						"key": "t_address",
						"label": "mapping(address => uint256)",
						"numberOfBytes": "32",
						"value": "t_uint256"
					},
					"t_string_storage": {
						"encoding": "bytes",
						"label": "string",
						"numberOfBytes": "32"
					},
					"t_uint256": {
						"encoding": "inplace",
						"label": "uint256",
						"numberOfBytes": "32"
					}
				}
			},
			"userdoc": {
				"kind": "user",
				"methods": {},
				"version": 1
			}
		}
	}
}